{
	"data": {
		"bytecode": {
			"linkReferences": {},
			"object": "608060405234801561000f575f80fd5b50604051611bba380380611bba833981810160405281019061003191906100d5565b8060015f6101000a81548173ffffffffffffffffffffffffffffffffffffffff021916908373ffffffffffffffffffffffffffffffffffffffff16021790555050610100565b5f80fd5b5f73ffffffffffffffffffffffffffffffffffffffff82169050919050565b5f6100a48261007b565b9050919050565b6100b48161009a565b81146100be575f80fd5b50565b5f815190506100cf816100ab565b92915050565b5f602082840312156100ea576100e9610077565b5b5f6100f7848285016100c1565b91505092915050565b611aad8061010d5f395ff3fe60806040526004361061007e575f3560e01c8063c50d73f61161004d578063c50d73f61461015b578063c738b56314610177578063f25797c6146101a1578063fc735e99146101dd57610085565b80631a65261c146100895780634a7ba3e5146100b357806350dd73be146100f5578063b698d6a11461011f57610085565b3661008557005b5f80fd5b348015610094575f80fd5b5061009d610207565b6040516100aa9190610d61565b60405180910390f35b3480156100be575f80fd5b506100d960048036038101906100d49190610ebe565b6103d3565b6040516100ec9796959493929190610f44565b60405180910390f35b348015610100575f80fd5b5061010961076c565b6040516101169190610ffb565b60405180910390f35b34801561012a575f80fd5b5061014560048036038101906101409190611047565b610791565b6040516101529190610d61565b60405180910390f35b610175600480360381019061017091906110cf565b610837565b005b348015610182575f80fd5b5061018b610ba2565b6040516101989190610d61565b60405180910390f35b3480156101ac575f80fd5b506101c760048036038101906101c29190610ebe565b610bc2565b6040516101d49190610d61565b60405180910390f35b3480156101e8575f80fd5b506101f1610cb4565b6040516101fe9190610d61565b60405180910390f35b60605f60405180602001604052805f81525090505f5b6002805490508110156103cb575f6002828154811061023f5761023e6111e6565b5b905f5260205f2001805461025290611240565b80601f016020809104026020016040519081016040528092919081815260200182805461027e90611240565b80156102c95780601f106102a0576101008083540402835291602001916102c9565b820191905f5260205f20905b8154815290600101906020018083116102ac57829003601f168201915b50505050509050826003826040516102e191906112aa565b90815260200160405180910390205f0160038360405161030191906112aa565b908152602001604051809103902060020160038460405161032291906112aa565b908152602001604051809103902060030160038560405161034391906112aa565b908152602001604051809103902060040160038660405161036491906112aa565b908152602001604051809103902060050160038760405161038591906112aa565b90815260200160405180910390206006016040516020016103ac979695949392919061145c565b604051602081830303815290604052925050808060010191505061021d565b508091505090565b6003818051602081018201805184825260208301602085012081835280955050505050505f91509050805f01805461040a90611240565b80601f016020809104026020016040519081016040528092919081815260200182805461043690611240565b80156104815780601f1061045857610100808354040283529160200191610481565b820191905f5260205f20905b81548152906001019060200180831161046457829003601f168201915b505050505090806001015f9054906101000a900473ffffffffffffffffffffffffffffffffffffffff16908060020180546104bb90611240565b80601f01602080910402602001604051908101604052809291908181526020018280546104e790611240565b80156105325780601f1061050957610100808354040283529160200191610532565b820191905f5260205f20905b81548152906001019060200180831161051557829003601f168201915b50505050509080600301805461054790611240565b80601f016020809104026020016040519081016040528092919081815260200182805461057390611240565b80156105be5780601f10610595576101008083540402835291602001916105be565b820191905f5260205f20905b8154815290600101906020018083116105a157829003601f168201915b5050505050908060040180546105d390611240565b80601f01602080910402602001604051908101604052809291908181526020018280546105ff90611240565b801561064a5780601f106106215761010080835404028352916020019161064a565b820191905f5260205f20905b81548152906001019060200180831161062d57829003601f168201915b50505050509080600501805461065f90611240565b80601f016020809104026020016040519081016040528092919081815260200182805461068b90611240565b80156106d65780601f106106ad576101008083540402835291602001916106d6565b820191905f5260205f20905b8154815290600101906020018083116106b957829003601f168201915b5050505050908060060180546106eb90611240565b80601f016020809104026020016040519081016040528092919081815260200182805461071790611240565b80156107625780601f1061073957610100808354040283529160200191610762565b820191905f5260205f20905b81548152906001019060200180831161074557829003601f168201915b5050505050905087565b60015f9054906101000a900473ffffffffffffffffffffffffffffffffffffffff1681565b600281815481106107a0575f80fd5b905f5260205f20015f9150905080546107b890611240565b80601f01602080910402602001604051908101604052809291908181526020018280546107e490611240565b801561082f5780601f106108065761010080835404028352916020019161082f565b820191905f5260205f20905b81548152906001019060200180831161081257829003601f168201915b505050505081565b60015f9054906101000a900473ffffffffffffffffffffffffffffffffffffffff1673ffffffffffffffffffffffffffffffffffffffff166108fc662386f26fc1000090811502906040515f60405180830381858888f193505050501580156108a2573d5f803e3d5ffd5b506040518060e001604052808b8b8080601f0160208091040260200160405190810160405280939291908181526020018383808284375f81840152601f19601f8201169050808301925050505050505081526020013073ffffffffffffffffffffffffffffffffffffffff16815260200189898080601f0160208091040260200160405190810160405280939291908181526020018383808284375f81840152601f19601f82011690508083019250505050505050815260200187878080601f0160208091040260200160405190810160405280939291908181526020018383808284375f81840152601f19601f82011690508083019250505050505050815260200185858080601f0160208091040260200160405190810160405280939291908181526020018383808284375f81840152601f19601f82011690508083019250505050505050815260200183838080601f0160208091040260200160405190810160405280939291908181526020018383808284375f81840152601f19601f8201169050808301925050505050505081526020016040518060400160405280600981526020017f507572636861736564000000000000000000000000000000000000000000000081525081525060038b8b604051610a8292919061154d565b90815260200160405180910390205f820151815f019081610aa391906116f0565b506020820151816001015f6101000a81548173ffffffffffffffffffffffffffffffffffffffff021916908373ffffffffffffffffffffffffffffffffffffffff1602179055506040820151816002019081610aff91906116f0565b506060820151816003019081610b1591906116f0565b506080820151816004019081610b2b91906116f0565b5060a0820151816005019081610b4191906116f0565b5060c0820151816006019081610b5791906116f0565b5090505060028a8a90918060018154018082558091505060019003905f5260205f20015f909192909192909192909192509182610b959291906117c9565b5050505050505050505050565b60606040518060800160405280604c8152602001611a2c604c9139905090565b6060600382604051610bd491906112aa565b90815260200160405180910390205f01600383604051610bf491906112aa565b9081526020016040518091039020600201600384604051610c1591906112aa565b9081526020016040518091039020600301600385604051610c3691906112aa565b9081526020016040518091039020600401600386604051610c5791906112aa565b9081526020016040518091039020600501600387604051610c7891906112aa565b9081526020016040518091039020600601604051602001610c9e9695949392919061197a565b6040516020818303038152906040529050919050565b60606040518060400160405280600981526020017f5665726966696564210000000000000000000000000000000000000000000000815250905090565b5f81519050919050565b5f82825260208201905092915050565b8281835e5f83830152505050565b5f601f19601f8301169050919050565b5f610d3382610cf1565b610d3d8185610cfb565b9350610d4d818560208601610d0b565b610d5681610d19565b840191505092915050565b5f6020820190508181035f830152610d798184610d29565b905092915050565b5f604051905090565b5f80fd5b5f80fd5b5f80fd5b5f80fd5b7f4e487b71000000000000000000000000000000000000000000000000000000005f52604160045260245ffd5b610dd082610d19565b810181811067ffffffffffffffff82111715610def57610dee610d9a565b5b80604052505050565b5f610e01610d81565b9050610e0d8282610dc7565b919050565b5f67ffffffffffffffff821115610e2c57610e2b610d9a565b5b610e3582610d19565b9050602081019050919050565b828183375f83830152505050565b5f610e62610e5d84610e12565b610df8565b905082815260208101848484011115610e7e57610e7d610d96565b5b610e89848285610e42565b509392505050565b5f82601f830112610ea557610ea4610d92565b5b8135610eb5848260208601610e50565b91505092915050565b5f60208284031215610ed357610ed2610d8a565b5b5f82013567ffffffffffffffff811115610ef057610eef610d8e565b5b610efc84828501610e91565b91505092915050565b5f73ffffffffffffffffffffffffffffffffffffffff82169050919050565b5f610f2e82610f05565b9050919050565b610f3e81610f24565b82525050565b5f60e0820190508181035f830152610f5c818a610d29565b9050610f6b6020830189610f35565b8181036040830152610f7d8188610d29565b90508181036060830152610f918187610d29565b90508181036080830152610fa58186610d29565b905081810360a0830152610fb98185610d29565b905081810360c0830152610fcd8184610d29565b905098975050505050505050565b5f610fe582610f05565b9050919050565b610ff581610fdb565b82525050565b5f60208201905061100e5f830184610fec565b92915050565b5f819050919050565b61102681611014565b8114611030575f80fd5b50565b5f813590506110418161101d565b92915050565b5f6020828403121561105c5761105b610d8a565b5b5f61106984828501611033565b91505092915050565b5f80fd5b5f80fd5b5f8083601f84011261108f5761108e610d92565b5b8235905067ffffffffffffffff8111156110ac576110ab611072565b5b6020830191508360018202830111156110c8576110c7611076565b5b9250929050565b5f805f805f805f805f8060a08b8d0312156110ed576110ec610d8a565b5b5f8b013567ffffffffffffffff81111561110a57611109610d8e565b5b6111168d828e0161107a565b9a509a505060208b013567ffffffffffffffff81111561113957611138610d8e565b5b6111458d828e0161107a565b985098505060408b013567ffffffffffffffff81111561116857611167610d8e565b5b6111748d828e0161107a565b965096505060608b013567ffffffffffffffff81111561119757611196610d8e565b5b6111a38d828e0161107a565b945094505060808b013567ffffffffffffffff8111156111c6576111c5610d8e565b5b6111d28d828e0161107a565b92509250509295989b9194979a5092959850565b7f4e487b71000000000000000000000000000000000000000000000000000000005f52603260045260245ffd5b7f4e487b71000000000000000000000000000000000000000000000000000000005f52602260045260245ffd5b5f600282049050600182168061125757607f821691505b60208210810361126a57611269611213565b5b50919050565b5f81905092915050565b5f61128482610cf1565b61128e8185611270565b935061129e818560208601610d0b565b80840191505092915050565b5f6112b5828461127a565b915081905092915050565b7f506f6c6963793a2050617373656e676572204e616d653a200000000000000000815250565b5f819050815f5260205f209050919050565b5f815461130481611240565b61130e8186611270565b9450600182165f8114611328576001811461133d5761136f565b60ff198316865281151582028601935061136f565b611346856112e6565b5f5b8381101561136757815481890152600182019150602081019050611348565b838801955050505b50505092915050565b7f20466c69676874204e756d6265723a2000000000000000000000000000000000815250565b7f20466c6967687420646174653a20000000000000000000000000000000000000815250565b7f2044657061727475726520636974793a20000000000000000000000000000000815250565b7f2044657374696e6174696f6e20636974793a2000000000000000000000000000815250565b7f205374617475733a200000000000000000000000000000000000000000000000815250565b7f0a00000000000000000000000000000000000000000000000000000000000000815250565b5f611467828a61127a565b9150611472826112c0565b60188201915061148282896112f8565b915061148d82611378565b60108201915061149d82886112f8565b91506114a88261139e565b600e820191506114b882876112f8565b91506114c3826113c4565b6011820191506114d382866112f8565b91506114de826113ea565b6013820191506114ee82856112f8565b91506114f982611410565b60098201915061150982846112f8565b915061151482611436565b60018201915081905098975050505050505050565b5f6115348385611270565b9350611541838584610e42565b82840190509392505050565b5f611559828486611529565b91508190509392505050565b5f6020601f8301049050919050565b5f82821b905092915050565b5f600883026115af7fffffffffffffffffffffffffffffffffffffffffffffffffffffffffffffffff82611574565b6115b98683611574565b95508019841693508086168417925050509392505050565b5f819050919050565b5f6115f46115ef6115ea84611014565b6115d1565b611014565b9050919050565b5f819050919050565b61160d836115da565b611621611619826115fb565b848454611580565b825550505050565b5f90565b611635611629565b611640818484611604565b505050565b5b81811015611663576116585f8261162d565b600181019050611646565b5050565b601f8211156116a857611679816112e6565b61168284611565565b81016020851015611691578190505b6116a561169d85611565565b830182611645565b50505b505050565b5f82821c905092915050565b5f6116c85f19846008026116ad565b1980831691505092915050565b5f6116e083836116b9565b9150826002028217905092915050565b6116f982610cf1565b67ffffffffffffffff81111561171257611711610d9a565b5b61171c8254611240565b611727828285611667565b5f60209050601f831160018114611758575f8415611746578287015190505b61175085826116d5565b8655506117b7565b601f198416611766866112e6565b5f5b8281101561178d57848901518255600182019150602085019450602081019050611768565b868310156117aa57848901516117a6601f8916826116b9565b8355505b6001600288020188555050505b505050505050565b5f82905092915050565b6117d383836117bf565b67ffffffffffffffff8111156117ec576117eb610d9a565b5b6117f68254611240565b611801828285611667565b5f601f83116001811461182e575f841561181c578287013590505b61182685826116d5565b86555061188d565b601f19841661183c866112e6565b5f5b828110156118635784890135825560018201915060208501945060208101905061183e565b86831015611880578489013561187c601f8916826116b9565b8355505b6001600288020188555050505b50505050505050565b7f50617373656e676572204e616d653a2000000000000000000000000000000000815250565b7f0a466c69676874204e756d6265723a2000000000000000000000000000000000815250565b7f466c6967687420646174653a2000000000000000000000000000000000000000815250565b7f44657061727475726520636974793a2000000000000000000000000000000000815250565b7f44657374696e6174696f6e20636974793a200000000000000000000000000000815250565b7f0a506f6c696379205374617475733a2000000000000000000000000000000000815250565b5f61198482611896565b60108201915061199482896112f8565b915061199f826118bc565b6010820191506119af82886112f8565b91506119ba826118e2565b600d820191506119ca82876112f8565b91506119d582611908565b6010820191506119e582866112f8565b91506119f08261192e565b601282019150611a0082856112f8565b9150611a0b82611954565b601082019150611a1b82846112f8565b915081905097965050505050505056fe5072656d69756d3a20302e3031204574686572200a496e64656d6e6974793a20302e3032204574686572200a436f766572616765206973737565733a206861696c20616e6420666c6f6f6473a26469706673582212205307576e69be8381076d18da4162454ca9646c18f161ad0cd2bd5c83144ed6ca64736f6c634300081a0033",
			"opcodes": "PUSH1 0x80 PUSH1 0x40 MSTORE CALLVALUE DUP1 ISZERO PUSH2 0xF JUMPI PUSH0 DUP1 REVERT JUMPDEST POP PUSH1 0x40 MLOAD PUSH2 0x1BBA CODESIZE SUB DUP1 PUSH2 0x1BBA DUP4 CODECOPY DUP2 DUP2 ADD PUSH1 0x40 MSTORE DUP2 ADD SWAP1 PUSH2 0x31 SWAP2 SWAP1 PUSH2 0xD5 JUMP JUMPDEST DUP1 PUSH1 0x1 PUSH0 PUSH2 0x100 EXP DUP2 SLOAD DUP2 PUSH20 0xFFFFFFFFFFFFFFFFFFFFFFFFFFFFFFFFFFFFFFFF MUL NOT AND SWAP1 DUP4 PUSH20 0xFFFFFFFFFFFFFFFFFFFFFFFFFFFFFFFFFFFFFFFF AND MUL OR SWAP1 SSTORE POP POP PUSH2 0x100 JUMP JUMPDEST PUSH0 DUP1 REVERT JUMPDEST PUSH0 PUSH20 0xFFFFFFFFFFFFFFFFFFFFFFFFFFFFFFFFFFFFFFFF DUP3 AND SWAP1 POP SWAP2 SWAP1 POP JUMP JUMPDEST PUSH0 PUSH2 0xA4 DUP3 PUSH2 0x7B JUMP JUMPDEST SWAP1 POP SWAP2 SWAP1 POP JUMP JUMPDEST PUSH2 0xB4 DUP2 PUSH2 0x9A JUMP JUMPDEST DUP2 EQ PUSH2 0xBE JUMPI PUSH0 DUP1 REVERT JUMPDEST POP JUMP JUMPDEST PUSH0 DUP2 MLOAD SWAP1 POP PUSH2 0xCF DUP2 PUSH2 0xAB JUMP JUMPDEST SWAP3 SWAP2 POP POP JUMP JUMPDEST PUSH0 PUSH1 0x20 DUP3 DUP5 SUB SLT ISZERO PUSH2 0xEA JUMPI PUSH2 0xE9 PUSH2 0x77 JUMP JUMPDEST JUMPDEST PUSH0 PUSH2 0xF7 DUP5 DUP3 DUP6 ADD PUSH2 0xC1 JUMP JUMPDEST SWAP2 POP POP SWAP3 SWAP2 POP POP JUMP JUMPDEST PUSH2 0x1AAD DUP1 PUSH2 0x10D PUSH0 CODECOPY PUSH0 RETURN INVALID PUSH1 0x80 PUSH1 0x40 MSTORE PUSH1 0x4 CALLDATASIZE LT PUSH2 0x7E JUMPI PUSH0 CALLDATALOAD PUSH1 0xE0 SHR DUP1 PUSH4 0xC50D73F6 GT PUSH2 0x4D JUMPI DUP1 PUSH4 0xC50D73F6 EQ PUSH2 0x15B JUMPI DUP1 PUSH4 0xC738B563 EQ PUSH2 0x177 JUMPI DUP1 PUSH4 0xF25797C6 EQ PUSH2 0x1A1 JUMPI DUP1 PUSH4 0xFC735E99 EQ PUSH2 0x1DD JUMPI PUSH2 0x85 JUMP JUMPDEST DUP1 PUSH4 0x1A65261C EQ PUSH2 0x89 JUMPI DUP1 PUSH4 0x4A7BA3E5 EQ PUSH2 0xB3 JUMPI DUP1 PUSH4 0x50DD73BE EQ PUSH2 0xF5 JUMPI DUP1 PUSH4 0xB698D6A1 EQ PUSH2 0x11F JUMPI PUSH2 0x85 JUMP JUMPDEST CALLDATASIZE PUSH2 0x85 JUMPI STOP JUMPDEST PUSH0 DUP1 REVERT JUMPDEST CALLVALUE DUP1 ISZERO PUSH2 0x94 JUMPI PUSH0 DUP1 REVERT JUMPDEST POP PUSH2 0x9D PUSH2 0x207 JUMP JUMPDEST PUSH1 0x40 MLOAD PUSH2 0xAA SWAP2 SWAP1 PUSH2 0xD61 JUMP JUMPDEST PUSH1 0x40 MLOAD DUP1 SWAP2 SUB SWAP1 RETURN JUMPDEST CALLVALUE DUP1 ISZERO PUSH2 0xBE JUMPI PUSH0 DUP1 REVERT JUMPDEST POP PUSH2 0xD9 PUSH1 0x4 DUP1 CALLDATASIZE SUB DUP2 ADD SWAP1 PUSH2 0xD4 SWAP2 SWAP1 PUSH2 0xEBE JUMP JUMPDEST PUSH2 0x3D3 JUMP JUMPDEST PUSH1 0x40 MLOAD PUSH2 0xEC SWAP8 SWAP7 SWAP6 SWAP5 SWAP4 SWAP3 SWAP2 SWAP1 PUSH2 0xF44 JUMP JUMPDEST PUSH1 0x40 MLOAD DUP1 SWAP2 SUB SWAP1 RETURN JUMPDEST CALLVALUE DUP1 ISZERO PUSH2 0x100 JUMPI PUSH0 DUP1 REVERT JUMPDEST POP PUSH2 0x109 PUSH2 0x76C JUMP JUMPDEST PUSH1 0x40 MLOAD PUSH2 0x116 SWAP2 SWAP1 PUSH2 0xFFB JUMP JUMPDEST PUSH1 0x40 MLOAD DUP1 SWAP2 SUB SWAP1 RETURN JUMPDEST CALLVALUE DUP1 ISZERO PUSH2 0x12A JUMPI PUSH0 DUP1 REVERT JUMPDEST POP PUSH2 0x145 PUSH1 0x4 DUP1 CALLDATASIZE SUB DUP2 ADD SWAP1 PUSH2 0x140 SWAP2 SWAP1 PUSH2 0x1047 JUMP JUMPDEST PUSH2 0x791 JUMP JUMPDEST PUSH1 0x40 MLOAD PUSH2 0x152 SWAP2 SWAP1 PUSH2 0xD61 JUMP JUMPDEST PUSH1 0x40 MLOAD DUP1 SWAP2 SUB SWAP1 RETURN JUMPDEST PUSH2 0x175 PUSH1 0x4 DUP1 CALLDATASIZE SUB DUP2 ADD SWAP1 PUSH2 0x170 SWAP2 SWAP1 PUSH2 0x10CF JUMP JUMPDEST PUSH2 0x837 JUMP JUMPDEST STOP JUMPDEST CALLVALUE DUP1 ISZERO PUSH2 0x182 JUMPI PUSH0 DUP1 REVERT JUMPDEST POP PUSH2 0x18B PUSH2 0xBA2 JUMP JUMPDEST PUSH1 0x40 MLOAD PUSH2 0x198 SWAP2 SWAP1 PUSH2 0xD61 JUMP JUMPDEST PUSH1 0x40 MLOAD DUP1 SWAP2 SUB SWAP1 RETURN JUMPDEST CALLVALUE DUP1 ISZERO PUSH2 0x1AC JUMPI PUSH0 DUP1 REVERT JUMPDEST POP PUSH2 0x1C7 PUSH1 0x4 DUP1 CALLDATASIZE SUB DUP2 ADD SWAP1 PUSH2 0x1C2 SWAP2 SWAP1 PUSH2 0xEBE JUMP JUMPDEST PUSH2 0xBC2 JUMP JUMPDEST PUSH1 0x40 MLOAD PUSH2 0x1D4 SWAP2 SWAP1 PUSH2 0xD61 JUMP JUMPDEST PUSH1 0x40 MLOAD DUP1 SWAP2 SUB SWAP1 RETURN JUMPDEST CALLVALUE DUP1 ISZERO PUSH2 0x1E8 JUMPI PUSH0 DUP1 REVERT JUMPDEST POP PUSH2 0x1F1 PUSH2 0xCB4 JUMP JUMPDEST PUSH1 0x40 MLOAD PUSH2 0x1FE SWAP2 SWAP1 PUSH2 0xD61 JUMP JUMPDEST PUSH1 0x40 MLOAD DUP1 SWAP2 SUB SWAP1 RETURN JUMPDEST PUSH1 0x60 PUSH0 PUSH1 0x40 MLOAD DUP1 PUSH1 0x20 ADD PUSH1 0x40 MSTORE DUP1 PUSH0 DUP2 MSTORE POP SWAP1 POP PUSH0 JUMPDEST PUSH1 0x2 DUP1 SLOAD SWAP1 POP DUP2 LT ISZERO PUSH2 0x3CB JUMPI PUSH0 PUSH1 0x2 DUP3 DUP2 SLOAD DUP2 LT PUSH2 0x23F JUMPI PUSH2 0x23E PUSH2 0x11E6 JUMP JUMPDEST JUMPDEST SWAP1 PUSH0 MSTORE PUSH1 0x20 PUSH0 KECCAK256 ADD DUP1 SLOAD PUSH2 0x252 SWAP1 PUSH2 0x1240 JUMP JUMPDEST DUP1 PUSH1 0x1F ADD PUSH1 0x20 DUP1 SWAP2 DIV MUL PUSH1 0x20 ADD PUSH1 0x40 MLOAD SWAP1 DUP2 ADD PUSH1 0x40 MSTORE DUP1 SWAP3 SWAP2 SWAP1 DUP2 DUP2 MSTORE PUSH1 0x20 ADD DUP3 DUP1 SLOAD PUSH2 0x27E SWAP1 PUSH2 0x1240 JUMP JUMPDEST DUP1 ISZERO PUSH2 0x2C9 JUMPI DUP1 PUSH1 0x1F LT PUSH2 0x2A0 JUMPI PUSH2 0x100 DUP1 DUP4 SLOAD DIV MUL DUP4 MSTORE SWAP2 PUSH1 0x20 ADD SWAP2 PUSH2 0x2C9 JUMP JUMPDEST DUP3 ADD SWAP2 SWAP1 PUSH0 MSTORE PUSH1 0x20 PUSH0 KECCAK256 SWAP1 JUMPDEST DUP2 SLOAD DUP2 MSTORE SWAP1 PUSH1 0x1 ADD SWAP1 PUSH1 0x20 ADD DUP1 DUP4 GT PUSH2 0x2AC JUMPI DUP3 SWAP1 SUB PUSH1 0x1F AND DUP3 ADD SWAP2 JUMPDEST POP POP POP POP POP SWAP1 POP DUP3 PUSH1 0x3 DUP3 PUSH1 0x40 MLOAD PUSH2 0x2E1 SWAP2 SWAP1 PUSH2 0x12AA JUMP JUMPDEST SWAP1 DUP2 MSTORE PUSH1 0x20 ADD PUSH1 0x40 MLOAD DUP1 SWAP2 SUB SWAP1 KECCAK256 PUSH0 ADD PUSH1 0x3 DUP4 PUSH1 0x40 MLOAD PUSH2 0x301 SWAP2 SWAP1 PUSH2 0x12AA JUMP JUMPDEST SWAP1 DUP2 MSTORE PUSH1 0x20 ADD PUSH1 0x40 MLOAD DUP1 SWAP2 SUB SWAP1 KECCAK256 PUSH1 0x2 ADD PUSH1 0x3 DUP5 PUSH1 0x40 MLOAD PUSH2 0x322 SWAP2 SWAP1 PUSH2 0x12AA JUMP JUMPDEST SWAP1 DUP2 MSTORE PUSH1 0x20 ADD PUSH1 0x40 MLOAD DUP1 SWAP2 SUB SWAP1 KECCAK256 PUSH1 0x3 ADD PUSH1 0x3 DUP6 PUSH1 0x40 MLOAD PUSH2 0x343 SWAP2 SWAP1 PUSH2 0x12AA JUMP JUMPDEST SWAP1 DUP2 MSTORE PUSH1 0x20 ADD PUSH1 0x40 MLOAD DUP1 SWAP2 SUB SWAP1 KECCAK256 PUSH1 0x4 ADD PUSH1 0x3 DUP7 PUSH1 0x40 MLOAD PUSH2 0x364 SWAP2 SWAP1 PUSH2 0x12AA JUMP JUMPDEST SWAP1 DUP2 MSTORE PUSH1 0x20 ADD PUSH1 0x40 MLOAD DUP1 SWAP2 SUB SWAP1 KECCAK256 PUSH1 0x5 ADD PUSH1 0x3 DUP8 PUSH1 0x40 MLOAD PUSH2 0x385 SWAP2 SWAP1 PUSH2 0x12AA JUMP JUMPDEST SWAP1 DUP2 MSTORE PUSH1 0x20 ADD PUSH1 0x40 MLOAD DUP1 SWAP2 SUB SWAP1 KECCAK256 PUSH1 0x6 ADD PUSH1 0x40 MLOAD PUSH1 0x20 ADD PUSH2 0x3AC SWAP8 SWAP7 SWAP6 SWAP5 SWAP4 SWAP3 SWAP2 SWAP1 PUSH2 0x145C JUMP JUMPDEST PUSH1 0x40 MLOAD PUSH1 0x20 DUP2 DUP4 SUB SUB DUP2 MSTORE SWAP1 PUSH1 0x40 MSTORE SWAP3 POP POP DUP1 DUP1 PUSH1 0x1 ADD SWAP2 POP POP PUSH2 0x21D JUMP JUMPDEST POP DUP1 SWAP2 POP POP SWAP1 JUMP JUMPDEST PUSH1 0x3 DUP2 DUP1 MLOAD PUSH1 0x20 DUP2 ADD DUP3 ADD DUP1 MLOAD DUP5 DUP3 MSTORE PUSH1 0x20 DUP4 ADD PUSH1 0x20 DUP6 ADD KECCAK256 DUP2 DUP4 MSTORE DUP1 SWAP6 POP POP POP POP POP POP PUSH0 SWAP2 POP SWAP1 POP DUP1 PUSH0 ADD DUP1 SLOAD PUSH2 0x40A SWAP1 PUSH2 0x1240 JUMP JUMPDEST DUP1 PUSH1 0x1F ADD PUSH1 0x20 DUP1 SWAP2 DIV MUL PUSH1 0x20 ADD PUSH1 0x40 MLOAD SWAP1 DUP2 ADD PUSH1 0x40 MSTORE DUP1 SWAP3 SWAP2 SWAP1 DUP2 DUP2 MSTORE PUSH1 0x20 ADD DUP3 DUP1 SLOAD PUSH2 0x436 SWAP1 PUSH2 0x1240 JUMP JUMPDEST DUP1 ISZERO PUSH2 0x481 JUMPI DUP1 PUSH1 0x1F LT PUSH2 0x458 JUMPI PUSH2 0x100 DUP1 DUP4 SLOAD DIV MUL DUP4 MSTORE SWAP2 PUSH1 0x20 ADD SWAP2 PUSH2 0x481 JUMP JUMPDEST DUP3 ADD SWAP2 SWAP1 PUSH0 MSTORE PUSH1 0x20 PUSH0 KECCAK256 SWAP1 JUMPDEST DUP2 SLOAD DUP2 MSTORE SWAP1 PUSH1 0x1 ADD SWAP1 PUSH1 0x20 ADD DUP1 DUP4 GT PUSH2 0x464 JUMPI DUP3 SWAP1 SUB PUSH1 0x1F AND DUP3 ADD SWAP2 JUMPDEST POP POP POP POP POP SWAP1 DUP1 PUSH1 0x1 ADD PUSH0 SWAP1 SLOAD SWAP1 PUSH2 0x100 EXP SWAP1 DIV PUSH20 0xFFFFFFFFFFFFFFFFFFFFFFFFFFFFFFFFFFFFFFFF AND SWAP1 DUP1 PUSH1 0x2 ADD DUP1 SLOAD PUSH2 0x4BB SWAP1 PUSH2 0x1240 JUMP JUMPDEST DUP1 PUSH1 0x1F ADD PUSH1 0x20 DUP1 SWAP2 DIV MUL PUSH1 0x20 ADD PUSH1 0x40 MLOAD SWAP1 DUP2 ADD PUSH1 0x40 MSTORE DUP1 SWAP3 SWAP2 SWAP1 DUP2 DUP2 MSTORE PUSH1 0x20 ADD DUP3 DUP1 SLOAD PUSH2 0x4E7 SWAP1 PUSH2 0x1240 JUMP JUMPDEST DUP1 ISZERO PUSH2 0x532 JUMPI DUP1 PUSH1 0x1F LT PUSH2 0x509 JUMPI PUSH2 0x100 DUP1 DUP4 SLOAD DIV MUL DUP4 MSTORE SWAP2 PUSH1 0x20 ADD SWAP2 PUSH2 0x532 JUMP JUMPDEST DUP3 ADD SWAP2 SWAP1 PUSH0 MSTORE PUSH1 0x20 PUSH0 KECCAK256 SWAP1 JUMPDEST DUP2 SLOAD DUP2 MSTORE SWAP1 PUSH1 0x1 ADD SWAP1 PUSH1 0x20 ADD DUP1 DUP4 GT PUSH2 0x515 JUMPI DUP3 SWAP1 SUB PUSH1 0x1F AND DUP3 ADD SWAP2 JUMPDEST POP POP POP POP POP SWAP1 DUP1 PUSH1 0x3 ADD DUP1 SLOAD PUSH2 0x547 SWAP1 PUSH2 0x1240 JUMP JUMPDEST DUP1 PUSH1 0x1F ADD PUSH1 0x20 DUP1 SWAP2 DIV MUL PUSH1 0x20 ADD PUSH1 0x40 MLOAD SWAP1 DUP2 ADD PUSH1 0x40 MSTORE DUP1 SWAP3 SWAP2 SWAP1 DUP2 DUP2 MSTORE PUSH1 0x20 ADD DUP3 DUP1 SLOAD PUSH2 0x573 SWAP1 PUSH2 0x1240 JUMP JUMPDEST DUP1 ISZERO PUSH2 0x5BE JUMPI DUP1 PUSH1 0x1F LT PUSH2 0x595 JUMPI PUSH2 0x100 DUP1 DUP4 SLOAD DIV MUL DUP4 MSTORE SWAP2 PUSH1 0x20 ADD SWAP2 PUSH2 0x5BE JUMP JUMPDEST DUP3 ADD SWAP2 SWAP1 PUSH0 MSTORE PUSH1 0x20 PUSH0 KECCAK256 SWAP1 JUMPDEST DUP2 SLOAD DUP2 MSTORE SWAP1 PUSH1 0x1 ADD SWAP1 PUSH1 0x20 ADD DUP1 DUP4 GT PUSH2 0x5A1 JUMPI DUP3 SWAP1 SUB PUSH1 0x1F AND DUP3 ADD SWAP2 JUMPDEST POP POP POP POP POP SWAP1 DUP1 PUSH1 0x4 ADD DUP1 SLOAD PUSH2 0x5D3 SWAP1 PUSH2 0x1240 JUMP JUMPDEST DUP1 PUSH1 0x1F ADD PUSH1 0x20 DUP1 SWAP2 DIV MUL PUSH1 0x20 ADD PUSH1 0x40 MLOAD SWAP1 DUP2 ADD PUSH1 0x40 MSTORE DUP1 SWAP3 SWAP2 SWAP1 DUP2 DUP2 MSTORE PUSH1 0x20 ADD DUP3 DUP1 SLOAD PUSH2 0x5FF SWAP1 PUSH2 0x1240 JUMP JUMPDEST DUP1 ISZERO PUSH2 0x64A JUMPI DUP1 PUSH1 0x1F LT PUSH2 0x621 JUMPI PUSH2 0x100 DUP1 DUP4 SLOAD DIV MUL DUP4 MSTORE SWAP2 PUSH1 0x20 ADD SWAP2 PUSH2 0x64A JUMP JUMPDEST DUP3 ADD SWAP2 SWAP1 PUSH0 MSTORE PUSH1 0x20 PUSH0 KECCAK256 SWAP1 JUMPDEST DUP2 SLOAD DUP2 MSTORE SWAP1 PUSH1 0x1 ADD SWAP1 PUSH1 0x20 ADD DUP1 DUP4 GT PUSH2 0x62D JUMPI DUP3 SWAP1 SUB PUSH1 0x1F AND DUP3 ADD SWAP2 JUMPDEST POP POP POP POP POP SWAP1 DUP1 PUSH1 0x5 ADD DUP1 SLOAD PUSH2 0x65F SWAP1 PUSH2 0x1240 JUMP JUMPDEST DUP1 PUSH1 0x1F ADD PUSH1 0x20 DUP1 SWAP2 DIV MUL PUSH1 0x20 ADD PUSH1 0x40 MLOAD SWAP1 DUP2 ADD PUSH1 0x40 MSTORE DUP1 SWAP3 SWAP2 SWAP1 DUP2 DUP2 MSTORE PUSH1 0x20 ADD DUP3 DUP1 SLOAD PUSH2 0x68B SWAP1 PUSH2 0x1240 JUMP JUMPDEST DUP1 ISZERO PUSH2 0x6D6 JUMPI DUP1 PUSH1 0x1F LT PUSH2 0x6AD JUMPI PUSH2 0x100 DUP1 DUP4 SLOAD DIV MUL DUP4 MSTORE SWAP2 PUSH1 0x20 ADD SWAP2 PUSH2 0x6D6 JUMP JUMPDEST DUP3 ADD SWAP2 SWAP1 PUSH0 MSTORE PUSH1 0x20 PUSH0 KECCAK256 SWAP1 JUMPDEST DUP2 SLOAD DUP2 MSTORE SWAP1 PUSH1 0x1 ADD SWAP1 PUSH1 0x20 ADD DUP1 DUP4 GT PUSH2 0x6B9 JUMPI DUP3 SWAP1 SUB PUSH1 0x1F AND DUP3 ADD SWAP2 JUMPDEST POP POP POP POP POP SWAP1 DUP1 PUSH1 0x6 ADD DUP1 SLOAD PUSH2 0x6EB SWAP1 PUSH2 0x1240 JUMP JUMPDEST DUP1 PUSH1 0x1F ADD PUSH1 0x20 DUP1 SWAP2 DIV MUL PUSH1 0x20 ADD PUSH1 0x40 MLOAD SWAP1 DUP2 ADD PUSH1 0x40 MSTORE DUP1 SWAP3 SWAP2 SWAP1 DUP2 DUP2 MSTORE PUSH1 0x20 ADD DUP3 DUP1 SLOAD PUSH2 0x717 SWAP1 PUSH2 0x1240 JUMP JUMPDEST DUP1 ISZERO PUSH2 0x762 JUMPI DUP1 PUSH1 0x1F LT PUSH2 0x739 JUMPI PUSH2 0x100 DUP1 DUP4 SLOAD DIV MUL DUP4 MSTORE SWAP2 PUSH1 0x20 ADD SWAP2 PUSH2 0x762 JUMP JUMPDEST DUP3 ADD SWAP2 SWAP1 PUSH0 MSTORE PUSH1 0x20 PUSH0 KECCAK256 SWAP1 JUMPDEST DUP2 SLOAD DUP2 MSTORE SWAP1 PUSH1 0x1 ADD SWAP1 PUSH1 0x20 ADD DUP1 DUP4 GT PUSH2 0x745 JUMPI DUP3 SWAP1 SUB PUSH1 0x1F AND DUP3 ADD SWAP2 JUMPDEST POP POP POP POP POP SWAP1 POP DUP8 JUMP JUMPDEST PUSH1 0x1 PUSH0 SWAP1 SLOAD SWAP1 PUSH2 0x100 EXP SWAP1 DIV PUSH20 0xFFFFFFFFFFFFFFFFFFFFFFFFFFFFFFFFFFFFFFFF AND DUP2 JUMP JUMPDEST PUSH1 0x2 DUP2 DUP2 SLOAD DUP2 LT PUSH2 0x7A0 JUMPI PUSH0 DUP1 REVERT JUMPDEST SWAP1 PUSH0 MSTORE PUSH1 0x20 PUSH0 KECCAK256 ADD PUSH0 SWAP2 POP SWAP1 POP DUP1 SLOAD PUSH2 0x7B8 SWAP1 PUSH2 0x1240 JUMP JUMPDEST DUP1 PUSH1 0x1F ADD PUSH1 0x20 DUP1 SWAP2 DIV MUL PUSH1 0x20 ADD PUSH1 0x40 MLOAD SWAP1 DUP2 ADD PUSH1 0x40 MSTORE DUP1 SWAP3 SWAP2 SWAP1 DUP2 DUP2 MSTORE PUSH1 0x20 ADD DUP3 DUP1 SLOAD PUSH2 0x7E4 SWAP1 PUSH2 0x1240 JUMP JUMPDEST DUP1 ISZERO PUSH2 0x82F JUMPI DUP1 PUSH1 0x1F LT PUSH2 0x806 JUMPI PUSH2 0x100 DUP1 DUP4 SLOAD DIV MUL DUP4 MSTORE SWAP2 PUSH1 0x20 ADD SWAP2 PUSH2 0x82F JUMP JUMPDEST DUP3 ADD SWAP2 SWAP1 PUSH0 MSTORE PUSH1 0x20 PUSH0 KECCAK256 SWAP1 JUMPDEST DUP2 SLOAD DUP2 MSTORE SWAP1 PUSH1 0x1 ADD SWAP1 PUSH1 0x20 ADD DUP1 DUP4 GT PUSH2 0x812 JUMPI DUP3 SWAP1 SUB PUSH1 0x1F AND DUP3 ADD SWAP2 JUMPDEST POP POP POP POP POP DUP2 JUMP JUMPDEST PUSH1 0x1 PUSH0 SWAP1 SLOAD SWAP1 PUSH2 0x100 EXP SWAP1 DIV PUSH20 0xFFFFFFFFFFFFFFFFFFFFFFFFFFFFFFFFFFFFFFFF AND PUSH20 0xFFFFFFFFFFFFFFFFFFFFFFFFFFFFFFFFFFFFFFFF AND PUSH2 0x8FC PUSH7 0x2386F26FC10000 SWAP1 DUP2 ISZERO MUL SWAP1 PUSH1 0x40 MLOAD PUSH0 PUSH1 0x40 MLOAD DUP1 DUP4 SUB DUP2 DUP6 DUP9 DUP9 CALL SWAP4 POP POP POP POP ISZERO DUP1 ISZERO PUSH2 0x8A2 JUMPI RETURNDATASIZE PUSH0 DUP1 RETURNDATACOPY RETURNDATASIZE PUSH0 REVERT JUMPDEST POP PUSH1 0x40 MLOAD DUP1 PUSH1 0xE0 ADD PUSH1 0x40 MSTORE DUP1 DUP12 DUP12 DUP1 DUP1 PUSH1 0x1F ADD PUSH1 0x20 DUP1 SWAP2 DIV MUL PUSH1 0x20 ADD PUSH1 0x40 MLOAD SWAP1 DUP2 ADD PUSH1 0x40 MSTORE DUP1 SWAP4 SWAP3 SWAP2 SWAP1 DUP2 DUP2 MSTORE PUSH1 0x20 ADD DUP4 DUP4 DUP1 DUP3 DUP5 CALLDATACOPY PUSH0 DUP2 DUP5 ADD MSTORE PUSH1 0x1F NOT PUSH1 0x1F DUP3 ADD AND SWAP1 POP DUP1 DUP4 ADD SWAP3 POP POP POP POP POP POP POP DUP2 MSTORE PUSH1 0x20 ADD ADDRESS PUSH20 0xFFFFFFFFFFFFFFFFFFFFFFFFFFFFFFFFFFFFFFFF AND DUP2 MSTORE PUSH1 0x20 ADD DUP10 DUP10 DUP1 DUP1 PUSH1 0x1F ADD PUSH1 0x20 DUP1 SWAP2 DIV MUL PUSH1 0x20 ADD PUSH1 0x40 MLOAD SWAP1 DUP2 ADD PUSH1 0x40 MSTORE DUP1 SWAP4 SWAP3 SWAP2 SWAP1 DUP2 DUP2 MSTORE PUSH1 0x20 ADD DUP4 DUP4 DUP1 DUP3 DUP5 CALLDATACOPY PUSH0 DUP2 DUP5 ADD MSTORE PUSH1 0x1F NOT PUSH1 0x1F DUP3 ADD AND SWAP1 POP DUP1 DUP4 ADD SWAP3 POP POP POP POP POP POP POP DUP2 MSTORE PUSH1 0x20 ADD DUP8 DUP8 DUP1 DUP1 PUSH1 0x1F ADD PUSH1 0x20 DUP1 SWAP2 DIV MUL PUSH1 0x20 ADD PUSH1 0x40 MLOAD SWAP1 DUP2 ADD PUSH1 0x40 MSTORE DUP1 SWAP4 SWAP3 SWAP2 SWAP1 DUP2 DUP2 MSTORE PUSH1 0x20 ADD DUP4 DUP4 DUP1 DUP3 DUP5 CALLDATACOPY PUSH0 DUP2 DUP5 ADD MSTORE PUSH1 0x1F NOT PUSH1 0x1F DUP3 ADD AND SWAP1 POP DUP1 DUP4 ADD SWAP3 POP POP POP POP POP POP POP DUP2 MSTORE PUSH1 0x20 ADD DUP6 DUP6 DUP1 DUP1 PUSH1 0x1F ADD PUSH1 0x20 DUP1 SWAP2 DIV MUL PUSH1 0x20 ADD PUSH1 0x40 MLOAD SWAP1 DUP2 ADD PUSH1 0x40 MSTORE DUP1 SWAP4 SWAP3 SWAP2 SWAP1 DUP2 DUP2 MSTORE PUSH1 0x20 ADD DUP4 DUP4 DUP1 DUP3 DUP5 CALLDATACOPY PUSH0 DUP2 DUP5 ADD MSTORE PUSH1 0x1F NOT PUSH1 0x1F DUP3 ADD AND SWAP1 POP DUP1 DUP4 ADD SWAP3 POP POP POP POP POP POP POP DUP2 MSTORE PUSH1 0x20 ADD DUP4 DUP4 DUP1 DUP1 PUSH1 0x1F ADD PUSH1 0x20 DUP1 SWAP2 DIV MUL PUSH1 0x20 ADD PUSH1 0x40 MLOAD SWAP1 DUP2 ADD PUSH1 0x40 MSTORE DUP1 SWAP4 SWAP3 SWAP2 SWAP1 DUP2 DUP2 MSTORE PUSH1 0x20 ADD DUP4 DUP4 DUP1 DUP3 DUP5 CALLDATACOPY PUSH0 DUP2 DUP5 ADD MSTORE PUSH1 0x1F NOT PUSH1 0x1F DUP3 ADD AND SWAP1 POP DUP1 DUP4 ADD SWAP3 POP POP POP POP POP POP POP DUP2 MSTORE PUSH1 0x20 ADD PUSH1 0x40 MLOAD DUP1 PUSH1 0x40 ADD PUSH1 0x40 MSTORE DUP1 PUSH1 0x9 DUP2 MSTORE PUSH1 0x20 ADD PUSH32 0x5075726368617365640000000000000000000000000000000000000000000000 DUP2 MSTORE POP DUP2 MSTORE POP PUSH1 0x3 DUP12 DUP12 PUSH1 0x40 MLOAD PUSH2 0xA82 SWAP3 SWAP2 SWAP1 PUSH2 0x154D JUMP JUMPDEST SWAP1 DUP2 MSTORE PUSH1 0x20 ADD PUSH1 0x40 MLOAD DUP1 SWAP2 SUB SWAP1 KECCAK256 PUSH0 DUP3 ADD MLOAD DUP2 PUSH0 ADD SWAP1 DUP2 PUSH2 0xAA3 SWAP2 SWAP1 PUSH2 0x16F0 JUMP JUMPDEST POP PUSH1 0x20 DUP3 ADD MLOAD DUP2 PUSH1 0x1 ADD PUSH0 PUSH2 0x100 EXP DUP2 SLOAD DUP2 PUSH20 0xFFFFFFFFFFFFFFFFFFFFFFFFFFFFFFFFFFFFFFFF MUL NOT AND SWAP1 DUP4 PUSH20 0xFFFFFFFFFFFFFFFFFFFFFFFFFFFFFFFFFFFFFFFF AND MUL OR SWAP1 SSTORE POP PUSH1 0x40 DUP3 ADD MLOAD DUP2 PUSH1 0x2 ADD SWAP1 DUP2 PUSH2 0xAFF SWAP2 SWAP1 PUSH2 0x16F0 JUMP JUMPDEST POP PUSH1 0x60 DUP3 ADD MLOAD DUP2 PUSH1 0x3 ADD SWAP1 DUP2 PUSH2 0xB15 SWAP2 SWAP1 PUSH2 0x16F0 JUMP JUMPDEST POP PUSH1 0x80 DUP3 ADD MLOAD DUP2 PUSH1 0x4 ADD SWAP1 DUP2 PUSH2 0xB2B SWAP2 SWAP1 PUSH2 0x16F0 JUMP JUMPDEST POP PUSH1 0xA0 DUP3 ADD MLOAD DUP2 PUSH1 0x5 ADD SWAP1 DUP2 PUSH2 0xB41 SWAP2 SWAP1 PUSH2 0x16F0 JUMP JUMPDEST POP PUSH1 0xC0 DUP3 ADD MLOAD DUP2 PUSH1 0x6 ADD SWAP1 DUP2 PUSH2 0xB57 SWAP2 SWAP1 PUSH2 0x16F0 JUMP JUMPDEST POP SWAP1 POP POP PUSH1 0x2 DUP11 DUP11 SWAP1 SWAP2 DUP1 PUSH1 0x1 DUP2 SLOAD ADD DUP1 DUP3 SSTORE DUP1 SWAP2 POP POP PUSH1 0x1 SWAP1 SUB SWAP1 PUSH0 MSTORE PUSH1 0x20 PUSH0 KECCAK256 ADD PUSH0 SWAP1 SWAP2 SWAP3 SWAP1 SWAP2 SWAP3 SWAP1 SWAP2 SWAP3 SWAP1 SWAP2 SWAP3 POP SWAP2 DUP3 PUSH2 0xB95 SWAP3 SWAP2 SWAP1 PUSH2 0x17C9 JUMP JUMPDEST POP POP POP POP POP POP POP POP POP POP POP JUMP JUMPDEST PUSH1 0x60 PUSH1 0x40 MLOAD DUP1 PUSH1 0x80 ADD PUSH1 0x40 MSTORE DUP1 PUSH1 0x4C DUP2 MSTORE PUSH1 0x20 ADD PUSH2 0x1A2C PUSH1 0x4C SWAP2 CODECOPY SWAP1 POP SWAP1 JUMP JUMPDEST PUSH1 0x60 PUSH1 0x3 DUP3 PUSH1 0x40 MLOAD PUSH2 0xBD4 SWAP2 SWAP1 PUSH2 0x12AA JUMP JUMPDEST SWAP1 DUP2 MSTORE PUSH1 0x20 ADD PUSH1 0x40 MLOAD DUP1 SWAP2 SUB SWAP1 KECCAK256 PUSH0 ADD PUSH1 0x3 DUP4 PUSH1 0x40 MLOAD PUSH2 0xBF4 SWAP2 SWAP1 PUSH2 0x12AA JUMP JUMPDEST SWAP1 DUP2 MSTORE PUSH1 0x20 ADD PUSH1 0x40 MLOAD DUP1 SWAP2 SUB SWAP1 KECCAK256 PUSH1 0x2 ADD PUSH1 0x3 DUP5 PUSH1 0x40 MLOAD PUSH2 0xC15 SWAP2 SWAP1 PUSH2 0x12AA JUMP JUMPDEST SWAP1 DUP2 MSTORE PUSH1 0x20 ADD PUSH1 0x40 MLOAD DUP1 SWAP2 SUB SWAP1 KECCAK256 PUSH1 0x3 ADD PUSH1 0x3 DUP6 PUSH1 0x40 MLOAD PUSH2 0xC36 SWAP2 SWAP1 PUSH2 0x12AA JUMP JUMPDEST SWAP1 DUP2 MSTORE PUSH1 0x20 ADD PUSH1 0x40 MLOAD DUP1 SWAP2 SUB SWAP1 KECCAK256 PUSH1 0x4 ADD PUSH1 0x3 DUP7 PUSH1 0x40 MLOAD PUSH2 0xC57 SWAP2 SWAP1 PUSH2 0x12AA JUMP JUMPDEST SWAP1 DUP2 MSTORE PUSH1 0x20 ADD PUSH1 0x40 MLOAD DUP1 SWAP2 SUB SWAP1 KECCAK256 PUSH1 0x5 ADD PUSH1 0x3 DUP8 PUSH1 0x40 MLOAD PUSH2 0xC78 SWAP2 SWAP1 PUSH2 0x12AA JUMP JUMPDEST SWAP1 DUP2 MSTORE PUSH1 0x20 ADD PUSH1 0x40 MLOAD DUP1 SWAP2 SUB SWAP1 KECCAK256 PUSH1 0x6 ADD PUSH1 0x40 MLOAD PUSH1 0x20 ADD PUSH2 0xC9E SWAP7 SWAP6 SWAP5 SWAP4 SWAP3 SWAP2 SWAP1 PUSH2 0x197A JUMP JUMPDEST PUSH1 0x40 MLOAD PUSH1 0x20 DUP2 DUP4 SUB SUB DUP2 MSTORE SWAP1 PUSH1 0x40 MSTORE SWAP1 POP SWAP2 SWAP1 POP JUMP JUMPDEST PUSH1 0x60 PUSH1 0x40 MLOAD DUP1 PUSH1 0x40 ADD PUSH1 0x40 MSTORE DUP1 PUSH1 0x9 DUP2 MSTORE PUSH1 0x20 ADD PUSH32 0x5665726966696564210000000000000000000000000000000000000000000000 DUP2 MSTORE POP SWAP1 POP SWAP1 JUMP JUMPDEST PUSH0 DUP2 MLOAD SWAP1 POP SWAP2 SWAP1 POP JUMP JUMPDEST PUSH0 DUP3 DUP3 MSTORE PUSH1 0x20 DUP3 ADD SWAP1 POP SWAP3 SWAP2 POP POP JUMP JUMPDEST DUP3 DUP2 DUP4 MCOPY PUSH0 DUP4 DUP4 ADD MSTORE POP POP POP JUMP JUMPDEST PUSH0 PUSH1 0x1F NOT PUSH1 0x1F DUP4 ADD AND SWAP1 POP SWAP2 SWAP1 POP JUMP JUMPDEST PUSH0 PUSH2 0xD33 DUP3 PUSH2 0xCF1 JUMP JUMPDEST PUSH2 0xD3D DUP2 DUP6 PUSH2 0xCFB JUMP JUMPDEST SWAP4 POP PUSH2 0xD4D DUP2 DUP6 PUSH1 0x20 DUP7 ADD PUSH2 0xD0B JUMP JUMPDEST PUSH2 0xD56 DUP2 PUSH2 0xD19 JUMP JUMPDEST DUP5 ADD SWAP2 POP POP SWAP3 SWAP2 POP POP JUMP JUMPDEST PUSH0 PUSH1 0x20 DUP3 ADD SWAP1 POP DUP2 DUP2 SUB PUSH0 DUP4 ADD MSTORE PUSH2 0xD79 DUP2 DUP5 PUSH2 0xD29 JUMP JUMPDEST SWAP1 POP SWAP3 SWAP2 POP POP JUMP JUMPDEST PUSH0 PUSH1 0x40 MLOAD SWAP1 POP SWAP1 JUMP JUMPDEST PUSH0 DUP1 REVERT JUMPDEST PUSH0 DUP1 REVERT JUMPDEST PUSH0 DUP1 REVERT JUMPDEST PUSH0 DUP1 REVERT JUMPDEST PUSH32 0x4E487B7100000000000000000000000000000000000000000000000000000000 PUSH0 MSTORE PUSH1 0x41 PUSH1 0x4 MSTORE PUSH1 0x24 PUSH0 REVERT JUMPDEST PUSH2 0xDD0 DUP3 PUSH2 0xD19 JUMP JUMPDEST DUP2 ADD DUP2 DUP2 LT PUSH8 0xFFFFFFFFFFFFFFFF DUP3 GT OR ISZERO PUSH2 0xDEF JUMPI PUSH2 0xDEE PUSH2 0xD9A JUMP JUMPDEST JUMPDEST DUP1 PUSH1 0x40 MSTORE POP POP POP JUMP JUMPDEST PUSH0 PUSH2 0xE01 PUSH2 0xD81 JUMP JUMPDEST SWAP1 POP PUSH2 0xE0D DUP3 DUP3 PUSH2 0xDC7 JUMP JUMPDEST SWAP2 SWAP1 POP JUMP JUMPDEST PUSH0 PUSH8 0xFFFFFFFFFFFFFFFF DUP3 GT ISZERO PUSH2 0xE2C JUMPI PUSH2 0xE2B PUSH2 0xD9A JUMP JUMPDEST JUMPDEST PUSH2 0xE35 DUP3 PUSH2 0xD19 JUMP JUMPDEST SWAP1 POP PUSH1 0x20 DUP2 ADD SWAP1 POP SWAP2 SWAP1 POP JUMP JUMPDEST DUP3 DUP2 DUP4 CALLDATACOPY PUSH0 DUP4 DUP4 ADD MSTORE POP POP POP JUMP JUMPDEST PUSH0 PUSH2 0xE62 PUSH2 0xE5D DUP5 PUSH2 0xE12 JUMP JUMPDEST PUSH2 0xDF8 JUMP JUMPDEST SWAP1 POP DUP3 DUP2 MSTORE PUSH1 0x20 DUP2 ADD DUP5 DUP5 DUP5 ADD GT ISZERO PUSH2 0xE7E JUMPI PUSH2 0xE7D PUSH2 0xD96 JUMP JUMPDEST JUMPDEST PUSH2 0xE89 DUP5 DUP3 DUP6 PUSH2 0xE42 JUMP JUMPDEST POP SWAP4 SWAP3 POP POP POP JUMP JUMPDEST PUSH0 DUP3 PUSH1 0x1F DUP4 ADD SLT PUSH2 0xEA5 JUMPI PUSH2 0xEA4 PUSH2 0xD92 JUMP JUMPDEST JUMPDEST DUP2 CALLDATALOAD PUSH2 0xEB5 DUP5 DUP3 PUSH1 0x20 DUP7 ADD PUSH2 0xE50 JUMP JUMPDEST SWAP2 POP POP SWAP3 SWAP2 POP POP JUMP JUMPDEST PUSH0 PUSH1 0x20 DUP3 DUP5 SUB SLT ISZERO PUSH2 0xED3 JUMPI PUSH2 0xED2 PUSH2 0xD8A JUMP JUMPDEST JUMPDEST PUSH0 DUP3 ADD CALLDATALOAD PUSH8 0xFFFFFFFFFFFFFFFF DUP2 GT ISZERO PUSH2 0xEF0 JUMPI PUSH2 0xEEF PUSH2 0xD8E JUMP JUMPDEST JUMPDEST PUSH2 0xEFC DUP5 DUP3 DUP6 ADD PUSH2 0xE91 JUMP JUMPDEST SWAP2 POP POP SWAP3 SWAP2 POP POP JUMP JUMPDEST PUSH0 PUSH20 0xFFFFFFFFFFFFFFFFFFFFFFFFFFFFFFFFFFFFFFFF DUP3 AND SWAP1 POP SWAP2 SWAP1 POP JUMP JUMPDEST PUSH0 PUSH2 0xF2E DUP3 PUSH2 0xF05 JUMP JUMPDEST SWAP1 POP SWAP2 SWAP1 POP JUMP JUMPDEST PUSH2 0xF3E DUP2 PUSH2 0xF24 JUMP JUMPDEST DUP3 MSTORE POP POP JUMP JUMPDEST PUSH0 PUSH1 0xE0 DUP3 ADD SWAP1 POP DUP2 DUP2 SUB PUSH0 DUP4 ADD MSTORE PUSH2 0xF5C DUP2 DUP11 PUSH2 0xD29 JUMP JUMPDEST SWAP1 POP PUSH2 0xF6B PUSH1 0x20 DUP4 ADD DUP10 PUSH2 0xF35 JUMP JUMPDEST DUP2 DUP2 SUB PUSH1 0x40 DUP4 ADD MSTORE PUSH2 0xF7D DUP2 DUP9 PUSH2 0xD29 JUMP JUMPDEST SWAP1 POP DUP2 DUP2 SUB PUSH1 0x60 DUP4 ADD MSTORE PUSH2 0xF91 DUP2 DUP8 PUSH2 0xD29 JUMP JUMPDEST SWAP1 POP DUP2 DUP2 SUB PUSH1 0x80 DUP4 ADD MSTORE PUSH2 0xFA5 DUP2 DUP7 PUSH2 0xD29 JUMP JUMPDEST SWAP1 POP DUP2 DUP2 SUB PUSH1 0xA0 DUP4 ADD MSTORE PUSH2 0xFB9 DUP2 DUP6 PUSH2 0xD29 JUMP JUMPDEST SWAP1 POP DUP2 DUP2 SUB PUSH1 0xC0 DUP4 ADD MSTORE PUSH2 0xFCD DUP2 DUP5 PUSH2 0xD29 JUMP JUMPDEST SWAP1 POP SWAP9 SWAP8 POP POP POP POP POP POP POP POP JUMP JUMPDEST PUSH0 PUSH2 0xFE5 DUP3 PUSH2 0xF05 JUMP JUMPDEST SWAP1 POP SWAP2 SWAP1 POP JUMP JUMPDEST PUSH2 0xFF5 DUP2 PUSH2 0xFDB JUMP JUMPDEST DUP3 MSTORE POP POP JUMP JUMPDEST PUSH0 PUSH1 0x20 DUP3 ADD SWAP1 POP PUSH2 0x100E PUSH0 DUP4 ADD DUP5 PUSH2 0xFEC JUMP JUMPDEST SWAP3 SWAP2 POP POP JUMP JUMPDEST PUSH0 DUP2 SWAP1 POP SWAP2 SWAP1 POP JUMP JUMPDEST PUSH2 0x1026 DUP2 PUSH2 0x1014 JUMP JUMPDEST DUP2 EQ PUSH2 0x1030 JUMPI PUSH0 DUP1 REVERT JUMPDEST POP JUMP JUMPDEST PUSH0 DUP2 CALLDATALOAD SWAP1 POP PUSH2 0x1041 DUP2 PUSH2 0x101D JUMP JUMPDEST SWAP3 SWAP2 POP POP JUMP JUMPDEST PUSH0 PUSH1 0x20 DUP3 DUP5 SUB SLT ISZERO PUSH2 0x105C JUMPI PUSH2 0x105B PUSH2 0xD8A JUMP JUMPDEST JUMPDEST PUSH0 PUSH2 0x1069 DUP5 DUP3 DUP6 ADD PUSH2 0x1033 JUMP JUMPDEST SWAP2 POP POP SWAP3 SWAP2 POP POP JUMP JUMPDEST PUSH0 DUP1 REVERT JUMPDEST PUSH0 DUP1 REVERT JUMPDEST PUSH0 DUP1 DUP4 PUSH1 0x1F DUP5 ADD SLT PUSH2 0x108F JUMPI PUSH2 0x108E PUSH2 0xD92 JUMP JUMPDEST JUMPDEST DUP3 CALLDATALOAD SWAP1 POP PUSH8 0xFFFFFFFFFFFFFFFF DUP2 GT ISZERO PUSH2 0x10AC JUMPI PUSH2 0x10AB PUSH2 0x1072 JUMP JUMPDEST JUMPDEST PUSH1 0x20 DUP4 ADD SWAP2 POP DUP4 PUSH1 0x1 DUP3 MUL DUP4 ADD GT ISZERO PUSH2 0x10C8 JUMPI PUSH2 0x10C7 PUSH2 0x1076 JUMP JUMPDEST JUMPDEST SWAP3 POP SWAP3 SWAP1 POP JUMP JUMPDEST PUSH0 DUP1 PUSH0 DUP1 PUSH0 DUP1 PUSH0 DUP1 PUSH0 DUP1 PUSH1 0xA0 DUP12 DUP14 SUB SLT ISZERO PUSH2 0x10ED JUMPI PUSH2 0x10EC PUSH2 0xD8A JUMP JUMPDEST JUMPDEST PUSH0 DUP12 ADD CALLDATALOAD PUSH8 0xFFFFFFFFFFFFFFFF DUP2 GT ISZERO PUSH2 0x110A JUMPI PUSH2 0x1109 PUSH2 0xD8E JUMP JUMPDEST JUMPDEST PUSH2 0x1116 DUP14 DUP3 DUP15 ADD PUSH2 0x107A JUMP JUMPDEST SWAP11 POP SWAP11 POP POP PUSH1 0x20 DUP12 ADD CALLDATALOAD PUSH8 0xFFFFFFFFFFFFFFFF DUP2 GT ISZERO PUSH2 0x1139 JUMPI PUSH2 0x1138 PUSH2 0xD8E JUMP JUMPDEST JUMPDEST PUSH2 0x1145 DUP14 DUP3 DUP15 ADD PUSH2 0x107A JUMP JUMPDEST SWAP9 POP SWAP9 POP POP PUSH1 0x40 DUP12 ADD CALLDATALOAD PUSH8 0xFFFFFFFFFFFFFFFF DUP2 GT ISZERO PUSH2 0x1168 JUMPI PUSH2 0x1167 PUSH2 0xD8E JUMP JUMPDEST JUMPDEST PUSH2 0x1174 DUP14 DUP3 DUP15 ADD PUSH2 0x107A JUMP JUMPDEST SWAP7 POP SWAP7 POP POP PUSH1 0x60 DUP12 ADD CALLDATALOAD PUSH8 0xFFFFFFFFFFFFFFFF DUP2 GT ISZERO PUSH2 0x1197 JUMPI PUSH2 0x1196 PUSH2 0xD8E JUMP JUMPDEST JUMPDEST PUSH2 0x11A3 DUP14 DUP3 DUP15 ADD PUSH2 0x107A JUMP JUMPDEST SWAP5 POP SWAP5 POP POP PUSH1 0x80 DUP12 ADD CALLDATALOAD PUSH8 0xFFFFFFFFFFFFFFFF DUP2 GT ISZERO PUSH2 0x11C6 JUMPI PUSH2 0x11C5 PUSH2 0xD8E JUMP JUMPDEST JUMPDEST PUSH2 0x11D2 DUP14 DUP3 DUP15 ADD PUSH2 0x107A JUMP JUMPDEST SWAP3 POP SWAP3 POP POP SWAP3 SWAP6 SWAP9 SWAP12 SWAP2 SWAP5 SWAP8 SWAP11 POP SWAP3 SWAP6 SWAP9 POP JUMP JUMPDEST PUSH32 0x4E487B7100000000000000000000000000000000000000000000000000000000 PUSH0 MSTORE PUSH1 0x32 PUSH1 0x4 MSTORE PUSH1 0x24 PUSH0 REVERT JUMPDEST PUSH32 0x4E487B7100000000000000000000000000000000000000000000000000000000 PUSH0 MSTORE PUSH1 0x22 PUSH1 0x4 MSTORE PUSH1 0x24 PUSH0 REVERT JUMPDEST PUSH0 PUSH1 0x2 DUP3 DIV SWAP1 POP PUSH1 0x1 DUP3 AND DUP1 PUSH2 0x1257 JUMPI PUSH1 0x7F DUP3 AND SWAP2 POP JUMPDEST PUSH1 0x20 DUP3 LT DUP2 SUB PUSH2 0x126A JUMPI PUSH2 0x1269 PUSH2 0x1213 JUMP JUMPDEST JUMPDEST POP SWAP2 SWAP1 POP JUMP JUMPDEST PUSH0 DUP2 SWAP1 POP SWAP3 SWAP2 POP POP JUMP JUMPDEST PUSH0 PUSH2 0x1284 DUP3 PUSH2 0xCF1 JUMP JUMPDEST PUSH2 0x128E DUP2 DUP6 PUSH2 0x1270 JUMP JUMPDEST SWAP4 POP PUSH2 0x129E DUP2 DUP6 PUSH1 0x20 DUP7 ADD PUSH2 0xD0B JUMP JUMPDEST DUP1 DUP5 ADD SWAP2 POP POP SWAP3 SWAP2 POP POP JUMP JUMPDEST PUSH0 PUSH2 0x12B5 DUP3 DUP5 PUSH2 0x127A JUMP JUMPDEST SWAP2 POP DUP2 SWAP1 POP SWAP3 SWAP2 POP POP JUMP JUMPDEST PUSH32 0x506F6C6963793A2050617373656E676572204E616D653A200000000000000000 DUP2 MSTORE POP JUMP JUMPDEST PUSH0 DUP2 SWAP1 POP DUP2 PUSH0 MSTORE PUSH1 0x20 PUSH0 KECCAK256 SWAP1 POP SWAP2 SWAP1 POP JUMP JUMPDEST PUSH0 DUP2 SLOAD PUSH2 0x1304 DUP2 PUSH2 0x1240 JUMP JUMPDEST PUSH2 0x130E DUP2 DUP7 PUSH2 0x1270 JUMP JUMPDEST SWAP5 POP PUSH1 0x1 DUP3 AND PUSH0 DUP2 EQ PUSH2 0x1328 JUMPI PUSH1 0x1 DUP2 EQ PUSH2 0x133D JUMPI PUSH2 0x136F JUMP JUMPDEST PUSH1 0xFF NOT DUP4 AND DUP7 MSTORE DUP2 ISZERO ISZERO DUP3 MUL DUP7 ADD SWAP4 POP PUSH2 0x136F JUMP JUMPDEST PUSH2 0x1346 DUP6 PUSH2 0x12E6 JUMP JUMPDEST PUSH0 JUMPDEST DUP4 DUP2 LT ISZERO PUSH2 0x1367 JUMPI DUP2 SLOAD DUP2 DUP10 ADD MSTORE PUSH1 0x1 DUP3 ADD SWAP2 POP PUSH1 0x20 DUP2 ADD SWAP1 POP PUSH2 0x1348 JUMP JUMPDEST DUP4 DUP9 ADD SWAP6 POP POP POP JUMPDEST POP POP POP SWAP3 SWAP2 POP POP JUMP JUMPDEST PUSH32 0x20466C69676874204E756D6265723A2000000000000000000000000000000000 DUP2 MSTORE POP JUMP JUMPDEST PUSH32 0x20466C6967687420646174653A20000000000000000000000000000000000000 DUP2 MSTORE POP JUMP JUMPDEST PUSH32 0x2044657061727475726520636974793A20000000000000000000000000000000 DUP2 MSTORE POP JUMP JUMPDEST PUSH32 0x2044657374696E6174696F6E20636974793A2000000000000000000000000000 DUP2 MSTORE POP JUMP JUMPDEST PUSH32 0x205374617475733A200000000000000000000000000000000000000000000000 DUP2 MSTORE POP JUMP JUMPDEST PUSH32 0xA00000000000000000000000000000000000000000000000000000000000000 DUP2 MSTORE POP JUMP JUMPDEST PUSH0 PUSH2 0x1467 DUP3 DUP11 PUSH2 0x127A JUMP JUMPDEST SWAP2 POP PUSH2 0x1472 DUP3 PUSH2 0x12C0 JUMP JUMPDEST PUSH1 0x18 DUP3 ADD SWAP2 POP PUSH2 0x1482 DUP3 DUP10 PUSH2 0x12F8 JUMP JUMPDEST SWAP2 POP PUSH2 0x148D DUP3 PUSH2 0x1378 JUMP JUMPDEST PUSH1 0x10 DUP3 ADD SWAP2 POP PUSH2 0x149D DUP3 DUP9 PUSH2 0x12F8 JUMP JUMPDEST SWAP2 POP PUSH2 0x14A8 DUP3 PUSH2 0x139E JUMP JUMPDEST PUSH1 0xE DUP3 ADD SWAP2 POP PUSH2 0x14B8 DUP3 DUP8 PUSH2 0x12F8 JUMP JUMPDEST SWAP2 POP PUSH2 0x14C3 DUP3 PUSH2 0x13C4 JUMP JUMPDEST PUSH1 0x11 DUP3 ADD SWAP2 POP PUSH2 0x14D3 DUP3 DUP7 PUSH2 0x12F8 JUMP JUMPDEST SWAP2 POP PUSH2 0x14DE DUP3 PUSH2 0x13EA JUMP JUMPDEST PUSH1 0x13 DUP3 ADD SWAP2 POP PUSH2 0x14EE DUP3 DUP6 PUSH2 0x12F8 JUMP JUMPDEST SWAP2 POP PUSH2 0x14F9 DUP3 PUSH2 0x1410 JUMP JUMPDEST PUSH1 0x9 DUP3 ADD SWAP2 POP PUSH2 0x1509 DUP3 DUP5 PUSH2 0x12F8 JUMP JUMPDEST SWAP2 POP PUSH2 0x1514 DUP3 PUSH2 0x1436 JUMP JUMPDEST PUSH1 0x1 DUP3 ADD SWAP2 POP DUP2 SWAP1 POP SWAP9 SWAP8 POP POP POP POP POP POP POP POP JUMP JUMPDEST PUSH0 PUSH2 0x1534 DUP4 DUP6 PUSH2 0x1270 JUMP JUMPDEST SWAP4 POP PUSH2 0x1541 DUP4 DUP6 DUP5 PUSH2 0xE42 JUMP JUMPDEST DUP3 DUP5 ADD SWAP1 POP SWAP4 SWAP3 POP POP POP JUMP JUMPDEST PUSH0 PUSH2 0x1559 DUP3 DUP5 DUP7 PUSH2 0x1529 JUMP JUMPDEST SWAP2 POP DUP2 SWAP1 POP SWAP4 SWAP3 POP POP POP JUMP JUMPDEST PUSH0 PUSH1 0x20 PUSH1 0x1F DUP4 ADD DIV SWAP1 POP SWAP2 SWAP1 POP JUMP JUMPDEST PUSH0 DUP3 DUP3 SHL SWAP1 POP SWAP3 SWAP2 POP POP JUMP JUMPDEST PUSH0 PUSH1 0x8 DUP4 MUL PUSH2 0x15AF PUSH32 0xFFFFFFFFFFFFFFFFFFFFFFFFFFFFFFFFFFFFFFFFFFFFFFFFFFFFFFFFFFFFFFFF DUP3 PUSH2 0x1574 JUMP JUMPDEST PUSH2 0x15B9 DUP7 DUP4 PUSH2 0x1574 JUMP JUMPDEST SWAP6 POP DUP1 NOT DUP5 AND SWAP4 POP DUP1 DUP7 AND DUP5 OR SWAP3 POP POP POP SWAP4 SWAP3 POP POP POP JUMP JUMPDEST PUSH0 DUP2 SWAP1 POP SWAP2 SWAP1 POP JUMP JUMPDEST PUSH0 PUSH2 0x15F4 PUSH2 0x15EF PUSH2 0x15EA DUP5 PUSH2 0x1014 JUMP JUMPDEST PUSH2 0x15D1 JUMP JUMPDEST PUSH2 0x1014 JUMP JUMPDEST SWAP1 POP SWAP2 SWAP1 POP JUMP JUMPDEST PUSH0 DUP2 SWAP1 POP SWAP2 SWAP1 POP JUMP JUMPDEST PUSH2 0x160D DUP4 PUSH2 0x15DA JUMP JUMPDEST PUSH2 0x1621 PUSH2 0x1619 DUP3 PUSH2 0x15FB JUMP JUMPDEST DUP5 DUP5 SLOAD PUSH2 0x1580 JUMP JUMPDEST DUP3 SSTORE POP POP POP POP JUMP JUMPDEST PUSH0 SWAP1 JUMP JUMPDEST PUSH2 0x1635 PUSH2 0x1629 JUMP JUMPDEST PUSH2 0x1640 DUP2 DUP5 DUP5 PUSH2 0x1604 JUMP JUMPDEST POP POP POP JUMP JUMPDEST JUMPDEST DUP2 DUP2 LT ISZERO PUSH2 0x1663 JUMPI PUSH2 0x1658 PUSH0 DUP3 PUSH2 0x162D JUMP JUMPDEST PUSH1 0x1 DUP2 ADD SWAP1 POP PUSH2 0x1646 JUMP JUMPDEST POP POP JUMP JUMPDEST PUSH1 0x1F DUP3 GT ISZERO PUSH2 0x16A8 JUMPI PUSH2 0x1679 DUP2 PUSH2 0x12E6 JUMP JUMPDEST PUSH2 0x1682 DUP5 PUSH2 0x1565 JUMP JUMPDEST DUP2 ADD PUSH1 0x20 DUP6 LT ISZERO PUSH2 0x1691 JUMPI DUP2 SWAP1 POP JUMPDEST PUSH2 0x16A5 PUSH2 0x169D DUP6 PUSH2 0x1565 JUMP JUMPDEST DUP4 ADD DUP3 PUSH2 0x1645 JUMP JUMPDEST POP POP JUMPDEST POP POP POP JUMP JUMPDEST PUSH0 DUP3 DUP3 SHR SWAP1 POP SWAP3 SWAP2 POP POP JUMP JUMPDEST PUSH0 PUSH2 0x16C8 PUSH0 NOT DUP5 PUSH1 0x8 MUL PUSH2 0x16AD JUMP JUMPDEST NOT DUP1 DUP4 AND SWAP2 POP POP SWAP3 SWAP2 POP POP JUMP JUMPDEST PUSH0 PUSH2 0x16E0 DUP4 DUP4 PUSH2 0x16B9 JUMP JUMPDEST SWAP2 POP DUP3 PUSH1 0x2 MUL DUP3 OR SWAP1 POP SWAP3 SWAP2 POP POP JUMP JUMPDEST PUSH2 0x16F9 DUP3 PUSH2 0xCF1 JUMP JUMPDEST PUSH8 0xFFFFFFFFFFFFFFFF DUP2 GT ISZERO PUSH2 0x1712 JUMPI PUSH2 0x1711 PUSH2 0xD9A JUMP JUMPDEST JUMPDEST PUSH2 0x171C DUP3 SLOAD PUSH2 0x1240 JUMP JUMPDEST PUSH2 0x1727 DUP3 DUP3 DUP6 PUSH2 0x1667 JUMP JUMPDEST PUSH0 PUSH1 0x20 SWAP1 POP PUSH1 0x1F DUP4 GT PUSH1 0x1 DUP2 EQ PUSH2 0x1758 JUMPI PUSH0 DUP5 ISZERO PUSH2 0x1746 JUMPI DUP3 DUP8 ADD MLOAD SWAP1 POP JUMPDEST PUSH2 0x1750 DUP6 DUP3 PUSH2 0x16D5 JUMP JUMPDEST DUP7 SSTORE POP PUSH2 0x17B7 JUMP JUMPDEST PUSH1 0x1F NOT DUP5 AND PUSH2 0x1766 DUP7 PUSH2 0x12E6 JUMP JUMPDEST PUSH0 JUMPDEST DUP3 DUP2 LT ISZERO PUSH2 0x178D JUMPI DUP5 DUP10 ADD MLOAD DUP3 SSTORE PUSH1 0x1 DUP3 ADD SWAP2 POP PUSH1 0x20 DUP6 ADD SWAP5 POP PUSH1 0x20 DUP2 ADD SWAP1 POP PUSH2 0x1768 JUMP JUMPDEST DUP7 DUP4 LT ISZERO PUSH2 0x17AA JUMPI DUP5 DUP10 ADD MLOAD PUSH2 0x17A6 PUSH1 0x1F DUP10 AND DUP3 PUSH2 0x16B9 JUMP JUMPDEST DUP4 SSTORE POP JUMPDEST PUSH1 0x1 PUSH1 0x2 DUP9 MUL ADD DUP9 SSTORE POP POP POP JUMPDEST POP POP POP POP POP POP JUMP JUMPDEST PUSH0 DUP3 SWAP1 POP SWAP3 SWAP2 POP POP JUMP JUMPDEST PUSH2 0x17D3 DUP4 DUP4 PUSH2 0x17BF JUMP JUMPDEST PUSH8 0xFFFFFFFFFFFFFFFF DUP2 GT ISZERO PUSH2 0x17EC JUMPI PUSH2 0x17EB PUSH2 0xD9A JUMP JUMPDEST JUMPDEST PUSH2 0x17F6 DUP3 SLOAD PUSH2 0x1240 JUMP JUMPDEST PUSH2 0x1801 DUP3 DUP3 DUP6 PUSH2 0x1667 JUMP JUMPDEST PUSH0 PUSH1 0x1F DUP4 GT PUSH1 0x1 DUP2 EQ PUSH2 0x182E JUMPI PUSH0 DUP5 ISZERO PUSH2 0x181C JUMPI DUP3 DUP8 ADD CALLDATALOAD SWAP1 POP JUMPDEST PUSH2 0x1826 DUP6 DUP3 PUSH2 0x16D5 JUMP JUMPDEST DUP7 SSTORE POP PUSH2 0x188D JUMP JUMPDEST PUSH1 0x1F NOT DUP5 AND PUSH2 0x183C DUP7 PUSH2 0x12E6 JUMP JUMPDEST PUSH0 JUMPDEST DUP3 DUP2 LT ISZERO PUSH2 0x1863 JUMPI DUP5 DUP10 ADD CALLDATALOAD DUP3 SSTORE PUSH1 0x1 DUP3 ADD SWAP2 POP PUSH1 0x20 DUP6 ADD SWAP5 POP PUSH1 0x20 DUP2 ADD SWAP1 POP PUSH2 0x183E JUMP JUMPDEST DUP7 DUP4 LT ISZERO PUSH2 0x1880 JUMPI DUP5 DUP10 ADD CALLDATALOAD PUSH2 0x187C PUSH1 0x1F DUP10 AND DUP3 PUSH2 0x16B9 JUMP JUMPDEST DUP4 SSTORE POP JUMPDEST PUSH1 0x1 PUSH1 0x2 DUP9 MUL ADD DUP9 SSTORE POP POP POP JUMPDEST POP POP POP POP POP POP POP JUMP JUMPDEST PUSH32 0x50617373656E676572204E616D653A2000000000000000000000000000000000 DUP2 MSTORE POP JUMP JUMPDEST PUSH32 0xA466C69676874204E756D6265723A2000000000000000000000000000000000 DUP2 MSTORE POP JUMP JUMPDEST PUSH32 0x466C6967687420646174653A2000000000000000000000000000000000000000 DUP2 MSTORE POP JUMP JUMPDEST PUSH32 0x44657061727475726520636974793A2000000000000000000000000000000000 DUP2 MSTORE POP JUMP JUMPDEST PUSH32 0x44657374696E6174696F6E20636974793A200000000000000000000000000000 DUP2 MSTORE POP JUMP JUMPDEST PUSH32 0xA506F6C696379205374617475733A2000000000000000000000000000000000 DUP2 MSTORE POP JUMP JUMPDEST PUSH0 PUSH2 0x1984 DUP3 PUSH2 0x1896 JUMP JUMPDEST PUSH1 0x10 DUP3 ADD SWAP2 POP PUSH2 0x1994 DUP3 DUP10 PUSH2 0x12F8 JUMP JUMPDEST SWAP2 POP PUSH2 0x199F DUP3 PUSH2 0x18BC JUMP JUMPDEST PUSH1 0x10 DUP3 ADD SWAP2 POP PUSH2 0x19AF DUP3 DUP9 PUSH2 0x12F8 JUMP JUMPDEST SWAP2 POP PUSH2 0x19BA DUP3 PUSH2 0x18E2 JUMP JUMPDEST PUSH1 0xD DUP3 ADD SWAP2 POP PUSH2 0x19CA DUP3 DUP8 PUSH2 0x12F8 JUMP JUMPDEST SWAP2 POP PUSH2 0x19D5 DUP3 PUSH2 0x1908 JUMP JUMPDEST PUSH1 0x10 DUP3 ADD SWAP2 POP PUSH2 0x19E5 DUP3 DUP7 PUSH2 0x12F8 JUMP JUMPDEST SWAP2 POP PUSH2 0x19F0 DUP3 PUSH2 0x192E JUMP JUMPDEST PUSH1 0x12 DUP3 ADD SWAP2 POP PUSH2 0x1A00 DUP3 DUP6 PUSH2 0x12F8 JUMP JUMPDEST SWAP2 POP PUSH2 0x1A0B DUP3 PUSH2 0x1954 JUMP JUMPDEST PUSH1 0x10 DUP3 ADD SWAP2 POP PUSH2 0x1A1B DUP3 DUP5 PUSH2 0x12F8 JUMP JUMPDEST SWAP2 POP DUP2 SWAP1 POP SWAP8 SWAP7 POP POP POP POP POP POP POP JUMP INVALID POP PUSH19 0x656D69756D3A20302E3031204574686572200A BLOBHASH PUSH15 0x64656D6E6974793A20302E30322045 PUSH21 0x686572200A436F766572616765206973737565733A KECCAK256 PUSH9 0x61696C20616E642066 PUSH13 0x6F6F6473A26469706673582212 KECCAK256 MSTORE8 SMOD JUMPI PUSH15 0x69BE8381076D18DA4162454CA9646C XOR CALL PUSH2 0xAD0C 0xD2 0xBD TLOAD DUP4 EQ 0x4E 0xD6 0xCA PUSH5 0x736F6C6343 STOP ADDMOD BYTE STOP CALLER "
		},
		"gasEstimates": {
			"creation": {
				"codeDepositCost": "1365800",
				"executionCost": "infinite",
				"totalCost": "infinite"
			},
			"external": {
				"insurance_provider()": "2553",
				"name_array(uint256)": "infinite",
				"policies(string)": "infinite",
				"purchase_policy(string,string,string,string,string)": "infinite",
				"verify()": "infinite",
				"view_all_policies()": "infinite",
				"view_policy()": "infinite",
				"view_purchased_policy(string)": "infinite"
			}
		},
		"methodIdentifiers": {
			"insurance_provider()": "50dd73be",
			"name_array(uint256)": "b698d6a1",
			"policies(string)": "4a7ba3e5",
			"purchase_policy(string,string,string,string,string)": "c50d73f6",
			"verify()": "fc735e99",
			"view_all_policies()": "1a65261c",
			"view_policy()": "c738b563",
			"view_purchased_policy(string)": "f25797c6"
		}
	},
	"abi": [
		{
			"inputs": [
				{
					"internalType": "address payable",
					"name": "_insurance_provider",
					"type": "address"
				}
			],
			"stateMutability": "nonpayable",
			"type": "constructor"
		},
		{
			"inputs": [],
			"name": "insurance_provider",
			"outputs": [
				{
					"internalType": "address payable",
					"name": "",
					"type": "address"
				}
			],
			"stateMutability": "view",
			"type": "function"
		},
		{
			"inputs": [
				{
					"internalType": "uint256",
					"name": "",
					"type": "uint256"
				}
			],
			"name": "name_array",
			"outputs": [
				{
					"internalType": "string",
					"name": "",
					"type": "string"
				}
			],
			"stateMutability": "view",
			"type": "function"
		},
		{
			"inputs": [
				{
					"internalType": "string",
					"name": "",
					"type": "string"
				}
			],
			"name": "policies",
			"outputs": [
				{
					"internalType": "string",
					"name": "name",
					"type": "string"
				},
				{
					"internalType": "address",
					"name": "passenger_address",
					"type": "address"
				},
				{
					"internalType": "string",
					"name": "flight_number",
					"type": "string"
				},
				{
					"internalType": "string",
					"name": "flight_date",
					"type": "string"
				},
				{
					"internalType": "string",
					"name": "departure_city",
					"type": "string"
				},
				{
					"internalType": "string",
					"name": "destination_city",
					"type": "string"
				},
				{
					"internalType": "string",
					"name": "policy_status",
					"type": "string"
				}
			],
			"stateMutability": "view",
			"type": "function"
		},
		{
			"inputs": [
				{
					"internalType": "string",
					"name": "name",
					"type": "string"
				},
				{
					"internalType": "string",
					"name": "number",
					"type": "string"
				},
				{
					"internalType": "string",
					"name": "date",
					"type": "string"
				},
				{
					"internalType": "string",
					"name": "departure",
					"type": "string"
				},
				{
					"internalType": "string",
					"name": "destination",
					"type": "string"
				}
			],
			"name": "purchase_policy",
			"outputs": [],
			"stateMutability": "payable",
			"type": "function"
		},
		{
			"inputs": [],
			"name": "verify",
			"outputs": [
				{
					"internalType": "string",
					"name": "",
					"type": "string"
				}
			],
			"stateMutability": "pure",
			"type": "function"
		},
		{
			"inputs": [],
			"name": "view_all_policies",
			"outputs": [
				{
					"internalType": "string",
					"name": "",
					"type": "string"
				}
			],
			"stateMutability": "view",
			"type": "function"
		},
		{
			"inputs": [],
			"name": "view_policy",
			"outputs": [
				{
					"internalType": "string",
					"name": "",
					"type": "string"
				}
			],
			"stateMutability": "pure",
			"type": "function"
		},
		{
			"inputs": [
				{
					"internalType": "string",
					"name": "name",
					"type": "string"
				}
			],
			"name": "view_purchased_policy",
			"outputs": [
				{
					"internalType": "string",
					"name": "",
					"type": "string"
				}
			],
			"stateMutability": "view",
			"type": "function"
		},
		{
			"stateMutability": "payable",
			"type": "receive"
		}
	]
}