{
	"Project3/PhaseI.sol": {
		"PhaseI": {
			"abi": [
				{
					"inputs": [
						{
							"internalType": "address payable",
							"name": "_insurance_provider",
							"type": "address"
						}
					],
					"stateMutability": "nonpayable",
					"type": "constructor"
				},
				{
					"inputs": [],
					"name": "insurance_provider",
					"outputs": [
						{
							"internalType": "address payable",
							"name": "",
							"type": "address"
						}
					],
					"stateMutability": "view",
					"type": "function"
				},
				{
					"inputs": [
						{
							"internalType": "string",
							"name": "",
							"type": "string"
						}
					],
					"name": "policies",
					"outputs": [
						{
							"internalType": "string",
							"name": "name",
							"type": "string"
						},
						{
							"internalType": "address",
							"name": "passenger_address",
							"type": "address"
						},
						{
							"internalType": "string",
							"name": "flight_number",
							"type": "string"
						},
						{
							"internalType": "string",
							"name": "flight_date",
							"type": "string"
						},
						{
							"internalType": "string",
							"name": "departure_city",
							"type": "string"
						},
						{
							"internalType": "string",
							"name": "destination_city",
							"type": "string"
						},
						{
							"internalType": "string",
							"name": "policy_status",
							"type": "string"
						}
					],
					"stateMutability": "view",
					"type": "function"
				},
				{
					"inputs": [
						{
							"internalType": "string",
							"name": "name",
							"type": "string"
						},
						{
							"internalType": "string",
							"name": "number",
							"type": "string"
						},
						{
							"internalType": "string",
							"name": "date",
							"type": "string"
						},
						{
							"internalType": "string",
							"name": "departure",
							"type": "string"
						},
						{
							"internalType": "string",
							"name": "destination",
							"type": "string"
						}
					],
					"name": "purchase_policy",
					"outputs": [],
					"stateMutability": "payable",
					"type": "function"
				},
				{
					"inputs": [],
					"name": "view_policy",
					"outputs": [
						{
							"internalType": "string",
							"name": "",
							"type": "string"
						}
					],
					"stateMutability": "pure",
					"type": "function"
				},
				{
					"inputs": [
						{
							"internalType": "string",
							"name": "name",
							"type": "string"
						}
					],
					"name": "view_purchased_policy",
					"outputs": [
						{
							"internalType": "string",
							"name": "",
							"type": "string"
						}
					],
					"stateMutability": "view",
					"type": "function"
				},
				{
					"stateMutability": "payable",
					"type": "receive"
				}
			],
			"devdoc": {
				"kind": "dev",
				"methods": {},
				"version": 1
			},
			"evm": {
				"assembly": "    /* \"Project3/PhaseI.sol\":68:1705  contract PhaseI {... */\n  mstore(0x40, 0x80)\n    /* \"Project3/PhaseI.sol\":539:654  constructor(address payable _insurance_provider) {... */\n  callvalue\n  dup1\n  iszero\n  tag_1\n  jumpi\n  0x00\n  dup1\n  revert\ntag_1:\n  pop\n  mload(0x40)\n  sub(codesize, bytecodeSize)\n  dup1\n  bytecodeSize\n  dup4\n  codecopy\n  dup2\n  dup2\n  add\n  0x40\n  mstore\n  dup2\n  add\n  swap1\n  tag_2\n  swap2\n  swap1\n  tag_3\n  jump\t// in\ntag_2:\n    /* \"Project3/PhaseI.sol\":619:638  _insurance_provider */\n  dup1\n    /* \"Project3/PhaseI.sol\":598:616  insurance_provider */\n  0x01\n  0x00\n    /* \"Project3/PhaseI.sol\":598:638  insurance_provider = _insurance_provider */\n  0x0100\n  exp\n  dup2\n  sload\n  dup2\n  0xffffffffffffffffffffffffffffffffffffffff\n  mul\n  not\n  and\n  swap1\n  dup4\n  0xffffffffffffffffffffffffffffffffffffffff\n  and\n  mul\n  or\n  swap1\n  sstore\n  pop\n    /* \"Project3/PhaseI.sol\":539:654  constructor(address payable _insurance_provider) {... */\n  pop\n    /* \"Project3/PhaseI.sol\":68:1705  contract PhaseI {... */\n  jump(tag_6)\n    /* \"#utility.yul\":88:205   */\ntag_8:\n    /* \"#utility.yul\":197:198   */\n  0x00\n    /* \"#utility.yul\":194:195   */\n  dup1\n    /* \"#utility.yul\":187:199   */\n  revert\n    /* \"#utility.yul\":334:460   */\ntag_10:\n    /* \"#utility.yul\":371:378   */\n  0x00\n    /* \"#utility.yul\":411:453   */\n  0xffffffffffffffffffffffffffffffffffffffff\n    /* \"#utility.yul\":404:409   */\n  dup3\n    /* \"#utility.yul\":400:454   */\n  and\n    /* \"#utility.yul\":389:454   */\n  swap1\n  pop\n    /* \"#utility.yul\":334:460   */\n  swap2\n  swap1\n  pop\n  jump\t// out\n    /* \"#utility.yul\":466:570   */\ntag_11:\n    /* \"#utility.yul\":511:518   */\n  0x00\n    /* \"#utility.yul\":540:564   */\n  tag_20\n    /* \"#utility.yul\":558:563   */\n  dup3\n    /* \"#utility.yul\":540:564   */\n  tag_10\n  jump\t// in\ntag_20:\n    /* \"#utility.yul\":529:564   */\n  swap1\n  pop\n    /* \"#utility.yul\":466:570   */\n  swap2\n  swap1\n  pop\n  jump\t// out\n    /* \"#utility.yul\":576:714   */\ntag_12:\n    /* \"#utility.yul\":657:689   */\n  tag_22\n    /* \"#utility.yul\":683:688   */\n  dup2\n    /* \"#utility.yul\":657:689   */\n  tag_11\n  jump\t// in\ntag_22:\n    /* \"#utility.yul\":650:655   */\n  dup2\n    /* \"#utility.yul\":647:690   */\n  eq\n    /* \"#utility.yul\":637:708   */\n  tag_23\n  jumpi\n    /* \"#utility.yul\":704:705   */\n  0x00\n    /* \"#utility.yul\":701:702   */\n  dup1\n    /* \"#utility.yul\":694:706   */\n  revert\n    /* \"#utility.yul\":637:708   */\ntag_23:\n    /* \"#utility.yul\":576:714   */\n  pop\n  jump\t// out\n    /* \"#utility.yul\":720:879   */\ntag_13:\n    /* \"#utility.yul\":785:790   */\n  0x00\n    /* \"#utility.yul\":816:822   */\n  dup2\n    /* \"#utility.yul\":810:823   */\n  mload\n    /* \"#utility.yul\":801:823   */\n  swap1\n  pop\n    /* \"#utility.yul\":832:873   */\n  tag_25\n    /* \"#utility.yul\":867:872   */\n  dup2\n    /* \"#utility.yul\":832:873   */\n  tag_12\n  jump\t// in\ntag_25:\n    /* \"#utility.yul\":720:879   */\n  swap3\n  swap2\n  pop\n  pop\n  jump\t// out\n    /* \"#utility.yul\":885:1252   */\ntag_3:\n    /* \"#utility.yul\":963:969   */\n  0x00\n    /* \"#utility.yul\":1012:1014   */\n  0x20\n    /* \"#utility.yul\":1000:1009   */\n  dup3\n    /* \"#utility.yul\":991:998   */\n  dup5\n    /* \"#utility.yul\":987:1010   */\n  sub\n    /* \"#utility.yul\":983:1015   */\n  slt\n    /* \"#utility.yul\":980:1099   */\n  iszero\n  tag_27\n  jumpi\n    /* \"#utility.yul\":1018:1097   */\n  tag_28\n  tag_8\n  jump\t// in\ntag_28:\n    /* \"#utility.yul\":980:1099   */\ntag_27:\n    /* \"#utility.yul\":1138:1139   */\n  0x00\n    /* \"#utility.yul\":1163:1235   */\n  tag_29\n    /* \"#utility.yul\":1227:1234   */\n  dup5\n    /* \"#utility.yul\":1218:1224   */\n  dup3\n    /* \"#utility.yul\":1207:1216   */\n  dup6\n    /* \"#utility.yul\":1203:1225   */\n  add\n    /* \"#utility.yul\":1163:1235   */\n  tag_13\n  jump\t// in\ntag_29:\n    /* \"#utility.yul\":1153:1235   */\n  swap2\n  pop\n    /* \"#utility.yul\":1109:1245   */\n  pop\n    /* \"#utility.yul\":885:1252   */\n  swap3\n  swap2\n  pop\n  pop\n  jump\t// out\n    /* \"Project3/PhaseI.sol\":68:1705  contract PhaseI {... */\ntag_6:\n  dataSize(sub_0)\n  dup1\n  dataOffset(sub_0)\n  0x00\n  codecopy\n  0x00\n  return\nstop\n\nsub_0: assembly {\n        /* \"Project3/PhaseI.sol\":68:1705  contract PhaseI {... */\n      mstore(0x40, 0x80)\n      jumpi(tag_1, lt(calldatasize, 0x04))\n      shr(0xe0, calldataload(0x00))\n      dup1\n      0x4a7ba3e5\n      eq\n      tag_3\n      jumpi\n      dup1\n      0x50dd73be\n      eq\n      tag_4\n      jumpi\n      dup1\n      0xc50d73f6\n      eq\n      tag_5\n      jumpi\n      dup1\n      0xc738b563\n      eq\n      tag_6\n      jumpi\n      dup1\n      0xf25797c6\n      eq\n      tag_7\n      jumpi\n      jump(tag_2)\n    tag_1:\n      jumpi(tag_2, calldatasize)\n      stop\n    tag_2:\n      0x00\n      dup1\n      revert\n        /* \"Project3/PhaseI.sol\":491:532  mapping(string => Policy) public policies */\n    tag_3:\n      callvalue\n      dup1\n      iszero\n      tag_10\n      jumpi\n      0x00\n      dup1\n      revert\n    tag_10:\n      pop\n      tag_11\n      0x04\n      dup1\n      calldatasize\n      sub\n      dup2\n      add\n      swap1\n      tag_12\n      swap2\n      swap1\n      tag_13\n      jump\t// in\n    tag_12:\n      tag_14\n      jump\t// in\n    tag_11:\n      mload(0x40)\n      tag_15\n      swap8\n      swap7\n      swap6\n      swap5\n      swap4\n      swap3\n      swap2\n      swap1\n      tag_16\n      jump\t// in\n    tag_15:\n      mload(0x40)\n      dup1\n      swap2\n      sub\n      swap1\n      return\n        /* \"Project3/PhaseI.sol\":111:152  address payable public insurance_provider */\n    tag_4:\n      callvalue\n      dup1\n      iszero\n      tag_17\n      jumpi\n      0x00\n      dup1\n      revert\n    tag_17:\n      pop\n      tag_18\n      tag_19\n      jump\t// in\n    tag_18:\n      mload(0x40)\n      tag_20\n      swap2\n      swap1\n      tag_21\n      jump\t// in\n    tag_20:\n      mload(0x40)\n      dup1\n      swap2\n      sub\n      swap1\n      return\n        /* \"Project3/PhaseI.sol\":829:1247  function purchase_policy(string calldata name, string calldata number, string calldata date, string calldata departure, string calldata destination) public payable {... */\n    tag_5:\n      tag_22\n      0x04\n      dup1\n      calldatasize\n      sub\n      dup2\n      add\n      swap1\n      tag_23\n      swap2\n      swap1\n      tag_24\n      jump\t// in\n    tag_23:\n      tag_25\n      jump\t// in\n    tag_22:\n      stop\n        /* \"Project3/PhaseI.sol\":660:823  function view_policy() public pure returns (string memory) {... */\n    tag_6:\n      callvalue\n      dup1\n      iszero\n      tag_26\n      jumpi\n      0x00\n      dup1\n      revert\n    tag_26:\n      pop\n      tag_27\n      tag_28\n      jump\t// in\n    tag_27:\n      mload(0x40)\n      tag_29\n      swap2\n      swap1\n      tag_30\n      jump\t// in\n    tag_29:\n      mload(0x40)\n      dup1\n      swap2\n      sub\n      swap1\n      return\n        /* \"Project3/PhaseI.sol\":1253:1667  function view_purchased_policy(string memory name) public view returns (string memory) {... */\n    tag_7:\n      callvalue\n      dup1\n      iszero\n      tag_31\n      jumpi\n      0x00\n      dup1\n      revert\n    tag_31:\n      pop\n      tag_32\n      0x04\n      dup1\n      calldatasize\n      sub\n      dup2\n      add\n      swap1\n      tag_33\n      swap2\n      swap1\n      tag_13\n      jump\t// in\n    tag_33:\n      tag_34\n      jump\t// in\n    tag_32:\n      mload(0x40)\n      tag_35\n      swap2\n      swap1\n      tag_30\n      jump\t// in\n    tag_35:\n      mload(0x40)\n      dup1\n      swap2\n      sub\n      swap1\n      return\n        /* \"Project3/PhaseI.sol\":491:532  mapping(string => Policy) public policies */\n    tag_14:\n      0x02\n      dup2\n      dup1\n      mload\n      0x20\n      dup2\n      add\n      dup3\n      add\n      dup1\n      mload\n      dup5\n      dup3\n      mstore\n      0x20\n      dup4\n      add\n      0x20\n      dup6\n      add\n      keccak256\n      dup2\n      dup4\n      mstore\n      dup1\n      swap6\n      pop\n      pop\n      pop\n      pop\n      pop\n      pop\n      0x00\n      swap2\n      pop\n      swap1\n      pop\n      dup1\n      0x00\n      add\n      dup1\n      sload\n      tag_36\n      swap1\n      tag_37\n      jump\t// in\n    tag_36:\n      dup1\n      0x1f\n      add\n      0x20\n      dup1\n      swap2\n      div\n      mul\n      0x20\n      add\n      mload(0x40)\n      swap1\n      dup2\n      add\n      0x40\n      mstore\n      dup1\n      swap3\n      swap2\n      swap1\n      dup2\n      dup2\n      mstore\n      0x20\n      add\n      dup3\n      dup1\n      sload\n      tag_38\n      swap1\n      tag_37\n      jump\t// in\n    tag_38:\n      dup1\n      iszero\n      tag_39\n      jumpi\n      dup1\n      0x1f\n      lt\n      tag_40\n      jumpi\n      0x0100\n      dup1\n      dup4\n      sload\n      div\n      mul\n      dup4\n      mstore\n      swap2\n      0x20\n      add\n      swap2\n      jump(tag_39)\n    tag_40:\n      dup3\n      add\n      swap2\n      swap1\n      0x00\n      mstore\n      keccak256(0x00, 0x20)\n      swap1\n    tag_41:\n      dup2\n      sload\n      dup2\n      mstore\n      swap1\n      0x01\n      add\n      swap1\n      0x20\n      add\n      dup1\n      dup4\n      gt\n      tag_41\n      jumpi\n      dup3\n      swap1\n      sub\n      0x1f\n      and\n      dup3\n      add\n      swap2\n    tag_39:\n      pop\n      pop\n      pop\n      pop\n      pop\n      swap1\n      dup1\n      0x01\n      add\n      0x00\n      swap1\n      sload\n      swap1\n      0x0100\n      exp\n      swap1\n      div\n      0xffffffffffffffffffffffffffffffffffffffff\n      and\n      swap1\n      dup1\n      0x02\n      add\n      dup1\n      sload\n      tag_42\n      swap1\n      tag_37\n      jump\t// in\n    tag_42:\n      dup1\n      0x1f\n      add\n      0x20\n      dup1\n      swap2\n      div\n      mul\n      0x20\n      add\n      mload(0x40)\n      swap1\n      dup2\n      add\n      0x40\n      mstore\n      dup1\n      swap3\n      swap2\n      swap1\n      dup2\n      dup2\n      mstore\n      0x20\n      add\n      dup3\n      dup1\n      sload\n      tag_43\n      swap1\n      tag_37\n      jump\t// in\n    tag_43:\n      dup1\n      iszero\n      tag_44\n      jumpi\n      dup1\n      0x1f\n      lt\n      tag_45\n      jumpi\n      0x0100\n      dup1\n      dup4\n      sload\n      div\n      mul\n      dup4\n      mstore\n      swap2\n      0x20\n      add\n      swap2\n      jump(tag_44)\n    tag_45:\n      dup3\n      add\n      swap2\n      swap1\n      0x00\n      mstore\n      keccak256(0x00, 0x20)\n      swap1\n    tag_46:\n      dup2\n      sload\n      dup2\n      mstore\n      swap1\n      0x01\n      add\n      swap1\n      0x20\n      add\n      dup1\n      dup4\n      gt\n      tag_46\n      jumpi\n      dup3\n      swap1\n      sub\n      0x1f\n      and\n      dup3\n      add\n      swap2\n    tag_44:\n      pop\n      pop\n      pop\n      pop\n      pop\n      swap1\n      dup1\n      0x03\n      add\n      dup1\n      sload\n      tag_47\n      swap1\n      tag_37\n      jump\t// in\n    tag_47:\n      dup1\n      0x1f\n      add\n      0x20\n      dup1\n      swap2\n      div\n      mul\n      0x20\n      add\n      mload(0x40)\n      swap1\n      dup2\n      add\n      0x40\n      mstore\n      dup1\n      swap3\n      swap2\n      swap1\n      dup2\n      dup2\n      mstore\n      0x20\n      add\n      dup3\n      dup1\n      sload\n      tag_48\n      swap1\n      tag_37\n      jump\t// in\n    tag_48:\n      dup1\n      iszero\n      tag_49\n      jumpi\n      dup1\n      0x1f\n      lt\n      tag_50\n      jumpi\n      0x0100\n      dup1\n      dup4\n      sload\n      div\n      mul\n      dup4\n      mstore\n      swap2\n      0x20\n      add\n      swap2\n      jump(tag_49)\n    tag_50:\n      dup3\n      add\n      swap2\n      swap1\n      0x00\n      mstore\n      keccak256(0x00, 0x20)\n      swap1\n    tag_51:\n      dup2\n      sload\n      dup2\n      mstore\n      swap1\n      0x01\n      add\n      swap1\n      0x20\n      add\n      dup1\n      dup4\n      gt\n      tag_51\n      jumpi\n      dup3\n      swap1\n      sub\n      0x1f\n      and\n      dup3\n      add\n      swap2\n    tag_49:\n      pop\n      pop\n      pop\n      pop\n      pop\n      swap1\n      dup1\n      0x04\n      add\n      dup1\n      sload\n      tag_52\n      swap1\n      tag_37\n      jump\t// in\n    tag_52:\n      dup1\n      0x1f\n      add\n      0x20\n      dup1\n      swap2\n      div\n      mul\n      0x20\n      add\n      mload(0x40)\n      swap1\n      dup2\n      add\n      0x40\n      mstore\n      dup1\n      swap3\n      swap2\n      swap1\n      dup2\n      dup2\n      mstore\n      0x20\n      add\n      dup3\n      dup1\n      sload\n      tag_53\n      swap1\n      tag_37\n      jump\t// in\n    tag_53:\n      dup1\n      iszero\n      tag_54\n      jumpi\n      dup1\n      0x1f\n      lt\n      tag_55\n      jumpi\n      0x0100\n      dup1\n      dup4\n      sload\n      div\n      mul\n      dup4\n      mstore\n      swap2\n      0x20\n      add\n      swap2\n      jump(tag_54)\n    tag_55:\n      dup3\n      add\n      swap2\n      swap1\n      0x00\n      mstore\n      keccak256(0x00, 0x20)\n      swap1\n    tag_56:\n      dup2\n      sload\n      dup2\n      mstore\n      swap1\n      0x01\n      add\n      swap1\n      0x20\n      add\n      dup1\n      dup4\n      gt\n      tag_56\n      jumpi\n      dup3\n      swap1\n      sub\n      0x1f\n      and\n      dup3\n      add\n      swap2\n    tag_54:\n      pop\n      pop\n      pop\n      pop\n      pop\n      swap1\n      dup1\n      0x05\n      add\n      dup1\n      sload\n      tag_57\n      swap1\n      tag_37\n      jump\t// in\n    tag_57:\n      dup1\n      0x1f\n      add\n      0x20\n      dup1\n      swap2\n      div\n      mul\n      0x20\n      add\n      mload(0x40)\n      swap1\n      dup2\n      add\n      0x40\n      mstore\n      dup1\n      swap3\n      swap2\n      swap1\n      dup2\n      dup2\n      mstore\n      0x20\n      add\n      dup3\n      dup1\n      sload\n      tag_58\n      swap1\n      tag_37\n      jump\t// in\n    tag_58:\n      dup1\n      iszero\n      tag_59\n      jumpi\n      dup1\n      0x1f\n      lt\n      tag_60\n      jumpi\n      0x0100\n      dup1\n      dup4\n      sload\n      div\n      mul\n      dup4\n      mstore\n      swap2\n      0x20\n      add\n      swap2\n      jump(tag_59)\n    tag_60:\n      dup3\n      add\n      swap2\n      swap1\n      0x00\n      mstore\n      keccak256(0x00, 0x20)\n      swap1\n    tag_61:\n      dup2\n      sload\n      dup2\n      mstore\n      swap1\n      0x01\n      add\n      swap1\n      0x20\n      add\n      dup1\n      dup4\n      gt\n      tag_61\n      jumpi\n      dup3\n      swap1\n      sub\n      0x1f\n      and\n      dup3\n      add\n      swap2\n    tag_59:\n      pop\n      pop\n      pop\n      pop\n      pop\n      swap1\n      dup1\n      0x06\n      add\n      dup1\n      sload\n      tag_62\n      swap1\n      tag_37\n      jump\t// in\n    tag_62:\n      dup1\n      0x1f\n      add\n      0x20\n      dup1\n      swap2\n      div\n      mul\n      0x20\n      add\n      mload(0x40)\n      swap1\n      dup2\n      add\n      0x40\n      mstore\n      dup1\n      swap3\n      swap2\n      swap1\n      dup2\n      dup2\n      mstore\n      0x20\n      add\n      dup3\n      dup1\n      sload\n      tag_63\n      swap1\n      tag_37\n      jump\t// in\n    tag_63:\n      dup1\n      iszero\n      tag_64\n      jumpi\n      dup1\n      0x1f\n      lt\n      tag_65\n      jumpi\n      0x0100\n      dup1\n      dup4\n      sload\n      div\n      mul\n      dup4\n      mstore\n      swap2\n      0x20\n      add\n      swap2\n      jump(tag_64)\n    tag_65:\n      dup3\n      add\n      swap2\n      swap1\n      0x00\n      mstore\n      keccak256(0x00, 0x20)\n      swap1\n    tag_66:\n      dup2\n      sload\n      dup2\n      mstore\n      swap1\n      0x01\n      add\n      swap1\n      0x20\n      add\n      dup1\n      dup4\n      gt\n      tag_66\n      jumpi\n      dup3\n      swap1\n      sub\n      0x1f\n      and\n      dup3\n      add\n      swap2\n    tag_64:\n      pop\n      pop\n      pop\n      pop\n      pop\n      swap1\n      pop\n      dup8\n      jump\t// out\n        /* \"Project3/PhaseI.sol\":111:152  address payable public insurance_provider */\n    tag_19:\n      0x01\n      0x00\n      swap1\n      sload\n      swap1\n      0x0100\n      exp\n      swap1\n      div\n      0xffffffffffffffffffffffffffffffffffffffff\n      and\n      dup2\n      jump\t// out\n        /* \"Project3/PhaseI.sol\":829:1247  function purchase_policy(string calldata name, string calldata number, string calldata date, string calldata departure, string calldata destination) public payable {... */\n    tag_25:\n        /* \"Project3/PhaseI.sol\":1096:1114  insurance_provider */\n      0x01\n      0x00\n      swap1\n      sload\n      swap1\n      0x0100\n      exp\n      swap1\n      div\n      0xffffffffffffffffffffffffffffffffffffffff\n      and\n        /* \"Project3/PhaseI.sol\":1096:1123  insurance_provider.transfer */\n      0xffffffffffffffffffffffffffffffffffffffff\n      and\n        /* \"Project3/PhaseI.sol\":1096:1135  insurance_provider.transfer(0.01 ether) */\n      0x08fc\n        /* \"Project3/PhaseI.sol\":1124:1134  0.01 ether */\n      0x2386f26fc10000\n        /* \"Project3/PhaseI.sol\":1096:1135  insurance_provider.transfer(0.01 ether) */\n      swap1\n      dup2\n      iszero\n      mul\n      swap1\n      mload(0x40)\n      0x00\n      mload(0x40)\n      dup1\n      dup4\n      sub\n      dup2\n      dup6\n      dup9\n      dup9\n      call\n      swap4\n      pop\n      pop\n      pop\n      pop\n      iszero\n      dup1\n      iszero\n      tag_69\n      jumpi\n      returndatasize\n      0x00\n      dup1\n      returndatacopy\n      revert(0x00, returndatasize)\n    tag_69:\n      pop\n        /* \"Project3/PhaseI.sol\":1162:1240  Policy(name, address(this), number, date, departure, destination, \"Purchased\") */\n      mload(0x40)\n      dup1\n      0xe0\n      add\n      0x40\n      mstore\n      dup1\n        /* \"Project3/PhaseI.sol\":1169:1173  name */\n      dup12\n      dup12\n        /* \"Project3/PhaseI.sol\":1162:1240  Policy(name, address(this), number, date, departure, destination, \"Purchased\") */\n      dup1\n      dup1\n      0x1f\n      add\n      0x20\n      dup1\n      swap2\n      div\n      mul\n      0x20\n      add\n      mload(0x40)\n      swap1\n      dup2\n      add\n      0x40\n      mstore\n      dup1\n      swap4\n      swap3\n      swap2\n      swap1\n      dup2\n      dup2\n      mstore\n      0x20\n      add\n      dup4\n      dup4\n      dup1\n      dup3\n      dup5\n      calldatacopy\n      0x00\n      dup2\n      dup5\n      add\n      mstore\n      not(0x1f)\n      0x1f\n      dup3\n      add\n      and\n      swap1\n      pop\n      dup1\n      dup4\n      add\n      swap3\n      pop\n      pop\n      pop\n      pop\n      pop\n      pop\n      pop\n      dup2\n      mstore\n      0x20\n      add\n        /* \"Project3/PhaseI.sol\":1183:1187  this */\n      address\n        /* \"Project3/PhaseI.sol\":1162:1240  Policy(name, address(this), number, date, departure, destination, \"Purchased\") */\n      0xffffffffffffffffffffffffffffffffffffffff\n      and\n      dup2\n      mstore\n      0x20\n      add\n        /* \"Project3/PhaseI.sol\":1190:1196  number */\n      dup10\n      dup10\n        /* \"Project3/PhaseI.sol\":1162:1240  Policy(name, address(this), number, date, departure, destination, \"Purchased\") */\n      dup1\n      dup1\n      0x1f\n      add\n      0x20\n      dup1\n      swap2\n      div\n      mul\n      0x20\n      add\n      mload(0x40)\n      swap1\n      dup2\n      add\n      0x40\n      mstore\n      dup1\n      swap4\n      swap3\n      swap2\n      swap1\n      dup2\n      dup2\n      mstore\n      0x20\n      add\n      dup4\n      dup4\n      dup1\n      dup3\n      dup5\n      calldatacopy\n      0x00\n      dup2\n      dup5\n      add\n      mstore\n      not(0x1f)\n      0x1f\n      dup3\n      add\n      and\n      swap1\n      pop\n      dup1\n      dup4\n      add\n      swap3\n      pop\n      pop\n      pop\n      pop\n      pop\n      pop\n      pop\n      dup2\n      mstore\n      0x20\n      add\n        /* \"Project3/PhaseI.sol\":1198:1202  date */\n      dup8\n      dup8\n        /* \"Project3/PhaseI.sol\":1162:1240  Policy(name, address(this), number, date, departure, destination, \"Purchased\") */\n      dup1\n      dup1\n      0x1f\n      add\n      0x20\n      dup1\n      swap2\n      div\n      mul\n      0x20\n      add\n      mload(0x40)\n      swap1\n      dup2\n      add\n      0x40\n      mstore\n      dup1\n      swap4\n      swap3\n      swap2\n      swap1\n      dup2\n      dup2\n      mstore\n      0x20\n      add\n      dup4\n      dup4\n      dup1\n      dup3\n      dup5\n      calldatacopy\n      0x00\n      dup2\n      dup5\n      add\n      mstore\n      not(0x1f)\n      0x1f\n      dup3\n      add\n      and\n      swap1\n      pop\n      dup1\n      dup4\n      add\n      swap3\n      pop\n      pop\n      pop\n      pop\n      pop\n      pop\n      pop\n      dup2\n      mstore\n      0x20\n      add\n        /* \"Project3/PhaseI.sol\":1204:1213  departure */\n      dup6\n      dup6\n        /* \"Project3/PhaseI.sol\":1162:1240  Policy(name, address(this), number, date, departure, destination, \"Purchased\") */\n      dup1\n      dup1\n      0x1f\n      add\n      0x20\n      dup1\n      swap2\n      div\n      mul\n      0x20\n      add\n      mload(0x40)\n      swap1\n      dup2\n      add\n      0x40\n      mstore\n      dup1\n      swap4\n      swap3\n      swap2\n      swap1\n      dup2\n      dup2\n      mstore\n      0x20\n      add\n      dup4\n      dup4\n      dup1\n      dup3\n      dup5\n      calldatacopy\n      0x00\n      dup2\n      dup5\n      add\n      mstore\n      not(0x1f)\n      0x1f\n      dup3\n      add\n      and\n      swap1\n      pop\n      dup1\n      dup4\n      add\n      swap3\n      pop\n      pop\n      pop\n      pop\n      pop\n      pop\n      pop\n      dup2\n      mstore\n      0x20\n      add\n        /* \"Project3/PhaseI.sol\":1215:1226  destination */\n      dup4\n      dup4\n        /* \"Project3/PhaseI.sol\":1162:1240  Policy(name, address(this), number, date, departure, destination, \"Purchased\") */\n      dup1\n      dup1\n      0x1f\n      add\n      0x20\n      dup1\n      swap2\n      div\n      mul\n      0x20\n      add\n      mload(0x40)\n      swap1\n      dup2\n      add\n      0x40\n      mstore\n      dup1\n      swap4\n      swap3\n      swap2\n      swap1\n      dup2\n      dup2\n      mstore\n      0x20\n      add\n      dup4\n      dup4\n      dup1\n      dup3\n      dup5\n      calldatacopy\n      0x00\n      dup2\n      dup5\n      add\n      mstore\n      not(0x1f)\n      0x1f\n      dup3\n      add\n      and\n      swap1\n      pop\n      dup1\n      dup4\n      add\n      swap3\n      pop\n      pop\n      pop\n      pop\n      pop\n      pop\n      pop\n      dup2\n      mstore\n      0x20\n      add\n      mload(0x40)\n      dup1\n      0x40\n      add\n      0x40\n      mstore\n      dup1\n      0x09\n      dup2\n      mstore\n      0x20\n      add\n      0x5075726368617365640000000000000000000000000000000000000000000000\n      dup2\n      mstore\n      pop\n      dup2\n      mstore\n      pop\n        /* \"Project3/PhaseI.sol\":1145:1153  policies */\n      0x02\n        /* \"Project3/PhaseI.sol\":1154:1158  name */\n      dup12\n      dup12\n        /* \"Project3/PhaseI.sol\":1145:1159  policies[name] */\n      mload(0x40)\n      tag_70\n      swap3\n      swap2\n      swap1\n      tag_71\n      jump\t// in\n    tag_70:\n      swap1\n      dup2\n      mstore\n      0x20\n      add\n      mload(0x40)\n      dup1\n      swap2\n      sub\n      swap1\n      keccak256\n        /* \"Project3/PhaseI.sol\":1145:1240  policies[name] = Policy(name, address(this), number, date, departure, destination, \"Purchased\") */\n      0x00\n      dup3\n      add\n      mload\n      dup2\n      0x00\n      add\n      swap1\n      dup2\n      tag_72\n      swap2\n      swap1\n      tag_73\n      jump\t// in\n    tag_72:\n      pop\n      0x20\n      dup3\n      add\n      mload\n      dup2\n      0x01\n      add\n      exp(0x0100, 0x00)\n      dup2\n      sload\n      dup2\n      0xffffffffffffffffffffffffffffffffffffffff\n      mul\n      not\n      and\n      swap1\n      dup4\n      0xffffffffffffffffffffffffffffffffffffffff\n      and\n      mul\n      or\n      swap1\n      sstore\n      pop\n      0x40\n      dup3\n      add\n      mload\n      dup2\n      0x02\n      add\n      swap1\n      dup2\n      tag_74\n      swap2\n      swap1\n      tag_73\n      jump\t// in\n    tag_74:\n      pop\n      0x60\n      dup3\n      add\n      mload\n      dup2\n      0x03\n      add\n      swap1\n      dup2\n      tag_75\n      swap2\n      swap1\n      tag_73\n      jump\t// in\n    tag_75:\n      pop\n      0x80\n      dup3\n      add\n      mload\n      dup2\n      0x04\n      add\n      swap1\n      dup2\n      tag_76\n      swap2\n      swap1\n      tag_73\n      jump\t// in\n    tag_76:\n      pop\n      0xa0\n      dup3\n      add\n      mload\n      dup2\n      0x05\n      add\n      swap1\n      dup2\n      tag_77\n      swap2\n      swap1\n      tag_73\n      jump\t// in\n    tag_77:\n      pop\n      0xc0\n      dup3\n      add\n      mload\n      dup2\n      0x06\n      add\n      swap1\n      dup2\n      tag_78\n      swap2\n      swap1\n      tag_73\n      jump\t// in\n    tag_78:\n      pop\n      swap1\n      pop\n      pop\n        /* \"Project3/PhaseI.sol\":829:1247  function purchase_policy(string calldata name, string calldata number, string calldata date, string calldata departure, string calldata destination) public payable {... */\n      pop\n      pop\n      pop\n      pop\n      pop\n      pop\n      pop\n      pop\n      pop\n      pop\n      jump\t// out\n        /* \"Project3/PhaseI.sol\":660:823  function view_policy() public pure returns (string memory) {... */\n    tag_28:\n        /* \"Project3/PhaseI.sol\":704:717  string memory */\n      0x60\n        /* \"Project3/PhaseI.sol\":729:816  return \"Premium: 0.01 Ether \\nIndemnity: 0.02 Ether \\nCoverage issues: hail and floods\" */\n      mload(0x40)\n      dup1\n      0x80\n      add\n      0x40\n      mstore\n      dup1\n      0x4c\n      dup2\n      mstore\n      0x20\n      add\n      data_c8be08d5e2404c64eec4fa2070eabc6bbf9ff0d11045ed005e7513f9fc9de59b\n      0x4c\n      swap2\n      codecopy\n      swap1\n      pop\n        /* \"Project3/PhaseI.sol\":660:823  function view_policy() public pure returns (string memory) {... */\n      swap1\n      jump\t// out\n        /* \"Project3/PhaseI.sol\":1253:1667  function view_purchased_policy(string memory name) public view returns (string memory) {... */\n    tag_34:\n        /* \"Project3/PhaseI.sol\":1325:1338  string memory */\n      0x60\n        /* \"Project3/PhaseI.sol\":1391:1399  policies */\n      0x02\n        /* \"Project3/PhaseI.sol\":1400:1404  name */\n      dup3\n        /* \"Project3/PhaseI.sol\":1391:1405  policies[name] */\n      mload(0x40)\n      tag_81\n      swap2\n      swap1\n      tag_82\n      jump\t// in\n    tag_81:\n      swap1\n      dup2\n      mstore\n      0x20\n      add\n      mload(0x40)\n      dup1\n      swap2\n      sub\n      swap1\n      keccak256\n        /* \"Project3/PhaseI.sol\":1391:1410  policies[name].name */\n      0x00\n      add\n        /* \"Project3/PhaseI.sol\":1433:1441  policies */\n      0x02\n        /* \"Project3/PhaseI.sol\":1442:1446  name */\n      dup4\n        /* \"Project3/PhaseI.sol\":1433:1447  policies[name] */\n      mload(0x40)\n      tag_83\n      swap2\n      swap1\n      tag_82\n      jump\t// in\n    tag_83:\n      swap1\n      dup2\n      mstore\n      0x20\n      add\n      mload(0x40)\n      dup1\n      swap2\n      sub\n      swap1\n      keccak256\n        /* \"Project3/PhaseI.sol\":1433:1461  policies[name].flight_number */\n      0x02\n      add\n        /* \"Project3/PhaseI.sol\":1482:1490  policies */\n      0x02\n        /* \"Project3/PhaseI.sol\":1491:1495  name */\n      dup5\n        /* \"Project3/PhaseI.sol\":1482:1496  policies[name] */\n      mload(0x40)\n      tag_84\n      swap2\n      swap1\n      tag_82\n      jump\t// in\n    tag_84:\n      swap1\n      dup2\n      mstore\n      0x20\n      add\n      mload(0x40)\n      dup1\n      swap2\n      sub\n      swap1\n      keccak256\n        /* \"Project3/PhaseI.sol\":1482:1508  policies[name].flight_date */\n      0x03\n      add\n        /* \"Project3/PhaseI.sol\":1527:1535  policies */\n      0x02\n        /* \"Project3/PhaseI.sol\":1536:1540  name */\n      dup6\n        /* \"Project3/PhaseI.sol\":1527:1541  policies[name] */\n      mload(0x40)\n      tag_85\n      swap2\n      swap1\n      tag_82\n      jump\t// in\n    tag_85:\n      swap1\n      dup2\n      mstore\n      0x20\n      add\n      mload(0x40)\n      dup1\n      swap2\n      sub\n      swap1\n      keccak256\n        /* \"Project3/PhaseI.sol\":1527:1553  policies[name].flight_date */\n      0x03\n      add\n        /* \"Project3/PhaseI.sol\":1575:1583  policies */\n      0x02\n        /* \"Project3/PhaseI.sol\":1584:1588  name */\n      dup7\n        /* \"Project3/PhaseI.sol\":1575:1589  policies[name] */\n      mload(0x40)\n      tag_86\n      swap2\n      swap1\n      tag_82\n      jump\t// in\n    tag_86:\n      swap1\n      dup2\n      mstore\n      0x20\n      add\n      mload(0x40)\n      dup1\n      swap2\n      sub\n      swap1\n      keccak256\n        /* \"Project3/PhaseI.sol\":1575:1604  policies[name].departure_city */\n      0x04\n      add\n        /* \"Project3/PhaseI.sol\":1628:1636  policies */\n      0x02\n        /* \"Project3/PhaseI.sol\":1637:1641  name */\n      dup8\n        /* \"Project3/PhaseI.sol\":1628:1642  policies[name] */\n      mload(0x40)\n      tag_87\n      swap2\n      swap1\n      tag_82\n      jump\t// in\n    tag_87:\n      swap1\n      dup2\n      mstore\n      0x20\n      add\n      mload(0x40)\n      dup1\n      swap2\n      sub\n      swap1\n      keccak256\n        /* \"Project3/PhaseI.sol\":1628:1659  policies[name].destination_city */\n      0x05\n      add\n        /* \"Project3/PhaseI.sol\":1357:1660  string.concat(\"Passenger Name: \", policies[name].name, \"\\nFlight Number: \", policies[name].flight_number, \"\\nFlight Date: \", policies[name].flight_date, \"Flight date: \", policies[name].flight_date, \"Departure city: \", policies[name].departure_city, \"Destination city: \", policies[name].destination_city) */\n      add(0x20, mload(0x40))\n      tag_88\n      swap7\n      swap6\n      swap5\n      swap4\n      swap3\n      swap2\n      swap1\n      tag_89\n      jump\t// in\n    tag_88:\n      mload(0x40)\n      0x20\n      dup2\n      dup4\n      sub\n      sub\n      dup2\n      mstore\n      swap1\n      0x40\n      mstore\n        /* \"Project3/PhaseI.sol\":1350:1660  return string.concat(\"Passenger Name: \", policies[name].name, \"\\nFlight Number: \", policies[name].flight_number, \"\\nFlight Date: \", policies[name].flight_date, \"Flight date: \", policies[name].flight_date, \"Departure city: \", policies[name].departure_city, \"Destination city: \", policies[name].destination_city) */\n      swap1\n      pop\n        /* \"Project3/PhaseI.sol\":1253:1667  function view_purchased_policy(string memory name) public view returns (string memory) {... */\n      swap2\n      swap1\n      pop\n      jump\t// out\n        /* \"#utility.yul\":7:82   */\n    tag_90:\n        /* \"#utility.yul\":40:46   */\n      0x00\n        /* \"#utility.yul\":73:75   */\n      0x40\n        /* \"#utility.yul\":67:76   */\n      mload\n        /* \"#utility.yul\":57:76   */\n      swap1\n      pop\n        /* \"#utility.yul\":7:82   */\n      swap1\n      jump\t// out\n        /* \"#utility.yul\":88:205   */\n    tag_91:\n        /* \"#utility.yul\":197:198   */\n      0x00\n        /* \"#utility.yul\":194:195   */\n      dup1\n        /* \"#utility.yul\":187:199   */\n      revert\n        /* \"#utility.yul\":211:328   */\n    tag_92:\n        /* \"#utility.yul\":320:321   */\n      0x00\n        /* \"#utility.yul\":317:318   */\n      dup1\n        /* \"#utility.yul\":310:322   */\n      revert\n        /* \"#utility.yul\":334:451   */\n    tag_93:\n        /* \"#utility.yul\":443:444   */\n      0x00\n        /* \"#utility.yul\":440:441   */\n      dup1\n        /* \"#utility.yul\":433:445   */\n      revert\n        /* \"#utility.yul\":457:574   */\n    tag_94:\n        /* \"#utility.yul\":566:567   */\n      0x00\n        /* \"#utility.yul\":563:564   */\n      dup1\n        /* \"#utility.yul\":556:568   */\n      revert\n        /* \"#utility.yul\":580:682   */\n    tag_95:\n        /* \"#utility.yul\":621:627   */\n      0x00\n        /* \"#utility.yul\":672:674   */\n      0x1f\n        /* \"#utility.yul\":668:675   */\n      not\n        /* \"#utility.yul\":663:665   */\n      0x1f\n        /* \"#utility.yul\":656:661   */\n      dup4\n        /* \"#utility.yul\":652:666   */\n      add\n        /* \"#utility.yul\":648:676   */\n      and\n        /* \"#utility.yul\":638:676   */\n      swap1\n      pop\n        /* \"#utility.yul\":580:682   */\n      swap2\n      swap1\n      pop\n      jump\t// out\n        /* \"#utility.yul\":688:868   */\n    tag_96:\n        /* \"#utility.yul\":736:813   */\n      0x4e487b7100000000000000000000000000000000000000000000000000000000\n        /* \"#utility.yul\":733:734   */\n      0x00\n        /* \"#utility.yul\":726:814   */\n      mstore\n        /* \"#utility.yul\":833:837   */\n      0x41\n        /* \"#utility.yul\":830:831   */\n      0x04\n        /* \"#utility.yul\":823:838   */\n      mstore\n        /* \"#utility.yul\":857:861   */\n      0x24\n        /* \"#utility.yul\":854:855   */\n      0x00\n        /* \"#utility.yul\":847:862   */\n      revert\n        /* \"#utility.yul\":874:1155   */\n    tag_97:\n        /* \"#utility.yul\":957:984   */\n      tag_151\n        /* \"#utility.yul\":979:983   */\n      dup3\n        /* \"#utility.yul\":957:984   */\n      tag_95\n      jump\t// in\n    tag_151:\n        /* \"#utility.yul\":949:955   */\n      dup2\n        /* \"#utility.yul\":945:985   */\n      add\n        /* \"#utility.yul\":1087:1093   */\n      dup2\n        /* \"#utility.yul\":1075:1085   */\n      dup2\n        /* \"#utility.yul\":1072:1094   */\n      lt\n        /* \"#utility.yul\":1051:1069   */\n      0xffffffffffffffff\n        /* \"#utility.yul\":1039:1049   */\n      dup3\n        /* \"#utility.yul\":1036:1070   */\n      gt\n        /* \"#utility.yul\":1033:1095   */\n      or\n        /* \"#utility.yul\":1030:1118   */\n      iszero\n      tag_152\n      jumpi\n        /* \"#utility.yul\":1098:1116   */\n      tag_153\n      tag_96\n      jump\t// in\n    tag_153:\n        /* \"#utility.yul\":1030:1118   */\n    tag_152:\n        /* \"#utility.yul\":1138:1148   */\n      dup1\n        /* \"#utility.yul\":1134:1136   */\n      0x40\n        /* \"#utility.yul\":1127:1149   */\n      mstore\n        /* \"#utility.yul\":917:1155   */\n      pop\n        /* \"#utility.yul\":874:1155   */\n      pop\n      pop\n      jump\t// out\n        /* \"#utility.yul\":1161:1290   */\n    tag_98:\n        /* \"#utility.yul\":1195:1201   */\n      0x00\n        /* \"#utility.yul\":1222:1242   */\n      tag_155\n      tag_90\n      jump\t// in\n    tag_155:\n        /* \"#utility.yul\":1212:1242   */\n      swap1\n      pop\n        /* \"#utility.yul\":1251:1284   */\n      tag_156\n        /* \"#utility.yul\":1279:1283   */\n      dup3\n        /* \"#utility.yul\":1271:1277   */\n      dup3\n        /* \"#utility.yul\":1251:1284   */\n      tag_97\n      jump\t// in\n    tag_156:\n        /* \"#utility.yul\":1161:1290   */\n      swap2\n      swap1\n      pop\n      jump\t// out\n        /* \"#utility.yul\":1296:1604   */\n    tag_99:\n        /* \"#utility.yul\":1358:1362   */\n      0x00\n        /* \"#utility.yul\":1448:1466   */\n      0xffffffffffffffff\n        /* \"#utility.yul\":1440:1446   */\n      dup3\n        /* \"#utility.yul\":1437:1467   */\n      gt\n        /* \"#utility.yul\":1434:1490   */\n      iszero\n      tag_158\n      jumpi\n        /* \"#utility.yul\":1470:1488   */\n      tag_159\n      tag_96\n      jump\t// in\n    tag_159:\n        /* \"#utility.yul\":1434:1490   */\n    tag_158:\n        /* \"#utility.yul\":1508:1537   */\n      tag_160\n        /* \"#utility.yul\":1530:1536   */\n      dup3\n        /* \"#utility.yul\":1508:1537   */\n      tag_95\n      jump\t// in\n    tag_160:\n        /* \"#utility.yul\":1500:1537   */\n      swap1\n      pop\n        /* \"#utility.yul\":1592:1596   */\n      0x20\n        /* \"#utility.yul\":1586:1590   */\n      dup2\n        /* \"#utility.yul\":1582:1597   */\n      add\n        /* \"#utility.yul\":1574:1597   */\n      swap1\n      pop\n        /* \"#utility.yul\":1296:1604   */\n      swap2\n      swap1\n      pop\n      jump\t// out\n        /* \"#utility.yul\":1610:1758   */\n    tag_100:\n        /* \"#utility.yul\":1708:1714   */\n      dup3\n        /* \"#utility.yul\":1703:1706   */\n      dup2\n        /* \"#utility.yul\":1698:1701   */\n      dup4\n        /* \"#utility.yul\":1685:1715   */\n      calldatacopy\n        /* \"#utility.yul\":1749:1750   */\n      0x00\n        /* \"#utility.yul\":1740:1746   */\n      dup4\n        /* \"#utility.yul\":1735:1738   */\n      dup4\n        /* \"#utility.yul\":1731:1747   */\n      add\n        /* \"#utility.yul\":1724:1751   */\n      mstore\n        /* \"#utility.yul\":1610:1758   */\n      pop\n      pop\n      pop\n      jump\t// out\n        /* \"#utility.yul\":1764:2189   */\n    tag_101:\n        /* \"#utility.yul\":1842:1847   */\n      0x00\n        /* \"#utility.yul\":1867:1933   */\n      tag_163\n        /* \"#utility.yul\":1883:1932   */\n      tag_164\n        /* \"#utility.yul\":1925:1931   */\n      dup5\n        /* \"#utility.yul\":1883:1932   */\n      tag_99\n      jump\t// in\n    tag_164:\n        /* \"#utility.yul\":1867:1933   */\n      tag_98\n      jump\t// in\n    tag_163:\n        /* \"#utility.yul\":1858:1933   */\n      swap1\n      pop\n        /* \"#utility.yul\":1956:1962   */\n      dup3\n        /* \"#utility.yul\":1949:1954   */\n      dup2\n        /* \"#utility.yul\":1942:1963   */\n      mstore\n        /* \"#utility.yul\":1994:1998   */\n      0x20\n        /* \"#utility.yul\":1987:1992   */\n      dup2\n        /* \"#utility.yul\":1983:1999   */\n      add\n        /* \"#utility.yul\":2032:2035   */\n      dup5\n        /* \"#utility.yul\":2023:2029   */\n      dup5\n        /* \"#utility.yul\":2018:2021   */\n      dup5\n        /* \"#utility.yul\":2014:2030   */\n      add\n        /* \"#utility.yul\":2011:2036   */\n      gt\n        /* \"#utility.yul\":2008:2120   */\n      iszero\n      tag_165\n      jumpi\n        /* \"#utility.yul\":2039:2118   */\n      tag_166\n      tag_94\n      jump\t// in\n    tag_166:\n        /* \"#utility.yul\":2008:2120   */\n    tag_165:\n        /* \"#utility.yul\":2129:2183   */\n      tag_167\n        /* \"#utility.yul\":2176:2182   */\n      dup5\n        /* \"#utility.yul\":2171:2174   */\n      dup3\n        /* \"#utility.yul\":2166:2169   */\n      dup6\n        /* \"#utility.yul\":2129:2183   */\n      tag_100\n      jump\t// in\n    tag_167:\n        /* \"#utility.yul\":1848:2189   */\n      pop\n        /* \"#utility.yul\":1764:2189   */\n      swap4\n      swap3\n      pop\n      pop\n      pop\n      jump\t// out\n        /* \"#utility.yul\":2209:2549   */\n    tag_102:\n        /* \"#utility.yul\":2265:2270   */\n      0x00\n        /* \"#utility.yul\":2314:2317   */\n      dup3\n        /* \"#utility.yul\":2307:2311   */\n      0x1f\n        /* \"#utility.yul\":2299:2305   */\n      dup4\n        /* \"#utility.yul\":2295:2312   */\n      add\n        /* \"#utility.yul\":2291:2318   */\n      slt\n        /* \"#utility.yul\":2281:2403   */\n      tag_169\n      jumpi\n        /* \"#utility.yul\":2322:2401   */\n      tag_170\n      tag_93\n      jump\t// in\n    tag_170:\n        /* \"#utility.yul\":2281:2403   */\n    tag_169:\n        /* \"#utility.yul\":2439:2445   */\n      dup2\n        /* \"#utility.yul\":2426:2446   */\n      calldataload\n        /* \"#utility.yul\":2464:2543   */\n      tag_171\n        /* \"#utility.yul\":2539:2542   */\n      dup5\n        /* \"#utility.yul\":2531:2537   */\n      dup3\n        /* \"#utility.yul\":2524:2528   */\n      0x20\n        /* \"#utility.yul\":2516:2522   */\n      dup7\n        /* \"#utility.yul\":2512:2529   */\n      add\n        /* \"#utility.yul\":2464:2543   */\n      tag_101\n      jump\t// in\n    tag_171:\n        /* \"#utility.yul\":2455:2543   */\n      swap2\n      pop\n        /* \"#utility.yul\":2271:2549   */\n      pop\n        /* \"#utility.yul\":2209:2549   */\n      swap3\n      swap2\n      pop\n      pop\n      jump\t// out\n        /* \"#utility.yul\":2555:3064   */\n    tag_13:\n        /* \"#utility.yul\":2624:2630   */\n      0x00\n        /* \"#utility.yul\":2673:2675   */\n      0x20\n        /* \"#utility.yul\":2661:2670   */\n      dup3\n        /* \"#utility.yul\":2652:2659   */\n      dup5\n        /* \"#utility.yul\":2648:2671   */\n      sub\n        /* \"#utility.yul\":2644:2676   */\n      slt\n        /* \"#utility.yul\":2641:2760   */\n      iszero\n      tag_173\n      jumpi\n        /* \"#utility.yul\":2679:2758   */\n      tag_174\n      tag_91\n      jump\t// in\n    tag_174:\n        /* \"#utility.yul\":2641:2760   */\n    tag_173:\n        /* \"#utility.yul\":2827:2828   */\n      0x00\n        /* \"#utility.yul\":2816:2825   */\n      dup3\n        /* \"#utility.yul\":2812:2829   */\n      add\n        /* \"#utility.yul\":2799:2830   */\n      calldataload\n        /* \"#utility.yul\":2857:2875   */\n      0xffffffffffffffff\n        /* \"#utility.yul\":2849:2855   */\n      dup2\n        /* \"#utility.yul\":2846:2876   */\n      gt\n        /* \"#utility.yul\":2843:2960   */\n      iszero\n      tag_175\n      jumpi\n        /* \"#utility.yul\":2879:2958   */\n      tag_176\n      tag_92\n      jump\t// in\n    tag_176:\n        /* \"#utility.yul\":2843:2960   */\n    tag_175:\n        /* \"#utility.yul\":2984:3047   */\n      tag_177\n        /* \"#utility.yul\":3039:3046   */\n      dup5\n        /* \"#utility.yul\":3030:3036   */\n      dup3\n        /* \"#utility.yul\":3019:3028   */\n      dup6\n        /* \"#utility.yul\":3015:3037   */\n      add\n        /* \"#utility.yul\":2984:3047   */\n      tag_102\n      jump\t// in\n    tag_177:\n        /* \"#utility.yul\":2974:3047   */\n      swap2\n      pop\n        /* \"#utility.yul\":2770:3057   */\n      pop\n        /* \"#utility.yul\":2555:3064   */\n      swap3\n      swap2\n      pop\n      pop\n      jump\t// out\n        /* \"#utility.yul\":3070:3169   */\n    tag_103:\n        /* \"#utility.yul\":3122:3128   */\n      0x00\n        /* \"#utility.yul\":3156:3161   */\n      dup2\n        /* \"#utility.yul\":3150:3162   */\n      mload\n        /* \"#utility.yul\":3140:3162   */\n      swap1\n      pop\n        /* \"#utility.yul\":3070:3169   */\n      swap2\n      swap1\n      pop\n      jump\t// out\n        /* \"#utility.yul\":3175:3344   */\n    tag_104:\n        /* \"#utility.yul\":3259:3270   */\n      0x00\n        /* \"#utility.yul\":3293:3299   */\n      dup3\n        /* \"#utility.yul\":3288:3291   */\n      dup3\n        /* \"#utility.yul\":3281:3300   */\n      mstore\n        /* \"#utility.yul\":3333:3337   */\n      0x20\n        /* \"#utility.yul\":3328:3331   */\n      dup3\n        /* \"#utility.yul\":3324:3338   */\n      add\n        /* \"#utility.yul\":3309:3338   */\n      swap1\n      pop\n        /* \"#utility.yul\":3175:3344   */\n      swap3\n      swap2\n      pop\n      pop\n      jump\t// out\n        /* \"#utility.yul\":3350:3489   */\n    tag_105:\n        /* \"#utility.yul\":3439:3445   */\n      dup3\n        /* \"#utility.yul\":3434:3437   */\n      dup2\n        /* \"#utility.yul\":3429:3432   */\n      dup4\n        /* \"#utility.yul\":3423:3446   */\n      mcopy\n        /* \"#utility.yul\":3480:3481   */\n      0x00\n        /* \"#utility.yul\":3471:3477   */\n      dup4\n        /* \"#utility.yul\":3466:3469   */\n      dup4\n        /* \"#utility.yul\":3462:3478   */\n      add\n        /* \"#utility.yul\":3455:3482   */\n      mstore\n        /* \"#utility.yul\":3350:3489   */\n      pop\n      pop\n      pop\n      jump\t// out\n        /* \"#utility.yul\":3495:3872   */\n    tag_106:\n        /* \"#utility.yul\":3583:3586   */\n      0x00\n        /* \"#utility.yul\":3611:3650   */\n      tag_182\n        /* \"#utility.yul\":3644:3649   */\n      dup3\n        /* \"#utility.yul\":3611:3650   */\n      tag_103\n      jump\t// in\n    tag_182:\n        /* \"#utility.yul\":3666:3737   */\n      tag_183\n        /* \"#utility.yul\":3730:3736   */\n      dup2\n        /* \"#utility.yul\":3725:3728   */\n      dup6\n        /* \"#utility.yul\":3666:3737   */\n      tag_104\n      jump\t// in\n    tag_183:\n        /* \"#utility.yul\":3659:3737   */\n      swap4\n      pop\n        /* \"#utility.yul\":3746:3811   */\n      tag_184\n        /* \"#utility.yul\":3804:3810   */\n      dup2\n        /* \"#utility.yul\":3799:3802   */\n      dup6\n        /* \"#utility.yul\":3792:3796   */\n      0x20\n        /* \"#utility.yul\":3785:3790   */\n      dup7\n        /* \"#utility.yul\":3781:3797   */\n      add\n        /* \"#utility.yul\":3746:3811   */\n      tag_105\n      jump\t// in\n    tag_184:\n        /* \"#utility.yul\":3836:3865   */\n      tag_185\n        /* \"#utility.yul\":3858:3864   */\n      dup2\n        /* \"#utility.yul\":3836:3865   */\n      tag_95\n      jump\t// in\n    tag_185:\n        /* \"#utility.yul\":3831:3834   */\n      dup5\n        /* \"#utility.yul\":3827:3866   */\n      add\n        /* \"#utility.yul\":3820:3866   */\n      swap2\n      pop\n        /* \"#utility.yul\":3587:3872   */\n      pop\n        /* \"#utility.yul\":3495:3872   */\n      swap3\n      swap2\n      pop\n      pop\n      jump\t// out\n        /* \"#utility.yul\":3878:4004   */\n    tag_107:\n        /* \"#utility.yul\":3915:3922   */\n      0x00\n        /* \"#utility.yul\":3955:3997   */\n      0xffffffffffffffffffffffffffffffffffffffff\n        /* \"#utility.yul\":3948:3953   */\n      dup3\n        /* \"#utility.yul\":3944:3998   */\n      and\n        /* \"#utility.yul\":3933:3998   */\n      swap1\n      pop\n        /* \"#utility.yul\":3878:4004   */\n      swap2\n      swap1\n      pop\n      jump\t// out\n        /* \"#utility.yul\":4010:4106   */\n    tag_108:\n        /* \"#utility.yul\":4047:4054   */\n      0x00\n        /* \"#utility.yul\":4076:4100   */\n      tag_188\n        /* \"#utility.yul\":4094:4099   */\n      dup3\n        /* \"#utility.yul\":4076:4100   */\n      tag_107\n      jump\t// in\n    tag_188:\n        /* \"#utility.yul\":4065:4100   */\n      swap1\n      pop\n        /* \"#utility.yul\":4010:4106   */\n      swap2\n      swap1\n      pop\n      jump\t// out\n        /* \"#utility.yul\":4112:4230   */\n    tag_109:\n        /* \"#utility.yul\":4199:4223   */\n      tag_190\n        /* \"#utility.yul\":4217:4222   */\n      dup2\n        /* \"#utility.yul\":4199:4223   */\n      tag_108\n      jump\t// in\n    tag_190:\n        /* \"#utility.yul\":4194:4197   */\n      dup3\n        /* \"#utility.yul\":4187:4224   */\n      mstore\n        /* \"#utility.yul\":4112:4230   */\n      pop\n      pop\n      jump\t// out\n        /* \"#utility.yul\":4236:5668   */\n    tag_16:\n        /* \"#utility.yul\":4617:4621   */\n      0x00\n        /* \"#utility.yul\":4655:4658   */\n      0xe0\n        /* \"#utility.yul\":4644:4653   */\n      dup3\n        /* \"#utility.yul\":4640:4659   */\n      add\n        /* \"#utility.yul\":4632:4659   */\n      swap1\n      pop\n        /* \"#utility.yul\":4705:4714   */\n      dup2\n        /* \"#utility.yul\":4699:4703   */\n      dup2\n        /* \"#utility.yul\":4695:4715   */\n      sub\n        /* \"#utility.yul\":4691:4692   */\n      0x00\n        /* \"#utility.yul\":4680:4689   */\n      dup4\n        /* \"#utility.yul\":4676:4693   */\n      add\n        /* \"#utility.yul\":4669:4716   */\n      mstore\n        /* \"#utility.yul\":4733:4811   */\n      tag_192\n        /* \"#utility.yul\":4806:4810   */\n      dup2\n        /* \"#utility.yul\":4797:4803   */\n      dup11\n        /* \"#utility.yul\":4733:4811   */\n      tag_106\n      jump\t// in\n    tag_192:\n        /* \"#utility.yul\":4725:4811   */\n      swap1\n      pop\n        /* \"#utility.yul\":4821:4893   */\n      tag_193\n        /* \"#utility.yul\":4889:4891   */\n      0x20\n        /* \"#utility.yul\":4878:4887   */\n      dup4\n        /* \"#utility.yul\":4874:4892   */\n      add\n        /* \"#utility.yul\":4865:4871   */\n      dup10\n        /* \"#utility.yul\":4821:4893   */\n      tag_109\n      jump\t// in\n    tag_193:\n        /* \"#utility.yul\":4940:4949   */\n      dup2\n        /* \"#utility.yul\":4934:4938   */\n      dup2\n        /* \"#utility.yul\":4930:4950   */\n      sub\n        /* \"#utility.yul\":4925:4927   */\n      0x40\n        /* \"#utility.yul\":4914:4923   */\n      dup4\n        /* \"#utility.yul\":4910:4928   */\n      add\n        /* \"#utility.yul\":4903:4951   */\n      mstore\n        /* \"#utility.yul\":4968:5046   */\n      tag_194\n        /* \"#utility.yul\":5041:5045   */\n      dup2\n        /* \"#utility.yul\":5032:5038   */\n      dup9\n        /* \"#utility.yul\":4968:5046   */\n      tag_106\n      jump\t// in\n    tag_194:\n        /* \"#utility.yul\":4960:5046   */\n      swap1\n      pop\n        /* \"#utility.yul\":5093:5102   */\n      dup2\n        /* \"#utility.yul\":5087:5091   */\n      dup2\n        /* \"#utility.yul\":5083:5103   */\n      sub\n        /* \"#utility.yul\":5078:5080   */\n      0x60\n        /* \"#utility.yul\":5067:5076   */\n      dup4\n        /* \"#utility.yul\":5063:5081   */\n      add\n        /* \"#utility.yul\":5056:5104   */\n      mstore\n        /* \"#utility.yul\":5121:5199   */\n      tag_195\n        /* \"#utility.yul\":5194:5198   */\n      dup2\n        /* \"#utility.yul\":5185:5191   */\n      dup8\n        /* \"#utility.yul\":5121:5199   */\n      tag_106\n      jump\t// in\n    tag_195:\n        /* \"#utility.yul\":5113:5199   */\n      swap1\n      pop\n        /* \"#utility.yul\":5247:5256   */\n      dup2\n        /* \"#utility.yul\":5241:5245   */\n      dup2\n        /* \"#utility.yul\":5237:5257   */\n      sub\n        /* \"#utility.yul\":5231:5234   */\n      0x80\n        /* \"#utility.yul\":5220:5229   */\n      dup4\n        /* \"#utility.yul\":5216:5235   */\n      add\n        /* \"#utility.yul\":5209:5258   */\n      mstore\n        /* \"#utility.yul\":5275:5353   */\n      tag_196\n        /* \"#utility.yul\":5348:5352   */\n      dup2\n        /* \"#utility.yul\":5339:5345   */\n      dup7\n        /* \"#utility.yul\":5275:5353   */\n      tag_106\n      jump\t// in\n    tag_196:\n        /* \"#utility.yul\":5267:5353   */\n      swap1\n      pop\n        /* \"#utility.yul\":5401:5410   */\n      dup2\n        /* \"#utility.yul\":5395:5399   */\n      dup2\n        /* \"#utility.yul\":5391:5411   */\n      sub\n        /* \"#utility.yul\":5385:5388   */\n      0xa0\n        /* \"#utility.yul\":5374:5383   */\n      dup4\n        /* \"#utility.yul\":5370:5389   */\n      add\n        /* \"#utility.yul\":5363:5412   */\n      mstore\n        /* \"#utility.yul\":5429:5507   */\n      tag_197\n        /* \"#utility.yul\":5502:5506   */\n      dup2\n        /* \"#utility.yul\":5493:5499   */\n      dup6\n        /* \"#utility.yul\":5429:5507   */\n      tag_106\n      jump\t// in\n    tag_197:\n        /* \"#utility.yul\":5421:5507   */\n      swap1\n      pop\n        /* \"#utility.yul\":5555:5564   */\n      dup2\n        /* \"#utility.yul\":5549:5553   */\n      dup2\n        /* \"#utility.yul\":5545:5565   */\n      sub\n        /* \"#utility.yul\":5539:5542   */\n      0xc0\n        /* \"#utility.yul\":5528:5537   */\n      dup4\n        /* \"#utility.yul\":5524:5543   */\n      add\n        /* \"#utility.yul\":5517:5566   */\n      mstore\n        /* \"#utility.yul\":5583:5661   */\n      tag_198\n        /* \"#utility.yul\":5656:5660   */\n      dup2\n        /* \"#utility.yul\":5647:5653   */\n      dup5\n        /* \"#utility.yul\":5583:5661   */\n      tag_106\n      jump\t// in\n    tag_198:\n        /* \"#utility.yul\":5575:5661   */\n      swap1\n      pop\n        /* \"#utility.yul\":4236:5668   */\n      swap9\n      swap8\n      pop\n      pop\n      pop\n      pop\n      pop\n      pop\n      pop\n      pop\n      jump\t// out\n        /* \"#utility.yul\":5674:5778   */\n    tag_110:\n        /* \"#utility.yul\":5719:5726   */\n      0x00\n        /* \"#utility.yul\":5748:5772   */\n      tag_200\n        /* \"#utility.yul\":5766:5771   */\n      dup3\n        /* \"#utility.yul\":5748:5772   */\n      tag_107\n      jump\t// in\n    tag_200:\n        /* \"#utility.yul\":5737:5772   */\n      swap1\n      pop\n        /* \"#utility.yul\":5674:5778   */\n      swap2\n      swap1\n      pop\n      jump\t// out\n        /* \"#utility.yul\":5784:5926   */\n    tag_111:\n        /* \"#utility.yul\":5887:5919   */\n      tag_202\n        /* \"#utility.yul\":5913:5918   */\n      dup2\n        /* \"#utility.yul\":5887:5919   */\n      tag_110\n      jump\t// in\n    tag_202:\n        /* \"#utility.yul\":5882:5885   */\n      dup3\n        /* \"#utility.yul\":5875:5920   */\n      mstore\n        /* \"#utility.yul\":5784:5926   */\n      pop\n      pop\n      jump\t// out\n        /* \"#utility.yul\":5932:6186   */\n    tag_21:\n        /* \"#utility.yul\":6041:6045   */\n      0x00\n        /* \"#utility.yul\":6079:6081   */\n      0x20\n        /* \"#utility.yul\":6068:6077   */\n      dup3\n        /* \"#utility.yul\":6064:6082   */\n      add\n        /* \"#utility.yul\":6056:6082   */\n      swap1\n      pop\n        /* \"#utility.yul\":6092:6179   */\n      tag_204\n        /* \"#utility.yul\":6176:6177   */\n      0x00\n        /* \"#utility.yul\":6165:6174   */\n      dup4\n        /* \"#utility.yul\":6161:6178   */\n      add\n        /* \"#utility.yul\":6152:6158   */\n      dup5\n        /* \"#utility.yul\":6092:6179   */\n      tag_111\n      jump\t// in\n    tag_204:\n        /* \"#utility.yul\":5932:6186   */\n      swap3\n      swap2\n      pop\n      pop\n      jump\t// out\n        /* \"#utility.yul\":6192:6309   */\n    tag_112:\n        /* \"#utility.yul\":6301:6302   */\n      0x00\n        /* \"#utility.yul\":6298:6299   */\n      dup1\n        /* \"#utility.yul\":6291:6303   */\n      revert\n        /* \"#utility.yul\":6315:6432   */\n    tag_113:\n        /* \"#utility.yul\":6424:6425   */\n      0x00\n        /* \"#utility.yul\":6421:6422   */\n      dup1\n        /* \"#utility.yul\":6414:6426   */\n      revert\n        /* \"#utility.yul\":6452:7005   */\n    tag_114:\n        /* \"#utility.yul\":6510:6518   */\n      0x00\n        /* \"#utility.yul\":6520:6526   */\n      dup1\n        /* \"#utility.yul\":6570:6573   */\n      dup4\n        /* \"#utility.yul\":6563:6567   */\n      0x1f\n        /* \"#utility.yul\":6555:6561   */\n      dup5\n        /* \"#utility.yul\":6551:6568   */\n      add\n        /* \"#utility.yul\":6547:6574   */\n      slt\n        /* \"#utility.yul\":6537:6659   */\n      tag_208\n      jumpi\n        /* \"#utility.yul\":6578:6657   */\n      tag_209\n      tag_93\n      jump\t// in\n    tag_209:\n        /* \"#utility.yul\":6537:6659   */\n    tag_208:\n        /* \"#utility.yul\":6691:6697   */\n      dup3\n        /* \"#utility.yul\":6678:6698   */\n      calldataload\n        /* \"#utility.yul\":6668:6698   */\n      swap1\n      pop\n        /* \"#utility.yul\":6721:6739   */\n      0xffffffffffffffff\n        /* \"#utility.yul\":6713:6719   */\n      dup2\n        /* \"#utility.yul\":6710:6740   */\n      gt\n        /* \"#utility.yul\":6707:6824   */\n      iszero\n      tag_210\n      jumpi\n        /* \"#utility.yul\":6743:6822   */\n      tag_211\n      tag_112\n      jump\t// in\n    tag_211:\n        /* \"#utility.yul\":6707:6824   */\n    tag_210:\n        /* \"#utility.yul\":6857:6861   */\n      0x20\n        /* \"#utility.yul\":6849:6855   */\n      dup4\n        /* \"#utility.yul\":6845:6862   */\n      add\n        /* \"#utility.yul\":6833:6862   */\n      swap2\n      pop\n        /* \"#utility.yul\":6911:6914   */\n      dup4\n        /* \"#utility.yul\":6903:6907   */\n      0x01\n        /* \"#utility.yul\":6895:6901   */\n      dup3\n        /* \"#utility.yul\":6891:6908   */\n      mul\n        /* \"#utility.yul\":6881:6889   */\n      dup4\n        /* \"#utility.yul\":6877:6909   */\n      add\n        /* \"#utility.yul\":6874:6915   */\n      gt\n        /* \"#utility.yul\":6871:6999   */\n      iszero\n      tag_212\n      jumpi\n        /* \"#utility.yul\":6918:6997   */\n      tag_213\n      tag_113\n      jump\t// in\n    tag_213:\n        /* \"#utility.yul\":6871:6999   */\n    tag_212:\n        /* \"#utility.yul\":6452:7005   */\n      swap3\n      pop\n      swap3\n      swap1\n      pop\n      jump\t// out\n        /* \"#utility.yul\":7011:8922   */\n    tag_24:\n        /* \"#utility.yul\":7166:7172   */\n      0x00\n        /* \"#utility.yul\":7174:7180   */\n      dup1\n        /* \"#utility.yul\":7182:7188   */\n      0x00\n        /* \"#utility.yul\":7190:7196   */\n      dup1\n        /* \"#utility.yul\":7198:7204   */\n      0x00\n        /* \"#utility.yul\":7206:7212   */\n      dup1\n        /* \"#utility.yul\":7214:7220   */\n      0x00\n        /* \"#utility.yul\":7222:7228   */\n      dup1\n        /* \"#utility.yul\":7230:7236   */\n      0x00\n        /* \"#utility.yul\":7238:7244   */\n      dup1\n        /* \"#utility.yul\":7287:7290   */\n      0xa0\n        /* \"#utility.yul\":7275:7284   */\n      dup12\n        /* \"#utility.yul\":7266:7273   */\n      dup14\n        /* \"#utility.yul\":7262:7285   */\n      sub\n        /* \"#utility.yul\":7258:7291   */\n      slt\n        /* \"#utility.yul\":7255:7375   */\n      iszero\n      tag_215\n      jumpi\n        /* \"#utility.yul\":7294:7373   */\n      tag_216\n      tag_91\n      jump\t// in\n    tag_216:\n        /* \"#utility.yul\":7255:7375   */\n    tag_215:\n        /* \"#utility.yul\":7442:7443   */\n      0x00\n        /* \"#utility.yul\":7431:7440   */\n      dup12\n        /* \"#utility.yul\":7427:7444   */\n      add\n        /* \"#utility.yul\":7414:7445   */\n      calldataload\n        /* \"#utility.yul\":7472:7490   */\n      0xffffffffffffffff\n        /* \"#utility.yul\":7464:7470   */\n      dup2\n        /* \"#utility.yul\":7461:7491   */\n      gt\n        /* \"#utility.yul\":7458:7575   */\n      iszero\n      tag_217\n      jumpi\n        /* \"#utility.yul\":7494:7573   */\n      tag_218\n      tag_92\n      jump\t// in\n    tag_218:\n        /* \"#utility.yul\":7458:7575   */\n    tag_217:\n        /* \"#utility.yul\":7607:7672   */\n      tag_219\n        /* \"#utility.yul\":7664:7671   */\n      dup14\n        /* \"#utility.yul\":7655:7661   */\n      dup3\n        /* \"#utility.yul\":7644:7653   */\n      dup15\n        /* \"#utility.yul\":7640:7662   */\n      add\n        /* \"#utility.yul\":7607:7672   */\n      tag_114\n      jump\t// in\n    tag_219:\n        /* \"#utility.yul\":7589:7672   */\n      swap11\n      pop\n      swap11\n      pop\n        /* \"#utility.yul\":7385:7682   */\n      pop\n        /* \"#utility.yul\":7749:7751   */\n      0x20\n        /* \"#utility.yul\":7738:7747   */\n      dup12\n        /* \"#utility.yul\":7734:7752   */\n      add\n        /* \"#utility.yul\":7721:7753   */\n      calldataload\n        /* \"#utility.yul\":7780:7798   */\n      0xffffffffffffffff\n        /* \"#utility.yul\":7772:7778   */\n      dup2\n        /* \"#utility.yul\":7769:7799   */\n      gt\n        /* \"#utility.yul\":7766:7883   */\n      iszero\n      tag_220\n      jumpi\n        /* \"#utility.yul\":7802:7881   */\n      tag_221\n      tag_92\n      jump\t// in\n    tag_221:\n        /* \"#utility.yul\":7766:7883   */\n    tag_220:\n        /* \"#utility.yul\":7915:7980   */\n      tag_222\n        /* \"#utility.yul\":7972:7979   */\n      dup14\n        /* \"#utility.yul\":7963:7969   */\n      dup3\n        /* \"#utility.yul\":7952:7961   */\n      dup15\n        /* \"#utility.yul\":7948:7970   */\n      add\n        /* \"#utility.yul\":7915:7980   */\n      tag_114\n      jump\t// in\n    tag_222:\n        /* \"#utility.yul\":7897:7980   */\n      swap9\n      pop\n      swap9\n      pop\n        /* \"#utility.yul\":7692:7990   */\n      pop\n        /* \"#utility.yul\":8057:8059   */\n      0x40\n        /* \"#utility.yul\":8046:8055   */\n      dup12\n        /* \"#utility.yul\":8042:8060   */\n      add\n        /* \"#utility.yul\":8029:8061   */\n      calldataload\n        /* \"#utility.yul\":8088:8106   */\n      0xffffffffffffffff\n        /* \"#utility.yul\":8080:8086   */\n      dup2\n        /* \"#utility.yul\":8077:8107   */\n      gt\n        /* \"#utility.yul\":8074:8191   */\n      iszero\n      tag_223\n      jumpi\n        /* \"#utility.yul\":8110:8189   */\n      tag_224\n      tag_92\n      jump\t// in\n    tag_224:\n        /* \"#utility.yul\":8074:8191   */\n    tag_223:\n        /* \"#utility.yul\":8223:8288   */\n      tag_225\n        /* \"#utility.yul\":8280:8287   */\n      dup14\n        /* \"#utility.yul\":8271:8277   */\n      dup3\n        /* \"#utility.yul\":8260:8269   */\n      dup15\n        /* \"#utility.yul\":8256:8278   */\n      add\n        /* \"#utility.yul\":8223:8288   */\n      tag_114\n      jump\t// in\n    tag_225:\n        /* \"#utility.yul\":8205:8288   */\n      swap7\n      pop\n      swap7\n      pop\n        /* \"#utility.yul\":8000:8298   */\n      pop\n        /* \"#utility.yul\":8365:8367   */\n      0x60\n        /* \"#utility.yul\":8354:8363   */\n      dup12\n        /* \"#utility.yul\":8350:8368   */\n      add\n        /* \"#utility.yul\":8337:8369   */\n      calldataload\n        /* \"#utility.yul\":8396:8414   */\n      0xffffffffffffffff\n        /* \"#utility.yul\":8388:8394   */\n      dup2\n        /* \"#utility.yul\":8385:8415   */\n      gt\n        /* \"#utility.yul\":8382:8499   */\n      iszero\n      tag_226\n      jumpi\n        /* \"#utility.yul\":8418:8497   */\n      tag_227\n      tag_92\n      jump\t// in\n    tag_227:\n        /* \"#utility.yul\":8382:8499   */\n    tag_226:\n        /* \"#utility.yul\":8531:8596   */\n      tag_228\n        /* \"#utility.yul\":8588:8595   */\n      dup14\n        /* \"#utility.yul\":8579:8585   */\n      dup3\n        /* \"#utility.yul\":8568:8577   */\n      dup15\n        /* \"#utility.yul\":8564:8586   */\n      add\n        /* \"#utility.yul\":8531:8596   */\n      tag_114\n      jump\t// in\n    tag_228:\n        /* \"#utility.yul\":8513:8596   */\n      swap5\n      pop\n      swap5\n      pop\n        /* \"#utility.yul\":8308:8606   */\n      pop\n        /* \"#utility.yul\":8673:8676   */\n      0x80\n        /* \"#utility.yul\":8662:8671   */\n      dup12\n        /* \"#utility.yul\":8658:8677   */\n      add\n        /* \"#utility.yul\":8645:8678   */\n      calldataload\n        /* \"#utility.yul\":8705:8723   */\n      0xffffffffffffffff\n        /* \"#utility.yul\":8697:8703   */\n      dup2\n        /* \"#utility.yul\":8694:8724   */\n      gt\n        /* \"#utility.yul\":8691:8808   */\n      iszero\n      tag_229\n      jumpi\n        /* \"#utility.yul\":8727:8806   */\n      tag_230\n      tag_92\n      jump\t// in\n    tag_230:\n        /* \"#utility.yul\":8691:8808   */\n    tag_229:\n        /* \"#utility.yul\":8840:8905   */\n      tag_231\n        /* \"#utility.yul\":8897:8904   */\n      dup14\n        /* \"#utility.yul\":8888:8894   */\n      dup3\n        /* \"#utility.yul\":8877:8886   */\n      dup15\n        /* \"#utility.yul\":8873:8895   */\n      add\n        /* \"#utility.yul\":8840:8905   */\n      tag_114\n      jump\t// in\n    tag_231:\n        /* \"#utility.yul\":8822:8905   */\n      swap3\n      pop\n      swap3\n      pop\n        /* \"#utility.yul\":8616:8915   */\n      pop\n        /* \"#utility.yul\":7011:8922   */\n      swap3\n      swap6\n      swap9\n      swap12\n      swap2\n      swap5\n      swap8\n      swap11\n      pop\n      swap3\n      swap6\n      swap9\n      pop\n      jump\t// out\n        /* \"#utility.yul\":8928:9241   */\n    tag_30:\n        /* \"#utility.yul\":9041:9045   */\n      0x00\n        /* \"#utility.yul\":9079:9081   */\n      0x20\n        /* \"#utility.yul\":9068:9077   */\n      dup3\n        /* \"#utility.yul\":9064:9082   */\n      add\n        /* \"#utility.yul\":9056:9082   */\n      swap1\n      pop\n        /* \"#utility.yul\":9128:9137   */\n      dup2\n        /* \"#utility.yul\":9122:9126   */\n      dup2\n        /* \"#utility.yul\":9118:9138   */\n      sub\n        /* \"#utility.yul\":9114:9115   */\n      0x00\n        /* \"#utility.yul\":9103:9112   */\n      dup4\n        /* \"#utility.yul\":9099:9116   */\n      add\n        /* \"#utility.yul\":9092:9139   */\n      mstore\n        /* \"#utility.yul\":9156:9234   */\n      tag_233\n        /* \"#utility.yul\":9229:9233   */\n      dup2\n        /* \"#utility.yul\":9220:9226   */\n      dup5\n        /* \"#utility.yul\":9156:9234   */\n      tag_106\n      jump\t// in\n    tag_233:\n        /* \"#utility.yul\":9148:9234   */\n      swap1\n      pop\n        /* \"#utility.yul\":8928:9241   */\n      swap3\n      swap2\n      pop\n      pop\n      jump\t// out\n        /* \"#utility.yul\":9247:9427   */\n    tag_115:\n        /* \"#utility.yul\":9295:9372   */\n      0x4e487b7100000000000000000000000000000000000000000000000000000000\n        /* \"#utility.yul\":9292:9293   */\n      0x00\n        /* \"#utility.yul\":9285:9373   */\n      mstore\n        /* \"#utility.yul\":9392:9396   */\n      0x22\n        /* \"#utility.yul\":9389:9390   */\n      0x04\n        /* \"#utility.yul\":9382:9397   */\n      mstore\n        /* \"#utility.yul\":9416:9420   */\n      0x24\n        /* \"#utility.yul\":9413:9414   */\n      0x00\n        /* \"#utility.yul\":9406:9421   */\n      revert\n        /* \"#utility.yul\":9433:9753   */\n    tag_37:\n        /* \"#utility.yul\":9477:9483   */\n      0x00\n        /* \"#utility.yul\":9514:9515   */\n      0x02\n        /* \"#utility.yul\":9508:9512   */\n      dup3\n        /* \"#utility.yul\":9504:9516   */\n      div\n        /* \"#utility.yul\":9494:9516   */\n      swap1\n      pop\n        /* \"#utility.yul\":9561:9562   */\n      0x01\n        /* \"#utility.yul\":9555:9559   */\n      dup3\n        /* \"#utility.yul\":9551:9563   */\n      and\n        /* \"#utility.yul\":9582:9600   */\n      dup1\n        /* \"#utility.yul\":9572:9653   */\n      tag_236\n      jumpi\n        /* \"#utility.yul\":9638:9642   */\n      0x7f\n        /* \"#utility.yul\":9630:9636   */\n      dup3\n        /* \"#utility.yul\":9626:9643   */\n      and\n        /* \"#utility.yul\":9616:9643   */\n      swap2\n      pop\n        /* \"#utility.yul\":9572:9653   */\n    tag_236:\n        /* \"#utility.yul\":9700:9702   */\n      0x20\n        /* \"#utility.yul\":9692:9698   */\n      dup3\n        /* \"#utility.yul\":9689:9703   */\n      lt\n        /* \"#utility.yul\":9669:9687   */\n      dup2\n        /* \"#utility.yul\":9666:9704   */\n      sub\n        /* \"#utility.yul\":9663:9747   */\n      tag_237\n      jumpi\n        /* \"#utility.yul\":9719:9737   */\n      tag_238\n      tag_115\n      jump\t// in\n    tag_238:\n        /* \"#utility.yul\":9663:9747   */\n    tag_237:\n        /* \"#utility.yul\":9484:9753   */\n      pop\n        /* \"#utility.yul\":9433:9753   */\n      swap2\n      swap1\n      pop\n      jump\t// out\n        /* \"#utility.yul\":9759:9907   */\n    tag_116:\n        /* \"#utility.yul\":9861:9872   */\n      0x00\n        /* \"#utility.yul\":9898:9901   */\n      dup2\n        /* \"#utility.yul\":9883:9901   */\n      swap1\n      pop\n        /* \"#utility.yul\":9759:9907   */\n      swap3\n      swap2\n      pop\n      pop\n      jump\t// out\n        /* \"#utility.yul\":9937:10267   */\n    tag_117:\n        /* \"#utility.yul\":10053:10056   */\n      0x00\n        /* \"#utility.yul\":10074:10163   */\n      tag_241\n        /* \"#utility.yul\":10156:10162   */\n      dup4\n        /* \"#utility.yul\":10151:10154   */\n      dup6\n        /* \"#utility.yul\":10074:10163   */\n      tag_116\n      jump\t// in\n    tag_241:\n        /* \"#utility.yul\":10067:10163   */\n      swap4\n      pop\n        /* \"#utility.yul\":10173:10229   */\n      tag_242\n        /* \"#utility.yul\":10222:10228   */\n      dup4\n        /* \"#utility.yul\":10217:10220   */\n      dup6\n        /* \"#utility.yul\":10210:10215   */\n      dup5\n        /* \"#utility.yul\":10173:10229   */\n      tag_100\n      jump\t// in\n    tag_242:\n        /* \"#utility.yul\":10254:10260   */\n      dup3\n        /* \"#utility.yul\":10249:10252   */\n      dup5\n        /* \"#utility.yul\":10245:10261   */\n      add\n        /* \"#utility.yul\":10238:10261   */\n      swap1\n      pop\n        /* \"#utility.yul\":9937:10267   */\n      swap4\n      swap3\n      pop\n      pop\n      pop\n      jump\t// out\n        /* \"#utility.yul\":10273:10568   */\n    tag_71:\n        /* \"#utility.yul\":10415:10418   */\n      0x00\n        /* \"#utility.yul\":10437:10542   */\n      tag_244\n        /* \"#utility.yul\":10538:10541   */\n      dup3\n        /* \"#utility.yul\":10529:10535   */\n      dup5\n        /* \"#utility.yul\":10521:10527   */\n      dup7\n        /* \"#utility.yul\":10437:10542   */\n      tag_117\n      jump\t// in\n    tag_244:\n        /* \"#utility.yul\":10430:10542   */\n      swap2\n      pop\n        /* \"#utility.yul\":10559:10562   */\n      dup2\n        /* \"#utility.yul\":10552:10562   */\n      swap1\n      pop\n        /* \"#utility.yul\":10273:10568   */\n      swap4\n      swap3\n      pop\n      pop\n      pop\n      jump\t// out\n        /* \"#utility.yul\":10574:10715   */\n    tag_118:\n        /* \"#utility.yul\":10623:10627   */\n      0x00\n        /* \"#utility.yul\":10646:10649   */\n      dup2\n        /* \"#utility.yul\":10638:10649   */\n      swap1\n      pop\n        /* \"#utility.yul\":10669:10672   */\n      dup2\n        /* \"#utility.yul\":10666:10667   */\n      0x00\n        /* \"#utility.yul\":10659:10673   */\n      mstore\n        /* \"#utility.yul\":10703:10707   */\n      0x20\n        /* \"#utility.yul\":10700:10701   */\n      0x00\n        /* \"#utility.yul\":10690:10708   */\n      keccak256\n        /* \"#utility.yul\":10682:10708   */\n      swap1\n      pop\n        /* \"#utility.yul\":10574:10715   */\n      swap2\n      swap1\n      pop\n      jump\t// out\n        /* \"#utility.yul\":10721:10814   */\n    tag_119:\n        /* \"#utility.yul\":10758:10764   */\n      0x00\n        /* \"#utility.yul\":10805:10807   */\n      0x20\n        /* \"#utility.yul\":10800:10802   */\n      0x1f\n        /* \"#utility.yul\":10793:10798   */\n      dup4\n        /* \"#utility.yul\":10789:10803   */\n      add\n        /* \"#utility.yul\":10785:10808   */\n      div\n        /* \"#utility.yul\":10775:10808   */\n      swap1\n      pop\n        /* \"#utility.yul\":10721:10814   */\n      swap2\n      swap1\n      pop\n      jump\t// out\n        /* \"#utility.yul\":10820:10927   */\n    tag_120:\n        /* \"#utility.yul\":10864:10872   */\n      0x00\n        /* \"#utility.yul\":10914:10919   */\n      dup3\n        /* \"#utility.yul\":10908:10912   */\n      dup3\n        /* \"#utility.yul\":10904:10920   */\n      shl\n        /* \"#utility.yul\":10883:10920   */\n      swap1\n      pop\n        /* \"#utility.yul\":10820:10927   */\n      swap3\n      swap2\n      pop\n      pop\n      jump\t// out\n        /* \"#utility.yul\":10933:11326   */\n    tag_121:\n        /* \"#utility.yul\":11002:11008   */\n      0x00\n        /* \"#utility.yul\":11052:11053   */\n      0x08\n        /* \"#utility.yul\":11040:11050   */\n      dup4\n        /* \"#utility.yul\":11036:11054   */\n      mul\n        /* \"#utility.yul\":11075:11172   */\n      tag_249\n        /* \"#utility.yul\":11105:11171   */\n      0xffffffffffffffffffffffffffffffffffffffffffffffffffffffffffffffff\n        /* \"#utility.yul\":11094:11103   */\n      dup3\n        /* \"#utility.yul\":11075:11172   */\n      tag_120\n      jump\t// in\n    tag_249:\n        /* \"#utility.yul\":11193:11232   */\n      tag_250\n        /* \"#utility.yul\":11223:11231   */\n      dup7\n        /* \"#utility.yul\":11212:11221   */\n      dup4\n        /* \"#utility.yul\":11193:11232   */\n      tag_120\n      jump\t// in\n    tag_250:\n        /* \"#utility.yul\":11181:11232   */\n      swap6\n      pop\n        /* \"#utility.yul\":11265:11269   */\n      dup1\n        /* \"#utility.yul\":11261:11270   */\n      not\n        /* \"#utility.yul\":11254:11259   */\n      dup5\n        /* \"#utility.yul\":11250:11271   */\n      and\n        /* \"#utility.yul\":11241:11271   */\n      swap4\n      pop\n        /* \"#utility.yul\":11314:11318   */\n      dup1\n        /* \"#utility.yul\":11304:11312   */\n      dup7\n        /* \"#utility.yul\":11300:11319   */\n      and\n        /* \"#utility.yul\":11293:11298   */\n      dup5\n        /* \"#utility.yul\":11290:11320   */\n      or\n        /* \"#utility.yul\":11280:11320   */\n      swap3\n      pop\n        /* \"#utility.yul\":11009:11326   */\n      pop\n      pop\n        /* \"#utility.yul\":10933:11326   */\n      swap4\n      swap3\n      pop\n      pop\n      pop\n      jump\t// out\n        /* \"#utility.yul\":11332:11409   */\n    tag_122:\n        /* \"#utility.yul\":11369:11376   */\n      0x00\n        /* \"#utility.yul\":11398:11403   */\n      dup2\n        /* \"#utility.yul\":11387:11403   */\n      swap1\n      pop\n        /* \"#utility.yul\":11332:11409   */\n      swap2\n      swap1\n      pop\n      jump\t// out\n        /* \"#utility.yul\":11415:11475   */\n    tag_123:\n        /* \"#utility.yul\":11443:11446   */\n      0x00\n        /* \"#utility.yul\":11464:11469   */\n      dup2\n        /* \"#utility.yul\":11457:11469   */\n      swap1\n      pop\n        /* \"#utility.yul\":11415:11475   */\n      swap2\n      swap1\n      pop\n      jump\t// out\n        /* \"#utility.yul\":11481:11623   */\n    tag_124:\n        /* \"#utility.yul\":11531:11540   */\n      0x00\n        /* \"#utility.yul\":11564:11617   */\n      tag_254\n        /* \"#utility.yul\":11582:11616   */\n      tag_255\n        /* \"#utility.yul\":11591:11615   */\n      tag_256\n        /* \"#utility.yul\":11609:11614   */\n      dup5\n        /* \"#utility.yul\":11591:11615   */\n      tag_122\n      jump\t// in\n    tag_256:\n        /* \"#utility.yul\":11582:11616   */\n      tag_123\n      jump\t// in\n    tag_255:\n        /* \"#utility.yul\":11564:11617   */\n      tag_122\n      jump\t// in\n    tag_254:\n        /* \"#utility.yul\":11551:11617   */\n      swap1\n      pop\n        /* \"#utility.yul\":11481:11623   */\n      swap2\n      swap1\n      pop\n      jump\t// out\n        /* \"#utility.yul\":11629:11704   */\n    tag_125:\n        /* \"#utility.yul\":11672:11675   */\n      0x00\n        /* \"#utility.yul\":11693:11698   */\n      dup2\n        /* \"#utility.yul\":11686:11698   */\n      swap1\n      pop\n        /* \"#utility.yul\":11629:11704   */\n      swap2\n      swap1\n      pop\n      jump\t// out\n        /* \"#utility.yul\":11710:11979   */\n    tag_126:\n        /* \"#utility.yul\":11820:11859   */\n      tag_259\n        /* \"#utility.yul\":11851:11858   */\n      dup4\n        /* \"#utility.yul\":11820:11859   */\n      tag_124\n      jump\t// in\n    tag_259:\n        /* \"#utility.yul\":11881:11972   */\n      tag_260\n        /* \"#utility.yul\":11930:11971   */\n      tag_261\n        /* \"#utility.yul\":11954:11970   */\n      dup3\n        /* \"#utility.yul\":11930:11971   */\n      tag_125\n      jump\t// in\n    tag_261:\n        /* \"#utility.yul\":11922:11928   */\n      dup5\n        /* \"#utility.yul\":11915:11919   */\n      dup5\n        /* \"#utility.yul\":11909:11920   */\n      sload\n        /* \"#utility.yul\":11881:11972   */\n      tag_121\n      jump\t// in\n    tag_260:\n        /* \"#utility.yul\":11875:11879   */\n      dup3\n        /* \"#utility.yul\":11868:11973   */\n      sstore\n        /* \"#utility.yul\":11786:11979   */\n      pop\n        /* \"#utility.yul\":11710:11979   */\n      pop\n      pop\n      pop\n      jump\t// out\n        /* \"#utility.yul\":11985:12058   */\n    tag_127:\n        /* \"#utility.yul\":12030:12033   */\n      0x00\n        /* \"#utility.yul\":11985:12058   */\n      swap1\n      jump\t// out\n        /* \"#utility.yul\":12064:12253   */\n    tag_128:\n        /* \"#utility.yul\":12141:12173   */\n      tag_264\n      tag_127\n      jump\t// in\n    tag_264:\n        /* \"#utility.yul\":12182:12247   */\n      tag_265\n        /* \"#utility.yul\":12240:12246   */\n      dup2\n        /* \"#utility.yul\":12232:12238   */\n      dup5\n        /* \"#utility.yul\":12226:12230   */\n      dup5\n        /* \"#utility.yul\":12182:12247   */\n      tag_126\n      jump\t// in\n    tag_265:\n        /* \"#utility.yul\":12117:12253   */\n      pop\n        /* \"#utility.yul\":12064:12253   */\n      pop\n      pop\n      jump\t// out\n        /* \"#utility.yul\":12259:12445   */\n    tag_129:\n        /* \"#utility.yul\":12319:12439   */\n    tag_267:\n        /* \"#utility.yul\":12336:12339   */\n      dup2\n        /* \"#utility.yul\":12329:12334   */\n      dup2\n        /* \"#utility.yul\":12326:12340   */\n      lt\n        /* \"#utility.yul\":12319:12439   */\n      iszero\n      tag_269\n      jumpi\n        /* \"#utility.yul\":12390:12429   */\n      tag_270\n        /* \"#utility.yul\":12427:12428   */\n      0x00\n        /* \"#utility.yul\":12420:12425   */\n      dup3\n        /* \"#utility.yul\":12390:12429   */\n      tag_128\n      jump\t// in\n    tag_270:\n        /* \"#utility.yul\":12363:12364   */\n      0x01\n        /* \"#utility.yul\":12356:12361   */\n      dup2\n        /* \"#utility.yul\":12352:12365   */\n      add\n        /* \"#utility.yul\":12343:12365   */\n      swap1\n      pop\n        /* \"#utility.yul\":12319:12439   */\n      jump(tag_267)\n    tag_269:\n        /* \"#utility.yul\":12259:12445   */\n      pop\n      pop\n      jump\t// out\n        /* \"#utility.yul\":12451:12994   */\n    tag_130:\n        /* \"#utility.yul\":12552:12554   */\n      0x1f\n        /* \"#utility.yul\":12547:12550   */\n      dup3\n        /* \"#utility.yul\":12544:12555   */\n      gt\n        /* \"#utility.yul\":12541:12987   */\n      iszero\n      tag_272\n      jumpi\n        /* \"#utility.yul\":12586:12624   */\n      tag_273\n        /* \"#utility.yul\":12618:12623   */\n      dup2\n        /* \"#utility.yul\":12586:12624   */\n      tag_118\n      jump\t// in\n    tag_273:\n        /* \"#utility.yul\":12670:12699   */\n      tag_274\n        /* \"#utility.yul\":12688:12698   */\n      dup5\n        /* \"#utility.yul\":12670:12699   */\n      tag_119\n      jump\t// in\n    tag_274:\n        /* \"#utility.yul\":12660:12668   */\n      dup2\n        /* \"#utility.yul\":12656:12700   */\n      add\n        /* \"#utility.yul\":12853:12855   */\n      0x20\n        /* \"#utility.yul\":12841:12851   */\n      dup6\n        /* \"#utility.yul\":12838:12856   */\n      lt\n        /* \"#utility.yul\":12835:12884   */\n      iszero\n      tag_275\n      jumpi\n        /* \"#utility.yul\":12874:12882   */\n      dup2\n        /* \"#utility.yul\":12859:12882   */\n      swap1\n      pop\n        /* \"#utility.yul\":12835:12884   */\n    tag_275:\n        /* \"#utility.yul\":12897:12977   */\n      tag_276\n        /* \"#utility.yul\":12953:12975   */\n      tag_277\n        /* \"#utility.yul\":12971:12974   */\n      dup6\n        /* \"#utility.yul\":12953:12975   */\n      tag_119\n      jump\t// in\n    tag_277:\n        /* \"#utility.yul\":12943:12951   */\n      dup4\n        /* \"#utility.yul\":12939:12976   */\n      add\n        /* \"#utility.yul\":12926:12937   */\n      dup3\n        /* \"#utility.yul\":12897:12977   */\n      tag_129\n      jump\t// in\n    tag_276:\n        /* \"#utility.yul\":12556:12987   */\n      pop\n      pop\n        /* \"#utility.yul\":12541:12987   */\n    tag_272:\n        /* \"#utility.yul\":12451:12994   */\n      pop\n      pop\n      pop\n      jump\t// out\n        /* \"#utility.yul\":13000:13117   */\n    tag_131:\n        /* \"#utility.yul\":13054:13062   */\n      0x00\n        /* \"#utility.yul\":13104:13109   */\n      dup3\n        /* \"#utility.yul\":13098:13102   */\n      dup3\n        /* \"#utility.yul\":13094:13110   */\n      shr\n        /* \"#utility.yul\":13073:13110   */\n      swap1\n      pop\n        /* \"#utility.yul\":13000:13117   */\n      swap3\n      swap2\n      pop\n      pop\n      jump\t// out\n        /* \"#utility.yul\":13123:13292   */\n    tag_132:\n        /* \"#utility.yul\":13167:13173   */\n      0x00\n        /* \"#utility.yul\":13200:13251   */\n      tag_280\n        /* \"#utility.yul\":13248:13249   */\n      0x00\n        /* \"#utility.yul\":13244:13250   */\n      not\n        /* \"#utility.yul\":13236:13241   */\n      dup5\n        /* \"#utility.yul\":13233:13234   */\n      0x08\n        /* \"#utility.yul\":13229:13242   */\n      mul\n        /* \"#utility.yul\":13200:13251   */\n      tag_131\n      jump\t// in\n    tag_280:\n        /* \"#utility.yul\":13196:13252   */\n      not\n        /* \"#utility.yul\":13281:13285   */\n      dup1\n        /* \"#utility.yul\":13275:13279   */\n      dup4\n        /* \"#utility.yul\":13271:13286   */\n      and\n        /* \"#utility.yul\":13261:13286   */\n      swap2\n      pop\n        /* \"#utility.yul\":13174:13292   */\n      pop\n        /* \"#utility.yul\":13123:13292   */\n      swap3\n      swap2\n      pop\n      pop\n      jump\t// out\n        /* \"#utility.yul\":13297:13592   */\n    tag_133:\n        /* \"#utility.yul\":13373:13377   */\n      0x00\n        /* \"#utility.yul\":13519:13548   */\n      tag_282\n        /* \"#utility.yul\":13544:13547   */\n      dup4\n        /* \"#utility.yul\":13538:13542   */\n      dup4\n        /* \"#utility.yul\":13519:13548   */\n      tag_132\n      jump\t// in\n    tag_282:\n        /* \"#utility.yul\":13511:13548   */\n      swap2\n      pop\n        /* \"#utility.yul\":13581:13584   */\n      dup3\n        /* \"#utility.yul\":13578:13579   */\n      0x02\n        /* \"#utility.yul\":13574:13585   */\n      mul\n        /* \"#utility.yul\":13568:13572   */\n      dup3\n        /* \"#utility.yul\":13565:13586   */\n      or\n        /* \"#utility.yul\":13557:13586   */\n      swap1\n      pop\n        /* \"#utility.yul\":13297:13592   */\n      swap3\n      swap2\n      pop\n      pop\n      jump\t// out\n        /* \"#utility.yul\":13597:14992   */\n    tag_73:\n        /* \"#utility.yul\":13714:13751   */\n      tag_284\n        /* \"#utility.yul\":13747:13750   */\n      dup3\n        /* \"#utility.yul\":13714:13751   */\n      tag_103\n      jump\t// in\n    tag_284:\n        /* \"#utility.yul\":13816:13834   */\n      0xffffffffffffffff\n        /* \"#utility.yul\":13808:13814   */\n      dup2\n        /* \"#utility.yul\":13805:13835   */\n      gt\n        /* \"#utility.yul\":13802:13858   */\n      iszero\n      tag_285\n      jumpi\n        /* \"#utility.yul\":13838:13856   */\n      tag_286\n      tag_96\n      jump\t// in\n    tag_286:\n        /* \"#utility.yul\":13802:13858   */\n    tag_285:\n        /* \"#utility.yul\":13882:13920   */\n      tag_287\n        /* \"#utility.yul\":13914:13918   */\n      dup3\n        /* \"#utility.yul\":13908:13919   */\n      sload\n        /* \"#utility.yul\":13882:13920   */\n      tag_37\n      jump\t// in\n    tag_287:\n        /* \"#utility.yul\":13967:14034   */\n      tag_288\n        /* \"#utility.yul\":14027:14033   */\n      dup3\n        /* \"#utility.yul\":14019:14025   */\n      dup3\n        /* \"#utility.yul\":14013:14017   */\n      dup6\n        /* \"#utility.yul\":13967:14034   */\n      tag_130\n      jump\t// in\n    tag_288:\n        /* \"#utility.yul\":14061:14062   */\n      0x00\n        /* \"#utility.yul\":14085:14089   */\n      0x20\n        /* \"#utility.yul\":14072:14089   */\n      swap1\n      pop\n        /* \"#utility.yul\":14117:14119   */\n      0x1f\n        /* \"#utility.yul\":14109:14115   */\n      dup4\n        /* \"#utility.yul\":14106:14120   */\n      gt\n        /* \"#utility.yul\":14134:14135   */\n      0x01\n        /* \"#utility.yul\":14129:14747   */\n      dup2\n      eq\n      tag_290\n      jumpi\n        /* \"#utility.yul\":14791:14792   */\n      0x00\n        /* \"#utility.yul\":14808:14814   */\n      dup5\n        /* \"#utility.yul\":14805:14882   */\n      iszero\n      tag_291\n      jumpi\n        /* \"#utility.yul\":14857:14866   */\n      dup3\n        /* \"#utility.yul\":14852:14855   */\n      dup8\n        /* \"#utility.yul\":14848:14867   */\n      add\n        /* \"#utility.yul\":14842:14868   */\n      mload\n        /* \"#utility.yul\":14833:14868   */\n      swap1\n      pop\n        /* \"#utility.yul\":14805:14882   */\n    tag_291:\n        /* \"#utility.yul\":14908:14975   */\n      tag_292\n        /* \"#utility.yul\":14968:14974   */\n      dup6\n        /* \"#utility.yul\":14961:14966   */\n      dup3\n        /* \"#utility.yul\":14908:14975   */\n      tag_133\n      jump\t// in\n    tag_292:\n        /* \"#utility.yul\":14902:14906   */\n      dup7\n        /* \"#utility.yul\":14895:14976   */\n      sstore\n        /* \"#utility.yul\":14764:14986   */\n      pop\n        /* \"#utility.yul\":14099:14986   */\n      jump(tag_289)\n        /* \"#utility.yul\":14129:14747   */\n    tag_290:\n        /* \"#utility.yul\":14181:14185   */\n      0x1f\n        /* \"#utility.yul\":14177:14186   */\n      not\n        /* \"#utility.yul\":14169:14175   */\n      dup5\n        /* \"#utility.yul\":14165:14187   */\n      and\n        /* \"#utility.yul\":14215:14252   */\n      tag_293\n        /* \"#utility.yul\":14247:14251   */\n      dup7\n        /* \"#utility.yul\":14215:14252   */\n      tag_118\n      jump\t// in\n    tag_293:\n        /* \"#utility.yul\":14274:14275   */\n      0x00\n        /* \"#utility.yul\":14288:14496   */\n    tag_294:\n        /* \"#utility.yul\":14302:14309   */\n      dup3\n        /* \"#utility.yul\":14299:14300   */\n      dup2\n        /* \"#utility.yul\":14296:14310   */\n      lt\n        /* \"#utility.yul\":14288:14496   */\n      iszero\n      tag_296\n      jumpi\n        /* \"#utility.yul\":14381:14390   */\n      dup5\n        /* \"#utility.yul\":14376:14379   */\n      dup10\n        /* \"#utility.yul\":14372:14391   */\n      add\n        /* \"#utility.yul\":14366:14392   */\n      mload\n        /* \"#utility.yul\":14358:14364   */\n      dup3\n        /* \"#utility.yul\":14351:14393   */\n      sstore\n        /* \"#utility.yul\":14432:14433   */\n      0x01\n        /* \"#utility.yul\":14424:14430   */\n      dup3\n        /* \"#utility.yul\":14420:14434   */\n      add\n        /* \"#utility.yul\":14410:14434   */\n      swap2\n      pop\n        /* \"#utility.yul\":14479:14481   */\n      0x20\n        /* \"#utility.yul\":14468:14477   */\n      dup6\n        /* \"#utility.yul\":14464:14482   */\n      add\n        /* \"#utility.yul\":14451:14482   */\n      swap5\n      pop\n        /* \"#utility.yul\":14325:14329   */\n      0x20\n        /* \"#utility.yul\":14322:14323   */\n      dup2\n        /* \"#utility.yul\":14318:14330   */\n      add\n        /* \"#utility.yul\":14313:14330   */\n      swap1\n      pop\n        /* \"#utility.yul\":14288:14496   */\n      jump(tag_294)\n    tag_296:\n        /* \"#utility.yul\":14524:14530   */\n      dup7\n        /* \"#utility.yul\":14515:14522   */\n      dup4\n        /* \"#utility.yul\":14512:14531   */\n      lt\n        /* \"#utility.yul\":14509:14688   */\n      iszero\n      tag_297\n      jumpi\n        /* \"#utility.yul\":14582:14591   */\n      dup5\n        /* \"#utility.yul\":14577:14580   */\n      dup10\n        /* \"#utility.yul\":14573:14592   */\n      add\n        /* \"#utility.yul\":14567:14593   */\n      mload\n        /* \"#utility.yul\":14625:14673   */\n      tag_298\n        /* \"#utility.yul\":14667:14671   */\n      0x1f\n        /* \"#utility.yul\":14659:14665   */\n      dup10\n        /* \"#utility.yul\":14655:14672   */\n      and\n        /* \"#utility.yul\":14644:14653   */\n      dup3\n        /* \"#utility.yul\":14625:14673   */\n      tag_132\n      jump\t// in\n    tag_298:\n        /* \"#utility.yul\":14617:14623   */\n      dup4\n        /* \"#utility.yul\":14610:14674   */\n      sstore\n        /* \"#utility.yul\":14532:14688   */\n      pop\n        /* \"#utility.yul\":14509:14688   */\n    tag_297:\n        /* \"#utility.yul\":14734:14735   */\n      0x01\n        /* \"#utility.yul\":14730:14731   */\n      0x02\n        /* \"#utility.yul\":14722:14728   */\n      dup9\n        /* \"#utility.yul\":14718:14732   */\n      mul\n        /* \"#utility.yul\":14714:14736   */\n      add\n        /* \"#utility.yul\":14708:14712   */\n      dup9\n        /* \"#utility.yul\":14701:14737   */\n      sstore\n        /* \"#utility.yul\":14136:14747   */\n      pop\n      pop\n      pop\n        /* \"#utility.yul\":14099:14986   */\n    tag_289:\n      pop\n        /* \"#utility.yul\":13689:14992   */\n      pop\n      pop\n      pop\n        /* \"#utility.yul\":13597:14992   */\n      pop\n      pop\n      jump\t// out\n        /* \"#utility.yul\":14998:15388   */\n    tag_134:\n        /* \"#utility.yul\":15104:15107   */\n      0x00\n        /* \"#utility.yul\":15132:15171   */\n      tag_300\n        /* \"#utility.yul\":15165:15170   */\n      dup3\n        /* \"#utility.yul\":15132:15171   */\n      tag_103\n      jump\t// in\n    tag_300:\n        /* \"#utility.yul\":15187:15276   */\n      tag_301\n        /* \"#utility.yul\":15269:15275   */\n      dup2\n        /* \"#utility.yul\":15264:15267   */\n      dup6\n        /* \"#utility.yul\":15187:15276   */\n      tag_116\n      jump\t// in\n    tag_301:\n        /* \"#utility.yul\":15180:15276   */\n      swap4\n      pop\n        /* \"#utility.yul\":15285:15350   */\n      tag_302\n        /* \"#utility.yul\":15343:15349   */\n      dup2\n        /* \"#utility.yul\":15338:15341   */\n      dup6\n        /* \"#utility.yul\":15331:15335   */\n      0x20\n        /* \"#utility.yul\":15324:15329   */\n      dup7\n        /* \"#utility.yul\":15320:15336   */\n      add\n        /* \"#utility.yul\":15285:15350   */\n      tag_105\n      jump\t// in\n    tag_302:\n        /* \"#utility.yul\":15375:15381   */\n      dup1\n        /* \"#utility.yul\":15370:15373   */\n      dup5\n        /* \"#utility.yul\":15366:15382   */\n      add\n        /* \"#utility.yul\":15359:15382   */\n      swap2\n      pop\n        /* \"#utility.yul\":15108:15388   */\n      pop\n        /* \"#utility.yul\":14998:15388   */\n      swap3\n      swap2\n      pop\n      pop\n      jump\t// out\n        /* \"#utility.yul\":15394:15669   */\n    tag_82:\n        /* \"#utility.yul\":15526:15529   */\n      0x00\n        /* \"#utility.yul\":15548:15643   */\n      tag_304\n        /* \"#utility.yul\":15639:15642   */\n      dup3\n        /* \"#utility.yul\":15630:15636   */\n      dup5\n        /* \"#utility.yul\":15548:15643   */\n      tag_134\n      jump\t// in\n    tag_304:\n        /* \"#utility.yul\":15541:15643   */\n      swap2\n      pop\n        /* \"#utility.yul\":15660:15663   */\n      dup2\n        /* \"#utility.yul\":15653:15663   */\n      swap1\n      pop\n        /* \"#utility.yul\":15394:15669   */\n      swap3\n      swap2\n      pop\n      pop\n      jump\t// out\n        /* \"#utility.yul\":15675:15869   */\n    tag_135:\n        /* \"#utility.yul\":15844:15862   */\n      0x50617373656e676572204e616d653a2000000000000000000000000000000000\n        /* \"#utility.yul\":15839:15842   */\n      dup2\n        /* \"#utility.yul\":15832:15863   */\n      mstore\n        /* \"#utility.yul\":15675:15869   */\n      pop\n      jump\t// out\n        /* \"#utility.yul\":15899:16773   */\n    tag_136:\n        /* \"#utility.yul\":16002:16005   */\n      0x00\n        /* \"#utility.yul\":16039:16044   */\n      dup2\n        /* \"#utility.yul\":16033:16045   */\n      sload\n        /* \"#utility.yul\":16068:16104   */\n      tag_307\n        /* \"#utility.yul\":16094:16103   */\n      dup2\n        /* \"#utility.yul\":16068:16104   */\n      tag_37\n      jump\t// in\n    tag_307:\n        /* \"#utility.yul\":16120:16209   */\n      tag_308\n        /* \"#utility.yul\":16202:16208   */\n      dup2\n        /* \"#utility.yul\":16197:16200   */\n      dup7\n        /* \"#utility.yul\":16120:16209   */\n      tag_116\n      jump\t// in\n    tag_308:\n        /* \"#utility.yul\":16113:16209   */\n      swap5\n      pop\n        /* \"#utility.yul\":16240:16241   */\n      0x01\n        /* \"#utility.yul\":16229:16238   */\n      dup3\n        /* \"#utility.yul\":16225:16242   */\n      and\n        /* \"#utility.yul\":16256:16257   */\n      0x00\n        /* \"#utility.yul\":16251:16417   */\n      dup2\n      eq\n      tag_310\n      jumpi\n        /* \"#utility.yul\":16431:16432   */\n      0x01\n        /* \"#utility.yul\":16426:16767   */\n      dup2\n      eq\n      tag_311\n      jumpi\n        /* \"#utility.yul\":16218:16767   */\n      jump(tag_309)\n        /* \"#utility.yul\":16251:16417   */\n    tag_310:\n        /* \"#utility.yul\":16335:16339   */\n      0xff\n        /* \"#utility.yul\":16331:16340   */\n      not\n        /* \"#utility.yul\":16320:16329   */\n      dup4\n        /* \"#utility.yul\":16316:16341   */\n      and\n        /* \"#utility.yul\":16311:16314   */\n      dup7\n        /* \"#utility.yul\":16304:16342   */\n      mstore\n        /* \"#utility.yul\":16397:16403   */\n      dup2\n        /* \"#utility.yul\":16390:16404   */\n      iszero\n        /* \"#utility.yul\":16383:16405   */\n      iszero\n        /* \"#utility.yul\":16375:16381   */\n      dup3\n        /* \"#utility.yul\":16371:16406   */\n      mul\n        /* \"#utility.yul\":16366:16369   */\n      dup7\n        /* \"#utility.yul\":16362:16407   */\n      add\n        /* \"#utility.yul\":16355:16407   */\n      swap4\n      pop\n        /* \"#utility.yul\":16251:16417   */\n      jump(tag_309)\n        /* \"#utility.yul\":16426:16767   */\n    tag_311:\n        /* \"#utility.yul\":16493:16531   */\n      tag_312\n        /* \"#utility.yul\":16525:16530   */\n      dup6\n        /* \"#utility.yul\":16493:16531   */\n      tag_118\n      jump\t// in\n    tag_312:\n        /* \"#utility.yul\":16553:16554   */\n      0x00\n        /* \"#utility.yul\":16567:16721   */\n    tag_313:\n        /* \"#utility.yul\":16581:16587   */\n      dup4\n        /* \"#utility.yul\":16578:16579   */\n      dup2\n        /* \"#utility.yul\":16575:16588   */\n      lt\n        /* \"#utility.yul\":16567:16721   */\n      iszero\n      tag_315\n      jumpi\n        /* \"#utility.yul\":16655:16662   */\n      dup2\n        /* \"#utility.yul\":16649:16663   */\n      sload\n        /* \"#utility.yul\":16645:16646   */\n      dup2\n        /* \"#utility.yul\":16640:16643   */\n      dup10\n        /* \"#utility.yul\":16636:16647   */\n      add\n        /* \"#utility.yul\":16629:16664   */\n      mstore\n        /* \"#utility.yul\":16705:16706   */\n      0x01\n        /* \"#utility.yul\":16696:16703   */\n      dup3\n        /* \"#utility.yul\":16692:16707   */\n      add\n        /* \"#utility.yul\":16681:16707   */\n      swap2\n      pop\n        /* \"#utility.yul\":16603:16607   */\n      0x20\n        /* \"#utility.yul\":16600:16601   */\n      dup2\n        /* \"#utility.yul\":16596:16608   */\n      add\n        /* \"#utility.yul\":16591:16608   */\n      swap1\n      pop\n        /* \"#utility.yul\":16567:16721   */\n      jump(tag_313)\n    tag_315:\n        /* \"#utility.yul\":16750:16756   */\n      dup4\n        /* \"#utility.yul\":16745:16748   */\n      dup9\n        /* \"#utility.yul\":16741:16757   */\n      add\n        /* \"#utility.yul\":16734:16757   */\n      swap6\n      pop\n        /* \"#utility.yul\":16433:16767   */\n      pop\n      pop\n        /* \"#utility.yul\":16218:16767   */\n    tag_309:\n      pop\n        /* \"#utility.yul\":16006:16773   */\n      pop\n      pop\n        /* \"#utility.yul\":15899:16773   */\n      swap3\n      swap2\n      pop\n      pop\n      jump\t// out\n        /* \"#utility.yul\":16779:17021   */\n    tag_137:\n        /* \"#utility.yul\":16948:17014   */\n      0x0a466c69676874204e756d6265723a2000000000000000000000000000000000\n        /* \"#utility.yul\":16943:16946   */\n      dup2\n        /* \"#utility.yul\":16936:17015   */\n      mstore\n        /* \"#utility.yul\":16779:17021   */\n      pop\n      jump\t// out\n        /* \"#utility.yul\":17027:17269   */\n    tag_138:\n        /* \"#utility.yul\":17196:17262   */\n      0x0a466c6967687420446174653a20000000000000000000000000000000000000\n        /* \"#utility.yul\":17191:17194   */\n      dup2\n        /* \"#utility.yul\":17184:17263   */\n      mstore\n        /* \"#utility.yul\":17027:17269   */\n      pop\n      jump\t// out\n        /* \"#utility.yul\":17275:17466   */\n    tag_139:\n        /* \"#utility.yul\":17444:17459   */\n      0x466c6967687420646174653a2000000000000000000000000000000000000000\n        /* \"#utility.yul\":17439:17442   */\n      dup2\n        /* \"#utility.yul\":17432:17460   */\n      mstore\n        /* \"#utility.yul\":17275:17466   */\n      pop\n      jump\t// out\n        /* \"#utility.yul\":17472:17666   */\n    tag_140:\n        /* \"#utility.yul\":17641:17659   */\n      0x44657061727475726520636974793a2000000000000000000000000000000000\n        /* \"#utility.yul\":17636:17639   */\n      dup2\n        /* \"#utility.yul\":17629:17660   */\n      mstore\n        /* \"#utility.yul\":17472:17666   */\n      pop\n      jump\t// out\n        /* \"#utility.yul\":17672:17868   */\n    tag_141:\n        /* \"#utility.yul\":17841:17861   */\n      0x44657374696e6174696f6e20636974793a200000000000000000000000000000\n        /* \"#utility.yul\":17836:17839   */\n      dup2\n        /* \"#utility.yul\":17829:17862   */\n      mstore\n        /* \"#utility.yul\":17672:17868   */\n      pop\n      jump\t// out\n        /* \"#utility.yul\":17874:20515   */\n    tag_89:\n        /* \"#utility.yul\":18774:18777   */\n      0x00\n        /* \"#utility.yul\":18789:18927   */\n      tag_322\n        /* \"#utility.yul\":18923:18926   */\n      dup3\n        /* \"#utility.yul\":18789:18927   */\n      tag_135\n      jump\t// in\n    tag_322:\n        /* \"#utility.yul\":18952:18954   */\n      0x10\n        /* \"#utility.yul\":18947:18950   */\n      dup3\n        /* \"#utility.yul\":18943:18955   */\n      add\n        /* \"#utility.yul\":18936:18955   */\n      swap2\n      pop\n        /* \"#utility.yul\":18972:19064   */\n      tag_323\n        /* \"#utility.yul\":19060:19063   */\n      dup3\n        /* \"#utility.yul\":19051:19057   */\n      dup10\n        /* \"#utility.yul\":18972:19064   */\n      tag_136\n      jump\t// in\n    tag_323:\n        /* \"#utility.yul\":18965:19064   */\n      swap2\n      pop\n        /* \"#utility.yul\":19074:19212   */\n      tag_324\n        /* \"#utility.yul\":19208:19211   */\n      dup3\n        /* \"#utility.yul\":19074:19212   */\n      tag_137\n      jump\t// in\n    tag_324:\n        /* \"#utility.yul\":19237:19239   */\n      0x10\n        /* \"#utility.yul\":19232:19235   */\n      dup3\n        /* \"#utility.yul\":19228:19240   */\n      add\n        /* \"#utility.yul\":19221:19240   */\n      swap2\n      pop\n        /* \"#utility.yul\":19257:19349   */\n      tag_325\n        /* \"#utility.yul\":19345:19348   */\n      dup3\n        /* \"#utility.yul\":19336:19342   */\n      dup9\n        /* \"#utility.yul\":19257:19349   */\n      tag_136\n      jump\t// in\n    tag_325:\n        /* \"#utility.yul\":19250:19349   */\n      swap2\n      pop\n        /* \"#utility.yul\":19359:19497   */\n      tag_326\n        /* \"#utility.yul\":19493:19496   */\n      dup3\n        /* \"#utility.yul\":19359:19497   */\n      tag_138\n      jump\t// in\n    tag_326:\n        /* \"#utility.yul\":19522:19524   */\n      0x0e\n        /* \"#utility.yul\":19517:19520   */\n      dup3\n        /* \"#utility.yul\":19513:19525   */\n      add\n        /* \"#utility.yul\":19506:19525   */\n      swap2\n      pop\n        /* \"#utility.yul\":19542:19634   */\n      tag_327\n        /* \"#utility.yul\":19630:19633   */\n      dup3\n        /* \"#utility.yul\":19621:19627   */\n      dup8\n        /* \"#utility.yul\":19542:19634   */\n      tag_136\n      jump\t// in\n    tag_327:\n        /* \"#utility.yul\":19535:19634   */\n      swap2\n      pop\n        /* \"#utility.yul\":19644:19782   */\n      tag_328\n        /* \"#utility.yul\":19778:19781   */\n      dup3\n        /* \"#utility.yul\":19644:19782   */\n      tag_139\n      jump\t// in\n    tag_328:\n        /* \"#utility.yul\":19807:19809   */\n      0x0d\n        /* \"#utility.yul\":19802:19805   */\n      dup3\n        /* \"#utility.yul\":19798:19810   */\n      add\n        /* \"#utility.yul\":19791:19810   */\n      swap2\n      pop\n        /* \"#utility.yul\":19827:19919   */\n      tag_329\n        /* \"#utility.yul\":19915:19918   */\n      dup3\n        /* \"#utility.yul\":19906:19912   */\n      dup7\n        /* \"#utility.yul\":19827:19919   */\n      tag_136\n      jump\t// in\n    tag_329:\n        /* \"#utility.yul\":19820:19919   */\n      swap2\n      pop\n        /* \"#utility.yul\":19929:20067   */\n      tag_330\n        /* \"#utility.yul\":20063:20066   */\n      dup3\n        /* \"#utility.yul\":19929:20067   */\n      tag_140\n      jump\t// in\n    tag_330:\n        /* \"#utility.yul\":20092:20094   */\n      0x10\n        /* \"#utility.yul\":20087:20090   */\n      dup3\n        /* \"#utility.yul\":20083:20095   */\n      add\n        /* \"#utility.yul\":20076:20095   */\n      swap2\n      pop\n        /* \"#utility.yul\":20112:20204   */\n      tag_331\n        /* \"#utility.yul\":20200:20203   */\n      dup3\n        /* \"#utility.yul\":20191:20197   */\n      dup6\n        /* \"#utility.yul\":20112:20204   */\n      tag_136\n      jump\t// in\n    tag_331:\n        /* \"#utility.yul\":20105:20204   */\n      swap2\n      pop\n        /* \"#utility.yul\":20214:20352   */\n      tag_332\n        /* \"#utility.yul\":20348:20351   */\n      dup3\n        /* \"#utility.yul\":20214:20352   */\n      tag_141\n      jump\t// in\n    tag_332:\n        /* \"#utility.yul\":20377:20379   */\n      0x12\n        /* \"#utility.yul\":20372:20375   */\n      dup3\n        /* \"#utility.yul\":20368:20380   */\n      add\n        /* \"#utility.yul\":20361:20380   */\n      swap2\n      pop\n        /* \"#utility.yul\":20397:20489   */\n      tag_333\n        /* \"#utility.yul\":20485:20488   */\n      dup3\n        /* \"#utility.yul\":20476:20482   */\n      dup5\n        /* \"#utility.yul\":20397:20489   */\n      tag_136\n      jump\t// in\n    tag_333:\n        /* \"#utility.yul\":20390:20489   */\n      swap2\n      pop\n        /* \"#utility.yul\":20506:20509   */\n      dup2\n        /* \"#utility.yul\":20499:20509   */\n      swap1\n      pop\n        /* \"#utility.yul\":17874:20515   */\n      swap8\n      swap7\n      pop\n      pop\n      pop\n      pop\n      pop\n      pop\n      pop\n      jump\t// out\n    stop\n    data_c8be08d5e2404c64eec4fa2070eabc6bbf9ff0d11045ed005e7513f9fc9de59b 5072656d69756d3a20302e3031204574686572200a496e64656d6e6974793a20302e3032204574686572200a436f766572616765206973737565733a206861696c20616e6420666c6f6f6473\n\n    auxdata: 0xa26469706673582212201e91f7521a16c46f8542a80bc264253f93dbb293ca10cd645fc83a10ee1b1c8e64736f6c634300081a0033\n}\n",
				"bytecode": {
					"linkReferences": {},
					"object": "608060405234801561000f575f80fd5b506040516114df3803806114df833981810160405281019061003191906100d5565b8060015f6101000a81548173ffffffffffffffffffffffffffffffffffffffff021916908373ffffffffffffffffffffffffffffffffffffffff16021790555050610100565b5f80fd5b5f73ffffffffffffffffffffffffffffffffffffffff82169050919050565b5f6100a48261007b565b9050919050565b6100b48161009a565b81146100be575f80fd5b50565b5f815190506100cf816100ab565b92915050565b5f602082840312156100ea576100e9610077565b5b5f6100f7848285016100c1565b91505092915050565b6113d28061010d5f395ff3fe60806040526004361061004d575f3560e01c80634a7ba3e51461005857806350dd73be1461009a578063c50d73f6146100c4578063c738b563146100e0578063f25797c61461010a57610054565b3661005457005b5f80fd5b348015610063575f80fd5b5061007e60048036038101906100799190610a93565b610146565b6040516100919796959493929190610b79565b60405180910390f35b3480156100a5575f80fd5b506100ae6104df565b6040516100bb9190610c30565b60405180910390f35b6100de60048036038101906100d99190610ca6565b610504565b005b3480156100eb575f80fd5b506100f4610834565b6040516101019190610dbd565b60405180910390f35b348015610115575f80fd5b50610130600480360381019061012b9190610a93565b610854565b60405161013d9190610dbd565b60405180910390f35b6002818051602081018201805184825260208301602085012081835280955050505050505f91509050805f01805461017d90610e0a565b80601f01602080910402602001604051908101604052809291908181526020018280546101a990610e0a565b80156101f45780601f106101cb576101008083540402835291602001916101f4565b820191905f5260205f20905b8154815290600101906020018083116101d757829003601f168201915b505050505090806001015f9054906101000a900473ffffffffffffffffffffffffffffffffffffffff169080600201805461022e90610e0a565b80601f016020809104026020016040519081016040528092919081815260200182805461025a90610e0a565b80156102a55780601f1061027c576101008083540402835291602001916102a5565b820191905f5260205f20905b81548152906001019060200180831161028857829003601f168201915b5050505050908060030180546102ba90610e0a565b80601f01602080910402602001604051908101604052809291908181526020018280546102e690610e0a565b80156103315780601f1061030857610100808354040283529160200191610331565b820191905f5260205f20905b81548152906001019060200180831161031457829003601f168201915b50505050509080600401805461034690610e0a565b80601f016020809104026020016040519081016040528092919081815260200182805461037290610e0a565b80156103bd5780601f10610394576101008083540402835291602001916103bd565b820191905f5260205f20905b8154815290600101906020018083116103a057829003601f168201915b5050505050908060050180546103d290610e0a565b80601f01602080910402602001604051908101604052809291908181526020018280546103fe90610e0a565b80156104495780601f1061042057610100808354040283529160200191610449565b820191905f5260205f20905b81548152906001019060200180831161042c57829003601f168201915b50505050509080600601805461045e90610e0a565b80601f016020809104026020016040519081016040528092919081815260200182805461048a90610e0a565b80156104d55780601f106104ac576101008083540402835291602001916104d5565b820191905f5260205f20905b8154815290600101906020018083116104b857829003601f168201915b5050505050905087565b60015f9054906101000a900473ffffffffffffffffffffffffffffffffffffffff1681565b60015f9054906101000a900473ffffffffffffffffffffffffffffffffffffffff1673ffffffffffffffffffffffffffffffffffffffff166108fc662386f26fc1000090811502906040515f60405180830381858888f1935050505015801561056f573d5f803e3d5ffd5b506040518060e001604052808b8b8080601f0160208091040260200160405190810160405280939291908181526020018383808284375f81840152601f19601f8201169050808301925050505050505081526020013073ffffffffffffffffffffffffffffffffffffffff16815260200189898080601f0160208091040260200160405190810160405280939291908181526020018383808284375f81840152601f19601f82011690508083019250505050505050815260200187878080601f0160208091040260200160405190810160405280939291908181526020018383808284375f81840152601f19601f82011690508083019250505050505050815260200185858080601f0160208091040260200160405190810160405280939291908181526020018383808284375f81840152601f19601f82011690508083019250505050505050815260200183838080601f0160208091040260200160405190810160405280939291908181526020018383808284375f81840152601f19601f8201169050808301925050505050505081526020016040518060400160405280600981526020017f507572636861736564000000000000000000000000000000000000000000000081525081525060028b8b60405161074f929190610e68565b90815260200160405180910390205f820151815f0190816107709190611026565b506020820151816001015f6101000a81548173ffffffffffffffffffffffffffffffffffffffff021916908373ffffffffffffffffffffffffffffffffffffffff16021790555060408201518160020190816107cc9190611026565b5060608201518160030190816107e29190611026565b5060808201518160040190816107f89190611026565b5060a082015181600501908161080e9190611026565b5060c08201518160060190816108249190611026565b5090505050505050505050505050565b60606040518060800160405280604c8152602001611351604c9139905090565b60606002826040516108669190611125565b90815260200160405180910390205f016002836040516108869190611125565b90815260200160405180910390206002016002846040516108a79190611125565b90815260200160405180910390206003016002856040516108c89190611125565b90815260200160405180910390206003016002866040516108e99190611125565b908152602001604051809103902060040160028760405161090a9190611125565b90815260200160405180910390206005016040516020016109309695949392919061129f565b6040516020818303038152906040529050919050565b5f604051905090565b5f80fd5b5f80fd5b5f80fd5b5f80fd5b5f601f19601f8301169050919050565b7f4e487b71000000000000000000000000000000000000000000000000000000005f52604160045260245ffd5b6109a58261095f565b810181811067ffffffffffffffff821117156109c4576109c361096f565b5b80604052505050565b5f6109d6610946565b90506109e2828261099c565b919050565b5f67ffffffffffffffff821115610a0157610a0061096f565b5b610a0a8261095f565b9050602081019050919050565b828183375f83830152505050565b5f610a37610a32846109e7565b6109cd565b905082815260208101848484011115610a5357610a5261095b565b5b610a5e848285610a17565b509392505050565b5f82601f830112610a7a57610a79610957565b5b8135610a8a848260208601610a25565b91505092915050565b5f60208284031215610aa857610aa761094f565b5b5f82013567ffffffffffffffff811115610ac557610ac4610953565b5b610ad184828501610a66565b91505092915050565b5f81519050919050565b5f82825260208201905092915050565b8281835e5f83830152505050565b5f610b0c82610ada565b610b168185610ae4565b9350610b26818560208601610af4565b610b2f8161095f565b840191505092915050565b5f73ffffffffffffffffffffffffffffffffffffffff82169050919050565b5f610b6382610b3a565b9050919050565b610b7381610b59565b82525050565b5f60e0820190508181035f830152610b91818a610b02565b9050610ba06020830189610b6a565b8181036040830152610bb28188610b02565b90508181036060830152610bc68187610b02565b90508181036080830152610bda8186610b02565b905081810360a0830152610bee8185610b02565b905081810360c0830152610c028184610b02565b905098975050505050505050565b5f610c1a82610b3a565b9050919050565b610c2a81610c10565b82525050565b5f602082019050610c435f830184610c21565b92915050565b5f80fd5b5f80fd5b5f8083601f840112610c6657610c65610957565b5b8235905067ffffffffffffffff811115610c8357610c82610c49565b5b602083019150836001820283011115610c9f57610c9e610c4d565b5b9250929050565b5f805f805f805f805f8060a08b8d031215610cc457610cc361094f565b5b5f8b013567ffffffffffffffff811115610ce157610ce0610953565b5b610ced8d828e01610c51565b9a509a505060208b013567ffffffffffffffff811115610d1057610d0f610953565b5b610d1c8d828e01610c51565b985098505060408b013567ffffffffffffffff811115610d3f57610d3e610953565b5b610d4b8d828e01610c51565b965096505060608b013567ffffffffffffffff811115610d6e57610d6d610953565b5b610d7a8d828e01610c51565b945094505060808b013567ffffffffffffffff811115610d9d57610d9c610953565b5b610da98d828e01610c51565b92509250509295989b9194979a5092959850565b5f6020820190508181035f830152610dd58184610b02565b905092915050565b7f4e487b71000000000000000000000000000000000000000000000000000000005f52602260045260245ffd5b5f6002820490506001821680610e2157607f821691505b602082108103610e3457610e33610ddd565b5b50919050565b5f81905092915050565b5f610e4f8385610e3a565b9350610e5c838584610a17565b82840190509392505050565b5f610e74828486610e44565b91508190509392505050565b5f819050815f5260205f209050919050565b5f6020601f8301049050919050565b5f82821b905092915050565b5f60088302610edc7fffffffffffffffffffffffffffffffffffffffffffffffffffffffffffffffff82610ea1565b610ee68683610ea1565b95508019841693508086168417925050509392505050565b5f819050919050565b5f819050919050565b5f610f2a610f25610f2084610efe565b610f07565b610efe565b9050919050565b5f819050919050565b610f4383610f10565b610f57610f4f82610f31565b848454610ead565b825550505050565b5f90565b610f6b610f5f565b610f76818484610f3a565b505050565b5b81811015610f9957610f8e5f82610f63565b600181019050610f7c565b5050565b601f821115610fde57610faf81610e80565b610fb884610e92565b81016020851015610fc7578190505b610fdb610fd385610e92565b830182610f7b565b50505b505050565b5f82821c905092915050565b5f610ffe5f1984600802610fe3565b1980831691505092915050565b5f6110168383610fef565b9150826002028217905092915050565b61102f82610ada565b67ffffffffffffffff8111156110485761104761096f565b5b6110528254610e0a565b61105d828285610f9d565b5f60209050601f83116001811461108e575f841561107c578287015190505b611086858261100b565b8655506110ed565b601f19841661109c86610e80565b5f5b828110156110c35784890151825560018201915060208501945060208101905061109e565b868310156110e057848901516110dc601f891682610fef565b8355505b6001600288020188555050505b505050505050565b5f6110ff82610ada565b6111098185610e3a565b9350611119818560208601610af4565b80840191505092915050565b5f61113082846110f5565b915081905092915050565b7f50617373656e676572204e616d653a2000000000000000000000000000000000815250565b5f815461116d81610e0a565b6111778186610e3a565b9450600182165f811461119157600181146111a6576111d8565b60ff19831686528115158202860193506111d8565b6111af85610e80565b5f5b838110156111d0578154818901526001820191506020810190506111b1565b838801955050505b50505092915050565b7f0a466c69676874204e756d6265723a2000000000000000000000000000000000815250565b7f0a466c6967687420446174653a20000000000000000000000000000000000000815250565b7f466c6967687420646174653a2000000000000000000000000000000000000000815250565b7f44657061727475726520636974793a2000000000000000000000000000000000815250565b7f44657374696e6174696f6e20636974793a200000000000000000000000000000815250565b5f6112a98261113b565b6010820191506112b98289611161565b91506112c4826111e1565b6010820191506112d48288611161565b91506112df82611207565b600e820191506112ef8287611161565b91506112fa8261122d565b600d8201915061130a8286611161565b915061131582611253565b6010820191506113258285611161565b915061133082611279565b6012820191506113408284611161565b915081905097965050505050505056fe5072656d69756d3a20302e3031204574686572200a496e64656d6e6974793a20302e3032204574686572200a436f766572616765206973737565733a206861696c20616e6420666c6f6f6473a26469706673582212201e91f7521a16c46f8542a80bc264253f93dbb293ca10cd645fc83a10ee1b1c8e64736f6c634300081a0033",
					"opcodes": "PUSH1 0x80 PUSH1 0x40 MSTORE CALLVALUE DUP1 ISZERO PUSH2 0xF JUMPI PUSH0 DUP1 REVERT JUMPDEST POP PUSH1 0x40 MLOAD PUSH2 0x14DF CODESIZE SUB DUP1 PUSH2 0x14DF DUP4 CODECOPY DUP2 DUP2 ADD PUSH1 0x40 MSTORE DUP2 ADD SWAP1 PUSH2 0x31 SWAP2 SWAP1 PUSH2 0xD5 JUMP JUMPDEST DUP1 PUSH1 0x1 PUSH0 PUSH2 0x100 EXP DUP2 SLOAD DUP2 PUSH20 0xFFFFFFFFFFFFFFFFFFFFFFFFFFFFFFFFFFFFFFFF MUL NOT AND SWAP1 DUP4 PUSH20 0xFFFFFFFFFFFFFFFFFFFFFFFFFFFFFFFFFFFFFFFF AND MUL OR SWAP1 SSTORE POP POP PUSH2 0x100 JUMP JUMPDEST PUSH0 DUP1 REVERT JUMPDEST PUSH0 PUSH20 0xFFFFFFFFFFFFFFFFFFFFFFFFFFFFFFFFFFFFFFFF DUP3 AND SWAP1 POP SWAP2 SWAP1 POP JUMP JUMPDEST PUSH0 PUSH2 0xA4 DUP3 PUSH2 0x7B JUMP JUMPDEST SWAP1 POP SWAP2 SWAP1 POP JUMP JUMPDEST PUSH2 0xB4 DUP2 PUSH2 0x9A JUMP JUMPDEST DUP2 EQ PUSH2 0xBE JUMPI PUSH0 DUP1 REVERT JUMPDEST POP JUMP JUMPDEST PUSH0 DUP2 MLOAD SWAP1 POP PUSH2 0xCF DUP2 PUSH2 0xAB JUMP JUMPDEST SWAP3 SWAP2 POP POP JUMP JUMPDEST PUSH0 PUSH1 0x20 DUP3 DUP5 SUB SLT ISZERO PUSH2 0xEA JUMPI PUSH2 0xE9 PUSH2 0x77 JUMP JUMPDEST JUMPDEST PUSH0 PUSH2 0xF7 DUP5 DUP3 DUP6 ADD PUSH2 0xC1 JUMP JUMPDEST SWAP2 POP POP SWAP3 SWAP2 POP POP JUMP JUMPDEST PUSH2 0x13D2 DUP1 PUSH2 0x10D PUSH0 CODECOPY PUSH0 RETURN INVALID PUSH1 0x80 PUSH1 0x40 MSTORE PUSH1 0x4 CALLDATASIZE LT PUSH2 0x4D JUMPI PUSH0 CALLDATALOAD PUSH1 0xE0 SHR DUP1 PUSH4 0x4A7BA3E5 EQ PUSH2 0x58 JUMPI DUP1 PUSH4 0x50DD73BE EQ PUSH2 0x9A JUMPI DUP1 PUSH4 0xC50D73F6 EQ PUSH2 0xC4 JUMPI DUP1 PUSH4 0xC738B563 EQ PUSH2 0xE0 JUMPI DUP1 PUSH4 0xF25797C6 EQ PUSH2 0x10A JUMPI PUSH2 0x54 JUMP JUMPDEST CALLDATASIZE PUSH2 0x54 JUMPI STOP JUMPDEST PUSH0 DUP1 REVERT JUMPDEST CALLVALUE DUP1 ISZERO PUSH2 0x63 JUMPI PUSH0 DUP1 REVERT JUMPDEST POP PUSH2 0x7E PUSH1 0x4 DUP1 CALLDATASIZE SUB DUP2 ADD SWAP1 PUSH2 0x79 SWAP2 SWAP1 PUSH2 0xA93 JUMP JUMPDEST PUSH2 0x146 JUMP JUMPDEST PUSH1 0x40 MLOAD PUSH2 0x91 SWAP8 SWAP7 SWAP6 SWAP5 SWAP4 SWAP3 SWAP2 SWAP1 PUSH2 0xB79 JUMP JUMPDEST PUSH1 0x40 MLOAD DUP1 SWAP2 SUB SWAP1 RETURN JUMPDEST CALLVALUE DUP1 ISZERO PUSH2 0xA5 JUMPI PUSH0 DUP1 REVERT JUMPDEST POP PUSH2 0xAE PUSH2 0x4DF JUMP JUMPDEST PUSH1 0x40 MLOAD PUSH2 0xBB SWAP2 SWAP1 PUSH2 0xC30 JUMP JUMPDEST PUSH1 0x40 MLOAD DUP1 SWAP2 SUB SWAP1 RETURN JUMPDEST PUSH2 0xDE PUSH1 0x4 DUP1 CALLDATASIZE SUB DUP2 ADD SWAP1 PUSH2 0xD9 SWAP2 SWAP1 PUSH2 0xCA6 JUMP JUMPDEST PUSH2 0x504 JUMP JUMPDEST STOP JUMPDEST CALLVALUE DUP1 ISZERO PUSH2 0xEB JUMPI PUSH0 DUP1 REVERT JUMPDEST POP PUSH2 0xF4 PUSH2 0x834 JUMP JUMPDEST PUSH1 0x40 MLOAD PUSH2 0x101 SWAP2 SWAP1 PUSH2 0xDBD JUMP JUMPDEST PUSH1 0x40 MLOAD DUP1 SWAP2 SUB SWAP1 RETURN JUMPDEST CALLVALUE DUP1 ISZERO PUSH2 0x115 JUMPI PUSH0 DUP1 REVERT JUMPDEST POP PUSH2 0x130 PUSH1 0x4 DUP1 CALLDATASIZE SUB DUP2 ADD SWAP1 PUSH2 0x12B SWAP2 SWAP1 PUSH2 0xA93 JUMP JUMPDEST PUSH2 0x854 JUMP JUMPDEST PUSH1 0x40 MLOAD PUSH2 0x13D SWAP2 SWAP1 PUSH2 0xDBD JUMP JUMPDEST PUSH1 0x40 MLOAD DUP1 SWAP2 SUB SWAP1 RETURN JUMPDEST PUSH1 0x2 DUP2 DUP1 MLOAD PUSH1 0x20 DUP2 ADD DUP3 ADD DUP1 MLOAD DUP5 DUP3 MSTORE PUSH1 0x20 DUP4 ADD PUSH1 0x20 DUP6 ADD KECCAK256 DUP2 DUP4 MSTORE DUP1 SWAP6 POP POP POP POP POP POP PUSH0 SWAP2 POP SWAP1 POP DUP1 PUSH0 ADD DUP1 SLOAD PUSH2 0x17D SWAP1 PUSH2 0xE0A JUMP JUMPDEST DUP1 PUSH1 0x1F ADD PUSH1 0x20 DUP1 SWAP2 DIV MUL PUSH1 0x20 ADD PUSH1 0x40 MLOAD SWAP1 DUP2 ADD PUSH1 0x40 MSTORE DUP1 SWAP3 SWAP2 SWAP1 DUP2 DUP2 MSTORE PUSH1 0x20 ADD DUP3 DUP1 SLOAD PUSH2 0x1A9 SWAP1 PUSH2 0xE0A JUMP JUMPDEST DUP1 ISZERO PUSH2 0x1F4 JUMPI DUP1 PUSH1 0x1F LT PUSH2 0x1CB JUMPI PUSH2 0x100 DUP1 DUP4 SLOAD DIV MUL DUP4 MSTORE SWAP2 PUSH1 0x20 ADD SWAP2 PUSH2 0x1F4 JUMP JUMPDEST DUP3 ADD SWAP2 SWAP1 PUSH0 MSTORE PUSH1 0x20 PUSH0 KECCAK256 SWAP1 JUMPDEST DUP2 SLOAD DUP2 MSTORE SWAP1 PUSH1 0x1 ADD SWAP1 PUSH1 0x20 ADD DUP1 DUP4 GT PUSH2 0x1D7 JUMPI DUP3 SWAP1 SUB PUSH1 0x1F AND DUP3 ADD SWAP2 JUMPDEST POP POP POP POP POP SWAP1 DUP1 PUSH1 0x1 ADD PUSH0 SWAP1 SLOAD SWAP1 PUSH2 0x100 EXP SWAP1 DIV PUSH20 0xFFFFFFFFFFFFFFFFFFFFFFFFFFFFFFFFFFFFFFFF AND SWAP1 DUP1 PUSH1 0x2 ADD DUP1 SLOAD PUSH2 0x22E SWAP1 PUSH2 0xE0A JUMP JUMPDEST DUP1 PUSH1 0x1F ADD PUSH1 0x20 DUP1 SWAP2 DIV MUL PUSH1 0x20 ADD PUSH1 0x40 MLOAD SWAP1 DUP2 ADD PUSH1 0x40 MSTORE DUP1 SWAP3 SWAP2 SWAP1 DUP2 DUP2 MSTORE PUSH1 0x20 ADD DUP3 DUP1 SLOAD PUSH2 0x25A SWAP1 PUSH2 0xE0A JUMP JUMPDEST DUP1 ISZERO PUSH2 0x2A5 JUMPI DUP1 PUSH1 0x1F LT PUSH2 0x27C JUMPI PUSH2 0x100 DUP1 DUP4 SLOAD DIV MUL DUP4 MSTORE SWAP2 PUSH1 0x20 ADD SWAP2 PUSH2 0x2A5 JUMP JUMPDEST DUP3 ADD SWAP2 SWAP1 PUSH0 MSTORE PUSH1 0x20 PUSH0 KECCAK256 SWAP1 JUMPDEST DUP2 SLOAD DUP2 MSTORE SWAP1 PUSH1 0x1 ADD SWAP1 PUSH1 0x20 ADD DUP1 DUP4 GT PUSH2 0x288 JUMPI DUP3 SWAP1 SUB PUSH1 0x1F AND DUP3 ADD SWAP2 JUMPDEST POP POP POP POP POP SWAP1 DUP1 PUSH1 0x3 ADD DUP1 SLOAD PUSH2 0x2BA SWAP1 PUSH2 0xE0A JUMP JUMPDEST DUP1 PUSH1 0x1F ADD PUSH1 0x20 DUP1 SWAP2 DIV MUL PUSH1 0x20 ADD PUSH1 0x40 MLOAD SWAP1 DUP2 ADD PUSH1 0x40 MSTORE DUP1 SWAP3 SWAP2 SWAP1 DUP2 DUP2 MSTORE PUSH1 0x20 ADD DUP3 DUP1 SLOAD PUSH2 0x2E6 SWAP1 PUSH2 0xE0A JUMP JUMPDEST DUP1 ISZERO PUSH2 0x331 JUMPI DUP1 PUSH1 0x1F LT PUSH2 0x308 JUMPI PUSH2 0x100 DUP1 DUP4 SLOAD DIV MUL DUP4 MSTORE SWAP2 PUSH1 0x20 ADD SWAP2 PUSH2 0x331 JUMP JUMPDEST DUP3 ADD SWAP2 SWAP1 PUSH0 MSTORE PUSH1 0x20 PUSH0 KECCAK256 SWAP1 JUMPDEST DUP2 SLOAD DUP2 MSTORE SWAP1 PUSH1 0x1 ADD SWAP1 PUSH1 0x20 ADD DUP1 DUP4 GT PUSH2 0x314 JUMPI DUP3 SWAP1 SUB PUSH1 0x1F AND DUP3 ADD SWAP2 JUMPDEST POP POP POP POP POP SWAP1 DUP1 PUSH1 0x4 ADD DUP1 SLOAD PUSH2 0x346 SWAP1 PUSH2 0xE0A JUMP JUMPDEST DUP1 PUSH1 0x1F ADD PUSH1 0x20 DUP1 SWAP2 DIV MUL PUSH1 0x20 ADD PUSH1 0x40 MLOAD SWAP1 DUP2 ADD PUSH1 0x40 MSTORE DUP1 SWAP3 SWAP2 SWAP1 DUP2 DUP2 MSTORE PUSH1 0x20 ADD DUP3 DUP1 SLOAD PUSH2 0x372 SWAP1 PUSH2 0xE0A JUMP JUMPDEST DUP1 ISZERO PUSH2 0x3BD JUMPI DUP1 PUSH1 0x1F LT PUSH2 0x394 JUMPI PUSH2 0x100 DUP1 DUP4 SLOAD DIV MUL DUP4 MSTORE SWAP2 PUSH1 0x20 ADD SWAP2 PUSH2 0x3BD JUMP JUMPDEST DUP3 ADD SWAP2 SWAP1 PUSH0 MSTORE PUSH1 0x20 PUSH0 KECCAK256 SWAP1 JUMPDEST DUP2 SLOAD DUP2 MSTORE SWAP1 PUSH1 0x1 ADD SWAP1 PUSH1 0x20 ADD DUP1 DUP4 GT PUSH2 0x3A0 JUMPI DUP3 SWAP1 SUB PUSH1 0x1F AND DUP3 ADD SWAP2 JUMPDEST POP POP POP POP POP SWAP1 DUP1 PUSH1 0x5 ADD DUP1 SLOAD PUSH2 0x3D2 SWAP1 PUSH2 0xE0A JUMP JUMPDEST DUP1 PUSH1 0x1F ADD PUSH1 0x20 DUP1 SWAP2 DIV MUL PUSH1 0x20 ADD PUSH1 0x40 MLOAD SWAP1 DUP2 ADD PUSH1 0x40 MSTORE DUP1 SWAP3 SWAP2 SWAP1 DUP2 DUP2 MSTORE PUSH1 0x20 ADD DUP3 DUP1 SLOAD PUSH2 0x3FE SWAP1 PUSH2 0xE0A JUMP JUMPDEST DUP1 ISZERO PUSH2 0x449 JUMPI DUP1 PUSH1 0x1F LT PUSH2 0x420 JUMPI PUSH2 0x100 DUP1 DUP4 SLOAD DIV MUL DUP4 MSTORE SWAP2 PUSH1 0x20 ADD SWAP2 PUSH2 0x449 JUMP JUMPDEST DUP3 ADD SWAP2 SWAP1 PUSH0 MSTORE PUSH1 0x20 PUSH0 KECCAK256 SWAP1 JUMPDEST DUP2 SLOAD DUP2 MSTORE SWAP1 PUSH1 0x1 ADD SWAP1 PUSH1 0x20 ADD DUP1 DUP4 GT PUSH2 0x42C JUMPI DUP3 SWAP1 SUB PUSH1 0x1F AND DUP3 ADD SWAP2 JUMPDEST POP POP POP POP POP SWAP1 DUP1 PUSH1 0x6 ADD DUP1 SLOAD PUSH2 0x45E SWAP1 PUSH2 0xE0A JUMP JUMPDEST DUP1 PUSH1 0x1F ADD PUSH1 0x20 DUP1 SWAP2 DIV MUL PUSH1 0x20 ADD PUSH1 0x40 MLOAD SWAP1 DUP2 ADD PUSH1 0x40 MSTORE DUP1 SWAP3 SWAP2 SWAP1 DUP2 DUP2 MSTORE PUSH1 0x20 ADD DUP3 DUP1 SLOAD PUSH2 0x48A SWAP1 PUSH2 0xE0A JUMP JUMPDEST DUP1 ISZERO PUSH2 0x4D5 JUMPI DUP1 PUSH1 0x1F LT PUSH2 0x4AC JUMPI PUSH2 0x100 DUP1 DUP4 SLOAD DIV MUL DUP4 MSTORE SWAP2 PUSH1 0x20 ADD SWAP2 PUSH2 0x4D5 JUMP JUMPDEST DUP3 ADD SWAP2 SWAP1 PUSH0 MSTORE PUSH1 0x20 PUSH0 KECCAK256 SWAP1 JUMPDEST DUP2 SLOAD DUP2 MSTORE SWAP1 PUSH1 0x1 ADD SWAP1 PUSH1 0x20 ADD DUP1 DUP4 GT PUSH2 0x4B8 JUMPI DUP3 SWAP1 SUB PUSH1 0x1F AND DUP3 ADD SWAP2 JUMPDEST POP POP POP POP POP SWAP1 POP DUP8 JUMP JUMPDEST PUSH1 0x1 PUSH0 SWAP1 SLOAD SWAP1 PUSH2 0x100 EXP SWAP1 DIV PUSH20 0xFFFFFFFFFFFFFFFFFFFFFFFFFFFFFFFFFFFFFFFF AND DUP2 JUMP JUMPDEST PUSH1 0x1 PUSH0 SWAP1 SLOAD SWAP1 PUSH2 0x100 EXP SWAP1 DIV PUSH20 0xFFFFFFFFFFFFFFFFFFFFFFFFFFFFFFFFFFFFFFFF AND PUSH20 0xFFFFFFFFFFFFFFFFFFFFFFFFFFFFFFFFFFFFFFFF AND PUSH2 0x8FC PUSH7 0x2386F26FC10000 SWAP1 DUP2 ISZERO MUL SWAP1 PUSH1 0x40 MLOAD PUSH0 PUSH1 0x40 MLOAD DUP1 DUP4 SUB DUP2 DUP6 DUP9 DUP9 CALL SWAP4 POP POP POP POP ISZERO DUP1 ISZERO PUSH2 0x56F JUMPI RETURNDATASIZE PUSH0 DUP1 RETURNDATACOPY RETURNDATASIZE PUSH0 REVERT JUMPDEST POP PUSH1 0x40 MLOAD DUP1 PUSH1 0xE0 ADD PUSH1 0x40 MSTORE DUP1 DUP12 DUP12 DUP1 DUP1 PUSH1 0x1F ADD PUSH1 0x20 DUP1 SWAP2 DIV MUL PUSH1 0x20 ADD PUSH1 0x40 MLOAD SWAP1 DUP2 ADD PUSH1 0x40 MSTORE DUP1 SWAP4 SWAP3 SWAP2 SWAP1 DUP2 DUP2 MSTORE PUSH1 0x20 ADD DUP4 DUP4 DUP1 DUP3 DUP5 CALLDATACOPY PUSH0 DUP2 DUP5 ADD MSTORE PUSH1 0x1F NOT PUSH1 0x1F DUP3 ADD AND SWAP1 POP DUP1 DUP4 ADD SWAP3 POP POP POP POP POP POP POP DUP2 MSTORE PUSH1 0x20 ADD ADDRESS PUSH20 0xFFFFFFFFFFFFFFFFFFFFFFFFFFFFFFFFFFFFFFFF AND DUP2 MSTORE PUSH1 0x20 ADD DUP10 DUP10 DUP1 DUP1 PUSH1 0x1F ADD PUSH1 0x20 DUP1 SWAP2 DIV MUL PUSH1 0x20 ADD PUSH1 0x40 MLOAD SWAP1 DUP2 ADD PUSH1 0x40 MSTORE DUP1 SWAP4 SWAP3 SWAP2 SWAP1 DUP2 DUP2 MSTORE PUSH1 0x20 ADD DUP4 DUP4 DUP1 DUP3 DUP5 CALLDATACOPY PUSH0 DUP2 DUP5 ADD MSTORE PUSH1 0x1F NOT PUSH1 0x1F DUP3 ADD AND SWAP1 POP DUP1 DUP4 ADD SWAP3 POP POP POP POP POP POP POP DUP2 MSTORE PUSH1 0x20 ADD DUP8 DUP8 DUP1 DUP1 PUSH1 0x1F ADD PUSH1 0x20 DUP1 SWAP2 DIV MUL PUSH1 0x20 ADD PUSH1 0x40 MLOAD SWAP1 DUP2 ADD PUSH1 0x40 MSTORE DUP1 SWAP4 SWAP3 SWAP2 SWAP1 DUP2 DUP2 MSTORE PUSH1 0x20 ADD DUP4 DUP4 DUP1 DUP3 DUP5 CALLDATACOPY PUSH0 DUP2 DUP5 ADD MSTORE PUSH1 0x1F NOT PUSH1 0x1F DUP3 ADD AND SWAP1 POP DUP1 DUP4 ADD SWAP3 POP POP POP POP POP POP POP DUP2 MSTORE PUSH1 0x20 ADD DUP6 DUP6 DUP1 DUP1 PUSH1 0x1F ADD PUSH1 0x20 DUP1 SWAP2 DIV MUL PUSH1 0x20 ADD PUSH1 0x40 MLOAD SWAP1 DUP2 ADD PUSH1 0x40 MSTORE DUP1 SWAP4 SWAP3 SWAP2 SWAP1 DUP2 DUP2 MSTORE PUSH1 0x20 ADD DUP4 DUP4 DUP1 DUP3 DUP5 CALLDATACOPY PUSH0 DUP2 DUP5 ADD MSTORE PUSH1 0x1F NOT PUSH1 0x1F DUP3 ADD AND SWAP1 POP DUP1 DUP4 ADD SWAP3 POP POP POP POP POP POP POP DUP2 MSTORE PUSH1 0x20 ADD DUP4 DUP4 DUP1 DUP1 PUSH1 0x1F ADD PUSH1 0x20 DUP1 SWAP2 DIV MUL PUSH1 0x20 ADD PUSH1 0x40 MLOAD SWAP1 DUP2 ADD PUSH1 0x40 MSTORE DUP1 SWAP4 SWAP3 SWAP2 SWAP1 DUP2 DUP2 MSTORE PUSH1 0x20 ADD DUP4 DUP4 DUP1 DUP3 DUP5 CALLDATACOPY PUSH0 DUP2 DUP5 ADD MSTORE PUSH1 0x1F NOT PUSH1 0x1F DUP3 ADD AND SWAP1 POP DUP1 DUP4 ADD SWAP3 POP POP POP POP POP POP POP DUP2 MSTORE PUSH1 0x20 ADD PUSH1 0x40 MLOAD DUP1 PUSH1 0x40 ADD PUSH1 0x40 MSTORE DUP1 PUSH1 0x9 DUP2 MSTORE PUSH1 0x20 ADD PUSH32 0x5075726368617365640000000000000000000000000000000000000000000000 DUP2 MSTORE POP DUP2 MSTORE POP PUSH1 0x2 DUP12 DUP12 PUSH1 0x40 MLOAD PUSH2 0x74F SWAP3 SWAP2 SWAP1 PUSH2 0xE68 JUMP JUMPDEST SWAP1 DUP2 MSTORE PUSH1 0x20 ADD PUSH1 0x40 MLOAD DUP1 SWAP2 SUB SWAP1 KECCAK256 PUSH0 DUP3 ADD MLOAD DUP2 PUSH0 ADD SWAP1 DUP2 PUSH2 0x770 SWAP2 SWAP1 PUSH2 0x1026 JUMP JUMPDEST POP PUSH1 0x20 DUP3 ADD MLOAD DUP2 PUSH1 0x1 ADD PUSH0 PUSH2 0x100 EXP DUP2 SLOAD DUP2 PUSH20 0xFFFFFFFFFFFFFFFFFFFFFFFFFFFFFFFFFFFFFFFF MUL NOT AND SWAP1 DUP4 PUSH20 0xFFFFFFFFFFFFFFFFFFFFFFFFFFFFFFFFFFFFFFFF AND MUL OR SWAP1 SSTORE POP PUSH1 0x40 DUP3 ADD MLOAD DUP2 PUSH1 0x2 ADD SWAP1 DUP2 PUSH2 0x7CC SWAP2 SWAP1 PUSH2 0x1026 JUMP JUMPDEST POP PUSH1 0x60 DUP3 ADD MLOAD DUP2 PUSH1 0x3 ADD SWAP1 DUP2 PUSH2 0x7E2 SWAP2 SWAP1 PUSH2 0x1026 JUMP JUMPDEST POP PUSH1 0x80 DUP3 ADD MLOAD DUP2 PUSH1 0x4 ADD SWAP1 DUP2 PUSH2 0x7F8 SWAP2 SWAP1 PUSH2 0x1026 JUMP JUMPDEST POP PUSH1 0xA0 DUP3 ADD MLOAD DUP2 PUSH1 0x5 ADD SWAP1 DUP2 PUSH2 0x80E SWAP2 SWAP1 PUSH2 0x1026 JUMP JUMPDEST POP PUSH1 0xC0 DUP3 ADD MLOAD DUP2 PUSH1 0x6 ADD SWAP1 DUP2 PUSH2 0x824 SWAP2 SWAP1 PUSH2 0x1026 JUMP JUMPDEST POP SWAP1 POP POP POP POP POP POP POP POP POP POP POP POP JUMP JUMPDEST PUSH1 0x60 PUSH1 0x40 MLOAD DUP1 PUSH1 0x80 ADD PUSH1 0x40 MSTORE DUP1 PUSH1 0x4C DUP2 MSTORE PUSH1 0x20 ADD PUSH2 0x1351 PUSH1 0x4C SWAP2 CODECOPY SWAP1 POP SWAP1 JUMP JUMPDEST PUSH1 0x60 PUSH1 0x2 DUP3 PUSH1 0x40 MLOAD PUSH2 0x866 SWAP2 SWAP1 PUSH2 0x1125 JUMP JUMPDEST SWAP1 DUP2 MSTORE PUSH1 0x20 ADD PUSH1 0x40 MLOAD DUP1 SWAP2 SUB SWAP1 KECCAK256 PUSH0 ADD PUSH1 0x2 DUP4 PUSH1 0x40 MLOAD PUSH2 0x886 SWAP2 SWAP1 PUSH2 0x1125 JUMP JUMPDEST SWAP1 DUP2 MSTORE PUSH1 0x20 ADD PUSH1 0x40 MLOAD DUP1 SWAP2 SUB SWAP1 KECCAK256 PUSH1 0x2 ADD PUSH1 0x2 DUP5 PUSH1 0x40 MLOAD PUSH2 0x8A7 SWAP2 SWAP1 PUSH2 0x1125 JUMP JUMPDEST SWAP1 DUP2 MSTORE PUSH1 0x20 ADD PUSH1 0x40 MLOAD DUP1 SWAP2 SUB SWAP1 KECCAK256 PUSH1 0x3 ADD PUSH1 0x2 DUP6 PUSH1 0x40 MLOAD PUSH2 0x8C8 SWAP2 SWAP1 PUSH2 0x1125 JUMP JUMPDEST SWAP1 DUP2 MSTORE PUSH1 0x20 ADD PUSH1 0x40 MLOAD DUP1 SWAP2 SUB SWAP1 KECCAK256 PUSH1 0x3 ADD PUSH1 0x2 DUP7 PUSH1 0x40 MLOAD PUSH2 0x8E9 SWAP2 SWAP1 PUSH2 0x1125 JUMP JUMPDEST SWAP1 DUP2 MSTORE PUSH1 0x20 ADD PUSH1 0x40 MLOAD DUP1 SWAP2 SUB SWAP1 KECCAK256 PUSH1 0x4 ADD PUSH1 0x2 DUP8 PUSH1 0x40 MLOAD PUSH2 0x90A SWAP2 SWAP1 PUSH2 0x1125 JUMP JUMPDEST SWAP1 DUP2 MSTORE PUSH1 0x20 ADD PUSH1 0x40 MLOAD DUP1 SWAP2 SUB SWAP1 KECCAK256 PUSH1 0x5 ADD PUSH1 0x40 MLOAD PUSH1 0x20 ADD PUSH2 0x930 SWAP7 SWAP6 SWAP5 SWAP4 SWAP3 SWAP2 SWAP1 PUSH2 0x129F JUMP JUMPDEST PUSH1 0x40 MLOAD PUSH1 0x20 DUP2 DUP4 SUB SUB DUP2 MSTORE SWAP1 PUSH1 0x40 MSTORE SWAP1 POP SWAP2 SWAP1 POP JUMP JUMPDEST PUSH0 PUSH1 0x40 MLOAD SWAP1 POP SWAP1 JUMP JUMPDEST PUSH0 DUP1 REVERT JUMPDEST PUSH0 DUP1 REVERT JUMPDEST PUSH0 DUP1 REVERT JUMPDEST PUSH0 DUP1 REVERT JUMPDEST PUSH0 PUSH1 0x1F NOT PUSH1 0x1F DUP4 ADD AND SWAP1 POP SWAP2 SWAP1 POP JUMP JUMPDEST PUSH32 0x4E487B7100000000000000000000000000000000000000000000000000000000 PUSH0 MSTORE PUSH1 0x41 PUSH1 0x4 MSTORE PUSH1 0x24 PUSH0 REVERT JUMPDEST PUSH2 0x9A5 DUP3 PUSH2 0x95F JUMP JUMPDEST DUP2 ADD DUP2 DUP2 LT PUSH8 0xFFFFFFFFFFFFFFFF DUP3 GT OR ISZERO PUSH2 0x9C4 JUMPI PUSH2 0x9C3 PUSH2 0x96F JUMP JUMPDEST JUMPDEST DUP1 PUSH1 0x40 MSTORE POP POP POP JUMP JUMPDEST PUSH0 PUSH2 0x9D6 PUSH2 0x946 JUMP JUMPDEST SWAP1 POP PUSH2 0x9E2 DUP3 DUP3 PUSH2 0x99C JUMP JUMPDEST SWAP2 SWAP1 POP JUMP JUMPDEST PUSH0 PUSH8 0xFFFFFFFFFFFFFFFF DUP3 GT ISZERO PUSH2 0xA01 JUMPI PUSH2 0xA00 PUSH2 0x96F JUMP JUMPDEST JUMPDEST PUSH2 0xA0A DUP3 PUSH2 0x95F JUMP JUMPDEST SWAP1 POP PUSH1 0x20 DUP2 ADD SWAP1 POP SWAP2 SWAP1 POP JUMP JUMPDEST DUP3 DUP2 DUP4 CALLDATACOPY PUSH0 DUP4 DUP4 ADD MSTORE POP POP POP JUMP JUMPDEST PUSH0 PUSH2 0xA37 PUSH2 0xA32 DUP5 PUSH2 0x9E7 JUMP JUMPDEST PUSH2 0x9CD JUMP JUMPDEST SWAP1 POP DUP3 DUP2 MSTORE PUSH1 0x20 DUP2 ADD DUP5 DUP5 DUP5 ADD GT ISZERO PUSH2 0xA53 JUMPI PUSH2 0xA52 PUSH2 0x95B JUMP JUMPDEST JUMPDEST PUSH2 0xA5E DUP5 DUP3 DUP6 PUSH2 0xA17 JUMP JUMPDEST POP SWAP4 SWAP3 POP POP POP JUMP JUMPDEST PUSH0 DUP3 PUSH1 0x1F DUP4 ADD SLT PUSH2 0xA7A JUMPI PUSH2 0xA79 PUSH2 0x957 JUMP JUMPDEST JUMPDEST DUP2 CALLDATALOAD PUSH2 0xA8A DUP5 DUP3 PUSH1 0x20 DUP7 ADD PUSH2 0xA25 JUMP JUMPDEST SWAP2 POP POP SWAP3 SWAP2 POP POP JUMP JUMPDEST PUSH0 PUSH1 0x20 DUP3 DUP5 SUB SLT ISZERO PUSH2 0xAA8 JUMPI PUSH2 0xAA7 PUSH2 0x94F JUMP JUMPDEST JUMPDEST PUSH0 DUP3 ADD CALLDATALOAD PUSH8 0xFFFFFFFFFFFFFFFF DUP2 GT ISZERO PUSH2 0xAC5 JUMPI PUSH2 0xAC4 PUSH2 0x953 JUMP JUMPDEST JUMPDEST PUSH2 0xAD1 DUP5 DUP3 DUP6 ADD PUSH2 0xA66 JUMP JUMPDEST SWAP2 POP POP SWAP3 SWAP2 POP POP JUMP JUMPDEST PUSH0 DUP2 MLOAD SWAP1 POP SWAP2 SWAP1 POP JUMP JUMPDEST PUSH0 DUP3 DUP3 MSTORE PUSH1 0x20 DUP3 ADD SWAP1 POP SWAP3 SWAP2 POP POP JUMP JUMPDEST DUP3 DUP2 DUP4 MCOPY PUSH0 DUP4 DUP4 ADD MSTORE POP POP POP JUMP JUMPDEST PUSH0 PUSH2 0xB0C DUP3 PUSH2 0xADA JUMP JUMPDEST PUSH2 0xB16 DUP2 DUP6 PUSH2 0xAE4 JUMP JUMPDEST SWAP4 POP PUSH2 0xB26 DUP2 DUP6 PUSH1 0x20 DUP7 ADD PUSH2 0xAF4 JUMP JUMPDEST PUSH2 0xB2F DUP2 PUSH2 0x95F JUMP JUMPDEST DUP5 ADD SWAP2 POP POP SWAP3 SWAP2 POP POP JUMP JUMPDEST PUSH0 PUSH20 0xFFFFFFFFFFFFFFFFFFFFFFFFFFFFFFFFFFFFFFFF DUP3 AND SWAP1 POP SWAP2 SWAP1 POP JUMP JUMPDEST PUSH0 PUSH2 0xB63 DUP3 PUSH2 0xB3A JUMP JUMPDEST SWAP1 POP SWAP2 SWAP1 POP JUMP JUMPDEST PUSH2 0xB73 DUP2 PUSH2 0xB59 JUMP JUMPDEST DUP3 MSTORE POP POP JUMP JUMPDEST PUSH0 PUSH1 0xE0 DUP3 ADD SWAP1 POP DUP2 DUP2 SUB PUSH0 DUP4 ADD MSTORE PUSH2 0xB91 DUP2 DUP11 PUSH2 0xB02 JUMP JUMPDEST SWAP1 POP PUSH2 0xBA0 PUSH1 0x20 DUP4 ADD DUP10 PUSH2 0xB6A JUMP JUMPDEST DUP2 DUP2 SUB PUSH1 0x40 DUP4 ADD MSTORE PUSH2 0xBB2 DUP2 DUP9 PUSH2 0xB02 JUMP JUMPDEST SWAP1 POP DUP2 DUP2 SUB PUSH1 0x60 DUP4 ADD MSTORE PUSH2 0xBC6 DUP2 DUP8 PUSH2 0xB02 JUMP JUMPDEST SWAP1 POP DUP2 DUP2 SUB PUSH1 0x80 DUP4 ADD MSTORE PUSH2 0xBDA DUP2 DUP7 PUSH2 0xB02 JUMP JUMPDEST SWAP1 POP DUP2 DUP2 SUB PUSH1 0xA0 DUP4 ADD MSTORE PUSH2 0xBEE DUP2 DUP6 PUSH2 0xB02 JUMP JUMPDEST SWAP1 POP DUP2 DUP2 SUB PUSH1 0xC0 DUP4 ADD MSTORE PUSH2 0xC02 DUP2 DUP5 PUSH2 0xB02 JUMP JUMPDEST SWAP1 POP SWAP9 SWAP8 POP POP POP POP POP POP POP POP JUMP JUMPDEST PUSH0 PUSH2 0xC1A DUP3 PUSH2 0xB3A JUMP JUMPDEST SWAP1 POP SWAP2 SWAP1 POP JUMP JUMPDEST PUSH2 0xC2A DUP2 PUSH2 0xC10 JUMP JUMPDEST DUP3 MSTORE POP POP JUMP JUMPDEST PUSH0 PUSH1 0x20 DUP3 ADD SWAP1 POP PUSH2 0xC43 PUSH0 DUP4 ADD DUP5 PUSH2 0xC21 JUMP JUMPDEST SWAP3 SWAP2 POP POP JUMP JUMPDEST PUSH0 DUP1 REVERT JUMPDEST PUSH0 DUP1 REVERT JUMPDEST PUSH0 DUP1 DUP4 PUSH1 0x1F DUP5 ADD SLT PUSH2 0xC66 JUMPI PUSH2 0xC65 PUSH2 0x957 JUMP JUMPDEST JUMPDEST DUP3 CALLDATALOAD SWAP1 POP PUSH8 0xFFFFFFFFFFFFFFFF DUP2 GT ISZERO PUSH2 0xC83 JUMPI PUSH2 0xC82 PUSH2 0xC49 JUMP JUMPDEST JUMPDEST PUSH1 0x20 DUP4 ADD SWAP2 POP DUP4 PUSH1 0x1 DUP3 MUL DUP4 ADD GT ISZERO PUSH2 0xC9F JUMPI PUSH2 0xC9E PUSH2 0xC4D JUMP JUMPDEST JUMPDEST SWAP3 POP SWAP3 SWAP1 POP JUMP JUMPDEST PUSH0 DUP1 PUSH0 DUP1 PUSH0 DUP1 PUSH0 DUP1 PUSH0 DUP1 PUSH1 0xA0 DUP12 DUP14 SUB SLT ISZERO PUSH2 0xCC4 JUMPI PUSH2 0xCC3 PUSH2 0x94F JUMP JUMPDEST JUMPDEST PUSH0 DUP12 ADD CALLDATALOAD PUSH8 0xFFFFFFFFFFFFFFFF DUP2 GT ISZERO PUSH2 0xCE1 JUMPI PUSH2 0xCE0 PUSH2 0x953 JUMP JUMPDEST JUMPDEST PUSH2 0xCED DUP14 DUP3 DUP15 ADD PUSH2 0xC51 JUMP JUMPDEST SWAP11 POP SWAP11 POP POP PUSH1 0x20 DUP12 ADD CALLDATALOAD PUSH8 0xFFFFFFFFFFFFFFFF DUP2 GT ISZERO PUSH2 0xD10 JUMPI PUSH2 0xD0F PUSH2 0x953 JUMP JUMPDEST JUMPDEST PUSH2 0xD1C DUP14 DUP3 DUP15 ADD PUSH2 0xC51 JUMP JUMPDEST SWAP9 POP SWAP9 POP POP PUSH1 0x40 DUP12 ADD CALLDATALOAD PUSH8 0xFFFFFFFFFFFFFFFF DUP2 GT ISZERO PUSH2 0xD3F JUMPI PUSH2 0xD3E PUSH2 0x953 JUMP JUMPDEST JUMPDEST PUSH2 0xD4B DUP14 DUP3 DUP15 ADD PUSH2 0xC51 JUMP JUMPDEST SWAP7 POP SWAP7 POP POP PUSH1 0x60 DUP12 ADD CALLDATALOAD PUSH8 0xFFFFFFFFFFFFFFFF DUP2 GT ISZERO PUSH2 0xD6E JUMPI PUSH2 0xD6D PUSH2 0x953 JUMP JUMPDEST JUMPDEST PUSH2 0xD7A DUP14 DUP3 DUP15 ADD PUSH2 0xC51 JUMP JUMPDEST SWAP5 POP SWAP5 POP POP PUSH1 0x80 DUP12 ADD CALLDATALOAD PUSH8 0xFFFFFFFFFFFFFFFF DUP2 GT ISZERO PUSH2 0xD9D JUMPI PUSH2 0xD9C PUSH2 0x953 JUMP JUMPDEST JUMPDEST PUSH2 0xDA9 DUP14 DUP3 DUP15 ADD PUSH2 0xC51 JUMP JUMPDEST SWAP3 POP SWAP3 POP POP SWAP3 SWAP6 SWAP9 SWAP12 SWAP2 SWAP5 SWAP8 SWAP11 POP SWAP3 SWAP6 SWAP9 POP JUMP JUMPDEST PUSH0 PUSH1 0x20 DUP3 ADD SWAP1 POP DUP2 DUP2 SUB PUSH0 DUP4 ADD MSTORE PUSH2 0xDD5 DUP2 DUP5 PUSH2 0xB02 JUMP JUMPDEST SWAP1 POP SWAP3 SWAP2 POP POP JUMP JUMPDEST PUSH32 0x4E487B7100000000000000000000000000000000000000000000000000000000 PUSH0 MSTORE PUSH1 0x22 PUSH1 0x4 MSTORE PUSH1 0x24 PUSH0 REVERT JUMPDEST PUSH0 PUSH1 0x2 DUP3 DIV SWAP1 POP PUSH1 0x1 DUP3 AND DUP1 PUSH2 0xE21 JUMPI PUSH1 0x7F DUP3 AND SWAP2 POP JUMPDEST PUSH1 0x20 DUP3 LT DUP2 SUB PUSH2 0xE34 JUMPI PUSH2 0xE33 PUSH2 0xDDD JUMP JUMPDEST JUMPDEST POP SWAP2 SWAP1 POP JUMP JUMPDEST PUSH0 DUP2 SWAP1 POP SWAP3 SWAP2 POP POP JUMP JUMPDEST PUSH0 PUSH2 0xE4F DUP4 DUP6 PUSH2 0xE3A JUMP JUMPDEST SWAP4 POP PUSH2 0xE5C DUP4 DUP6 DUP5 PUSH2 0xA17 JUMP JUMPDEST DUP3 DUP5 ADD SWAP1 POP SWAP4 SWAP3 POP POP POP JUMP JUMPDEST PUSH0 PUSH2 0xE74 DUP3 DUP5 DUP7 PUSH2 0xE44 JUMP JUMPDEST SWAP2 POP DUP2 SWAP1 POP SWAP4 SWAP3 POP POP POP JUMP JUMPDEST PUSH0 DUP2 SWAP1 POP DUP2 PUSH0 MSTORE PUSH1 0x20 PUSH0 KECCAK256 SWAP1 POP SWAP2 SWAP1 POP JUMP JUMPDEST PUSH0 PUSH1 0x20 PUSH1 0x1F DUP4 ADD DIV SWAP1 POP SWAP2 SWAP1 POP JUMP JUMPDEST PUSH0 DUP3 DUP3 SHL SWAP1 POP SWAP3 SWAP2 POP POP JUMP JUMPDEST PUSH0 PUSH1 0x8 DUP4 MUL PUSH2 0xEDC PUSH32 0xFFFFFFFFFFFFFFFFFFFFFFFFFFFFFFFFFFFFFFFFFFFFFFFFFFFFFFFFFFFFFFFF DUP3 PUSH2 0xEA1 JUMP JUMPDEST PUSH2 0xEE6 DUP7 DUP4 PUSH2 0xEA1 JUMP JUMPDEST SWAP6 POP DUP1 NOT DUP5 AND SWAP4 POP DUP1 DUP7 AND DUP5 OR SWAP3 POP POP POP SWAP4 SWAP3 POP POP POP JUMP JUMPDEST PUSH0 DUP2 SWAP1 POP SWAP2 SWAP1 POP JUMP JUMPDEST PUSH0 DUP2 SWAP1 POP SWAP2 SWAP1 POP JUMP JUMPDEST PUSH0 PUSH2 0xF2A PUSH2 0xF25 PUSH2 0xF20 DUP5 PUSH2 0xEFE JUMP JUMPDEST PUSH2 0xF07 JUMP JUMPDEST PUSH2 0xEFE JUMP JUMPDEST SWAP1 POP SWAP2 SWAP1 POP JUMP JUMPDEST PUSH0 DUP2 SWAP1 POP SWAP2 SWAP1 POP JUMP JUMPDEST PUSH2 0xF43 DUP4 PUSH2 0xF10 JUMP JUMPDEST PUSH2 0xF57 PUSH2 0xF4F DUP3 PUSH2 0xF31 JUMP JUMPDEST DUP5 DUP5 SLOAD PUSH2 0xEAD JUMP JUMPDEST DUP3 SSTORE POP POP POP POP JUMP JUMPDEST PUSH0 SWAP1 JUMP JUMPDEST PUSH2 0xF6B PUSH2 0xF5F JUMP JUMPDEST PUSH2 0xF76 DUP2 DUP5 DUP5 PUSH2 0xF3A JUMP JUMPDEST POP POP POP JUMP JUMPDEST JUMPDEST DUP2 DUP2 LT ISZERO PUSH2 0xF99 JUMPI PUSH2 0xF8E PUSH0 DUP3 PUSH2 0xF63 JUMP JUMPDEST PUSH1 0x1 DUP2 ADD SWAP1 POP PUSH2 0xF7C JUMP JUMPDEST POP POP JUMP JUMPDEST PUSH1 0x1F DUP3 GT ISZERO PUSH2 0xFDE JUMPI PUSH2 0xFAF DUP2 PUSH2 0xE80 JUMP JUMPDEST PUSH2 0xFB8 DUP5 PUSH2 0xE92 JUMP JUMPDEST DUP2 ADD PUSH1 0x20 DUP6 LT ISZERO PUSH2 0xFC7 JUMPI DUP2 SWAP1 POP JUMPDEST PUSH2 0xFDB PUSH2 0xFD3 DUP6 PUSH2 0xE92 JUMP JUMPDEST DUP4 ADD DUP3 PUSH2 0xF7B JUMP JUMPDEST POP POP JUMPDEST POP POP POP JUMP JUMPDEST PUSH0 DUP3 DUP3 SHR SWAP1 POP SWAP3 SWAP2 POP POP JUMP JUMPDEST PUSH0 PUSH2 0xFFE PUSH0 NOT DUP5 PUSH1 0x8 MUL PUSH2 0xFE3 JUMP JUMPDEST NOT DUP1 DUP4 AND SWAP2 POP POP SWAP3 SWAP2 POP POP JUMP JUMPDEST PUSH0 PUSH2 0x1016 DUP4 DUP4 PUSH2 0xFEF JUMP JUMPDEST SWAP2 POP DUP3 PUSH1 0x2 MUL DUP3 OR SWAP1 POP SWAP3 SWAP2 POP POP JUMP JUMPDEST PUSH2 0x102F DUP3 PUSH2 0xADA JUMP JUMPDEST PUSH8 0xFFFFFFFFFFFFFFFF DUP2 GT ISZERO PUSH2 0x1048 JUMPI PUSH2 0x1047 PUSH2 0x96F JUMP JUMPDEST JUMPDEST PUSH2 0x1052 DUP3 SLOAD PUSH2 0xE0A JUMP JUMPDEST PUSH2 0x105D DUP3 DUP3 DUP6 PUSH2 0xF9D JUMP JUMPDEST PUSH0 PUSH1 0x20 SWAP1 POP PUSH1 0x1F DUP4 GT PUSH1 0x1 DUP2 EQ PUSH2 0x108E JUMPI PUSH0 DUP5 ISZERO PUSH2 0x107C JUMPI DUP3 DUP8 ADD MLOAD SWAP1 POP JUMPDEST PUSH2 0x1086 DUP6 DUP3 PUSH2 0x100B JUMP JUMPDEST DUP7 SSTORE POP PUSH2 0x10ED JUMP JUMPDEST PUSH1 0x1F NOT DUP5 AND PUSH2 0x109C DUP7 PUSH2 0xE80 JUMP JUMPDEST PUSH0 JUMPDEST DUP3 DUP2 LT ISZERO PUSH2 0x10C3 JUMPI DUP5 DUP10 ADD MLOAD DUP3 SSTORE PUSH1 0x1 DUP3 ADD SWAP2 POP PUSH1 0x20 DUP6 ADD SWAP5 POP PUSH1 0x20 DUP2 ADD SWAP1 POP PUSH2 0x109E JUMP JUMPDEST DUP7 DUP4 LT ISZERO PUSH2 0x10E0 JUMPI DUP5 DUP10 ADD MLOAD PUSH2 0x10DC PUSH1 0x1F DUP10 AND DUP3 PUSH2 0xFEF JUMP JUMPDEST DUP4 SSTORE POP JUMPDEST PUSH1 0x1 PUSH1 0x2 DUP9 MUL ADD DUP9 SSTORE POP POP POP JUMPDEST POP POP POP POP POP POP JUMP JUMPDEST PUSH0 PUSH2 0x10FF DUP3 PUSH2 0xADA JUMP JUMPDEST PUSH2 0x1109 DUP2 DUP6 PUSH2 0xE3A JUMP JUMPDEST SWAP4 POP PUSH2 0x1119 DUP2 DUP6 PUSH1 0x20 DUP7 ADD PUSH2 0xAF4 JUMP JUMPDEST DUP1 DUP5 ADD SWAP2 POP POP SWAP3 SWAP2 POP POP JUMP JUMPDEST PUSH0 PUSH2 0x1130 DUP3 DUP5 PUSH2 0x10F5 JUMP JUMPDEST SWAP2 POP DUP2 SWAP1 POP SWAP3 SWAP2 POP POP JUMP JUMPDEST PUSH32 0x50617373656E676572204E616D653A2000000000000000000000000000000000 DUP2 MSTORE POP JUMP JUMPDEST PUSH0 DUP2 SLOAD PUSH2 0x116D DUP2 PUSH2 0xE0A JUMP JUMPDEST PUSH2 0x1177 DUP2 DUP7 PUSH2 0xE3A JUMP JUMPDEST SWAP5 POP PUSH1 0x1 DUP3 AND PUSH0 DUP2 EQ PUSH2 0x1191 JUMPI PUSH1 0x1 DUP2 EQ PUSH2 0x11A6 JUMPI PUSH2 0x11D8 JUMP JUMPDEST PUSH1 0xFF NOT DUP4 AND DUP7 MSTORE DUP2 ISZERO ISZERO DUP3 MUL DUP7 ADD SWAP4 POP PUSH2 0x11D8 JUMP JUMPDEST PUSH2 0x11AF DUP6 PUSH2 0xE80 JUMP JUMPDEST PUSH0 JUMPDEST DUP4 DUP2 LT ISZERO PUSH2 0x11D0 JUMPI DUP2 SLOAD DUP2 DUP10 ADD MSTORE PUSH1 0x1 DUP3 ADD SWAP2 POP PUSH1 0x20 DUP2 ADD SWAP1 POP PUSH2 0x11B1 JUMP JUMPDEST DUP4 DUP9 ADD SWAP6 POP POP POP JUMPDEST POP POP POP SWAP3 SWAP2 POP POP JUMP JUMPDEST PUSH32 0xA466C69676874204E756D6265723A2000000000000000000000000000000000 DUP2 MSTORE POP JUMP JUMPDEST PUSH32 0xA466C6967687420446174653A20000000000000000000000000000000000000 DUP2 MSTORE POP JUMP JUMPDEST PUSH32 0x466C6967687420646174653A2000000000000000000000000000000000000000 DUP2 MSTORE POP JUMP JUMPDEST PUSH32 0x44657061727475726520636974793A2000000000000000000000000000000000 DUP2 MSTORE POP JUMP JUMPDEST PUSH32 0x44657374696E6174696F6E20636974793A200000000000000000000000000000 DUP2 MSTORE POP JUMP JUMPDEST PUSH0 PUSH2 0x12A9 DUP3 PUSH2 0x113B JUMP JUMPDEST PUSH1 0x10 DUP3 ADD SWAP2 POP PUSH2 0x12B9 DUP3 DUP10 PUSH2 0x1161 JUMP JUMPDEST SWAP2 POP PUSH2 0x12C4 DUP3 PUSH2 0x11E1 JUMP JUMPDEST PUSH1 0x10 DUP3 ADD SWAP2 POP PUSH2 0x12D4 DUP3 DUP9 PUSH2 0x1161 JUMP JUMPDEST SWAP2 POP PUSH2 0x12DF DUP3 PUSH2 0x1207 JUMP JUMPDEST PUSH1 0xE DUP3 ADD SWAP2 POP PUSH2 0x12EF DUP3 DUP8 PUSH2 0x1161 JUMP JUMPDEST SWAP2 POP PUSH2 0x12FA DUP3 PUSH2 0x122D JUMP JUMPDEST PUSH1 0xD DUP3 ADD SWAP2 POP PUSH2 0x130A DUP3 DUP7 PUSH2 0x1161 JUMP JUMPDEST SWAP2 POP PUSH2 0x1315 DUP3 PUSH2 0x1253 JUMP JUMPDEST PUSH1 0x10 DUP3 ADD SWAP2 POP PUSH2 0x1325 DUP3 DUP6 PUSH2 0x1161 JUMP JUMPDEST SWAP2 POP PUSH2 0x1330 DUP3 PUSH2 0x1279 JUMP JUMPDEST PUSH1 0x12 DUP3 ADD SWAP2 POP PUSH2 0x1340 DUP3 DUP5 PUSH2 0x1161 JUMP JUMPDEST SWAP2 POP DUP2 SWAP1 POP SWAP8 SWAP7 POP POP POP POP POP POP POP JUMP INVALID POP PUSH19 0x656D69756D3A20302E3031204574686572200A BLOBHASH PUSH15 0x64656D6E6974793A20302E30322045 PUSH21 0x686572200A436F766572616765206973737565733A KECCAK256 PUSH9 0x61696C20616E642066 PUSH13 0x6F6F6473A26469706673582212 KECCAK256 0x1E SWAP2 0xF7 MSTORE BYTE AND 0xC4 PUSH16 0x8542A80BC264253F93DBB293CA10CD64 PUSH0 0xC8 GASPRICE LT 0xEE SHL SHR DUP15 PUSH5 0x736F6C6343 STOP ADDMOD BYTE STOP CALLER "
				},
				"gasEstimates": {
					"creation": {
						"codeDepositCost": "1014800",
						"executionCost": "infinite",
						"totalCost": "infinite"
					},
					"external": {
						"insurance_provider()": "2508",
						"policies(string)": "infinite",
						"purchase_policy(string,string,string,string,string)": "infinite",
						"view_policy()": "infinite",
						"view_purchased_policy(string)": "infinite"
					}
				},
				"methodIdentifiers": {
					"insurance_provider()": "50dd73be",
					"policies(string)": "4a7ba3e5",
					"purchase_policy(string,string,string,string,string)": "c50d73f6",
					"view_policy()": "c738b563",
					"view_purchased_policy(string)": "f25797c6"
				}
			},
			"storageLayout": {
				"storage": [
					{
						"astId": 3,
						"contract": "Project3/PhaseI.sol:PhaseI",
						"label": "value",
						"offset": 0,
						"slot": "0",
						"type": "t_uint256"
					},
					{
						"astId": 5,
						"contract": "Project3/PhaseI.sol:PhaseI",
						"label": "insurance_provider",
						"offset": 0,
						"slot": "1",
						"type": "t_address_payable"
					},
					{
						"astId": 25,
						"contract": "Project3/PhaseI.sol:PhaseI",
						"label": "policies",
						"offset": 0,
						"slot": "2",
						"type": "t_mapping(t_string_memory_ptr,t_struct(Policy)20_storage)"
					}
				],
				"types": {
					"t_address": {
						"encoding": "inplace",
						"label": "address",
						"numberOfBytes": "20"
					},
					"t_address_payable": {
						"encoding": "inplace",
						"label": "address payable",
						"numberOfBytes": "20"
					},
					"t_mapping(t_string_memory_ptr,t_struct(Policy)20_storage)": {
						"encoding": "mapping",
						"key": "t_string_memory_ptr",
						"label": "mapping(string => struct PhaseI.Policy)",
						"numberOfBytes": "32",
						"value": "t_struct(Policy)20_storage"
					},
					"t_string_memory_ptr": {
						"encoding": "bytes",
						"label": "string",
						"numberOfBytes": "32"
					},
					"t_string_storage": {
						"encoding": "bytes",
						"label": "string",
						"numberOfBytes": "32"
					},
					"t_struct(Policy)20_storage": {
						"encoding": "inplace",
						"label": "struct PhaseI.Policy",
						"members": [
							{
								"astId": 7,
								"contract": "Project3/PhaseI.sol:PhaseI",
								"label": "name",
								"offset": 0,
								"slot": "0",
								"type": "t_string_storage"
							},
							{
								"astId": 9,
								"contract": "Project3/PhaseI.sol:PhaseI",
								"label": "passenger_address",
								"offset": 0,
								"slot": "1",
								"type": "t_address"
							},
							{
								"astId": 11,
								"contract": "Project3/PhaseI.sol:PhaseI",
								"label": "flight_number",
								"offset": 0,
								"slot": "2",
								"type": "t_string_storage"
							},
							{
								"astId": 13,
								"contract": "Project3/PhaseI.sol:PhaseI",
								"label": "flight_date",
								"offset": 0,
								"slot": "3",
								"type": "t_string_storage"
							},
							{
								"astId": 15,
								"contract": "Project3/PhaseI.sol:PhaseI",
								"label": "departure_city",
								"offset": 0,
								"slot": "4",
								"type": "t_string_storage"
							},
							{
								"astId": 17,
								"contract": "Project3/PhaseI.sol:PhaseI",
								"label": "destination_city",
								"offset": 0,
								"slot": "5",
								"type": "t_string_storage"
							},
							{
								"astId": 19,
								"contract": "Project3/PhaseI.sol:PhaseI",
								"label": "policy_status",
								"offset": 0,
								"slot": "6",
								"type": "t_string_storage"
							}
						],
						"numberOfBytes": "224"
					},
					"t_uint256": {
						"encoding": "inplace",
						"label": "uint256",
						"numberOfBytes": "32"
					}
				}
			},
			"userdoc": {
				"kind": "user",
				"methods": {},
				"version": 1
			}
		}
	}
}