{
	"Project3/PhaseI.sol": {
		"PhaseI": {
			"abi": [
				{
					"inputs": [
						{
							"internalType": "address payable",
							"name": "_insurance_provider",
							"type": "address"
						}
					],
					"stateMutability": "nonpayable",
					"type": "constructor"
				},
				{
					"inputs": [],
					"name": "insurance_provider",
					"outputs": [
						{
							"internalType": "address payable",
							"name": "",
							"type": "address"
						}
					],
					"stateMutability": "view",
					"type": "function"
				},
				{
					"inputs": [
						{
							"internalType": "uint256",
							"name": "",
							"type": "uint256"
						}
					],
					"name": "name_array",
					"outputs": [
						{
							"internalType": "string",
							"name": "",
							"type": "string"
						}
					],
					"stateMutability": "view",
					"type": "function"
				},
				{
					"inputs": [
						{
							"internalType": "string[]",
							"name": "claim_list",
							"type": "string[]"
						}
					],
					"name": "pay_indemnity",
					"outputs": [
						{
							"internalType": "string",
							"name": "",
							"type": "string"
						}
					],
					"stateMutability": "nonpayable",
					"type": "function"
				},
				{
					"inputs": [
						{
							"internalType": "string",
							"name": "",
							"type": "string"
						}
					],
					"name": "policies",
					"outputs": [
						{
							"internalType": "string",
							"name": "name",
							"type": "string"
						},
						{
							"internalType": "address payable",
							"name": "passenger_address",
							"type": "address"
						},
						{
							"internalType": "string",
							"name": "flight_number",
							"type": "string"
						},
						{
							"internalType": "string",
							"name": "flight_date",
							"type": "string"
						},
						{
							"internalType": "string",
							"name": "departure_city",
							"type": "string"
						},
						{
							"internalType": "string",
							"name": "destination_city",
							"type": "string"
						},
						{
							"internalType": "string",
							"name": "policy_status",
							"type": "string"
						}
					],
					"stateMutability": "view",
					"type": "function"
				},
				{
					"inputs": [
						{
							"internalType": "string",
							"name": "name",
							"type": "string"
						},
						{
							"internalType": "address payable",
							"name": "p_address",
							"type": "address"
						},
						{
							"internalType": "string",
							"name": "number",
							"type": "string"
						},
						{
							"internalType": "string",
							"name": "date",
							"type": "string"
						},
						{
							"internalType": "string",
							"name": "departure",
							"type": "string"
						},
						{
							"internalType": "string",
							"name": "destination",
							"type": "string"
						}
					],
					"name": "purchase_policy",
					"outputs": [],
					"stateMutability": "payable",
					"type": "function"
				},
				{
					"inputs": [],
					"name": "verify",
					"outputs": [
						{
							"internalType": "string",
							"name": "",
							"type": "string"
						}
					],
					"stateMutability": "pure",
					"type": "function"
				},
				{
					"inputs": [],
					"name": "view_all_policies",
					"outputs": [
						{
							"internalType": "string",
							"name": "",
							"type": "string"
						}
					],
					"stateMutability": "view",
					"type": "function"
				},
				{
					"inputs": [],
					"name": "view_policy",
					"outputs": [
						{
							"internalType": "string",
							"name": "",
							"type": "string"
						}
					],
					"stateMutability": "pure",
					"type": "function"
				},
				{
					"inputs": [
						{
							"internalType": "string",
							"name": "name",
							"type": "string"
						}
					],
					"name": "view_purchased_policy",
					"outputs": [
						{
							"internalType": "string",
							"name": "",
							"type": "string"
						}
					],
					"stateMutability": "view",
					"type": "function"
				},
				{
					"stateMutability": "payable",
					"type": "receive"
				}
			],
			"devdoc": {
				"kind": "dev",
				"methods": {},
				"version": 1
			},
			"evm": {
				"assembly": "    /* \"Project3/PhaseI.sol\":68:2793  contract PhaseI {... */\n  mstore(0x40, 0x80)\n    /* \"Project3/PhaseI.sol\":546:661  constructor(address payable _insurance_provider) {... */\n  callvalue\n  dup1\n  iszero\n  tag_1\n  jumpi\n  0x00\n  dup1\n  revert\ntag_1:\n  pop\n  mload(0x40)\n  sub(codesize, bytecodeSize)\n  dup1\n  bytecodeSize\n  dup4\n  codecopy\n  dup2\n  dup2\n  add\n  0x40\n  mstore\n  dup2\n  add\n  swap1\n  tag_2\n  swap2\n  swap1\n  tag_3\n  jump\t// in\ntag_2:\n    /* \"Project3/PhaseI.sol\":626:645  _insurance_provider */\n  dup1\n    /* \"Project3/PhaseI.sol\":605:623  insurance_provider */\n  0x01\n  0x00\n    /* \"Project3/PhaseI.sol\":605:645  insurance_provider = _insurance_provider */\n  0x0100\n  exp\n  dup2\n  sload\n  dup2\n  0xffffffffffffffffffffffffffffffffffffffff\n  mul\n  not\n  and\n  swap1\n  dup4\n  0xffffffffffffffffffffffffffffffffffffffff\n  and\n  mul\n  or\n  swap1\n  sstore\n  pop\n    /* \"Project3/PhaseI.sol\":546:661  constructor(address payable _insurance_provider) {... */\n  pop\n    /* \"Project3/PhaseI.sol\":68:2793  contract PhaseI {... */\n  jump(tag_6)\n    /* \"#utility.yul\":88:205   */\ntag_8:\n    /* \"#utility.yul\":197:198   */\n  0x00\n    /* \"#utility.yul\":194:195   */\n  dup1\n    /* \"#utility.yul\":187:199   */\n  revert\n    /* \"#utility.yul\":334:460   */\ntag_10:\n    /* \"#utility.yul\":371:378   */\n  0x00\n    /* \"#utility.yul\":411:453   */\n  0xffffffffffffffffffffffffffffffffffffffff\n    /* \"#utility.yul\":404:409   */\n  dup3\n    /* \"#utility.yul\":400:454   */\n  and\n    /* \"#utility.yul\":389:454   */\n  swap1\n  pop\n    /* \"#utility.yul\":334:460   */\n  swap2\n  swap1\n  pop\n  jump\t// out\n    /* \"#utility.yul\":466:570   */\ntag_11:\n    /* \"#utility.yul\":511:518   */\n  0x00\n    /* \"#utility.yul\":540:564   */\n  tag_20\n    /* \"#utility.yul\":558:563   */\n  dup3\n    /* \"#utility.yul\":540:564   */\n  tag_10\n  jump\t// in\ntag_20:\n    /* \"#utility.yul\":529:564   */\n  swap1\n  pop\n    /* \"#utility.yul\":466:570   */\n  swap2\n  swap1\n  pop\n  jump\t// out\n    /* \"#utility.yul\":576:714   */\ntag_12:\n    /* \"#utility.yul\":657:689   */\n  tag_22\n    /* \"#utility.yul\":683:688   */\n  dup2\n    /* \"#utility.yul\":657:689   */\n  tag_11\n  jump\t// in\ntag_22:\n    /* \"#utility.yul\":650:655   */\n  dup2\n    /* \"#utility.yul\":647:690   */\n  eq\n    /* \"#utility.yul\":637:708   */\n  tag_23\n  jumpi\n    /* \"#utility.yul\":704:705   */\n  0x00\n    /* \"#utility.yul\":701:702   */\n  dup1\n    /* \"#utility.yul\":694:706   */\n  revert\n    /* \"#utility.yul\":637:708   */\ntag_23:\n    /* \"#utility.yul\":576:714   */\n  pop\n  jump\t// out\n    /* \"#utility.yul\":720:879   */\ntag_13:\n    /* \"#utility.yul\":785:790   */\n  0x00\n    /* \"#utility.yul\":816:822   */\n  dup2\n    /* \"#utility.yul\":810:823   */\n  mload\n    /* \"#utility.yul\":801:823   */\n  swap1\n  pop\n    /* \"#utility.yul\":832:873   */\n  tag_25\n    /* \"#utility.yul\":867:872   */\n  dup2\n    /* \"#utility.yul\":832:873   */\n  tag_12\n  jump\t// in\ntag_25:\n    /* \"#utility.yul\":720:879   */\n  swap3\n  swap2\n  pop\n  pop\n  jump\t// out\n    /* \"#utility.yul\":885:1252   */\ntag_3:\n    /* \"#utility.yul\":963:969   */\n  0x00\n    /* \"#utility.yul\":1012:1014   */\n  0x20\n    /* \"#utility.yul\":1000:1009   */\n  dup3\n    /* \"#utility.yul\":991:998   */\n  dup5\n    /* \"#utility.yul\":987:1010   */\n  sub\n    /* \"#utility.yul\":983:1015   */\n  slt\n    /* \"#utility.yul\":980:1099   */\n  iszero\n  tag_27\n  jumpi\n    /* \"#utility.yul\":1018:1097   */\n  tag_28\n  tag_8\n  jump\t// in\ntag_28:\n    /* \"#utility.yul\":980:1099   */\ntag_27:\n    /* \"#utility.yul\":1138:1139   */\n  0x00\n    /* \"#utility.yul\":1163:1235   */\n  tag_29\n    /* \"#utility.yul\":1227:1234   */\n  dup5\n    /* \"#utility.yul\":1218:1224   */\n  dup3\n    /* \"#utility.yul\":1207:1216   */\n  dup6\n    /* \"#utility.yul\":1203:1225   */\n  add\n    /* \"#utility.yul\":1163:1235   */\n  tag_13\n  jump\t// in\ntag_29:\n    /* \"#utility.yul\":1153:1235   */\n  swap2\n  pop\n    /* \"#utility.yul\":1109:1245   */\n  pop\n    /* \"#utility.yul\":885:1252   */\n  swap3\n  swap2\n  pop\n  pop\n  jump\t// out\n    /* \"Project3/PhaseI.sol\":68:2793  contract PhaseI {... */\ntag_6:\n  dataSize(sub_0)\n  dup1\n  dataOffset(sub_0)\n  0x00\n  codecopy\n  0x00\n  return\nstop\n\nsub_0: assembly {\n        /* \"Project3/PhaseI.sol\":68:2793  contract PhaseI {... */\n      mstore(0x40, 0x80)\n      jumpi(tag_1, lt(calldatasize, 0x04))\n      shr(0xe0, calldataload(0x00))\n      dup1\n      0xb698d6a1\n      gt\n      tag_12\n      jumpi\n      dup1\n      0xb698d6a1\n      eq\n      tag_7\n      jumpi\n      dup1\n      0xc738b563\n      eq\n      tag_8\n      jumpi\n      dup1\n      0xcbe2e531\n      eq\n      tag_9\n      jumpi\n      dup1\n      0xf25797c6\n      eq\n      tag_10\n      jumpi\n      dup1\n      0xfc735e99\n      eq\n      tag_11\n      jumpi\n      jump(tag_2)\n    tag_12:\n      dup1\n      0x1a65261c\n      eq\n      tag_3\n      jumpi\n      dup1\n      0x35f7a712\n      eq\n      tag_4\n      jumpi\n      dup1\n      0x4a7ba3e5\n      eq\n      tag_5\n      jumpi\n      dup1\n      0x50dd73be\n      eq\n      tag_6\n      jumpi\n      jump(tag_2)\n    tag_1:\n      jumpi(tag_2, calldatasize)\n      stop\n    tag_2:\n      0x00\n      dup1\n      revert\n        /* \"Project3/PhaseI.sol\":1738:2325  function view_all_policies() public view returns (string memory) {... */\n    tag_3:\n      callvalue\n      dup1\n      iszero\n      tag_15\n      jumpi\n      0x00\n      dup1\n      revert\n    tag_15:\n      pop\n      tag_16\n      tag_17\n      jump\t// in\n    tag_16:\n      mload(0x40)\n      tag_18\n      swap2\n      swap1\n      tag_19\n      jump\t// in\n    tag_18:\n      mload(0x40)\n      dup1\n      swap2\n      sub\n      swap1\n      return\n        /* \"Project3/PhaseI.sol\":836:1308  function purchase_policy(string calldata name, address payable p_address, string calldata number, string calldata date, string calldata departure, string calldata destination) public payable {... */\n    tag_4:\n      tag_20\n      0x04\n      dup1\n      calldatasize\n      sub\n      dup2\n      add\n      swap1\n      tag_21\n      swap2\n      swap1\n      tag_22\n      jump\t// in\n    tag_21:\n      tag_23\n      jump\t// in\n    tag_20:\n      stop\n        /* \"Project3/PhaseI.sol\":498:539  mapping(string => Policy) public policies */\n    tag_5:\n      callvalue\n      dup1\n      iszero\n      tag_24\n      jumpi\n      0x00\n      dup1\n      revert\n    tag_24:\n      pop\n      tag_25\n      0x04\n      dup1\n      calldatasize\n      sub\n      dup2\n      add\n      swap1\n      tag_26\n      swap2\n      swap1\n      tag_27\n      jump\t// in\n    tag_26:\n      tag_28\n      jump\t// in\n    tag_25:\n      mload(0x40)\n      tag_29\n      swap8\n      swap7\n      swap6\n      swap5\n      swap4\n      swap3\n      swap2\n      swap1\n      tag_30\n      jump\t// in\n    tag_29:\n      mload(0x40)\n      dup1\n      swap2\n      sub\n      swap1\n      return\n        /* \"Project3/PhaseI.sol\":111:152  address payable public insurance_provider */\n    tag_6:\n      callvalue\n      dup1\n      iszero\n      tag_31\n      jumpi\n      0x00\n      dup1\n      revert\n    tag_31:\n      pop\n      tag_32\n      tag_33\n      jump\t// in\n    tag_32:\n      mload(0x40)\n      tag_34\n      swap2\n      swap1\n      tag_35\n      jump\t// in\n    tag_34:\n      mload(0x40)\n      dup1\n      swap2\n      sub\n      swap1\n      return\n        /* \"Project3/PhaseI.sol\":466:492  string[] public name_array */\n    tag_7:\n      callvalue\n      dup1\n      iszero\n      tag_36\n      jumpi\n      0x00\n      dup1\n      revert\n    tag_36:\n      pop\n      tag_37\n      0x04\n      dup1\n      calldatasize\n      sub\n      dup2\n      add\n      swap1\n      tag_38\n      swap2\n      swap1\n      tag_39\n      jump\t// in\n    tag_38:\n      tag_40\n      jump\t// in\n    tag_37:\n      mload(0x40)\n      tag_41\n      swap2\n      swap1\n      tag_19\n      jump\t// in\n    tag_41:\n      mload(0x40)\n      dup1\n      swap2\n      sub\n      swap1\n      return\n        /* \"Project3/PhaseI.sol\":667:830  function view_policy() public pure returns (string memory) {... */\n    tag_8:\n      callvalue\n      dup1\n      iszero\n      tag_42\n      jumpi\n      0x00\n      dup1\n      revert\n    tag_42:\n      pop\n      tag_43\n      tag_44\n      jump\t// in\n    tag_43:\n      mload(0x40)\n      tag_45\n      swap2\n      swap1\n      tag_19\n      jump\t// in\n    tag_45:\n      mload(0x40)\n      dup1\n      swap2\n      sub\n      swap1\n      return\n        /* \"Project3/PhaseI.sol\":2426:2756  function pay_indemnity(string[] memory claim_list) public returns (string memory) {... */\n    tag_9:\n      callvalue\n      dup1\n      iszero\n      tag_46\n      jumpi\n      0x00\n      dup1\n      revert\n    tag_46:\n      pop\n      tag_47\n      0x04\n      dup1\n      calldatasize\n      sub\n      dup2\n      add\n      swap1\n      tag_48\n      swap2\n      swap1\n      tag_49\n      jump\t// in\n    tag_48:\n      tag_50\n      jump\t// in\n    tag_47:\n      mload(0x40)\n      tag_51\n      swap2\n      swap1\n      tag_19\n      jump\t// in\n    tag_51:\n      mload(0x40)\n      dup1\n      swap2\n      sub\n      swap1\n      return\n        /* \"Project3/PhaseI.sol\":1314:1732  function view_purchased_policy(string memory name) public view returns (string memory) {... */\n    tag_10:\n      callvalue\n      dup1\n      iszero\n      tag_52\n      jumpi\n      0x00\n      dup1\n      revert\n    tag_52:\n      pop\n      tag_53\n      0x04\n      dup1\n      calldatasize\n      sub\n      dup2\n      add\n      swap1\n      tag_54\n      swap2\n      swap1\n      tag_27\n      jump\t// in\n    tag_54:\n      tag_55\n      jump\t// in\n    tag_53:\n      mload(0x40)\n      tag_56\n      swap2\n      swap1\n      tag_19\n      jump\t// in\n    tag_56:\n      mload(0x40)\n      dup1\n      swap2\n      sub\n      swap1\n      return\n        /* \"Project3/PhaseI.sol\":2331:2420  function verify() public pure returns (string memory) {... */\n    tag_11:\n      callvalue\n      dup1\n      iszero\n      tag_57\n      jumpi\n      0x00\n      dup1\n      revert\n    tag_57:\n      pop\n      tag_58\n      tag_59\n      jump\t// in\n    tag_58:\n      mload(0x40)\n      tag_60\n      swap2\n      swap1\n      tag_19\n      jump\t// in\n    tag_60:\n      mload(0x40)\n      dup1\n      swap2\n      sub\n      swap1\n      return\n        /* \"Project3/PhaseI.sol\":1738:2325  function view_all_policies() public view returns (string memory) {... */\n    tag_17:\n        /* \"Project3/PhaseI.sol\":1788:1801  string memory */\n      0x60\n        /* \"Project3/PhaseI.sol\":1813:1833  string memory result */\n      0x00\n        /* \"Project3/PhaseI.sol\":1813:1838  string memory result = \"\" */\n      mload(0x40)\n      dup1\n      0x20\n      add\n      0x40\n      mstore\n      dup1\n      0x00\n      dup2\n      mstore\n      pop\n      swap1\n      pop\n        /* \"Project3/PhaseI.sol\":1852:1858  uint i */\n      0x00\n        /* \"Project3/PhaseI.sol\":1848:2296  for(uint i = 0; i < name_array.length; i++){... */\n    tag_62:\n        /* \"Project3/PhaseI.sol\":1868:1878  name_array */\n      0x02\n        /* \"Project3/PhaseI.sol\":1868:1885  name_array.length */\n      dup1\n      sload\n      swap1\n      pop\n        /* \"Project3/PhaseI.sol\":1864:1865  i */\n      dup2\n        /* \"Project3/PhaseI.sol\":1864:1885  i < name_array.length */\n      lt\n        /* \"Project3/PhaseI.sol\":1848:2296  for(uint i = 0; i < name_array.length; i++){... */\n      iszero\n      tag_63\n      jumpi\n        /* \"Project3/PhaseI.sol\":1905:1923  string memory name */\n      0x00\n        /* \"Project3/PhaseI.sol\":1926:1936  name_array */\n      0x02\n        /* \"Project3/PhaseI.sol\":1937:1938  i */\n      dup3\n        /* \"Project3/PhaseI.sol\":1926:1939  name_array[i] */\n      dup2\n      sload\n      dup2\n      lt\n      tag_65\n      jumpi\n      tag_66\n      tag_67\n      jump\t// in\n    tag_66:\n    tag_65:\n      swap1\n      0x00\n      mstore\n      keccak256(0x00, 0x20)\n      add\n        /* \"Project3/PhaseI.sol\":1905:1939  string memory name = name_array[i] */\n      dup1\n      sload\n      tag_69\n      swap1\n      tag_70\n      jump\t// in\n    tag_69:\n      dup1\n      0x1f\n      add\n      0x20\n      dup1\n      swap2\n      div\n      mul\n      0x20\n      add\n      mload(0x40)\n      swap1\n      dup2\n      add\n      0x40\n      mstore\n      dup1\n      swap3\n      swap2\n      swap1\n      dup2\n      dup2\n      mstore\n      0x20\n      add\n      dup3\n      dup1\n      sload\n      tag_71\n      swap1\n      tag_70\n      jump\t// in\n    tag_71:\n      dup1\n      iszero\n      tag_72\n      jumpi\n      dup1\n      0x1f\n      lt\n      tag_73\n      jumpi\n      0x0100\n      dup1\n      dup4\n      sload\n      div\n      mul\n      dup4\n      mstore\n      swap2\n      0x20\n      add\n      swap2\n      jump(tag_72)\n    tag_73:\n      dup3\n      add\n      swap2\n      swap1\n      0x00\n      mstore\n      keccak256(0x00, 0x20)\n      swap1\n    tag_74:\n      dup2\n      sload\n      dup2\n      mstore\n      swap1\n      0x01\n      add\n      swap1\n      0x20\n      add\n      dup1\n      dup4\n      gt\n      tag_74\n      jumpi\n      dup3\n      swap1\n      sub\n      0x1f\n      and\n      dup3\n      add\n      swap2\n    tag_72:\n      pop\n      pop\n      pop\n      pop\n      pop\n      swap1\n      pop\n        /* \"Project3/PhaseI.sol\":1976:1982  result */\n      dup3\n        /* \"Project3/PhaseI.sol\":2012:2020  policies */\n      0x03\n        /* \"Project3/PhaseI.sol\":2021:2025  name */\n      dup3\n        /* \"Project3/PhaseI.sol\":2012:2026  policies[name] */\n      mload(0x40)\n      tag_75\n      swap2\n      swap1\n      tag_76\n      jump\t// in\n    tag_75:\n      swap1\n      dup2\n      mstore\n      0x20\n      add\n      mload(0x40)\n      dup1\n      swap2\n      sub\n      swap1\n      keccak256\n        /* \"Project3/PhaseI.sol\":2012:2031  policies[name].name */\n      0x00\n      add\n        /* \"Project3/PhaseI.sol\":2053:2061  policies */\n      0x03\n        /* \"Project3/PhaseI.sol\":2062:2066  name */\n      dup4\n        /* \"Project3/PhaseI.sol\":2053:2067  policies[name] */\n      mload(0x40)\n      tag_77\n      swap2\n      swap1\n      tag_76\n      jump\t// in\n    tag_77:\n      swap1\n      dup2\n      mstore\n      0x20\n      add\n      mload(0x40)\n      dup1\n      swap2\n      sub\n      swap1\n      keccak256\n        /* \"Project3/PhaseI.sol\":2053:2081  policies[name].flight_number */\n      0x02\n      add\n        /* \"Project3/PhaseI.sol\":2101:2109  policies */\n      0x03\n        /* \"Project3/PhaseI.sol\":2110:2114  name */\n      dup5\n        /* \"Project3/PhaseI.sol\":2101:2115  policies[name] */\n      mload(0x40)\n      tag_78\n      swap2\n      swap1\n      tag_76\n      jump\t// in\n    tag_78:\n      swap1\n      dup2\n      mstore\n      0x20\n      add\n      mload(0x40)\n      dup1\n      swap2\n      sub\n      swap1\n      keccak256\n        /* \"Project3/PhaseI.sol\":2101:2127  policies[name].flight_date */\n      0x03\n      add\n        /* \"Project3/PhaseI.sol\":2150:2158  policies */\n      0x03\n        /* \"Project3/PhaseI.sol\":2159:2163  name */\n      dup6\n        /* \"Project3/PhaseI.sol\":2150:2164  policies[name] */\n      mload(0x40)\n      tag_79\n      swap2\n      swap1\n      tag_76\n      jump\t// in\n    tag_79:\n      swap1\n      dup2\n      mstore\n      0x20\n      add\n      mload(0x40)\n      dup1\n      swap2\n      sub\n      swap1\n      keccak256\n        /* \"Project3/PhaseI.sol\":2150:2179  policies[name].departure_city */\n      0x04\n      add\n        /* \"Project3/PhaseI.sol\":2204:2212  policies */\n      0x03\n        /* \"Project3/PhaseI.sol\":2213:2217  name */\n      dup7\n        /* \"Project3/PhaseI.sol\":2204:2218  policies[name] */\n      mload(0x40)\n      tag_80\n      swap2\n      swap1\n      tag_76\n      jump\t// in\n    tag_80:\n      swap1\n      dup2\n      mstore\n      0x20\n      add\n      mload(0x40)\n      dup1\n      swap2\n      sub\n      swap1\n      keccak256\n        /* \"Project3/PhaseI.sol\":2204:2235  policies[name].destination_city */\n      0x05\n      add\n        /* \"Project3/PhaseI.sol\":2250:2258  policies */\n      0x03\n        /* \"Project3/PhaseI.sol\":2259:2263  name */\n      dup8\n        /* \"Project3/PhaseI.sol\":2250:2264  policies[name] */\n      mload(0x40)\n      tag_81\n      swap2\n      swap1\n      tag_76\n      jump\t// in\n    tag_81:\n      swap1\n      dup2\n      mstore\n      0x20\n      add\n      mload(0x40)\n      dup1\n      swap2\n      sub\n      swap1\n      keccak256\n        /* \"Project3/PhaseI.sol\":2250:2278  policies[name].policy_status */\n      0x06\n      add\n        /* \"Project3/PhaseI.sol\":1962:2285  string.concat(result, \"Policy: Passenger Name: \", policies[name].name, \" Flight Number: \", policies[name].flight_number, \" Flight date: \", policies[name].flight_date, \" Departure city: \", policies[name].departure_city, \" Destination city: \", policies[name].destination_city, \" Status: \", policies[name].policy_status, \"\\n\") */\n      add(0x20, mload(0x40))\n      tag_82\n      swap8\n      swap7\n      swap6\n      swap5\n      swap4\n      swap3\n      swap2\n      swap1\n      tag_83\n      jump\t// in\n    tag_82:\n      mload(0x40)\n      0x20\n      dup2\n      dup4\n      sub\n      sub\n      dup2\n      mstore\n      swap1\n      0x40\n      mstore\n        /* \"Project3/PhaseI.sol\":1953:2285  result = string.concat(result, \"Policy: Passenger Name: \", policies[name].name, \" Flight Number: \", policies[name].flight_number, \" Flight date: \", policies[name].flight_date, \" Departure city: \", policies[name].departure_city, \" Destination city: \", policies[name].destination_city, \" Status: \", policies[name].policy_status, \"\\n\") */\n      swap3\n      pop\n        /* \"Project3/PhaseI.sol\":1891:2296  {... */\n      pop\n        /* \"Project3/PhaseI.sol\":1887:1890  i++ */\n      dup1\n      dup1\n      0x01\n      add\n      swap2\n      pop\n      pop\n        /* \"Project3/PhaseI.sol\":1848:2296  for(uint i = 0; i < name_array.length; i++){... */\n      jump(tag_62)\n    tag_63:\n      pop\n        /* \"Project3/PhaseI.sol\":2312:2318  result */\n      dup1\n        /* \"Project3/PhaseI.sol\":2305:2318  return result */\n      swap2\n      pop\n      pop\n        /* \"Project3/PhaseI.sol\":1738:2325  function view_all_policies() public view returns (string memory) {... */\n      swap1\n      jump\t// out\n        /* \"Project3/PhaseI.sol\":836:1308  function purchase_policy(string calldata name, address payable p_address, string calldata number, string calldata date, string calldata departure, string calldata destination) public payable {... */\n    tag_23:\n        /* \"Project3/PhaseI.sol\":1130:1148  insurance_provider */\n      0x01\n      0x00\n      swap1\n      sload\n      swap1\n      0x0100\n      exp\n      swap1\n      div\n      0xffffffffffffffffffffffffffffffffffffffff\n      and\n        /* \"Project3/PhaseI.sol\":1130:1157  insurance_provider.transfer */\n      0xffffffffffffffffffffffffffffffffffffffff\n      and\n        /* \"Project3/PhaseI.sol\":1130:1169  insurance_provider.transfer(0.01 ether) */\n      0x08fc\n        /* \"Project3/PhaseI.sol\":1158:1168  0.01 ether */\n      0x2386f26fc10000\n        /* \"Project3/PhaseI.sol\":1130:1169  insurance_provider.transfer(0.01 ether) */\n      swap1\n      dup2\n      iszero\n      mul\n      swap1\n      mload(0x40)\n      0x00\n      mload(0x40)\n      dup1\n      dup4\n      sub\n      dup2\n      dup6\n      dup9\n      dup9\n      call\n      swap4\n      pop\n      pop\n      pop\n      pop\n      iszero\n      dup1\n      iszero\n      tag_86\n      jumpi\n      returndatasize\n      0x00\n      dup1\n      returndatacopy\n      revert(0x00, returndatasize)\n    tag_86:\n      pop\n        /* \"Project3/PhaseI.sol\":1196:1270  Policy(name, p_address, number, date, departure, destination, \"Purchased\") */\n      mload(0x40)\n      dup1\n      0xe0\n      add\n      0x40\n      mstore\n      dup1\n        /* \"Project3/PhaseI.sol\":1203:1207  name */\n      dup13\n      dup13\n        /* \"Project3/PhaseI.sol\":1196:1270  Policy(name, p_address, number, date, departure, destination, \"Purchased\") */\n      dup1\n      dup1\n      0x1f\n      add\n      0x20\n      dup1\n      swap2\n      div\n      mul\n      0x20\n      add\n      mload(0x40)\n      swap1\n      dup2\n      add\n      0x40\n      mstore\n      dup1\n      swap4\n      swap3\n      swap2\n      swap1\n      dup2\n      dup2\n      mstore\n      0x20\n      add\n      dup4\n      dup4\n      dup1\n      dup3\n      dup5\n      calldatacopy\n      0x00\n      dup2\n      dup5\n      add\n      mstore\n      not(0x1f)\n      0x1f\n      dup3\n      add\n      and\n      swap1\n      pop\n      dup1\n      dup4\n      add\n      swap3\n      pop\n      pop\n      pop\n      pop\n      pop\n      pop\n      pop\n      dup2\n      mstore\n      0x20\n      add\n        /* \"Project3/PhaseI.sol\":1209:1218  p_address */\n      dup11\n        /* \"Project3/PhaseI.sol\":1196:1270  Policy(name, p_address, number, date, departure, destination, \"Purchased\") */\n      0xffffffffffffffffffffffffffffffffffffffff\n      and\n      dup2\n      mstore\n      0x20\n      add\n        /* \"Project3/PhaseI.sol\":1220:1226  number */\n      dup10\n      dup10\n        /* \"Project3/PhaseI.sol\":1196:1270  Policy(name, p_address, number, date, departure, destination, \"Purchased\") */\n      dup1\n      dup1\n      0x1f\n      add\n      0x20\n      dup1\n      swap2\n      div\n      mul\n      0x20\n      add\n      mload(0x40)\n      swap1\n      dup2\n      add\n      0x40\n      mstore\n      dup1\n      swap4\n      swap3\n      swap2\n      swap1\n      dup2\n      dup2\n      mstore\n      0x20\n      add\n      dup4\n      dup4\n      dup1\n      dup3\n      dup5\n      calldatacopy\n      0x00\n      dup2\n      dup5\n      add\n      mstore\n      not(0x1f)\n      0x1f\n      dup3\n      add\n      and\n      swap1\n      pop\n      dup1\n      dup4\n      add\n      swap3\n      pop\n      pop\n      pop\n      pop\n      pop\n      pop\n      pop\n      dup2\n      mstore\n      0x20\n      add\n        /* \"Project3/PhaseI.sol\":1228:1232  date */\n      dup8\n      dup8\n        /* \"Project3/PhaseI.sol\":1196:1270  Policy(name, p_address, number, date, departure, destination, \"Purchased\") */\n      dup1\n      dup1\n      0x1f\n      add\n      0x20\n      dup1\n      swap2\n      div\n      mul\n      0x20\n      add\n      mload(0x40)\n      swap1\n      dup2\n      add\n      0x40\n      mstore\n      dup1\n      swap4\n      swap3\n      swap2\n      swap1\n      dup2\n      dup2\n      mstore\n      0x20\n      add\n      dup4\n      dup4\n      dup1\n      dup3\n      dup5\n      calldatacopy\n      0x00\n      dup2\n      dup5\n      add\n      mstore\n      not(0x1f)\n      0x1f\n      dup3\n      add\n      and\n      swap1\n      pop\n      dup1\n      dup4\n      add\n      swap3\n      pop\n      pop\n      pop\n      pop\n      pop\n      pop\n      pop\n      dup2\n      mstore\n      0x20\n      add\n        /* \"Project3/PhaseI.sol\":1234:1243  departure */\n      dup6\n      dup6\n        /* \"Project3/PhaseI.sol\":1196:1270  Policy(name, p_address, number, date, departure, destination, \"Purchased\") */\n      dup1\n      dup1\n      0x1f\n      add\n      0x20\n      dup1\n      swap2\n      div\n      mul\n      0x20\n      add\n      mload(0x40)\n      swap1\n      dup2\n      add\n      0x40\n      mstore\n      dup1\n      swap4\n      swap3\n      swap2\n      swap1\n      dup2\n      dup2\n      mstore\n      0x20\n      add\n      dup4\n      dup4\n      dup1\n      dup3\n      dup5\n      calldatacopy\n      0x00\n      dup2\n      dup5\n      add\n      mstore\n      not(0x1f)\n      0x1f\n      dup3\n      add\n      and\n      swap1\n      pop\n      dup1\n      dup4\n      add\n      swap3\n      pop\n      pop\n      pop\n      pop\n      pop\n      pop\n      pop\n      dup2\n      mstore\n      0x20\n      add\n        /* \"Project3/PhaseI.sol\":1245:1256  destination */\n      dup4\n      dup4\n        /* \"Project3/PhaseI.sol\":1196:1270  Policy(name, p_address, number, date, departure, destination, \"Purchased\") */\n      dup1\n      dup1\n      0x1f\n      add\n      0x20\n      dup1\n      swap2\n      div\n      mul\n      0x20\n      add\n      mload(0x40)\n      swap1\n      dup2\n      add\n      0x40\n      mstore\n      dup1\n      swap4\n      swap3\n      swap2\n      swap1\n      dup2\n      dup2\n      mstore\n      0x20\n      add\n      dup4\n      dup4\n      dup1\n      dup3\n      dup5\n      calldatacopy\n      0x00\n      dup2\n      dup5\n      add\n      mstore\n      not(0x1f)\n      0x1f\n      dup3\n      add\n      and\n      swap1\n      pop\n      dup1\n      dup4\n      add\n      swap3\n      pop\n      pop\n      pop\n      pop\n      pop\n      pop\n      pop\n      dup2\n      mstore\n      0x20\n      add\n      mload(0x40)\n      dup1\n      0x40\n      add\n      0x40\n      mstore\n      dup1\n      0x09\n      dup2\n      mstore\n      0x20\n      add\n      0x5075726368617365640000000000000000000000000000000000000000000000\n      dup2\n      mstore\n      pop\n      dup2\n      mstore\n      pop\n        /* \"Project3/PhaseI.sol\":1179:1187  policies */\n      0x03\n        /* \"Project3/PhaseI.sol\":1188:1192  name */\n      dup13\n      dup13\n        /* \"Project3/PhaseI.sol\":1179:1193  policies[name] */\n      mload(0x40)\n      tag_87\n      swap3\n      swap2\n      swap1\n      tag_88\n      jump\t// in\n    tag_87:\n      swap1\n      dup2\n      mstore\n      0x20\n      add\n      mload(0x40)\n      dup1\n      swap2\n      sub\n      swap1\n      keccak256\n        /* \"Project3/PhaseI.sol\":1179:1270  policies[name] = Policy(name, p_address, number, date, departure, destination, \"Purchased\") */\n      0x00\n      dup3\n      add\n      mload\n      dup2\n      0x00\n      add\n      swap1\n      dup2\n      tag_89\n      swap2\n      swap1\n      tag_90\n      jump\t// in\n    tag_89:\n      pop\n      0x20\n      dup3\n      add\n      mload\n      dup2\n      0x01\n      add\n      exp(0x0100, 0x00)\n      dup2\n      sload\n      dup2\n      0xffffffffffffffffffffffffffffffffffffffff\n      mul\n      not\n      and\n      swap1\n      dup4\n      0xffffffffffffffffffffffffffffffffffffffff\n      and\n      mul\n      or\n      swap1\n      sstore\n      pop\n      0x40\n      dup3\n      add\n      mload\n      dup2\n      0x02\n      add\n      swap1\n      dup2\n      tag_91\n      swap2\n      swap1\n      tag_90\n      jump\t// in\n    tag_91:\n      pop\n      0x60\n      dup3\n      add\n      mload\n      dup2\n      0x03\n      add\n      swap1\n      dup2\n      tag_92\n      swap2\n      swap1\n      tag_90\n      jump\t// in\n    tag_92:\n      pop\n      0x80\n      dup3\n      add\n      mload\n      dup2\n      0x04\n      add\n      swap1\n      dup2\n      tag_93\n      swap2\n      swap1\n      tag_90\n      jump\t// in\n    tag_93:\n      pop\n      0xa0\n      dup3\n      add\n      mload\n      dup2\n      0x05\n      add\n      swap1\n      dup2\n      tag_94\n      swap2\n      swap1\n      tag_90\n      jump\t// in\n    tag_94:\n      pop\n      0xc0\n      dup3\n      add\n      mload\n      dup2\n      0x06\n      add\n      swap1\n      dup2\n      tag_95\n      swap2\n      swap1\n      tag_90\n      jump\t// in\n    tag_95:\n      pop\n      swap1\n      pop\n      pop\n        /* \"Project3/PhaseI.sol\":1280:1290  name_array */\n      0x02\n        /* \"Project3/PhaseI.sol\":1296:1300  name */\n      dup12\n      dup12\n        /* \"Project3/PhaseI.sol\":1280:1301  name_array.push(name) */\n      swap1\n      swap2\n      dup1\n      0x01\n      dup2\n      sload\n      add\n      dup1\n      dup3\n      sstore\n      dup1\n      swap2\n      pop\n      pop\n      0x01\n      swap1\n      sub\n      swap1\n      0x00\n      mstore\n      keccak256(0x00, 0x20)\n      add\n      0x00\n      swap1\n      swap2\n      swap3\n      swap1\n      swap2\n      swap3\n      swap1\n      swap2\n      swap3\n      swap1\n      swap2\n      swap3\n      pop\n      swap2\n      dup3\n      tag_97\n      swap3\n      swap2\n      swap1\n      tag_98\n      jump\t// in\n    tag_97:\n      pop\n        /* \"Project3/PhaseI.sol\":836:1308  function purchase_policy(string calldata name, address payable p_address, string calldata number, string calldata date, string calldata departure, string calldata destination) public payable {... */\n      pop\n      pop\n      pop\n      pop\n      pop\n      pop\n      pop\n      pop\n      pop\n      pop\n      pop\n      jump\t// out\n        /* \"Project3/PhaseI.sol\":498:539  mapping(string => Policy) public policies */\n    tag_28:\n      0x03\n      dup2\n      dup1\n      mload\n      0x20\n      dup2\n      add\n      dup3\n      add\n      dup1\n      mload\n      dup5\n      dup3\n      mstore\n      0x20\n      dup4\n      add\n      0x20\n      dup6\n      add\n      keccak256\n      dup2\n      dup4\n      mstore\n      dup1\n      swap6\n      pop\n      pop\n      pop\n      pop\n      pop\n      pop\n      0x00\n      swap2\n      pop\n      swap1\n      pop\n      dup1\n      0x00\n      add\n      dup1\n      sload\n      tag_99\n      swap1\n      tag_70\n      jump\t// in\n    tag_99:\n      dup1\n      0x1f\n      add\n      0x20\n      dup1\n      swap2\n      div\n      mul\n      0x20\n      add\n      mload(0x40)\n      swap1\n      dup2\n      add\n      0x40\n      mstore\n      dup1\n      swap3\n      swap2\n      swap1\n      dup2\n      dup2\n      mstore\n      0x20\n      add\n      dup3\n      dup1\n      sload\n      tag_100\n      swap1\n      tag_70\n      jump\t// in\n    tag_100:\n      dup1\n      iszero\n      tag_101\n      jumpi\n      dup1\n      0x1f\n      lt\n      tag_102\n      jumpi\n      0x0100\n      dup1\n      dup4\n      sload\n      div\n      mul\n      dup4\n      mstore\n      swap2\n      0x20\n      add\n      swap2\n      jump(tag_101)\n    tag_102:\n      dup3\n      add\n      swap2\n      swap1\n      0x00\n      mstore\n      keccak256(0x00, 0x20)\n      swap1\n    tag_103:\n      dup2\n      sload\n      dup2\n      mstore\n      swap1\n      0x01\n      add\n      swap1\n      0x20\n      add\n      dup1\n      dup4\n      gt\n      tag_103\n      jumpi\n      dup3\n      swap1\n      sub\n      0x1f\n      and\n      dup3\n      add\n      swap2\n    tag_101:\n      pop\n      pop\n      pop\n      pop\n      pop\n      swap1\n      dup1\n      0x01\n      add\n      0x00\n      swap1\n      sload\n      swap1\n      0x0100\n      exp\n      swap1\n      div\n      0xffffffffffffffffffffffffffffffffffffffff\n      and\n      swap1\n      dup1\n      0x02\n      add\n      dup1\n      sload\n      tag_104\n      swap1\n      tag_70\n      jump\t// in\n    tag_104:\n      dup1\n      0x1f\n      add\n      0x20\n      dup1\n      swap2\n      div\n      mul\n      0x20\n      add\n      mload(0x40)\n      swap1\n      dup2\n      add\n      0x40\n      mstore\n      dup1\n      swap3\n      swap2\n      swap1\n      dup2\n      dup2\n      mstore\n      0x20\n      add\n      dup3\n      dup1\n      sload\n      tag_105\n      swap1\n      tag_70\n      jump\t// in\n    tag_105:\n      dup1\n      iszero\n      tag_106\n      jumpi\n      dup1\n      0x1f\n      lt\n      tag_107\n      jumpi\n      0x0100\n      dup1\n      dup4\n      sload\n      div\n      mul\n      dup4\n      mstore\n      swap2\n      0x20\n      add\n      swap2\n      jump(tag_106)\n    tag_107:\n      dup3\n      add\n      swap2\n      swap1\n      0x00\n      mstore\n      keccak256(0x00, 0x20)\n      swap1\n    tag_108:\n      dup2\n      sload\n      dup2\n      mstore\n      swap1\n      0x01\n      add\n      swap1\n      0x20\n      add\n      dup1\n      dup4\n      gt\n      tag_108\n      jumpi\n      dup3\n      swap1\n      sub\n      0x1f\n      and\n      dup3\n      add\n      swap2\n    tag_106:\n      pop\n      pop\n      pop\n      pop\n      pop\n      swap1\n      dup1\n      0x03\n      add\n      dup1\n      sload\n      tag_109\n      swap1\n      tag_70\n      jump\t// in\n    tag_109:\n      dup1\n      0x1f\n      add\n      0x20\n      dup1\n      swap2\n      div\n      mul\n      0x20\n      add\n      mload(0x40)\n      swap1\n      dup2\n      add\n      0x40\n      mstore\n      dup1\n      swap3\n      swap2\n      swap1\n      dup2\n      dup2\n      mstore\n      0x20\n      add\n      dup3\n      dup1\n      sload\n      tag_110\n      swap1\n      tag_70\n      jump\t// in\n    tag_110:\n      dup1\n      iszero\n      tag_111\n      jumpi\n      dup1\n      0x1f\n      lt\n      tag_112\n      jumpi\n      0x0100\n      dup1\n      dup4\n      sload\n      div\n      mul\n      dup4\n      mstore\n      swap2\n      0x20\n      add\n      swap2\n      jump(tag_111)\n    tag_112:\n      dup3\n      add\n      swap2\n      swap1\n      0x00\n      mstore\n      keccak256(0x00, 0x20)\n      swap1\n    tag_113:\n      dup2\n      sload\n      dup2\n      mstore\n      swap1\n      0x01\n      add\n      swap1\n      0x20\n      add\n      dup1\n      dup4\n      gt\n      tag_113\n      jumpi\n      dup3\n      swap1\n      sub\n      0x1f\n      and\n      dup3\n      add\n      swap2\n    tag_111:\n      pop\n      pop\n      pop\n      pop\n      pop\n      swap1\n      dup1\n      0x04\n      add\n      dup1\n      sload\n      tag_114\n      swap1\n      tag_70\n      jump\t// in\n    tag_114:\n      dup1\n      0x1f\n      add\n      0x20\n      dup1\n      swap2\n      div\n      mul\n      0x20\n      add\n      mload(0x40)\n      swap1\n      dup2\n      add\n      0x40\n      mstore\n      dup1\n      swap3\n      swap2\n      swap1\n      dup2\n      dup2\n      mstore\n      0x20\n      add\n      dup3\n      dup1\n      sload\n      tag_115\n      swap1\n      tag_70\n      jump\t// in\n    tag_115:\n      dup1\n      iszero\n      tag_116\n      jumpi\n      dup1\n      0x1f\n      lt\n      tag_117\n      jumpi\n      0x0100\n      dup1\n      dup4\n      sload\n      div\n      mul\n      dup4\n      mstore\n      swap2\n      0x20\n      add\n      swap2\n      jump(tag_116)\n    tag_117:\n      dup3\n      add\n      swap2\n      swap1\n      0x00\n      mstore\n      keccak256(0x00, 0x20)\n      swap1\n    tag_118:\n      dup2\n      sload\n      dup2\n      mstore\n      swap1\n      0x01\n      add\n      swap1\n      0x20\n      add\n      dup1\n      dup4\n      gt\n      tag_118\n      jumpi\n      dup3\n      swap1\n      sub\n      0x1f\n      and\n      dup3\n      add\n      swap2\n    tag_116:\n      pop\n      pop\n      pop\n      pop\n      pop\n      swap1\n      dup1\n      0x05\n      add\n      dup1\n      sload\n      tag_119\n      swap1\n      tag_70\n      jump\t// in\n    tag_119:\n      dup1\n      0x1f\n      add\n      0x20\n      dup1\n      swap2\n      div\n      mul\n      0x20\n      add\n      mload(0x40)\n      swap1\n      dup2\n      add\n      0x40\n      mstore\n      dup1\n      swap3\n      swap2\n      swap1\n      dup2\n      dup2\n      mstore\n      0x20\n      add\n      dup3\n      dup1\n      sload\n      tag_120\n      swap1\n      tag_70\n      jump\t// in\n    tag_120:\n      dup1\n      iszero\n      tag_121\n      jumpi\n      dup1\n      0x1f\n      lt\n      tag_122\n      jumpi\n      0x0100\n      dup1\n      dup4\n      sload\n      div\n      mul\n      dup4\n      mstore\n      swap2\n      0x20\n      add\n      swap2\n      jump(tag_121)\n    tag_122:\n      dup3\n      add\n      swap2\n      swap1\n      0x00\n      mstore\n      keccak256(0x00, 0x20)\n      swap1\n    tag_123:\n      dup2\n      sload\n      dup2\n      mstore\n      swap1\n      0x01\n      add\n      swap1\n      0x20\n      add\n      dup1\n      dup4\n      gt\n      tag_123\n      jumpi\n      dup3\n      swap1\n      sub\n      0x1f\n      and\n      dup3\n      add\n      swap2\n    tag_121:\n      pop\n      pop\n      pop\n      pop\n      pop\n      swap1\n      dup1\n      0x06\n      add\n      dup1\n      sload\n      tag_124\n      swap1\n      tag_70\n      jump\t// in\n    tag_124:\n      dup1\n      0x1f\n      add\n      0x20\n      dup1\n      swap2\n      div\n      mul\n      0x20\n      add\n      mload(0x40)\n      swap1\n      dup2\n      add\n      0x40\n      mstore\n      dup1\n      swap3\n      swap2\n      swap1\n      dup2\n      dup2\n      mstore\n      0x20\n      add\n      dup3\n      dup1\n      sload\n      tag_125\n      swap1\n      tag_70\n      jump\t// in\n    tag_125:\n      dup1\n      iszero\n      tag_126\n      jumpi\n      dup1\n      0x1f\n      lt\n      tag_127\n      jumpi\n      0x0100\n      dup1\n      dup4\n      sload\n      div\n      mul\n      dup4\n      mstore\n      swap2\n      0x20\n      add\n      swap2\n      jump(tag_126)\n    tag_127:\n      dup3\n      add\n      swap2\n      swap1\n      0x00\n      mstore\n      keccak256(0x00, 0x20)\n      swap1\n    tag_128:\n      dup2\n      sload\n      dup2\n      mstore\n      swap1\n      0x01\n      add\n      swap1\n      0x20\n      add\n      dup1\n      dup4\n      gt\n      tag_128\n      jumpi\n      dup3\n      swap1\n      sub\n      0x1f\n      and\n      dup3\n      add\n      swap2\n    tag_126:\n      pop\n      pop\n      pop\n      pop\n      pop\n      swap1\n      pop\n      dup8\n      jump\t// out\n        /* \"Project3/PhaseI.sol\":111:152  address payable public insurance_provider */\n    tag_33:\n      0x01\n      0x00\n      swap1\n      sload\n      swap1\n      0x0100\n      exp\n      swap1\n      div\n      0xffffffffffffffffffffffffffffffffffffffff\n      and\n      dup2\n      jump\t// out\n        /* \"Project3/PhaseI.sol\":466:492  string[] public name_array */\n    tag_40:\n      0x02\n      dup2\n      dup2\n      sload\n      dup2\n      lt\n      tag_129\n      jumpi\n      0x00\n      dup1\n      revert\n    tag_129:\n      swap1\n      0x00\n      mstore\n      keccak256(0x00, 0x20)\n      add\n      0x00\n      swap2\n      pop\n      swap1\n      pop\n      dup1\n      sload\n      tag_131\n      swap1\n      tag_70\n      jump\t// in\n    tag_131:\n      dup1\n      0x1f\n      add\n      0x20\n      dup1\n      swap2\n      div\n      mul\n      0x20\n      add\n      mload(0x40)\n      swap1\n      dup2\n      add\n      0x40\n      mstore\n      dup1\n      swap3\n      swap2\n      swap1\n      dup2\n      dup2\n      mstore\n      0x20\n      add\n      dup3\n      dup1\n      sload\n      tag_132\n      swap1\n      tag_70\n      jump\t// in\n    tag_132:\n      dup1\n      iszero\n      tag_133\n      jumpi\n      dup1\n      0x1f\n      lt\n      tag_134\n      jumpi\n      0x0100\n      dup1\n      dup4\n      sload\n      div\n      mul\n      dup4\n      mstore\n      swap2\n      0x20\n      add\n      swap2\n      jump(tag_133)\n    tag_134:\n      dup3\n      add\n      swap2\n      swap1\n      0x00\n      mstore\n      keccak256(0x00, 0x20)\n      swap1\n    tag_135:\n      dup2\n      sload\n      dup2\n      mstore\n      swap1\n      0x01\n      add\n      swap1\n      0x20\n      add\n      dup1\n      dup4\n      gt\n      tag_135\n      jumpi\n      dup3\n      swap1\n      sub\n      0x1f\n      and\n      dup3\n      add\n      swap2\n    tag_133:\n      pop\n      pop\n      pop\n      pop\n      pop\n      dup2\n      jump\t// out\n        /* \"Project3/PhaseI.sol\":667:830  function view_policy() public pure returns (string memory) {... */\n    tag_44:\n        /* \"Project3/PhaseI.sol\":711:724  string memory */\n      0x60\n        /* \"Project3/PhaseI.sol\":736:823  return \"Premium: 0.01 Ether \\nIndemnity: 0.02 Ether \\nCoverage issues: hail and floods\" */\n      mload(0x40)\n      dup1\n      0x80\n      add\n      0x40\n      mstore\n      dup1\n      0x4c\n      dup2\n      mstore\n      0x20\n      add\n      data_c8be08d5e2404c64eec4fa2070eabc6bbf9ff0d11045ed005e7513f9fc9de59b\n      0x4c\n      swap2\n      codecopy\n      swap1\n      pop\n        /* \"Project3/PhaseI.sol\":667:830  function view_policy() public pure returns (string memory) {... */\n      swap1\n      jump\t// out\n        /* \"Project3/PhaseI.sol\":2426:2756  function pay_indemnity(string[] memory claim_list) public returns (string memory) {... */\n    tag_50:\n        /* \"Project3/PhaseI.sol\":2493:2506  string memory */\n      0x60\n        /* \"Project3/PhaseI.sol\":2522:2528  uint i */\n      0x00\n        /* \"Project3/PhaseI.sol\":2518:2711  for(uint i = 0; i < claim_list.length; i++){... */\n    tag_138:\n        /* \"Project3/PhaseI.sol\":2538:2548  claim_list */\n      dup3\n        /* \"Project3/PhaseI.sol\":2538:2555  claim_list.length */\n      mload\n        /* \"Project3/PhaseI.sol\":2534:2535  i */\n      dup2\n        /* \"Project3/PhaseI.sol\":2534:2555  i < claim_list.length */\n      lt\n        /* \"Project3/PhaseI.sol\":2518:2711  for(uint i = 0; i < claim_list.length; i++){... */\n      iszero\n      tag_139\n      jumpi\n        /* \"Project3/PhaseI.sol\":2575:2583  policies */\n      0x03\n        /* \"Project3/PhaseI.sol\":2584:2594  claim_list */\n      dup4\n        /* \"Project3/PhaseI.sol\":2595:2596  i */\n      dup3\n        /* \"Project3/PhaseI.sol\":2584:2597  claim_list[i] */\n      dup2\n      mload\n      dup2\n      lt\n      tag_141\n      jumpi\n      tag_142\n      tag_67\n      jump\t// in\n    tag_142:\n    tag_141:\n      0x20\n      mul\n      0x20\n      add\n      add\n      mload\n        /* \"Project3/PhaseI.sol\":2575:2598  policies[claim_list[i]] */\n      mload(0x40)\n      tag_143\n      swap2\n      swap1\n      tag_76\n      jump\t// in\n    tag_143:\n      swap1\n      dup2\n      mstore\n      0x20\n      add\n      mload(0x40)\n      dup1\n      swap2\n      sub\n      swap1\n      keccak256\n        /* \"Project3/PhaseI.sol\":2575:2616  policies[claim_list[i]].passenger_address */\n      0x01\n      add\n      0x00\n      swap1\n      sload\n      swap1\n      0x0100\n      exp\n      swap1\n      div\n      0xffffffffffffffffffffffffffffffffffffffff\n      and\n        /* \"Project3/PhaseI.sol\":2575:2625  policies[claim_list[i]].passenger_address.transfer */\n      0xffffffffffffffffffffffffffffffffffffffff\n      and\n        /* \"Project3/PhaseI.sol\":2575:2637  policies[claim_list[i]].passenger_address.transfer(0.02 ether) */\n      0x08fc\n        /* \"Project3/PhaseI.sol\":2626:2636  0.02 ether */\n      0x470de4df820000\n        /* \"Project3/PhaseI.sol\":2575:2637  policies[claim_list[i]].passenger_address.transfer(0.02 ether) */\n      swap1\n      dup2\n      iszero\n      mul\n      swap1\n      mload(0x40)\n      0x00\n      mload(0x40)\n      dup1\n      dup4\n      sub\n      dup2\n      dup6\n      dup9\n      dup9\n      call\n      swap4\n      pop\n      pop\n      pop\n      pop\n      iszero\n      dup1\n      iszero\n      tag_145\n      jumpi\n      returndatasize\n      0x00\n      dup1\n      returndatacopy\n      revert(0x00, returndatasize)\n    tag_145:\n      pop\n        /* \"Project3/PhaseI.sol\":2651:2700  policies[claim_list[i]].policy_status = \"Claimed\" */\n      mload(0x40)\n      dup1\n      0x40\n      add\n      0x40\n      mstore\n      dup1\n      0x07\n      dup2\n      mstore\n      0x20\n      add\n      0x436c61696d656400000000000000000000000000000000000000000000000000\n      dup2\n      mstore\n      pop\n        /* \"Project3/PhaseI.sol\":2651:2659  policies */\n      0x03\n        /* \"Project3/PhaseI.sol\":2660:2670  claim_list */\n      dup5\n        /* \"Project3/PhaseI.sol\":2671:2672  i */\n      dup4\n        /* \"Project3/PhaseI.sol\":2660:2673  claim_list[i] */\n      dup2\n      mload\n      dup2\n      lt\n      tag_146\n      jumpi\n      tag_147\n      tag_67\n      jump\t// in\n    tag_147:\n    tag_146:\n      0x20\n      mul\n      0x20\n      add\n      add\n      mload\n        /* \"Project3/PhaseI.sol\":2651:2674  policies[claim_list[i]] */\n      mload(0x40)\n      tag_148\n      swap2\n      swap1\n      tag_76\n      jump\t// in\n    tag_148:\n      swap1\n      dup2\n      mstore\n      0x20\n      add\n      mload(0x40)\n      dup1\n      swap2\n      sub\n      swap1\n      keccak256\n        /* \"Project3/PhaseI.sol\":2651:2688  policies[claim_list[i]].policy_status */\n      0x06\n      add\n        /* \"Project3/PhaseI.sol\":2651:2700  policies[claim_list[i]].policy_status = \"Claimed\" */\n      swap1\n      dup2\n      tag_149\n      swap2\n      swap1\n      tag_90\n      jump\t// in\n    tag_149:\n      pop\n        /* \"Project3/PhaseI.sol\":2557:2560  i++ */\n      dup1\n      dup1\n      0x01\n      add\n      swap2\n      pop\n      pop\n        /* \"Project3/PhaseI.sol\":2518:2711  for(uint i = 0; i < claim_list.length; i++){... */\n      jump(tag_138)\n    tag_139:\n      pop\n        /* \"Project3/PhaseI.sol\":2720:2749  return \"Payments successful!\" */\n      mload(0x40)\n      dup1\n      0x40\n      add\n      0x40\n      mstore\n      dup1\n      0x14\n      dup2\n      mstore\n      0x20\n      add\n      0x5061796d656e7473207375636365737366756c21000000000000000000000000\n      dup2\n      mstore\n      pop\n      swap1\n      pop\n        /* \"Project3/PhaseI.sol\":2426:2756  function pay_indemnity(string[] memory claim_list) public returns (string memory) {... */\n      swap2\n      swap1\n      pop\n      jump\t// out\n        /* \"Project3/PhaseI.sol\":1314:1732  function view_purchased_policy(string memory name) public view returns (string memory) {... */\n    tag_55:\n        /* \"Project3/PhaseI.sol\":1386:1399  string memory */\n      0x60\n        /* \"Project3/PhaseI.sol\":1452:1460  policies */\n      0x03\n        /* \"Project3/PhaseI.sol\":1461:1465  name */\n      dup3\n        /* \"Project3/PhaseI.sol\":1452:1466  policies[name] */\n      mload(0x40)\n      tag_151\n      swap2\n      swap1\n      tag_76\n      jump\t// in\n    tag_151:\n      swap1\n      dup2\n      mstore\n      0x20\n      add\n      mload(0x40)\n      dup1\n      swap2\n      sub\n      swap1\n      keccak256\n        /* \"Project3/PhaseI.sol\":1452:1471  policies[name].name */\n      0x00\n      add\n        /* \"Project3/PhaseI.sol\":1494:1502  policies */\n      0x03\n        /* \"Project3/PhaseI.sol\":1503:1507  name */\n      dup4\n        /* \"Project3/PhaseI.sol\":1494:1508  policies[name] */\n      mload(0x40)\n      tag_152\n      swap2\n      swap1\n      tag_76\n      jump\t// in\n    tag_152:\n      swap1\n      dup2\n      mstore\n      0x20\n      add\n      mload(0x40)\n      dup1\n      swap2\n      sub\n      swap1\n      keccak256\n        /* \"Project3/PhaseI.sol\":1494:1522  policies[name].flight_number */\n      0x02\n      add\n        /* \"Project3/PhaseI.sol\":1541:1549  policies */\n      0x03\n        /* \"Project3/PhaseI.sol\":1550:1554  name */\n      dup5\n        /* \"Project3/PhaseI.sol\":1541:1555  policies[name] */\n      mload(0x40)\n      tag_153\n      swap2\n      swap1\n      tag_76\n      jump\t// in\n    tag_153:\n      swap1\n      dup2\n      mstore\n      0x20\n      add\n      mload(0x40)\n      dup1\n      swap2\n      sub\n      swap1\n      keccak256\n        /* \"Project3/PhaseI.sol\":1541:1567  policies[name].flight_date */\n      0x03\n      add\n        /* \"Project3/PhaseI.sol\":1589:1597  policies */\n      0x03\n        /* \"Project3/PhaseI.sol\":1598:1602  name */\n      dup6\n        /* \"Project3/PhaseI.sol\":1589:1603  policies[name] */\n      mload(0x40)\n      tag_154\n      swap2\n      swap1\n      tag_76\n      jump\t// in\n    tag_154:\n      swap1\n      dup2\n      mstore\n      0x20\n      add\n      mload(0x40)\n      dup1\n      swap2\n      sub\n      swap1\n      keccak256\n        /* \"Project3/PhaseI.sol\":1589:1618  policies[name].departure_city */\n      0x04\n      add\n        /* \"Project3/PhaseI.sol\":1642:1650  policies */\n      0x03\n        /* \"Project3/PhaseI.sol\":1651:1655  name */\n      dup7\n        /* \"Project3/PhaseI.sol\":1642:1656  policies[name] */\n      mload(0x40)\n      tag_155\n      swap2\n      swap1\n      tag_76\n      jump\t// in\n    tag_155:\n      swap1\n      dup2\n      mstore\n      0x20\n      add\n      mload(0x40)\n      dup1\n      swap2\n      sub\n      swap1\n      keccak256\n        /* \"Project3/PhaseI.sol\":1642:1673  policies[name].destination_city */\n      0x05\n      add\n        /* \"Project3/PhaseI.sol\":1696:1704  policies */\n      0x03\n        /* \"Project3/PhaseI.sol\":1705:1709  name */\n      dup8\n        /* \"Project3/PhaseI.sol\":1696:1710  policies[name] */\n      mload(0x40)\n      tag_156\n      swap2\n      swap1\n      tag_76\n      jump\t// in\n    tag_156:\n      swap1\n      dup2\n      mstore\n      0x20\n      add\n      mload(0x40)\n      dup1\n      swap2\n      sub\n      swap1\n      keccak256\n        /* \"Project3/PhaseI.sol\":1696:1724  policies[name].policy_status */\n      0x06\n      add\n        /* \"Project3/PhaseI.sol\":1418:1725  string.concat(\"Passenger Name: \", policies[name].name, \"\\nFlight Number: \", policies[name].flight_number, \"Flight date: \", policies[name].flight_date, \"Departure city: \", policies[name].departure_city, \"Destination city: \", policies[name].destination_city, \"\\nPolicy Status: \", policies[name].policy_status) */\n      add(0x20, mload(0x40))\n      tag_157\n      swap7\n      swap6\n      swap5\n      swap4\n      swap3\n      swap2\n      swap1\n      tag_158\n      jump\t// in\n    tag_157:\n      mload(0x40)\n      0x20\n      dup2\n      dup4\n      sub\n      sub\n      dup2\n      mstore\n      swap1\n      0x40\n      mstore\n        /* \"Project3/PhaseI.sol\":1411:1725  return string.concat(\"Passenger Name: \", policies[name].name, \"\\nFlight Number: \", policies[name].flight_number, \"Flight date: \", policies[name].flight_date, \"Departure city: \", policies[name].departure_city, \"Destination city: \", policies[name].destination_city, \"\\nPolicy Status: \", policies[name].policy_status) */\n      swap1\n      pop\n        /* \"Project3/PhaseI.sol\":1314:1732  function view_purchased_policy(string memory name) public view returns (string memory) {... */\n      swap2\n      swap1\n      pop\n      jump\t// out\n        /* \"Project3/PhaseI.sol\":2331:2420  function verify() public pure returns (string memory) {... */\n    tag_59:\n        /* \"Project3/PhaseI.sol\":2370:2383  string memory */\n      0x60\n        /* \"Project3/PhaseI.sol\":2395:2413  return \"Verified!\" */\n      mload(0x40)\n      dup1\n      0x40\n      add\n      0x40\n      mstore\n      dup1\n      0x09\n      dup2\n      mstore\n      0x20\n      add\n      0x5665726966696564210000000000000000000000000000000000000000000000\n      dup2\n      mstore\n      pop\n      swap1\n      pop\n        /* \"Project3/PhaseI.sol\":2331:2420  function verify() public pure returns (string memory) {... */\n      swap1\n      jump\t// out\n        /* \"#utility.yul\":7:106   */\n    tag_160:\n        /* \"#utility.yul\":59:65   */\n      0x00\n        /* \"#utility.yul\":93:98   */\n      dup2\n        /* \"#utility.yul\":87:99   */\n      mload\n        /* \"#utility.yul\":77:99   */\n      swap1\n      pop\n        /* \"#utility.yul\":7:106   */\n      swap2\n      swap1\n      pop\n      jump\t// out\n        /* \"#utility.yul\":112:281   */\n    tag_161:\n        /* \"#utility.yul\":196:207   */\n      0x00\n        /* \"#utility.yul\":230:236   */\n      dup3\n        /* \"#utility.yul\":225:228   */\n      dup3\n        /* \"#utility.yul\":218:237   */\n      mstore\n        /* \"#utility.yul\":270:274   */\n      0x20\n        /* \"#utility.yul\":265:268   */\n      dup3\n        /* \"#utility.yul\":261:275   */\n      add\n        /* \"#utility.yul\":246:275   */\n      swap1\n      pop\n        /* \"#utility.yul\":112:281   */\n      swap3\n      swap2\n      pop\n      pop\n      jump\t// out\n        /* \"#utility.yul\":287:426   */\n    tag_162:\n        /* \"#utility.yul\":376:382   */\n      dup3\n        /* \"#utility.yul\":371:374   */\n      dup2\n        /* \"#utility.yul\":366:369   */\n      dup4\n        /* \"#utility.yul\":360:383   */\n      mcopy\n        /* \"#utility.yul\":417:418   */\n      0x00\n        /* \"#utility.yul\":408:414   */\n      dup4\n        /* \"#utility.yul\":403:406   */\n      dup4\n        /* \"#utility.yul\":399:415   */\n      add\n        /* \"#utility.yul\":392:419   */\n      mstore\n        /* \"#utility.yul\":287:426   */\n      pop\n      pop\n      pop\n      jump\t// out\n        /* \"#utility.yul\":432:534   */\n    tag_163:\n        /* \"#utility.yul\":473:479   */\n      0x00\n        /* \"#utility.yul\":524:526   */\n      0x1f\n        /* \"#utility.yul\":520:527   */\n      not\n        /* \"#utility.yul\":515:517   */\n      0x1f\n        /* \"#utility.yul\":508:513   */\n      dup4\n        /* \"#utility.yul\":504:518   */\n      add\n        /* \"#utility.yul\":500:528   */\n      and\n        /* \"#utility.yul\":490:528   */\n      swap1\n      pop\n        /* \"#utility.yul\":432:534   */\n      swap2\n      swap1\n      pop\n      jump\t// out\n        /* \"#utility.yul\":540:917   */\n    tag_164:\n        /* \"#utility.yul\":628:631   */\n      0x00\n        /* \"#utility.yul\":656:695   */\n      tag_231\n        /* \"#utility.yul\":689:694   */\n      dup3\n        /* \"#utility.yul\":656:695   */\n      tag_160\n      jump\t// in\n    tag_231:\n        /* \"#utility.yul\":711:782   */\n      tag_232\n        /* \"#utility.yul\":775:781   */\n      dup2\n        /* \"#utility.yul\":770:773   */\n      dup6\n        /* \"#utility.yul\":711:782   */\n      tag_161\n      jump\t// in\n    tag_232:\n        /* \"#utility.yul\":704:782   */\n      swap4\n      pop\n        /* \"#utility.yul\":791:856   */\n      tag_233\n        /* \"#utility.yul\":849:855   */\n      dup2\n        /* \"#utility.yul\":844:847   */\n      dup6\n        /* \"#utility.yul\":837:841   */\n      0x20\n        /* \"#utility.yul\":830:835   */\n      dup7\n        /* \"#utility.yul\":826:842   */\n      add\n        /* \"#utility.yul\":791:856   */\n      tag_162\n      jump\t// in\n    tag_233:\n        /* \"#utility.yul\":881:910   */\n      tag_234\n        /* \"#utility.yul\":903:909   */\n      dup2\n        /* \"#utility.yul\":881:910   */\n      tag_163\n      jump\t// in\n    tag_234:\n        /* \"#utility.yul\":876:879   */\n      dup5\n        /* \"#utility.yul\":872:911   */\n      add\n        /* \"#utility.yul\":865:911   */\n      swap2\n      pop\n        /* \"#utility.yul\":632:917   */\n      pop\n        /* \"#utility.yul\":540:917   */\n      swap3\n      swap2\n      pop\n      pop\n      jump\t// out\n        /* \"#utility.yul\":923:1236   */\n    tag_19:\n        /* \"#utility.yul\":1036:1040   */\n      0x00\n        /* \"#utility.yul\":1074:1076   */\n      0x20\n        /* \"#utility.yul\":1063:1072   */\n      dup3\n        /* \"#utility.yul\":1059:1077   */\n      add\n        /* \"#utility.yul\":1051:1077   */\n      swap1\n      pop\n        /* \"#utility.yul\":1123:1132   */\n      dup2\n        /* \"#utility.yul\":1117:1121   */\n      dup2\n        /* \"#utility.yul\":1113:1133   */\n      sub\n        /* \"#utility.yul\":1109:1110   */\n      0x00\n        /* \"#utility.yul\":1098:1107   */\n      dup4\n        /* \"#utility.yul\":1094:1111   */\n      add\n        /* \"#utility.yul\":1087:1134   */\n      mstore\n        /* \"#utility.yul\":1151:1229   */\n      tag_236\n        /* \"#utility.yul\":1224:1228   */\n      dup2\n        /* \"#utility.yul\":1215:1221   */\n      dup5\n        /* \"#utility.yul\":1151:1229   */\n      tag_164\n      jump\t// in\n    tag_236:\n        /* \"#utility.yul\":1143:1229   */\n      swap1\n      pop\n        /* \"#utility.yul\":923:1236   */\n      swap3\n      swap2\n      pop\n      pop\n      jump\t// out\n        /* \"#utility.yul\":1242:1317   */\n    tag_165:\n        /* \"#utility.yul\":1275:1281   */\n      0x00\n        /* \"#utility.yul\":1308:1310   */\n      0x40\n        /* \"#utility.yul\":1302:1311   */\n      mload\n        /* \"#utility.yul\":1292:1311   */\n      swap1\n      pop\n        /* \"#utility.yul\":1242:1317   */\n      swap1\n      jump\t// out\n        /* \"#utility.yul\":1323:1440   */\n    tag_166:\n        /* \"#utility.yul\":1432:1433   */\n      0x00\n        /* \"#utility.yul\":1429:1430   */\n      dup1\n        /* \"#utility.yul\":1422:1434   */\n      revert\n        /* \"#utility.yul\":1446:1563   */\n    tag_167:\n        /* \"#utility.yul\":1555:1556   */\n      0x00\n        /* \"#utility.yul\":1552:1553   */\n      dup1\n        /* \"#utility.yul\":1545:1557   */\n      revert\n        /* \"#utility.yul\":1569:1686   */\n    tag_168:\n        /* \"#utility.yul\":1678:1679   */\n      0x00\n        /* \"#utility.yul\":1675:1676   */\n      dup1\n        /* \"#utility.yul\":1668:1680   */\n      revert\n        /* \"#utility.yul\":1692:1809   */\n    tag_169:\n        /* \"#utility.yul\":1801:1802   */\n      0x00\n        /* \"#utility.yul\":1798:1799   */\n      dup1\n        /* \"#utility.yul\":1791:1803   */\n      revert\n        /* \"#utility.yul\":1815:1932   */\n    tag_170:\n        /* \"#utility.yul\":1924:1925   */\n      0x00\n        /* \"#utility.yul\":1921:1922   */\n      dup1\n        /* \"#utility.yul\":1914:1926   */\n      revert\n        /* \"#utility.yul\":1952:2505   */\n    tag_171:\n        /* \"#utility.yul\":2010:2018   */\n      0x00\n        /* \"#utility.yul\":2020:2026   */\n      dup1\n        /* \"#utility.yul\":2070:2073   */\n      dup4\n        /* \"#utility.yul\":2063:2067   */\n      0x1f\n        /* \"#utility.yul\":2055:2061   */\n      dup5\n        /* \"#utility.yul\":2051:2068   */\n      add\n        /* \"#utility.yul\":2047:2074   */\n      slt\n        /* \"#utility.yul\":2037:2159   */\n      tag_244\n      jumpi\n        /* \"#utility.yul\":2078:2157   */\n      tag_245\n      tag_168\n      jump\t// in\n    tag_245:\n        /* \"#utility.yul\":2037:2159   */\n    tag_244:\n        /* \"#utility.yul\":2191:2197   */\n      dup3\n        /* \"#utility.yul\":2178:2198   */\n      calldataload\n        /* \"#utility.yul\":2168:2198   */\n      swap1\n      pop\n        /* \"#utility.yul\":2221:2239   */\n      0xffffffffffffffff\n        /* \"#utility.yul\":2213:2219   */\n      dup2\n        /* \"#utility.yul\":2210:2240   */\n      gt\n        /* \"#utility.yul\":2207:2324   */\n      iszero\n      tag_246\n      jumpi\n        /* \"#utility.yul\":2243:2322   */\n      tag_247\n      tag_169\n      jump\t// in\n    tag_247:\n        /* \"#utility.yul\":2207:2324   */\n    tag_246:\n        /* \"#utility.yul\":2357:2361   */\n      0x20\n        /* \"#utility.yul\":2349:2355   */\n      dup4\n        /* \"#utility.yul\":2345:2362   */\n      add\n        /* \"#utility.yul\":2333:2362   */\n      swap2\n      pop\n        /* \"#utility.yul\":2411:2414   */\n      dup4\n        /* \"#utility.yul\":2403:2407   */\n      0x01\n        /* \"#utility.yul\":2395:2401   */\n      dup3\n        /* \"#utility.yul\":2391:2408   */\n      mul\n        /* \"#utility.yul\":2381:2389   */\n      dup4\n        /* \"#utility.yul\":2377:2409   */\n      add\n        /* \"#utility.yul\":2374:2415   */\n      gt\n        /* \"#utility.yul\":2371:2499   */\n      iszero\n      tag_248\n      jumpi\n        /* \"#utility.yul\":2418:2497   */\n      tag_249\n      tag_170\n      jump\t// in\n    tag_249:\n        /* \"#utility.yul\":2371:2499   */\n    tag_248:\n        /* \"#utility.yul\":1952:2505   */\n      swap3\n      pop\n      swap3\n      swap1\n      pop\n      jump\t// out\n        /* \"#utility.yul\":2511:2637   */\n    tag_172:\n        /* \"#utility.yul\":2548:2555   */\n      0x00\n        /* \"#utility.yul\":2588:2630   */\n      0xffffffffffffffffffffffffffffffffffffffff\n        /* \"#utility.yul\":2581:2586   */\n      dup3\n        /* \"#utility.yul\":2577:2631   */\n      and\n        /* \"#utility.yul\":2566:2631   */\n      swap1\n      pop\n        /* \"#utility.yul\":2511:2637   */\n      swap2\n      swap1\n      pop\n      jump\t// out\n        /* \"#utility.yul\":2643:2747   */\n    tag_173:\n        /* \"#utility.yul\":2688:2695   */\n      0x00\n        /* \"#utility.yul\":2717:2741   */\n      tag_252\n        /* \"#utility.yul\":2735:2740   */\n      dup3\n        /* \"#utility.yul\":2717:2741   */\n      tag_172\n      jump\t// in\n    tag_252:\n        /* \"#utility.yul\":2706:2741   */\n      swap1\n      pop\n        /* \"#utility.yul\":2643:2747   */\n      swap2\n      swap1\n      pop\n      jump\t// out\n        /* \"#utility.yul\":2753:2891   */\n    tag_174:\n        /* \"#utility.yul\":2834:2866   */\n      tag_254\n        /* \"#utility.yul\":2860:2865   */\n      dup2\n        /* \"#utility.yul\":2834:2866   */\n      tag_173\n      jump\t// in\n    tag_254:\n        /* \"#utility.yul\":2827:2832   */\n      dup2\n        /* \"#utility.yul\":2824:2867   */\n      eq\n        /* \"#utility.yul\":2814:2885   */\n      tag_255\n      jumpi\n        /* \"#utility.yul\":2881:2882   */\n      0x00\n        /* \"#utility.yul\":2878:2879   */\n      dup1\n        /* \"#utility.yul\":2871:2883   */\n      revert\n        /* \"#utility.yul\":2814:2885   */\n    tag_255:\n        /* \"#utility.yul\":2753:2891   */\n      pop\n      jump\t// out\n        /* \"#utility.yul\":2897:3052   */\n    tag_175:\n        /* \"#utility.yul\":2951:2956   */\n      0x00\n        /* \"#utility.yul\":2989:2995   */\n      dup2\n        /* \"#utility.yul\":2976:2996   */\n      calldataload\n        /* \"#utility.yul\":2967:2996   */\n      swap1\n      pop\n        /* \"#utility.yul\":3005:3046   */\n      tag_257\n        /* \"#utility.yul\":3040:3045   */\n      dup2\n        /* \"#utility.yul\":3005:3046   */\n      tag_174\n      jump\t// in\n    tag_257:\n        /* \"#utility.yul\":2897:3052   */\n      swap3\n      swap2\n      pop\n      pop\n      jump\t// out\n        /* \"#utility.yul\":3058:5133   */\n    tag_22:\n        /* \"#utility.yul\":3230:3236   */\n      0x00\n        /* \"#utility.yul\":3238:3244   */\n      dup1\n        /* \"#utility.yul\":3246:3252   */\n      0x00\n        /* \"#utility.yul\":3254:3260   */\n      dup1\n        /* \"#utility.yul\":3262:3268   */\n      0x00\n        /* \"#utility.yul\":3270:3276   */\n      dup1\n        /* \"#utility.yul\":3278:3284   */\n      0x00\n        /* \"#utility.yul\":3286:3292   */\n      dup1\n        /* \"#utility.yul\":3294:3300   */\n      0x00\n        /* \"#utility.yul\":3302:3308   */\n      dup1\n        /* \"#utility.yul\":3310:3317   */\n      0x00\n        /* \"#utility.yul\":3360:3363   */\n      0xc0\n        /* \"#utility.yul\":3348:3357   */\n      dup13\n        /* \"#utility.yul\":3339:3346   */\n      dup15\n        /* \"#utility.yul\":3335:3358   */\n      sub\n        /* \"#utility.yul\":3331:3364   */\n      slt\n        /* \"#utility.yul\":3328:3448   */\n      iszero\n      tag_259\n      jumpi\n        /* \"#utility.yul\":3367:3446   */\n      tag_260\n      tag_166\n      jump\t// in\n    tag_260:\n        /* \"#utility.yul\":3328:3448   */\n    tag_259:\n        /* \"#utility.yul\":3515:3516   */\n      0x00\n        /* \"#utility.yul\":3504:3513   */\n      dup13\n        /* \"#utility.yul\":3500:3517   */\n      add\n        /* \"#utility.yul\":3487:3518   */\n      calldataload\n        /* \"#utility.yul\":3545:3563   */\n      0xffffffffffffffff\n        /* \"#utility.yul\":3537:3543   */\n      dup2\n        /* \"#utility.yul\":3534:3564   */\n      gt\n        /* \"#utility.yul\":3531:3648   */\n      iszero\n      tag_261\n      jumpi\n        /* \"#utility.yul\":3567:3646   */\n      tag_262\n      tag_167\n      jump\t// in\n    tag_262:\n        /* \"#utility.yul\":3531:3648   */\n    tag_261:\n        /* \"#utility.yul\":3680:3745   */\n      tag_263\n        /* \"#utility.yul\":3737:3744   */\n      dup15\n        /* \"#utility.yul\":3728:3734   */\n      dup3\n        /* \"#utility.yul\":3717:3726   */\n      dup16\n        /* \"#utility.yul\":3713:3735   */\n      add\n        /* \"#utility.yul\":3680:3745   */\n      tag_171\n      jump\t// in\n    tag_263:\n        /* \"#utility.yul\":3662:3745   */\n      swap12\n      pop\n      swap12\n      pop\n        /* \"#utility.yul\":3458:3755   */\n      pop\n        /* \"#utility.yul\":3794:3796   */\n      0x20\n        /* \"#utility.yul\":3820:3881   */\n      tag_264\n        /* \"#utility.yul\":3873:3880   */\n      dup15\n        /* \"#utility.yul\":3864:3870   */\n      dup3\n        /* \"#utility.yul\":3853:3862   */\n      dup16\n        /* \"#utility.yul\":3849:3871   */\n      add\n        /* \"#utility.yul\":3820:3881   */\n      tag_175\n      jump\t// in\n    tag_264:\n        /* \"#utility.yul\":3810:3881   */\n      swap10\n      pop\n        /* \"#utility.yul\":3765:3891   */\n      pop\n        /* \"#utility.yul\":3958:3960   */\n      0x40\n        /* \"#utility.yul\":3947:3956   */\n      dup13\n        /* \"#utility.yul\":3943:3961   */\n      add\n        /* \"#utility.yul\":3930:3962   */\n      calldataload\n        /* \"#utility.yul\":3989:4007   */\n      0xffffffffffffffff\n        /* \"#utility.yul\":3981:3987   */\n      dup2\n        /* \"#utility.yul\":3978:4008   */\n      gt\n        /* \"#utility.yul\":3975:4092   */\n      iszero\n      tag_265\n      jumpi\n        /* \"#utility.yul\":4011:4090   */\n      tag_266\n      tag_167\n      jump\t// in\n    tag_266:\n        /* \"#utility.yul\":3975:4092   */\n    tag_265:\n        /* \"#utility.yul\":4124:4189   */\n      tag_267\n        /* \"#utility.yul\":4181:4188   */\n      dup15\n        /* \"#utility.yul\":4172:4178   */\n      dup3\n        /* \"#utility.yul\":4161:4170   */\n      dup16\n        /* \"#utility.yul\":4157:4179   */\n      add\n        /* \"#utility.yul\":4124:4189   */\n      tag_171\n      jump\t// in\n    tag_267:\n        /* \"#utility.yul\":4106:4189   */\n      swap9\n      pop\n      swap9\n      pop\n        /* \"#utility.yul\":3901:4199   */\n      pop\n        /* \"#utility.yul\":4266:4268   */\n      0x60\n        /* \"#utility.yul\":4255:4264   */\n      dup13\n        /* \"#utility.yul\":4251:4269   */\n      add\n        /* \"#utility.yul\":4238:4270   */\n      calldataload\n        /* \"#utility.yul\":4297:4315   */\n      0xffffffffffffffff\n        /* \"#utility.yul\":4289:4295   */\n      dup2\n        /* \"#utility.yul\":4286:4316   */\n      gt\n        /* \"#utility.yul\":4283:4400   */\n      iszero\n      tag_268\n      jumpi\n        /* \"#utility.yul\":4319:4398   */\n      tag_269\n      tag_167\n      jump\t// in\n    tag_269:\n        /* \"#utility.yul\":4283:4400   */\n    tag_268:\n        /* \"#utility.yul\":4432:4497   */\n      tag_270\n        /* \"#utility.yul\":4489:4496   */\n      dup15\n        /* \"#utility.yul\":4480:4486   */\n      dup3\n        /* \"#utility.yul\":4469:4478   */\n      dup16\n        /* \"#utility.yul\":4465:4487   */\n      add\n        /* \"#utility.yul\":4432:4497   */\n      tag_171\n      jump\t// in\n    tag_270:\n        /* \"#utility.yul\":4414:4497   */\n      swap7\n      pop\n      swap7\n      pop\n        /* \"#utility.yul\":4209:4507   */\n      pop\n        /* \"#utility.yul\":4574:4577   */\n      0x80\n        /* \"#utility.yul\":4563:4572   */\n      dup13\n        /* \"#utility.yul\":4559:4578   */\n      add\n        /* \"#utility.yul\":4546:4579   */\n      calldataload\n        /* \"#utility.yul\":4606:4624   */\n      0xffffffffffffffff\n        /* \"#utility.yul\":4598:4604   */\n      dup2\n        /* \"#utility.yul\":4595:4625   */\n      gt\n        /* \"#utility.yul\":4592:4709   */\n      iszero\n      tag_271\n      jumpi\n        /* \"#utility.yul\":4628:4707   */\n      tag_272\n      tag_167\n      jump\t// in\n    tag_272:\n        /* \"#utility.yul\":4592:4709   */\n    tag_271:\n        /* \"#utility.yul\":4741:4806   */\n      tag_273\n        /* \"#utility.yul\":4798:4805   */\n      dup15\n        /* \"#utility.yul\":4789:4795   */\n      dup3\n        /* \"#utility.yul\":4778:4787   */\n      dup16\n        /* \"#utility.yul\":4774:4796   */\n      add\n        /* \"#utility.yul\":4741:4806   */\n      tag_171\n      jump\t// in\n    tag_273:\n        /* \"#utility.yul\":4723:4806   */\n      swap5\n      pop\n      swap5\n      pop\n        /* \"#utility.yul\":4517:4816   */\n      pop\n        /* \"#utility.yul\":4883:4886   */\n      0xa0\n        /* \"#utility.yul\":4872:4881   */\n      dup13\n        /* \"#utility.yul\":4868:4887   */\n      add\n        /* \"#utility.yul\":4855:4888   */\n      calldataload\n        /* \"#utility.yul\":4915:4933   */\n      0xffffffffffffffff\n        /* \"#utility.yul\":4907:4913   */\n      dup2\n        /* \"#utility.yul\":4904:4934   */\n      gt\n        /* \"#utility.yul\":4901:5018   */\n      iszero\n      tag_274\n      jumpi\n        /* \"#utility.yul\":4937:5016   */\n      tag_275\n      tag_167\n      jump\t// in\n    tag_275:\n        /* \"#utility.yul\":4901:5018   */\n    tag_274:\n        /* \"#utility.yul\":5051:5116   */\n      tag_276\n        /* \"#utility.yul\":5108:5115   */\n      dup15\n        /* \"#utility.yul\":5099:5105   */\n      dup3\n        /* \"#utility.yul\":5088:5097   */\n      dup16\n        /* \"#utility.yul\":5084:5106   */\n      add\n        /* \"#utility.yul\":5051:5116   */\n      tag_171\n      jump\t// in\n    tag_276:\n        /* \"#utility.yul\":5032:5116   */\n      swap3\n      pop\n      swap3\n      pop\n        /* \"#utility.yul\":4826:5126   */\n      pop\n        /* \"#utility.yul\":3058:5133   */\n      swap3\n      swap6\n      swap9\n      swap12\n      pop\n      swap3\n      swap6\n      swap9\n      swap12\n      swap1\n      swap4\n      swap7\n      swap10\n      pop\n      jump\t// out\n        /* \"#utility.yul\":5139:5256   */\n    tag_176:\n        /* \"#utility.yul\":5248:5249   */\n      0x00\n        /* \"#utility.yul\":5245:5246   */\n      dup1\n        /* \"#utility.yul\":5238:5250   */\n      revert\n        /* \"#utility.yul\":5262:5442   */\n    tag_177:\n        /* \"#utility.yul\":5310:5387   */\n      0x4e487b7100000000000000000000000000000000000000000000000000000000\n        /* \"#utility.yul\":5307:5308   */\n      0x00\n        /* \"#utility.yul\":5300:5388   */\n      mstore\n        /* \"#utility.yul\":5407:5411   */\n      0x41\n        /* \"#utility.yul\":5404:5405   */\n      0x04\n        /* \"#utility.yul\":5397:5412   */\n      mstore\n        /* \"#utility.yul\":5431:5435   */\n      0x24\n        /* \"#utility.yul\":5428:5429   */\n      0x00\n        /* \"#utility.yul\":5421:5436   */\n      revert\n        /* \"#utility.yul\":5448:5729   */\n    tag_178:\n        /* \"#utility.yul\":5531:5558   */\n      tag_280\n        /* \"#utility.yul\":5553:5557   */\n      dup3\n        /* \"#utility.yul\":5531:5558   */\n      tag_163\n      jump\t// in\n    tag_280:\n        /* \"#utility.yul\":5523:5529   */\n      dup2\n        /* \"#utility.yul\":5519:5559   */\n      add\n        /* \"#utility.yul\":5661:5667   */\n      dup2\n        /* \"#utility.yul\":5649:5659   */\n      dup2\n        /* \"#utility.yul\":5646:5668   */\n      lt\n        /* \"#utility.yul\":5625:5643   */\n      0xffffffffffffffff\n        /* \"#utility.yul\":5613:5623   */\n      dup3\n        /* \"#utility.yul\":5610:5644   */\n      gt\n        /* \"#utility.yul\":5607:5669   */\n      or\n        /* \"#utility.yul\":5604:5692   */\n      iszero\n      tag_281\n      jumpi\n        /* \"#utility.yul\":5672:5690   */\n      tag_282\n      tag_177\n      jump\t// in\n    tag_282:\n        /* \"#utility.yul\":5604:5692   */\n    tag_281:\n        /* \"#utility.yul\":5712:5722   */\n      dup1\n        /* \"#utility.yul\":5708:5710   */\n      0x40\n        /* \"#utility.yul\":5701:5723   */\n      mstore\n        /* \"#utility.yul\":5491:5729   */\n      pop\n        /* \"#utility.yul\":5448:5729   */\n      pop\n      pop\n      jump\t// out\n        /* \"#utility.yul\":5735:5864   */\n    tag_179:\n        /* \"#utility.yul\":5769:5775   */\n      0x00\n        /* \"#utility.yul\":5796:5816   */\n      tag_284\n      tag_165\n      jump\t// in\n    tag_284:\n        /* \"#utility.yul\":5786:5816   */\n      swap1\n      pop\n        /* \"#utility.yul\":5825:5858   */\n      tag_285\n        /* \"#utility.yul\":5853:5857   */\n      dup3\n        /* \"#utility.yul\":5845:5851   */\n      dup3\n        /* \"#utility.yul\":5825:5858   */\n      tag_178\n      jump\t// in\n    tag_285:\n        /* \"#utility.yul\":5735:5864   */\n      swap2\n      swap1\n      pop\n      jump\t// out\n        /* \"#utility.yul\":5870:6178   */\n    tag_180:\n        /* \"#utility.yul\":5932:5936   */\n      0x00\n        /* \"#utility.yul\":6022:6040   */\n      0xffffffffffffffff\n        /* \"#utility.yul\":6014:6020   */\n      dup3\n        /* \"#utility.yul\":6011:6041   */\n      gt\n        /* \"#utility.yul\":6008:6064   */\n      iszero\n      tag_287\n      jumpi\n        /* \"#utility.yul\":6044:6062   */\n      tag_288\n      tag_177\n      jump\t// in\n    tag_288:\n        /* \"#utility.yul\":6008:6064   */\n    tag_287:\n        /* \"#utility.yul\":6082:6111   */\n      tag_289\n        /* \"#utility.yul\":6104:6110   */\n      dup3\n        /* \"#utility.yul\":6082:6111   */\n      tag_163\n      jump\t// in\n    tag_289:\n        /* \"#utility.yul\":6074:6111   */\n      swap1\n      pop\n        /* \"#utility.yul\":6166:6170   */\n      0x20\n        /* \"#utility.yul\":6160:6164   */\n      dup2\n        /* \"#utility.yul\":6156:6171   */\n      add\n        /* \"#utility.yul\":6148:6171   */\n      swap1\n      pop\n        /* \"#utility.yul\":5870:6178   */\n      swap2\n      swap1\n      pop\n      jump\t// out\n        /* \"#utility.yul\":6184:6332   */\n    tag_181:\n        /* \"#utility.yul\":6282:6288   */\n      dup3\n        /* \"#utility.yul\":6277:6280   */\n      dup2\n        /* \"#utility.yul\":6272:6275   */\n      dup4\n        /* \"#utility.yul\":6259:6289   */\n      calldatacopy\n        /* \"#utility.yul\":6323:6324   */\n      0x00\n        /* \"#utility.yul\":6314:6320   */\n      dup4\n        /* \"#utility.yul\":6309:6312   */\n      dup4\n        /* \"#utility.yul\":6305:6321   */\n      add\n        /* \"#utility.yul\":6298:6325   */\n      mstore\n        /* \"#utility.yul\":6184:6332   */\n      pop\n      pop\n      pop\n      jump\t// out\n        /* \"#utility.yul\":6338:6763   */\n    tag_182:\n        /* \"#utility.yul\":6416:6421   */\n      0x00\n        /* \"#utility.yul\":6441:6507   */\n      tag_292\n        /* \"#utility.yul\":6457:6506   */\n      tag_293\n        /* \"#utility.yul\":6499:6505   */\n      dup5\n        /* \"#utility.yul\":6457:6506   */\n      tag_180\n      jump\t// in\n    tag_293:\n        /* \"#utility.yul\":6441:6507   */\n      tag_179\n      jump\t// in\n    tag_292:\n        /* \"#utility.yul\":6432:6507   */\n      swap1\n      pop\n        /* \"#utility.yul\":6530:6536   */\n      dup3\n        /* \"#utility.yul\":6523:6528   */\n      dup2\n        /* \"#utility.yul\":6516:6537   */\n      mstore\n        /* \"#utility.yul\":6568:6572   */\n      0x20\n        /* \"#utility.yul\":6561:6566   */\n      dup2\n        /* \"#utility.yul\":6557:6573   */\n      add\n        /* \"#utility.yul\":6606:6609   */\n      dup5\n        /* \"#utility.yul\":6597:6603   */\n      dup5\n        /* \"#utility.yul\":6592:6595   */\n      dup5\n        /* \"#utility.yul\":6588:6604   */\n      add\n        /* \"#utility.yul\":6585:6610   */\n      gt\n        /* \"#utility.yul\":6582:6694   */\n      iszero\n      tag_294\n      jumpi\n        /* \"#utility.yul\":6613:6692   */\n      tag_295\n      tag_176\n      jump\t// in\n    tag_295:\n        /* \"#utility.yul\":6582:6694   */\n    tag_294:\n        /* \"#utility.yul\":6703:6757   */\n      tag_296\n        /* \"#utility.yul\":6750:6756   */\n      dup5\n        /* \"#utility.yul\":6745:6748   */\n      dup3\n        /* \"#utility.yul\":6740:6743   */\n      dup6\n        /* \"#utility.yul\":6703:6757   */\n      tag_181\n      jump\t// in\n    tag_296:\n        /* \"#utility.yul\":6422:6763   */\n      pop\n        /* \"#utility.yul\":6338:6763   */\n      swap4\n      swap3\n      pop\n      pop\n      pop\n      jump\t// out\n        /* \"#utility.yul\":6783:7123   */\n    tag_183:\n        /* \"#utility.yul\":6839:6844   */\n      0x00\n        /* \"#utility.yul\":6888:6891   */\n      dup3\n        /* \"#utility.yul\":6881:6885   */\n      0x1f\n        /* \"#utility.yul\":6873:6879   */\n      dup4\n        /* \"#utility.yul\":6869:6886   */\n      add\n        /* \"#utility.yul\":6865:6892   */\n      slt\n        /* \"#utility.yul\":6855:6977   */\n      tag_298\n      jumpi\n        /* \"#utility.yul\":6896:6975   */\n      tag_299\n      tag_168\n      jump\t// in\n    tag_299:\n        /* \"#utility.yul\":6855:6977   */\n    tag_298:\n        /* \"#utility.yul\":7013:7019   */\n      dup2\n        /* \"#utility.yul\":7000:7020   */\n      calldataload\n        /* \"#utility.yul\":7038:7117   */\n      tag_300\n        /* \"#utility.yul\":7113:7116   */\n      dup5\n        /* \"#utility.yul\":7105:7111   */\n      dup3\n        /* \"#utility.yul\":7098:7102   */\n      0x20\n        /* \"#utility.yul\":7090:7096   */\n      dup7\n        /* \"#utility.yul\":7086:7103   */\n      add\n        /* \"#utility.yul\":7038:7117   */\n      tag_182\n      jump\t// in\n    tag_300:\n        /* \"#utility.yul\":7029:7117   */\n      swap2\n      pop\n        /* \"#utility.yul\":6845:7123   */\n      pop\n        /* \"#utility.yul\":6783:7123   */\n      swap3\n      swap2\n      pop\n      pop\n      jump\t// out\n        /* \"#utility.yul\":7129:7638   */\n    tag_27:\n        /* \"#utility.yul\":7198:7204   */\n      0x00\n        /* \"#utility.yul\":7247:7249   */\n      0x20\n        /* \"#utility.yul\":7235:7244   */\n      dup3\n        /* \"#utility.yul\":7226:7233   */\n      dup5\n        /* \"#utility.yul\":7222:7245   */\n      sub\n        /* \"#utility.yul\":7218:7250   */\n      slt\n        /* \"#utility.yul\":7215:7334   */\n      iszero\n      tag_302\n      jumpi\n        /* \"#utility.yul\":7253:7332   */\n      tag_303\n      tag_166\n      jump\t// in\n    tag_303:\n        /* \"#utility.yul\":7215:7334   */\n    tag_302:\n        /* \"#utility.yul\":7401:7402   */\n      0x00\n        /* \"#utility.yul\":7390:7399   */\n      dup3\n        /* \"#utility.yul\":7386:7403   */\n      add\n        /* \"#utility.yul\":7373:7404   */\n      calldataload\n        /* \"#utility.yul\":7431:7449   */\n      0xffffffffffffffff\n        /* \"#utility.yul\":7423:7429   */\n      dup2\n        /* \"#utility.yul\":7420:7450   */\n      gt\n        /* \"#utility.yul\":7417:7534   */\n      iszero\n      tag_304\n      jumpi\n        /* \"#utility.yul\":7453:7532   */\n      tag_305\n      tag_167\n      jump\t// in\n    tag_305:\n        /* \"#utility.yul\":7417:7534   */\n    tag_304:\n        /* \"#utility.yul\":7558:7621   */\n      tag_306\n        /* \"#utility.yul\":7613:7620   */\n      dup5\n        /* \"#utility.yul\":7604:7610   */\n      dup3\n        /* \"#utility.yul\":7593:7602   */\n      dup6\n        /* \"#utility.yul\":7589:7611   */\n      add\n        /* \"#utility.yul\":7558:7621   */\n      tag_183\n      jump\t// in\n    tag_306:\n        /* \"#utility.yul\":7548:7621   */\n      swap2\n      pop\n        /* \"#utility.yul\":7344:7631   */\n      pop\n        /* \"#utility.yul\":7129:7638   */\n      swap3\n      swap2\n      pop\n      pop\n      jump\t// out\n        /* \"#utility.yul\":7644:7786   */\n    tag_184:\n        /* \"#utility.yul\":7747:7779   */\n      tag_308\n        /* \"#utility.yul\":7773:7778   */\n      dup2\n        /* \"#utility.yul\":7747:7779   */\n      tag_173\n      jump\t// in\n    tag_308:\n        /* \"#utility.yul\":7742:7745   */\n      dup3\n        /* \"#utility.yul\":7735:7780   */\n      mstore\n        /* \"#utility.yul\":7644:7786   */\n      pop\n      pop\n      jump\t// out\n        /* \"#utility.yul\":7792:9256   */\n    tag_30:\n        /* \"#utility.yul\":8189:8193   */\n      0x00\n        /* \"#utility.yul\":8227:8230   */\n      0xe0\n        /* \"#utility.yul\":8216:8225   */\n      dup3\n        /* \"#utility.yul\":8212:8231   */\n      add\n        /* \"#utility.yul\":8204:8231   */\n      swap1\n      pop\n        /* \"#utility.yul\":8277:8286   */\n      dup2\n        /* \"#utility.yul\":8271:8275   */\n      dup2\n        /* \"#utility.yul\":8267:8287   */\n      sub\n        /* \"#utility.yul\":8263:8264   */\n      0x00\n        /* \"#utility.yul\":8252:8261   */\n      dup4\n        /* \"#utility.yul\":8248:8265   */\n      add\n        /* \"#utility.yul\":8241:8288   */\n      mstore\n        /* \"#utility.yul\":8305:8383   */\n      tag_310\n        /* \"#utility.yul\":8378:8382   */\n      dup2\n        /* \"#utility.yul\":8369:8375   */\n      dup11\n        /* \"#utility.yul\":8305:8383   */\n      tag_164\n      jump\t// in\n    tag_310:\n        /* \"#utility.yul\":8297:8383   */\n      swap1\n      pop\n        /* \"#utility.yul\":8393:8481   */\n      tag_311\n        /* \"#utility.yul\":8477:8479   */\n      0x20\n        /* \"#utility.yul\":8466:8475   */\n      dup4\n        /* \"#utility.yul\":8462:8480   */\n      add\n        /* \"#utility.yul\":8453:8459   */\n      dup10\n        /* \"#utility.yul\":8393:8481   */\n      tag_184\n      jump\t// in\n    tag_311:\n        /* \"#utility.yul\":8528:8537   */\n      dup2\n        /* \"#utility.yul\":8522:8526   */\n      dup2\n        /* \"#utility.yul\":8518:8538   */\n      sub\n        /* \"#utility.yul\":8513:8515   */\n      0x40\n        /* \"#utility.yul\":8502:8511   */\n      dup4\n        /* \"#utility.yul\":8498:8516   */\n      add\n        /* \"#utility.yul\":8491:8539   */\n      mstore\n        /* \"#utility.yul\":8556:8634   */\n      tag_312\n        /* \"#utility.yul\":8629:8633   */\n      dup2\n        /* \"#utility.yul\":8620:8626   */\n      dup9\n        /* \"#utility.yul\":8556:8634   */\n      tag_164\n      jump\t// in\n    tag_312:\n        /* \"#utility.yul\":8548:8634   */\n      swap1\n      pop\n        /* \"#utility.yul\":8681:8690   */\n      dup2\n        /* \"#utility.yul\":8675:8679   */\n      dup2\n        /* \"#utility.yul\":8671:8691   */\n      sub\n        /* \"#utility.yul\":8666:8668   */\n      0x60\n        /* \"#utility.yul\":8655:8664   */\n      dup4\n        /* \"#utility.yul\":8651:8669   */\n      add\n        /* \"#utility.yul\":8644:8692   */\n      mstore\n        /* \"#utility.yul\":8709:8787   */\n      tag_313\n        /* \"#utility.yul\":8782:8786   */\n      dup2\n        /* \"#utility.yul\":8773:8779   */\n      dup8\n        /* \"#utility.yul\":8709:8787   */\n      tag_164\n      jump\t// in\n    tag_313:\n        /* \"#utility.yul\":8701:8787   */\n      swap1\n      pop\n        /* \"#utility.yul\":8835:8844   */\n      dup2\n        /* \"#utility.yul\":8829:8833   */\n      dup2\n        /* \"#utility.yul\":8825:8845   */\n      sub\n        /* \"#utility.yul\":8819:8822   */\n      0x80\n        /* \"#utility.yul\":8808:8817   */\n      dup4\n        /* \"#utility.yul\":8804:8823   */\n      add\n        /* \"#utility.yul\":8797:8846   */\n      mstore\n        /* \"#utility.yul\":8863:8941   */\n      tag_314\n        /* \"#utility.yul\":8936:8940   */\n      dup2\n        /* \"#utility.yul\":8927:8933   */\n      dup7\n        /* \"#utility.yul\":8863:8941   */\n      tag_164\n      jump\t// in\n    tag_314:\n        /* \"#utility.yul\":8855:8941   */\n      swap1\n      pop\n        /* \"#utility.yul\":8989:8998   */\n      dup2\n        /* \"#utility.yul\":8983:8987   */\n      dup2\n        /* \"#utility.yul\":8979:8999   */\n      sub\n        /* \"#utility.yul\":8973:8976   */\n      0xa0\n        /* \"#utility.yul\":8962:8971   */\n      dup4\n        /* \"#utility.yul\":8958:8977   */\n      add\n        /* \"#utility.yul\":8951:9000   */\n      mstore\n        /* \"#utility.yul\":9017:9095   */\n      tag_315\n        /* \"#utility.yul\":9090:9094   */\n      dup2\n        /* \"#utility.yul\":9081:9087   */\n      dup6\n        /* \"#utility.yul\":9017:9095   */\n      tag_164\n      jump\t// in\n    tag_315:\n        /* \"#utility.yul\":9009:9095   */\n      swap1\n      pop\n        /* \"#utility.yul\":9143:9152   */\n      dup2\n        /* \"#utility.yul\":9137:9141   */\n      dup2\n        /* \"#utility.yul\":9133:9153   */\n      sub\n        /* \"#utility.yul\":9127:9130   */\n      0xc0\n        /* \"#utility.yul\":9116:9125   */\n      dup4\n        /* \"#utility.yul\":9112:9131   */\n      add\n        /* \"#utility.yul\":9105:9154   */\n      mstore\n        /* \"#utility.yul\":9171:9249   */\n      tag_316\n        /* \"#utility.yul\":9244:9248   */\n      dup2\n        /* \"#utility.yul\":9235:9241   */\n      dup5\n        /* \"#utility.yul\":9171:9249   */\n      tag_164\n      jump\t// in\n    tag_316:\n        /* \"#utility.yul\":9163:9249   */\n      swap1\n      pop\n        /* \"#utility.yul\":7792:9256   */\n      swap9\n      swap8\n      pop\n      pop\n      pop\n      pop\n      pop\n      pop\n      pop\n      pop\n      jump\t// out\n        /* \"#utility.yul\":9262:9516   */\n    tag_35:\n        /* \"#utility.yul\":9371:9375   */\n      0x00\n        /* \"#utility.yul\":9409:9411   */\n      0x20\n        /* \"#utility.yul\":9398:9407   */\n      dup3\n        /* \"#utility.yul\":9394:9412   */\n      add\n        /* \"#utility.yul\":9386:9412   */\n      swap1\n      pop\n        /* \"#utility.yul\":9422:9509   */\n      tag_318\n        /* \"#utility.yul\":9506:9507   */\n      0x00\n        /* \"#utility.yul\":9495:9504   */\n      dup4\n        /* \"#utility.yul\":9491:9508   */\n      add\n        /* \"#utility.yul\":9482:9488   */\n      dup5\n        /* \"#utility.yul\":9422:9509   */\n      tag_184\n      jump\t// in\n    tag_318:\n        /* \"#utility.yul\":9262:9516   */\n      swap3\n      swap2\n      pop\n      pop\n      jump\t// out\n        /* \"#utility.yul\":9522:9599   */\n    tag_185:\n        /* \"#utility.yul\":9559:9566   */\n      0x00\n        /* \"#utility.yul\":9588:9593   */\n      dup2\n        /* \"#utility.yul\":9577:9593   */\n      swap1\n      pop\n        /* \"#utility.yul\":9522:9599   */\n      swap2\n      swap1\n      pop\n      jump\t// out\n        /* \"#utility.yul\":9605:9727   */\n    tag_186:\n        /* \"#utility.yul\":9678:9702   */\n      tag_321\n        /* \"#utility.yul\":9696:9701   */\n      dup2\n        /* \"#utility.yul\":9678:9702   */\n      tag_185\n      jump\t// in\n    tag_321:\n        /* \"#utility.yul\":9671:9676   */\n      dup2\n        /* \"#utility.yul\":9668:9703   */\n      eq\n        /* \"#utility.yul\":9658:9721   */\n      tag_322\n      jumpi\n        /* \"#utility.yul\":9717:9718   */\n      0x00\n        /* \"#utility.yul\":9714:9715   */\n      dup1\n        /* \"#utility.yul\":9707:9719   */\n      revert\n        /* \"#utility.yul\":9658:9721   */\n    tag_322:\n        /* \"#utility.yul\":9605:9727   */\n      pop\n      jump\t// out\n        /* \"#utility.yul\":9733:9872   */\n    tag_187:\n        /* \"#utility.yul\":9779:9784   */\n      0x00\n        /* \"#utility.yul\":9817:9823   */\n      dup2\n        /* \"#utility.yul\":9804:9824   */\n      calldataload\n        /* \"#utility.yul\":9795:9824   */\n      swap1\n      pop\n        /* \"#utility.yul\":9833:9866   */\n      tag_324\n        /* \"#utility.yul\":9860:9865   */\n      dup2\n        /* \"#utility.yul\":9833:9866   */\n      tag_186\n      jump\t// in\n    tag_324:\n        /* \"#utility.yul\":9733:9872   */\n      swap3\n      swap2\n      pop\n      pop\n      jump\t// out\n        /* \"#utility.yul\":9878:10207   */\n    tag_39:\n        /* \"#utility.yul\":9937:9943   */\n      0x00\n        /* \"#utility.yul\":9986:9988   */\n      0x20\n        /* \"#utility.yul\":9974:9983   */\n      dup3\n        /* \"#utility.yul\":9965:9972   */\n      dup5\n        /* \"#utility.yul\":9961:9984   */\n      sub\n        /* \"#utility.yul\":9957:9989   */\n      slt\n        /* \"#utility.yul\":9954:10073   */\n      iszero\n      tag_326\n      jumpi\n        /* \"#utility.yul\":9992:10071   */\n      tag_327\n      tag_166\n      jump\t// in\n    tag_327:\n        /* \"#utility.yul\":9954:10073   */\n    tag_326:\n        /* \"#utility.yul\":10112:10113   */\n      0x00\n        /* \"#utility.yul\":10137:10190   */\n      tag_328\n        /* \"#utility.yul\":10182:10189   */\n      dup5\n        /* \"#utility.yul\":10173:10179   */\n      dup3\n        /* \"#utility.yul\":10162:10171   */\n      dup6\n        /* \"#utility.yul\":10158:10180   */\n      add\n        /* \"#utility.yul\":10137:10190   */\n      tag_187\n      jump\t// in\n    tag_328:\n        /* \"#utility.yul\":10127:10190   */\n      swap2\n      pop\n        /* \"#utility.yul\":10083:10200   */\n      pop\n        /* \"#utility.yul\":9878:10207   */\n      swap3\n      swap2\n      pop\n      pop\n      jump\t// out\n        /* \"#utility.yul\":10213:10534   */\n    tag_188:\n        /* \"#utility.yul\":10300:10304   */\n      0x00\n        /* \"#utility.yul\":10390:10408   */\n      0xffffffffffffffff\n        /* \"#utility.yul\":10382:10388   */\n      dup3\n        /* \"#utility.yul\":10379:10409   */\n      gt\n        /* \"#utility.yul\":10376:10432   */\n      iszero\n      tag_330\n      jumpi\n        /* \"#utility.yul\":10412:10430   */\n      tag_331\n      tag_177\n      jump\t// in\n    tag_331:\n        /* \"#utility.yul\":10376:10432   */\n    tag_330:\n        /* \"#utility.yul\":10462:10466   */\n      0x20\n        /* \"#utility.yul\":10454:10460   */\n      dup3\n        /* \"#utility.yul\":10450:10467   */\n      mul\n        /* \"#utility.yul\":10442:10467   */\n      swap1\n      pop\n        /* \"#utility.yul\":10522:10526   */\n      0x20\n        /* \"#utility.yul\":10516:10520   */\n      dup2\n        /* \"#utility.yul\":10512:10527   */\n      add\n        /* \"#utility.yul\":10504:10527   */\n      swap1\n      pop\n        /* \"#utility.yul\":10213:10534   */\n      swap2\n      swap1\n      pop\n      jump\t// out\n        /* \"#utility.yul\":10556:11501   */\n    tag_189:\n        /* \"#utility.yul\":10662:10667   */\n      0x00\n        /* \"#utility.yul\":10687:10778   */\n      tag_333\n        /* \"#utility.yul\":10703:10777   */\n      tag_334\n        /* \"#utility.yul\":10770:10776   */\n      dup5\n        /* \"#utility.yul\":10703:10777   */\n      tag_188\n      jump\t// in\n    tag_334:\n        /* \"#utility.yul\":10687:10778   */\n      tag_179\n      jump\t// in\n    tag_333:\n        /* \"#utility.yul\":10678:10778   */\n      swap1\n      pop\n        /* \"#utility.yul\":10798:10803   */\n      dup1\n        /* \"#utility.yul\":10827:10833   */\n      dup4\n        /* \"#utility.yul\":10820:10825   */\n      dup3\n        /* \"#utility.yul\":10813:10834   */\n      mstore\n        /* \"#utility.yul\":10861:10865   */\n      0x20\n        /* \"#utility.yul\":10854:10859   */\n      dup3\n        /* \"#utility.yul\":10850:10866   */\n      add\n        /* \"#utility.yul\":10843:10866   */\n      swap1\n      pop\n        /* \"#utility.yul\":10914:10918   */\n      0x20\n        /* \"#utility.yul\":10906:10912   */\n      dup5\n        /* \"#utility.yul\":10902:10919   */\n      mul\n        /* \"#utility.yul\":10894:10900   */\n      dup4\n        /* \"#utility.yul\":10890:10920   */\n      add\n        /* \"#utility.yul\":10943:10946   */\n      dup6\n        /* \"#utility.yul\":10935:10941   */\n      dup2\n        /* \"#utility.yul\":10932:10947   */\n      gt\n        /* \"#utility.yul\":10929:11051   */\n      iszero\n      tag_335\n      jumpi\n        /* \"#utility.yul\":10962:11041   */\n      tag_336\n      tag_170\n      jump\t// in\n    tag_336:\n        /* \"#utility.yul\":10929:11051   */\n    tag_335:\n        /* \"#utility.yul\":11077:11083   */\n      dup4\n        /* \"#utility.yul\":11060:11495   */\n    tag_337:\n        /* \"#utility.yul\":11094:11100   */\n      dup2\n        /* \"#utility.yul\":11089:11092   */\n      dup2\n        /* \"#utility.yul\":11086:11101   */\n      lt\n        /* \"#utility.yul\":11060:11495   */\n      iszero\n      tag_339\n      jumpi\n        /* \"#utility.yul\":11183:11186   */\n      dup1\n        /* \"#utility.yul\":11170:11187   */\n      calldataload\n        /* \"#utility.yul\":11219:11237   */\n      0xffffffffffffffff\n        /* \"#utility.yul\":11206:11217   */\n      dup2\n        /* \"#utility.yul\":11203:11238   */\n      gt\n        /* \"#utility.yul\":11200:11322   */\n      iszero\n      tag_340\n      jumpi\n        /* \"#utility.yul\":11241:11320   */\n      tag_341\n      tag_168\n      jump\t// in\n    tag_341:\n        /* \"#utility.yul\":11200:11322   */\n    tag_340:\n        /* \"#utility.yul\":11365:11376   */\n      dup1\n        /* \"#utility.yul\":11357:11363   */\n      dup7\n        /* \"#utility.yul\":11353:11377   */\n      add\n        /* \"#utility.yul\":11403:11450   */\n      tag_342\n        /* \"#utility.yul\":11446:11449   */\n      dup10\n        /* \"#utility.yul\":11434:11444   */\n      dup3\n        /* \"#utility.yul\":11403:11450   */\n      tag_183\n      jump\t// in\n    tag_342:\n        /* \"#utility.yul\":11398:11401   */\n      dup6\n        /* \"#utility.yul\":11391:11451   */\n      mstore\n        /* \"#utility.yul\":11480:11484   */\n      0x20\n        /* \"#utility.yul\":11475:11478   */\n      dup6\n        /* \"#utility.yul\":11471:11485   */\n      add\n        /* \"#utility.yul\":11464:11485   */\n      swap5\n      pop\n        /* \"#utility.yul\":11136:11495   */\n      pop\n      pop\n        /* \"#utility.yul\":11120:11124   */\n      0x20\n        /* \"#utility.yul\":11115:11118   */\n      dup2\n        /* \"#utility.yul\":11111:11125   */\n      add\n        /* \"#utility.yul\":11104:11125   */\n      swap1\n      pop\n        /* \"#utility.yul\":11060:11495   */\n      jump(tag_337)\n    tag_339:\n        /* \"#utility.yul\":11064:11085   */\n      pop\n        /* \"#utility.yul\":10668:11501   */\n      pop\n      pop\n        /* \"#utility.yul\":10556:11501   */\n      swap4\n      swap3\n      pop\n      pop\n      pop\n      jump\t// out\n        /* \"#utility.yul\":11523:11913   */\n    tag_190:\n        /* \"#utility.yul\":11604:11609   */\n      0x00\n        /* \"#utility.yul\":11653:11656   */\n      dup3\n        /* \"#utility.yul\":11646:11650   */\n      0x1f\n        /* \"#utility.yul\":11638:11644   */\n      dup4\n        /* \"#utility.yul\":11634:11651   */\n      add\n        /* \"#utility.yul\":11630:11657   */\n      slt\n        /* \"#utility.yul\":11620:11742   */\n      tag_344\n      jumpi\n        /* \"#utility.yul\":11661:11740   */\n      tag_345\n      tag_168\n      jump\t// in\n    tag_345:\n        /* \"#utility.yul\":11620:11742   */\n    tag_344:\n        /* \"#utility.yul\":11778:11784   */\n      dup2\n        /* \"#utility.yul\":11765:11785   */\n      calldataload\n        /* \"#utility.yul\":11803:11907   */\n      tag_346\n        /* \"#utility.yul\":11903:11906   */\n      dup5\n        /* \"#utility.yul\":11895:11901   */\n      dup3\n        /* \"#utility.yul\":11888:11892   */\n      0x20\n        /* \"#utility.yul\":11880:11886   */\n      dup7\n        /* \"#utility.yul\":11876:11893   */\n      add\n        /* \"#utility.yul\":11803:11907   */\n      tag_189\n      jump\t// in\n    tag_346:\n        /* \"#utility.yul\":11794:11907   */\n      swap2\n      pop\n        /* \"#utility.yul\":11610:11913   */\n      pop\n        /* \"#utility.yul\":11523:11913   */\n      swap3\n      swap2\n      pop\n      pop\n      jump\t// out\n        /* \"#utility.yul\":11919:12478   */\n    tag_49:\n        /* \"#utility.yul\":12013:12019   */\n      0x00\n        /* \"#utility.yul\":12062:12064   */\n      0x20\n        /* \"#utility.yul\":12050:12059   */\n      dup3\n        /* \"#utility.yul\":12041:12048   */\n      dup5\n        /* \"#utility.yul\":12037:12060   */\n      sub\n        /* \"#utility.yul\":12033:12065   */\n      slt\n        /* \"#utility.yul\":12030:12149   */\n      iszero\n      tag_348\n      jumpi\n        /* \"#utility.yul\":12068:12147   */\n      tag_349\n      tag_166\n      jump\t// in\n    tag_349:\n        /* \"#utility.yul\":12030:12149   */\n    tag_348:\n        /* \"#utility.yul\":12216:12217   */\n      0x00\n        /* \"#utility.yul\":12205:12214   */\n      dup3\n        /* \"#utility.yul\":12201:12218   */\n      add\n        /* \"#utility.yul\":12188:12219   */\n      calldataload\n        /* \"#utility.yul\":12246:12264   */\n      0xffffffffffffffff\n        /* \"#utility.yul\":12238:12244   */\n      dup2\n        /* \"#utility.yul\":12235:12265   */\n      gt\n        /* \"#utility.yul\":12232:12349   */\n      iszero\n      tag_350\n      jumpi\n        /* \"#utility.yul\":12268:12347   */\n      tag_351\n      tag_167\n      jump\t// in\n    tag_351:\n        /* \"#utility.yul\":12232:12349   */\n    tag_350:\n        /* \"#utility.yul\":12373:12461   */\n      tag_352\n        /* \"#utility.yul\":12453:12460   */\n      dup5\n        /* \"#utility.yul\":12444:12450   */\n      dup3\n        /* \"#utility.yul\":12433:12442   */\n      dup6\n        /* \"#utility.yul\":12429:12451   */\n      add\n        /* \"#utility.yul\":12373:12461   */\n      tag_190\n      jump\t// in\n    tag_352:\n        /* \"#utility.yul\":12363:12461   */\n      swap2\n      pop\n        /* \"#utility.yul\":12159:12471   */\n      pop\n        /* \"#utility.yul\":11919:12478   */\n      swap3\n      swap2\n      pop\n      pop\n      jump\t// out\n        /* \"#utility.yul\":12484:12664   */\n    tag_67:\n        /* \"#utility.yul\":12532:12609   */\n      0x4e487b7100000000000000000000000000000000000000000000000000000000\n        /* \"#utility.yul\":12529:12530   */\n      0x00\n        /* \"#utility.yul\":12522:12610   */\n      mstore\n        /* \"#utility.yul\":12629:12633   */\n      0x32\n        /* \"#utility.yul\":12626:12627   */\n      0x04\n        /* \"#utility.yul\":12619:12634   */\n      mstore\n        /* \"#utility.yul\":12653:12657   */\n      0x24\n        /* \"#utility.yul\":12650:12651   */\n      0x00\n        /* \"#utility.yul\":12643:12658   */\n      revert\n        /* \"#utility.yul\":12670:12850   */\n    tag_191:\n        /* \"#utility.yul\":12718:12795   */\n      0x4e487b7100000000000000000000000000000000000000000000000000000000\n        /* \"#utility.yul\":12715:12716   */\n      0x00\n        /* \"#utility.yul\":12708:12796   */\n      mstore\n        /* \"#utility.yul\":12815:12819   */\n      0x22\n        /* \"#utility.yul\":12812:12813   */\n      0x04\n        /* \"#utility.yul\":12805:12820   */\n      mstore\n        /* \"#utility.yul\":12839:12843   */\n      0x24\n        /* \"#utility.yul\":12836:12837   */\n      0x00\n        /* \"#utility.yul\":12829:12844   */\n      revert\n        /* \"#utility.yul\":12856:13176   */\n    tag_70:\n        /* \"#utility.yul\":12900:12906   */\n      0x00\n        /* \"#utility.yul\":12937:12938   */\n      0x02\n        /* \"#utility.yul\":12931:12935   */\n      dup3\n        /* \"#utility.yul\":12927:12939   */\n      div\n        /* \"#utility.yul\":12917:12939   */\n      swap1\n      pop\n        /* \"#utility.yul\":12984:12985   */\n      0x01\n        /* \"#utility.yul\":12978:12982   */\n      dup3\n        /* \"#utility.yul\":12974:12986   */\n      and\n        /* \"#utility.yul\":13005:13023   */\n      dup1\n        /* \"#utility.yul\":12995:13076   */\n      tag_356\n      jumpi\n        /* \"#utility.yul\":13061:13065   */\n      0x7f\n        /* \"#utility.yul\":13053:13059   */\n      dup3\n        /* \"#utility.yul\":13049:13066   */\n      and\n        /* \"#utility.yul\":13039:13066   */\n      swap2\n      pop\n        /* \"#utility.yul\":12995:13076   */\n    tag_356:\n        /* \"#utility.yul\":13123:13125   */\n      0x20\n        /* \"#utility.yul\":13115:13121   */\n      dup3\n        /* \"#utility.yul\":13112:13126   */\n      lt\n        /* \"#utility.yul\":13092:13110   */\n      dup2\n        /* \"#utility.yul\":13089:13127   */\n      sub\n        /* \"#utility.yul\":13086:13170   */\n      tag_357\n      jumpi\n        /* \"#utility.yul\":13142:13160   */\n      tag_358\n      tag_191\n      jump\t// in\n    tag_358:\n        /* \"#utility.yul\":13086:13170   */\n    tag_357:\n        /* \"#utility.yul\":12907:13176   */\n      pop\n        /* \"#utility.yul\":12856:13176   */\n      swap2\n      swap1\n      pop\n      jump\t// out\n        /* \"#utility.yul\":13182:13330   */\n    tag_192:\n        /* \"#utility.yul\":13284:13295   */\n      0x00\n        /* \"#utility.yul\":13321:13324   */\n      dup2\n        /* \"#utility.yul\":13306:13324   */\n      swap1\n      pop\n        /* \"#utility.yul\":13182:13330   */\n      swap3\n      swap2\n      pop\n      pop\n      jump\t// out\n        /* \"#utility.yul\":13336:13726   */\n    tag_193:\n        /* \"#utility.yul\":13442:13445   */\n      0x00\n        /* \"#utility.yul\":13470:13509   */\n      tag_361\n        /* \"#utility.yul\":13503:13508   */\n      dup3\n        /* \"#utility.yul\":13470:13509   */\n      tag_160\n      jump\t// in\n    tag_361:\n        /* \"#utility.yul\":13525:13614   */\n      tag_362\n        /* \"#utility.yul\":13607:13613   */\n      dup2\n        /* \"#utility.yul\":13602:13605   */\n      dup6\n        /* \"#utility.yul\":13525:13614   */\n      tag_192\n      jump\t// in\n    tag_362:\n        /* \"#utility.yul\":13518:13614   */\n      swap4\n      pop\n        /* \"#utility.yul\":13623:13688   */\n      tag_363\n        /* \"#utility.yul\":13681:13687   */\n      dup2\n        /* \"#utility.yul\":13676:13679   */\n      dup6\n        /* \"#utility.yul\":13669:13673   */\n      0x20\n        /* \"#utility.yul\":13662:13667   */\n      dup7\n        /* \"#utility.yul\":13658:13674   */\n      add\n        /* \"#utility.yul\":13623:13688   */\n      tag_162\n      jump\t// in\n    tag_363:\n        /* \"#utility.yul\":13713:13719   */\n      dup1\n        /* \"#utility.yul\":13708:13711   */\n      dup5\n        /* \"#utility.yul\":13704:13720   */\n      add\n        /* \"#utility.yul\":13697:13720   */\n      swap2\n      pop\n        /* \"#utility.yul\":13446:13726   */\n      pop\n        /* \"#utility.yul\":13336:13726   */\n      swap3\n      swap2\n      pop\n      pop\n      jump\t// out\n        /* \"#utility.yul\":13732:14007   */\n    tag_76:\n        /* \"#utility.yul\":13864:13867   */\n      0x00\n        /* \"#utility.yul\":13886:13981   */\n      tag_365\n        /* \"#utility.yul\":13977:13980   */\n      dup3\n        /* \"#utility.yul\":13968:13974   */\n      dup5\n        /* \"#utility.yul\":13886:13981   */\n      tag_193\n      jump\t// in\n    tag_365:\n        /* \"#utility.yul\":13879:13981   */\n      swap2\n      pop\n        /* \"#utility.yul\":13998:14001   */\n      dup2\n        /* \"#utility.yul\":13991:14001   */\n      swap1\n      pop\n        /* \"#utility.yul\":13732:14007   */\n      swap3\n      swap2\n      pop\n      pop\n      jump\t// out\n        /* \"#utility.yul\":14013:14215   */\n    tag_194:\n        /* \"#utility.yul\":14182:14208   */\n      0x506f6c6963793a2050617373656e676572204e616d653a200000000000000000\n        /* \"#utility.yul\":14177:14180   */\n      dup2\n        /* \"#utility.yul\":14170:14209   */\n      mstore\n        /* \"#utility.yul\":14013:14215   */\n      pop\n      jump\t// out\n        /* \"#utility.yul\":14221:14362   */\n    tag_195:\n        /* \"#utility.yul\":14270:14274   */\n      0x00\n        /* \"#utility.yul\":14293:14296   */\n      dup2\n        /* \"#utility.yul\":14285:14296   */\n      swap1\n      pop\n        /* \"#utility.yul\":14316:14319   */\n      dup2\n        /* \"#utility.yul\":14313:14314   */\n      0x00\n        /* \"#utility.yul\":14306:14320   */\n      mstore\n        /* \"#utility.yul\":14350:14354   */\n      0x20\n        /* \"#utility.yul\":14347:14348   */\n      0x00\n        /* \"#utility.yul\":14337:14355   */\n      keccak256\n        /* \"#utility.yul\":14329:14355   */\n      swap1\n      pop\n        /* \"#utility.yul\":14221:14362   */\n      swap2\n      swap1\n      pop\n      jump\t// out\n        /* \"#utility.yul\":14392:15266   */\n    tag_196:\n        /* \"#utility.yul\":14495:14498   */\n      0x00\n        /* \"#utility.yul\":14532:14537   */\n      dup2\n        /* \"#utility.yul\":14526:14538   */\n      sload\n        /* \"#utility.yul\":14561:14597   */\n      tag_369\n        /* \"#utility.yul\":14587:14596   */\n      dup2\n        /* \"#utility.yul\":14561:14597   */\n      tag_70\n      jump\t// in\n    tag_369:\n        /* \"#utility.yul\":14613:14702   */\n      tag_370\n        /* \"#utility.yul\":14695:14701   */\n      dup2\n        /* \"#utility.yul\":14690:14693   */\n      dup7\n        /* \"#utility.yul\":14613:14702   */\n      tag_192\n      jump\t// in\n    tag_370:\n        /* \"#utility.yul\":14606:14702   */\n      swap5\n      pop\n        /* \"#utility.yul\":14733:14734   */\n      0x01\n        /* \"#utility.yul\":14722:14731   */\n      dup3\n        /* \"#utility.yul\":14718:14735   */\n      and\n        /* \"#utility.yul\":14749:14750   */\n      0x00\n        /* \"#utility.yul\":14744:14910   */\n      dup2\n      eq\n      tag_372\n      jumpi\n        /* \"#utility.yul\":14924:14925   */\n      0x01\n        /* \"#utility.yul\":14919:15260   */\n      dup2\n      eq\n      tag_373\n      jumpi\n        /* \"#utility.yul\":14711:15260   */\n      jump(tag_371)\n        /* \"#utility.yul\":14744:14910   */\n    tag_372:\n        /* \"#utility.yul\":14828:14832   */\n      0xff\n        /* \"#utility.yul\":14824:14833   */\n      not\n        /* \"#utility.yul\":14813:14822   */\n      dup4\n        /* \"#utility.yul\":14809:14834   */\n      and\n        /* \"#utility.yul\":14804:14807   */\n      dup7\n        /* \"#utility.yul\":14797:14835   */\n      mstore\n        /* \"#utility.yul\":14890:14896   */\n      dup2\n        /* \"#utility.yul\":14883:14897   */\n      iszero\n        /* \"#utility.yul\":14876:14898   */\n      iszero\n        /* \"#utility.yul\":14868:14874   */\n      dup3\n        /* \"#utility.yul\":14864:14899   */\n      mul\n        /* \"#utility.yul\":14859:14862   */\n      dup7\n        /* \"#utility.yul\":14855:14900   */\n      add\n        /* \"#utility.yul\":14848:14900   */\n      swap4\n      pop\n        /* \"#utility.yul\":14744:14910   */\n      jump(tag_371)\n        /* \"#utility.yul\":14919:15260   */\n    tag_373:\n        /* \"#utility.yul\":14986:15024   */\n      tag_374\n        /* \"#utility.yul\":15018:15023   */\n      dup6\n        /* \"#utility.yul\":14986:15024   */\n      tag_195\n      jump\t// in\n    tag_374:\n        /* \"#utility.yul\":15046:15047   */\n      0x00\n        /* \"#utility.yul\":15060:15214   */\n    tag_375:\n        /* \"#utility.yul\":15074:15080   */\n      dup4\n        /* \"#utility.yul\":15071:15072   */\n      dup2\n        /* \"#utility.yul\":15068:15081   */\n      lt\n        /* \"#utility.yul\":15060:15214   */\n      iszero\n      tag_377\n      jumpi\n        /* \"#utility.yul\":15148:15155   */\n      dup2\n        /* \"#utility.yul\":15142:15156   */\n      sload\n        /* \"#utility.yul\":15138:15139   */\n      dup2\n        /* \"#utility.yul\":15133:15136   */\n      dup10\n        /* \"#utility.yul\":15129:15140   */\n      add\n        /* \"#utility.yul\":15122:15157   */\n      mstore\n        /* \"#utility.yul\":15198:15199   */\n      0x01\n        /* \"#utility.yul\":15189:15196   */\n      dup3\n        /* \"#utility.yul\":15185:15200   */\n      add\n        /* \"#utility.yul\":15174:15200   */\n      swap2\n      pop\n        /* \"#utility.yul\":15096:15100   */\n      0x20\n        /* \"#utility.yul\":15093:15094   */\n      dup2\n        /* \"#utility.yul\":15089:15101   */\n      add\n        /* \"#utility.yul\":15084:15101   */\n      swap1\n      pop\n        /* \"#utility.yul\":15060:15214   */\n      jump(tag_375)\n    tag_377:\n        /* \"#utility.yul\":15243:15249   */\n      dup4\n        /* \"#utility.yul\":15238:15241   */\n      dup9\n        /* \"#utility.yul\":15234:15250   */\n      add\n        /* \"#utility.yul\":15227:15250   */\n      swap6\n      pop\n        /* \"#utility.yul\":14926:15260   */\n      pop\n      pop\n        /* \"#utility.yul\":14711:15260   */\n    tag_371:\n      pop\n        /* \"#utility.yul\":14499:15266   */\n      pop\n      pop\n        /* \"#utility.yul\":14392:15266   */\n      swap3\n      swap2\n      pop\n      pop\n      jump\t// out\n        /* \"#utility.yul\":15272:15466   */\n    tag_197:\n        /* \"#utility.yul\":15441:15459   */\n      0x20466c69676874204e756d6265723a2000000000000000000000000000000000\n        /* \"#utility.yul\":15436:15439   */\n      dup2\n        /* \"#utility.yul\":15429:15460   */\n      mstore\n        /* \"#utility.yul\":15272:15466   */\n      pop\n      jump\t// out\n        /* \"#utility.yul\":15472:15664   */\n    tag_198:\n        /* \"#utility.yul\":15641:15657   */\n      0x20466c6967687420646174653a20000000000000000000000000000000000000\n        /* \"#utility.yul\":15636:15639   */\n      dup2\n        /* \"#utility.yul\":15629:15658   */\n      mstore\n        /* \"#utility.yul\":15472:15664   */\n      pop\n      jump\t// out\n        /* \"#utility.yul\":15670:15865   */\n    tag_199:\n        /* \"#utility.yul\":15839:15858   */\n      0x2044657061727475726520636974793a20000000000000000000000000000000\n        /* \"#utility.yul\":15834:15837   */\n      dup2\n        /* \"#utility.yul\":15827:15859   */\n      mstore\n        /* \"#utility.yul\":15670:15865   */\n      pop\n      jump\t// out\n        /* \"#utility.yul\":15871:16068   */\n    tag_200:\n        /* \"#utility.yul\":16040:16061   */\n      0x2044657374696e6174696f6e20636974793a2000000000000000000000000000\n        /* \"#utility.yul\":16035:16038   */\n      dup2\n        /* \"#utility.yul\":16028:16062   */\n      mstore\n        /* \"#utility.yul\":15871:16068   */\n      pop\n      jump\t// out\n        /* \"#utility.yul\":16074:16260   */\n    tag_201:\n        /* \"#utility.yul\":16242:16253   */\n      0x205374617475733a200000000000000000000000000000000000000000000000\n        /* \"#utility.yul\":16237:16240   */\n      dup2\n        /* \"#utility.yul\":16230:16254   */\n      mstore\n        /* \"#utility.yul\":16074:16260   */\n      pop\n      jump\t// out\n        /* \"#utility.yul\":16266:16507   */\n    tag_202:\n        /* \"#utility.yul\":16434:16500   */\n      0x0a00000000000000000000000000000000000000000000000000000000000000\n        /* \"#utility.yul\":16429:16432   */\n      dup2\n        /* \"#utility.yul\":16422:16501   */\n      mstore\n        /* \"#utility.yul\":16266:16507   */\n      pop\n      jump\t// out\n        /* \"#utility.yul\":16513:19575   */\n    tag_83:\n        /* \"#utility.yul\":17550:17553   */\n      0x00\n        /* \"#utility.yul\":17572:17667   */\n      tag_385\n        /* \"#utility.yul\":17663:17666   */\n      dup3\n        /* \"#utility.yul\":17654:17660   */\n      dup11\n        /* \"#utility.yul\":17572:17667   */\n      tag_193\n      jump\t// in\n    tag_385:\n        /* \"#utility.yul\":17565:17667   */\n      swap2\n      pop\n        /* \"#utility.yul\":17677:17815   */\n      tag_386\n        /* \"#utility.yul\":17811:17814   */\n      dup3\n        /* \"#utility.yul\":17677:17815   */\n      tag_194\n      jump\t// in\n    tag_386:\n        /* \"#utility.yul\":17840:17842   */\n      0x18\n        /* \"#utility.yul\":17835:17838   */\n      dup3\n        /* \"#utility.yul\":17831:17843   */\n      add\n        /* \"#utility.yul\":17824:17843   */\n      swap2\n      pop\n        /* \"#utility.yul\":17860:17952   */\n      tag_387\n        /* \"#utility.yul\":17948:17951   */\n      dup3\n        /* \"#utility.yul\":17939:17945   */\n      dup10\n        /* \"#utility.yul\":17860:17952   */\n      tag_196\n      jump\t// in\n    tag_387:\n        /* \"#utility.yul\":17853:17952   */\n      swap2\n      pop\n        /* \"#utility.yul\":17962:18100   */\n      tag_388\n        /* \"#utility.yul\":18096:18099   */\n      dup3\n        /* \"#utility.yul\":17962:18100   */\n      tag_197\n      jump\t// in\n    tag_388:\n        /* \"#utility.yul\":18125:18127   */\n      0x10\n        /* \"#utility.yul\":18120:18123   */\n      dup3\n        /* \"#utility.yul\":18116:18128   */\n      add\n        /* \"#utility.yul\":18109:18128   */\n      swap2\n      pop\n        /* \"#utility.yul\":18145:18237   */\n      tag_389\n        /* \"#utility.yul\":18233:18236   */\n      dup3\n        /* \"#utility.yul\":18224:18230   */\n      dup9\n        /* \"#utility.yul\":18145:18237   */\n      tag_196\n      jump\t// in\n    tag_389:\n        /* \"#utility.yul\":18138:18237   */\n      swap2\n      pop\n        /* \"#utility.yul\":18247:18385   */\n      tag_390\n        /* \"#utility.yul\":18381:18384   */\n      dup3\n        /* \"#utility.yul\":18247:18385   */\n      tag_198\n      jump\t// in\n    tag_390:\n        /* \"#utility.yul\":18410:18412   */\n      0x0e\n        /* \"#utility.yul\":18405:18408   */\n      dup3\n        /* \"#utility.yul\":18401:18413   */\n      add\n        /* \"#utility.yul\":18394:18413   */\n      swap2\n      pop\n        /* \"#utility.yul\":18430:18522   */\n      tag_391\n        /* \"#utility.yul\":18518:18521   */\n      dup3\n        /* \"#utility.yul\":18509:18515   */\n      dup8\n        /* \"#utility.yul\":18430:18522   */\n      tag_196\n      jump\t// in\n    tag_391:\n        /* \"#utility.yul\":18423:18522   */\n      swap2\n      pop\n        /* \"#utility.yul\":18532:18670   */\n      tag_392\n        /* \"#utility.yul\":18666:18669   */\n      dup3\n        /* \"#utility.yul\":18532:18670   */\n      tag_199\n      jump\t// in\n    tag_392:\n        /* \"#utility.yul\":18695:18697   */\n      0x11\n        /* \"#utility.yul\":18690:18693   */\n      dup3\n        /* \"#utility.yul\":18686:18698   */\n      add\n        /* \"#utility.yul\":18679:18698   */\n      swap2\n      pop\n        /* \"#utility.yul\":18715:18807   */\n      tag_393\n        /* \"#utility.yul\":18803:18806   */\n      dup3\n        /* \"#utility.yul\":18794:18800   */\n      dup7\n        /* \"#utility.yul\":18715:18807   */\n      tag_196\n      jump\t// in\n    tag_393:\n        /* \"#utility.yul\":18708:18807   */\n      swap2\n      pop\n        /* \"#utility.yul\":18817:18955   */\n      tag_394\n        /* \"#utility.yul\":18951:18954   */\n      dup3\n        /* \"#utility.yul\":18817:18955   */\n      tag_200\n      jump\t// in\n    tag_394:\n        /* \"#utility.yul\":18980:18982   */\n      0x13\n        /* \"#utility.yul\":18975:18978   */\n      dup3\n        /* \"#utility.yul\":18971:18983   */\n      add\n        /* \"#utility.yul\":18964:18983   */\n      swap2\n      pop\n        /* \"#utility.yul\":19000:19092   */\n      tag_395\n        /* \"#utility.yul\":19088:19091   */\n      dup3\n        /* \"#utility.yul\":19079:19085   */\n      dup6\n        /* \"#utility.yul\":19000:19092   */\n      tag_196\n      jump\t// in\n    tag_395:\n        /* \"#utility.yul\":18993:19092   */\n      swap2\n      pop\n        /* \"#utility.yul\":19102:19239   */\n      tag_396\n        /* \"#utility.yul\":19235:19238   */\n      dup3\n        /* \"#utility.yul\":19102:19239   */\n      tag_201\n      jump\t// in\n    tag_396:\n        /* \"#utility.yul\":19264:19265   */\n      0x09\n        /* \"#utility.yul\":19259:19262   */\n      dup3\n        /* \"#utility.yul\":19255:19266   */\n      add\n        /* \"#utility.yul\":19248:19266   */\n      swap2\n      pop\n        /* \"#utility.yul\":19283:19375   */\n      tag_397\n        /* \"#utility.yul\":19371:19374   */\n      dup3\n        /* \"#utility.yul\":19362:19368   */\n      dup5\n        /* \"#utility.yul\":19283:19375   */\n      tag_196\n      jump\t// in\n    tag_397:\n        /* \"#utility.yul\":19276:19375   */\n      swap2\n      pop\n        /* \"#utility.yul\":19385:19522   */\n      tag_398\n        /* \"#utility.yul\":19518:19521   */\n      dup3\n        /* \"#utility.yul\":19385:19522   */\n      tag_202\n      jump\t// in\n    tag_398:\n        /* \"#utility.yul\":19547:19548   */\n      0x01\n        /* \"#utility.yul\":19542:19545   */\n      dup3\n        /* \"#utility.yul\":19538:19549   */\n      add\n        /* \"#utility.yul\":19531:19549   */\n      swap2\n      pop\n        /* \"#utility.yul\":19566:19569   */\n      dup2\n        /* \"#utility.yul\":19559:19569   */\n      swap1\n      pop\n        /* \"#utility.yul\":16513:19575   */\n      swap9\n      swap8\n      pop\n      pop\n      pop\n      pop\n      pop\n      pop\n      pop\n      pop\n      jump\t// out\n        /* \"#utility.yul\":19605:19935   */\n    tag_203:\n        /* \"#utility.yul\":19721:19724   */\n      0x00\n        /* \"#utility.yul\":19742:19831   */\n      tag_400\n        /* \"#utility.yul\":19824:19830   */\n      dup4\n        /* \"#utility.yul\":19819:19822   */\n      dup6\n        /* \"#utility.yul\":19742:19831   */\n      tag_192\n      jump\t// in\n    tag_400:\n        /* \"#utility.yul\":19735:19831   */\n      swap4\n      pop\n        /* \"#utility.yul\":19841:19897   */\n      tag_401\n        /* \"#utility.yul\":19890:19896   */\n      dup4\n        /* \"#utility.yul\":19885:19888   */\n      dup6\n        /* \"#utility.yul\":19878:19883   */\n      dup5\n        /* \"#utility.yul\":19841:19897   */\n      tag_181\n      jump\t// in\n    tag_401:\n        /* \"#utility.yul\":19922:19928   */\n      dup3\n        /* \"#utility.yul\":19917:19920   */\n      dup5\n        /* \"#utility.yul\":19913:19929   */\n      add\n        /* \"#utility.yul\":19906:19929   */\n      swap1\n      pop\n        /* \"#utility.yul\":19605:19935   */\n      swap4\n      swap3\n      pop\n      pop\n      pop\n      jump\t// out\n        /* \"#utility.yul\":19941:20236   */\n    tag_88:\n        /* \"#utility.yul\":20083:20086   */\n      0x00\n        /* \"#utility.yul\":20105:20210   */\n      tag_403\n        /* \"#utility.yul\":20206:20209   */\n      dup3\n        /* \"#utility.yul\":20197:20203   */\n      dup5\n        /* \"#utility.yul\":20189:20195   */\n      dup7\n        /* \"#utility.yul\":20105:20210   */\n      tag_203\n      jump\t// in\n    tag_403:\n        /* \"#utility.yul\":20098:20210   */\n      swap2\n      pop\n        /* \"#utility.yul\":20227:20230   */\n      dup2\n        /* \"#utility.yul\":20220:20230   */\n      swap1\n      pop\n        /* \"#utility.yul\":19941:20236   */\n      swap4\n      swap3\n      pop\n      pop\n      pop\n      jump\t// out\n        /* \"#utility.yul\":20242:20335   */\n    tag_204:\n        /* \"#utility.yul\":20279:20285   */\n      0x00\n        /* \"#utility.yul\":20326:20328   */\n      0x20\n        /* \"#utility.yul\":20321:20323   */\n      0x1f\n        /* \"#utility.yul\":20314:20319   */\n      dup4\n        /* \"#utility.yul\":20310:20324   */\n      add\n        /* \"#utility.yul\":20306:20329   */\n      div\n        /* \"#utility.yul\":20296:20329   */\n      swap1\n      pop\n        /* \"#utility.yul\":20242:20335   */\n      swap2\n      swap1\n      pop\n      jump\t// out\n        /* \"#utility.yul\":20341:20448   */\n    tag_205:\n        /* \"#utility.yul\":20385:20393   */\n      0x00\n        /* \"#utility.yul\":20435:20440   */\n      dup3\n        /* \"#utility.yul\":20429:20433   */\n      dup3\n        /* \"#utility.yul\":20425:20441   */\n      shl\n        /* \"#utility.yul\":20404:20441   */\n      swap1\n      pop\n        /* \"#utility.yul\":20341:20448   */\n      swap3\n      swap2\n      pop\n      pop\n      jump\t// out\n        /* \"#utility.yul\":20454:20847   */\n    tag_206:\n        /* \"#utility.yul\":20523:20529   */\n      0x00\n        /* \"#utility.yul\":20573:20574   */\n      0x08\n        /* \"#utility.yul\":20561:20571   */\n      dup4\n        /* \"#utility.yul\":20557:20575   */\n      mul\n        /* \"#utility.yul\":20596:20693   */\n      tag_407\n        /* \"#utility.yul\":20626:20692   */\n      0xffffffffffffffffffffffffffffffffffffffffffffffffffffffffffffffff\n        /* \"#utility.yul\":20615:20624   */\n      dup3\n        /* \"#utility.yul\":20596:20693   */\n      tag_205\n      jump\t// in\n    tag_407:\n        /* \"#utility.yul\":20714:20753   */\n      tag_408\n        /* \"#utility.yul\":20744:20752   */\n      dup7\n        /* \"#utility.yul\":20733:20742   */\n      dup4\n        /* \"#utility.yul\":20714:20753   */\n      tag_205\n      jump\t// in\n    tag_408:\n        /* \"#utility.yul\":20702:20753   */\n      swap6\n      pop\n        /* \"#utility.yul\":20786:20790   */\n      dup1\n        /* \"#utility.yul\":20782:20791   */\n      not\n        /* \"#utility.yul\":20775:20780   */\n      dup5\n        /* \"#utility.yul\":20771:20792   */\n      and\n        /* \"#utility.yul\":20762:20792   */\n      swap4\n      pop\n        /* \"#utility.yul\":20835:20839   */\n      dup1\n        /* \"#utility.yul\":20825:20833   */\n      dup7\n        /* \"#utility.yul\":20821:20840   */\n      and\n        /* \"#utility.yul\":20814:20819   */\n      dup5\n        /* \"#utility.yul\":20811:20841   */\n      or\n        /* \"#utility.yul\":20801:20841   */\n      swap3\n      pop\n        /* \"#utility.yul\":20530:20847   */\n      pop\n      pop\n        /* \"#utility.yul\":20454:20847   */\n      swap4\n      swap3\n      pop\n      pop\n      pop\n      jump\t// out\n        /* \"#utility.yul\":20853:20913   */\n    tag_207:\n        /* \"#utility.yul\":20881:20884   */\n      0x00\n        /* \"#utility.yul\":20902:20907   */\n      dup2\n        /* \"#utility.yul\":20895:20907   */\n      swap1\n      pop\n        /* \"#utility.yul\":20853:20913   */\n      swap2\n      swap1\n      pop\n      jump\t// out\n        /* \"#utility.yul\":20919:21061   */\n    tag_208:\n        /* \"#utility.yul\":20969:20978   */\n      0x00\n        /* \"#utility.yul\":21002:21055   */\n      tag_411\n        /* \"#utility.yul\":21020:21054   */\n      tag_412\n        /* \"#utility.yul\":21029:21053   */\n      tag_413\n        /* \"#utility.yul\":21047:21052   */\n      dup5\n        /* \"#utility.yul\":21029:21053   */\n      tag_185\n      jump\t// in\n    tag_413:\n        /* \"#utility.yul\":21020:21054   */\n      tag_207\n      jump\t// in\n    tag_412:\n        /* \"#utility.yul\":21002:21055   */\n      tag_185\n      jump\t// in\n    tag_411:\n        /* \"#utility.yul\":20989:21055   */\n      swap1\n      pop\n        /* \"#utility.yul\":20919:21061   */\n      swap2\n      swap1\n      pop\n      jump\t// out\n        /* \"#utility.yul\":21067:21142   */\n    tag_209:\n        /* \"#utility.yul\":21110:21113   */\n      0x00\n        /* \"#utility.yul\":21131:21136   */\n      dup2\n        /* \"#utility.yul\":21124:21136   */\n      swap1\n      pop\n        /* \"#utility.yul\":21067:21142   */\n      swap2\n      swap1\n      pop\n      jump\t// out\n        /* \"#utility.yul\":21148:21417   */\n    tag_210:\n        /* \"#utility.yul\":21258:21297   */\n      tag_416\n        /* \"#utility.yul\":21289:21296   */\n      dup4\n        /* \"#utility.yul\":21258:21297   */\n      tag_208\n      jump\t// in\n    tag_416:\n        /* \"#utility.yul\":21319:21410   */\n      tag_417\n        /* \"#utility.yul\":21368:21409   */\n      tag_418\n        /* \"#utility.yul\":21392:21408   */\n      dup3\n        /* \"#utility.yul\":21368:21409   */\n      tag_209\n      jump\t// in\n    tag_418:\n        /* \"#utility.yul\":21360:21366   */\n      dup5\n        /* \"#utility.yul\":21353:21357   */\n      dup5\n        /* \"#utility.yul\":21347:21358   */\n      sload\n        /* \"#utility.yul\":21319:21410   */\n      tag_206\n      jump\t// in\n    tag_417:\n        /* \"#utility.yul\":21313:21317   */\n      dup3\n        /* \"#utility.yul\":21306:21411   */\n      sstore\n        /* \"#utility.yul\":21224:21417   */\n      pop\n        /* \"#utility.yul\":21148:21417   */\n      pop\n      pop\n      pop\n      jump\t// out\n        /* \"#utility.yul\":21423:21496   */\n    tag_211:\n        /* \"#utility.yul\":21468:21471   */\n      0x00\n        /* \"#utility.yul\":21423:21496   */\n      swap1\n      jump\t// out\n        /* \"#utility.yul\":21502:21691   */\n    tag_212:\n        /* \"#utility.yul\":21579:21611   */\n      tag_421\n      tag_211\n      jump\t// in\n    tag_421:\n        /* \"#utility.yul\":21620:21685   */\n      tag_422\n        /* \"#utility.yul\":21678:21684   */\n      dup2\n        /* \"#utility.yul\":21670:21676   */\n      dup5\n        /* \"#utility.yul\":21664:21668   */\n      dup5\n        /* \"#utility.yul\":21620:21685   */\n      tag_210\n      jump\t// in\n    tag_422:\n        /* \"#utility.yul\":21555:21691   */\n      pop\n        /* \"#utility.yul\":21502:21691   */\n      pop\n      pop\n      jump\t// out\n        /* \"#utility.yul\":21697:21883   */\n    tag_213:\n        /* \"#utility.yul\":21757:21877   */\n    tag_424:\n        /* \"#utility.yul\":21774:21777   */\n      dup2\n        /* \"#utility.yul\":21767:21772   */\n      dup2\n        /* \"#utility.yul\":21764:21778   */\n      lt\n        /* \"#utility.yul\":21757:21877   */\n      iszero\n      tag_426\n      jumpi\n        /* \"#utility.yul\":21828:21867   */\n      tag_427\n        /* \"#utility.yul\":21865:21866   */\n      0x00\n        /* \"#utility.yul\":21858:21863   */\n      dup3\n        /* \"#utility.yul\":21828:21867   */\n      tag_212\n      jump\t// in\n    tag_427:\n        /* \"#utility.yul\":21801:21802   */\n      0x01\n        /* \"#utility.yul\":21794:21799   */\n      dup2\n        /* \"#utility.yul\":21790:21803   */\n      add\n        /* \"#utility.yul\":21781:21803   */\n      swap1\n      pop\n        /* \"#utility.yul\":21757:21877   */\n      jump(tag_424)\n    tag_426:\n        /* \"#utility.yul\":21697:21883   */\n      pop\n      pop\n      jump\t// out\n        /* \"#utility.yul\":21889:22432   */\n    tag_214:\n        /* \"#utility.yul\":21990:21992   */\n      0x1f\n        /* \"#utility.yul\":21985:21988   */\n      dup3\n        /* \"#utility.yul\":21982:21993   */\n      gt\n        /* \"#utility.yul\":21979:22425   */\n      iszero\n      tag_429\n      jumpi\n        /* \"#utility.yul\":22024:22062   */\n      tag_430\n        /* \"#utility.yul\":22056:22061   */\n      dup2\n        /* \"#utility.yul\":22024:22062   */\n      tag_195\n      jump\t// in\n    tag_430:\n        /* \"#utility.yul\":22108:22137   */\n      tag_431\n        /* \"#utility.yul\":22126:22136   */\n      dup5\n        /* \"#utility.yul\":22108:22137   */\n      tag_204\n      jump\t// in\n    tag_431:\n        /* \"#utility.yul\":22098:22106   */\n      dup2\n        /* \"#utility.yul\":22094:22138   */\n      add\n        /* \"#utility.yul\":22291:22293   */\n      0x20\n        /* \"#utility.yul\":22279:22289   */\n      dup6\n        /* \"#utility.yul\":22276:22294   */\n      lt\n        /* \"#utility.yul\":22273:22322   */\n      iszero\n      tag_432\n      jumpi\n        /* \"#utility.yul\":22312:22320   */\n      dup2\n        /* \"#utility.yul\":22297:22320   */\n      swap1\n      pop\n        /* \"#utility.yul\":22273:22322   */\n    tag_432:\n        /* \"#utility.yul\":22335:22415   */\n      tag_433\n        /* \"#utility.yul\":22391:22413   */\n      tag_434\n        /* \"#utility.yul\":22409:22412   */\n      dup6\n        /* \"#utility.yul\":22391:22413   */\n      tag_204\n      jump\t// in\n    tag_434:\n        /* \"#utility.yul\":22381:22389   */\n      dup4\n        /* \"#utility.yul\":22377:22414   */\n      add\n        /* \"#utility.yul\":22364:22375   */\n      dup3\n        /* \"#utility.yul\":22335:22415   */\n      tag_213\n      jump\t// in\n    tag_433:\n        /* \"#utility.yul\":21994:22425   */\n      pop\n      pop\n        /* \"#utility.yul\":21979:22425   */\n    tag_429:\n        /* \"#utility.yul\":21889:22432   */\n      pop\n      pop\n      pop\n      jump\t// out\n        /* \"#utility.yul\":22438:22555   */\n    tag_215:\n        /* \"#utility.yul\":22492:22500   */\n      0x00\n        /* \"#utility.yul\":22542:22547   */\n      dup3\n        /* \"#utility.yul\":22536:22540   */\n      dup3\n        /* \"#utility.yul\":22532:22548   */\n      shr\n        /* \"#utility.yul\":22511:22548   */\n      swap1\n      pop\n        /* \"#utility.yul\":22438:22555   */\n      swap3\n      swap2\n      pop\n      pop\n      jump\t// out\n        /* \"#utility.yul\":22561:22730   */\n    tag_216:\n        /* \"#utility.yul\":22605:22611   */\n      0x00\n        /* \"#utility.yul\":22638:22689   */\n      tag_437\n        /* \"#utility.yul\":22686:22687   */\n      0x00\n        /* \"#utility.yul\":22682:22688   */\n      not\n        /* \"#utility.yul\":22674:22679   */\n      dup5\n        /* \"#utility.yul\":22671:22672   */\n      0x08\n        /* \"#utility.yul\":22667:22680   */\n      mul\n        /* \"#utility.yul\":22638:22689   */\n      tag_215\n      jump\t// in\n    tag_437:\n        /* \"#utility.yul\":22634:22690   */\n      not\n        /* \"#utility.yul\":22719:22723   */\n      dup1\n        /* \"#utility.yul\":22713:22717   */\n      dup4\n        /* \"#utility.yul\":22709:22724   */\n      and\n        /* \"#utility.yul\":22699:22724   */\n      swap2\n      pop\n        /* \"#utility.yul\":22612:22730   */\n      pop\n        /* \"#utility.yul\":22561:22730   */\n      swap3\n      swap2\n      pop\n      pop\n      jump\t// out\n        /* \"#utility.yul\":22735:23030   */\n    tag_217:\n        /* \"#utility.yul\":22811:22815   */\n      0x00\n        /* \"#utility.yul\":22957:22986   */\n      tag_439\n        /* \"#utility.yul\":22982:22985   */\n      dup4\n        /* \"#utility.yul\":22976:22980   */\n      dup4\n        /* \"#utility.yul\":22957:22986   */\n      tag_216\n      jump\t// in\n    tag_439:\n        /* \"#utility.yul\":22949:22986   */\n      swap2\n      pop\n        /* \"#utility.yul\":23019:23022   */\n      dup3\n        /* \"#utility.yul\":23016:23017   */\n      0x02\n        /* \"#utility.yul\":23012:23023   */\n      mul\n        /* \"#utility.yul\":23006:23010   */\n      dup3\n        /* \"#utility.yul\":23003:23024   */\n      or\n        /* \"#utility.yul\":22995:23024   */\n      swap1\n      pop\n        /* \"#utility.yul\":22735:23030   */\n      swap3\n      swap2\n      pop\n      pop\n      jump\t// out\n        /* \"#utility.yul\":23035:24430   */\n    tag_90:\n        /* \"#utility.yul\":23152:23189   */\n      tag_441\n        /* \"#utility.yul\":23185:23188   */\n      dup3\n        /* \"#utility.yul\":23152:23189   */\n      tag_160\n      jump\t// in\n    tag_441:\n        /* \"#utility.yul\":23254:23272   */\n      0xffffffffffffffff\n        /* \"#utility.yul\":23246:23252   */\n      dup2\n        /* \"#utility.yul\":23243:23273   */\n      gt\n        /* \"#utility.yul\":23240:23296   */\n      iszero\n      tag_442\n      jumpi\n        /* \"#utility.yul\":23276:23294   */\n      tag_443\n      tag_177\n      jump\t// in\n    tag_443:\n        /* \"#utility.yul\":23240:23296   */\n    tag_442:\n        /* \"#utility.yul\":23320:23358   */\n      tag_444\n        /* \"#utility.yul\":23352:23356   */\n      dup3\n        /* \"#utility.yul\":23346:23357   */\n      sload\n        /* \"#utility.yul\":23320:23358   */\n      tag_70\n      jump\t// in\n    tag_444:\n        /* \"#utility.yul\":23405:23472   */\n      tag_445\n        /* \"#utility.yul\":23465:23471   */\n      dup3\n        /* \"#utility.yul\":23457:23463   */\n      dup3\n        /* \"#utility.yul\":23451:23455   */\n      dup6\n        /* \"#utility.yul\":23405:23472   */\n      tag_214\n      jump\t// in\n    tag_445:\n        /* \"#utility.yul\":23499:23500   */\n      0x00\n        /* \"#utility.yul\":23523:23527   */\n      0x20\n        /* \"#utility.yul\":23510:23527   */\n      swap1\n      pop\n        /* \"#utility.yul\":23555:23557   */\n      0x1f\n        /* \"#utility.yul\":23547:23553   */\n      dup4\n        /* \"#utility.yul\":23544:23558   */\n      gt\n        /* \"#utility.yul\":23572:23573   */\n      0x01\n        /* \"#utility.yul\":23567:24185   */\n      dup2\n      eq\n      tag_447\n      jumpi\n        /* \"#utility.yul\":24229:24230   */\n      0x00\n        /* \"#utility.yul\":24246:24252   */\n      dup5\n        /* \"#utility.yul\":24243:24320   */\n      iszero\n      tag_448\n      jumpi\n        /* \"#utility.yul\":24295:24304   */\n      dup3\n        /* \"#utility.yul\":24290:24293   */\n      dup8\n        /* \"#utility.yul\":24286:24305   */\n      add\n        /* \"#utility.yul\":24280:24306   */\n      mload\n        /* \"#utility.yul\":24271:24306   */\n      swap1\n      pop\n        /* \"#utility.yul\":24243:24320   */\n    tag_448:\n        /* \"#utility.yul\":24346:24413   */\n      tag_449\n        /* \"#utility.yul\":24406:24412   */\n      dup6\n        /* \"#utility.yul\":24399:24404   */\n      dup3\n        /* \"#utility.yul\":24346:24413   */\n      tag_217\n      jump\t// in\n    tag_449:\n        /* \"#utility.yul\":24340:24344   */\n      dup7\n        /* \"#utility.yul\":24333:24414   */\n      sstore\n        /* \"#utility.yul\":24202:24424   */\n      pop\n        /* \"#utility.yul\":23537:24424   */\n      jump(tag_446)\n        /* \"#utility.yul\":23567:24185   */\n    tag_447:\n        /* \"#utility.yul\":23619:23623   */\n      0x1f\n        /* \"#utility.yul\":23615:23624   */\n      not\n        /* \"#utility.yul\":23607:23613   */\n      dup5\n        /* \"#utility.yul\":23603:23625   */\n      and\n        /* \"#utility.yul\":23653:23690   */\n      tag_450\n        /* \"#utility.yul\":23685:23689   */\n      dup7\n        /* \"#utility.yul\":23653:23690   */\n      tag_195\n      jump\t// in\n    tag_450:\n        /* \"#utility.yul\":23712:23713   */\n      0x00\n        /* \"#utility.yul\":23726:23934   */\n    tag_451:\n        /* \"#utility.yul\":23740:23747   */\n      dup3\n        /* \"#utility.yul\":23737:23738   */\n      dup2\n        /* \"#utility.yul\":23734:23748   */\n      lt\n        /* \"#utility.yul\":23726:23934   */\n      iszero\n      tag_453\n      jumpi\n        /* \"#utility.yul\":23819:23828   */\n      dup5\n        /* \"#utility.yul\":23814:23817   */\n      dup10\n        /* \"#utility.yul\":23810:23829   */\n      add\n        /* \"#utility.yul\":23804:23830   */\n      mload\n        /* \"#utility.yul\":23796:23802   */\n      dup3\n        /* \"#utility.yul\":23789:23831   */\n      sstore\n        /* \"#utility.yul\":23870:23871   */\n      0x01\n        /* \"#utility.yul\":23862:23868   */\n      dup3\n        /* \"#utility.yul\":23858:23872   */\n      add\n        /* \"#utility.yul\":23848:23872   */\n      swap2\n      pop\n        /* \"#utility.yul\":23917:23919   */\n      0x20\n        /* \"#utility.yul\":23906:23915   */\n      dup6\n        /* \"#utility.yul\":23902:23920   */\n      add\n        /* \"#utility.yul\":23889:23920   */\n      swap5\n      pop\n        /* \"#utility.yul\":23763:23767   */\n      0x20\n        /* \"#utility.yul\":23760:23761   */\n      dup2\n        /* \"#utility.yul\":23756:23768   */\n      add\n        /* \"#utility.yul\":23751:23768   */\n      swap1\n      pop\n        /* \"#utility.yul\":23726:23934   */\n      jump(tag_451)\n    tag_453:\n        /* \"#utility.yul\":23962:23968   */\n      dup7\n        /* \"#utility.yul\":23953:23960   */\n      dup4\n        /* \"#utility.yul\":23950:23969   */\n      lt\n        /* \"#utility.yul\":23947:24126   */\n      iszero\n      tag_454\n      jumpi\n        /* \"#utility.yul\":24020:24029   */\n      dup5\n        /* \"#utility.yul\":24015:24018   */\n      dup10\n        /* \"#utility.yul\":24011:24030   */\n      add\n        /* \"#utility.yul\":24005:24031   */\n      mload\n        /* \"#utility.yul\":24063:24111   */\n      tag_455\n        /* \"#utility.yul\":24105:24109   */\n      0x1f\n        /* \"#utility.yul\":24097:24103   */\n      dup10\n        /* \"#utility.yul\":24093:24110   */\n      and\n        /* \"#utility.yul\":24082:24091   */\n      dup3\n        /* \"#utility.yul\":24063:24111   */\n      tag_216\n      jump\t// in\n    tag_455:\n        /* \"#utility.yul\":24055:24061   */\n      dup4\n        /* \"#utility.yul\":24048:24112   */\n      sstore\n        /* \"#utility.yul\":23970:24126   */\n      pop\n        /* \"#utility.yul\":23947:24126   */\n    tag_454:\n        /* \"#utility.yul\":24172:24173   */\n      0x01\n        /* \"#utility.yul\":24168:24169   */\n      0x02\n        /* \"#utility.yul\":24160:24166   */\n      dup9\n        /* \"#utility.yul\":24156:24170   */\n      mul\n        /* \"#utility.yul\":24152:24174   */\n      add\n        /* \"#utility.yul\":24146:24150   */\n      dup9\n        /* \"#utility.yul\":24139:24175   */\n      sstore\n        /* \"#utility.yul\":23574:24185   */\n      pop\n      pop\n      pop\n        /* \"#utility.yul\":23537:24424   */\n    tag_446:\n      pop\n        /* \"#utility.yul\":23127:24430   */\n      pop\n      pop\n      pop\n        /* \"#utility.yul\":23035:24430   */\n      pop\n      pop\n      jump\t// out\n        /* \"#utility.yul\":24436:24533   */\n    tag_218:\n        /* \"#utility.yul\":24495:24501   */\n      0x00\n        /* \"#utility.yul\":24523:24526   */\n      dup3\n        /* \"#utility.yul\":24513:24526   */\n      swap1\n      pop\n        /* \"#utility.yul\":24436:24533   */\n      swap3\n      swap2\n      pop\n      pop\n      jump\t// out\n        /* \"#utility.yul\":24539:25942   */\n    tag_98:\n        /* \"#utility.yul\":24663:24707   */\n      tag_458\n        /* \"#utility.yul\":24703:24706   */\n      dup4\n        /* \"#utility.yul\":24698:24701   */\n      dup4\n        /* \"#utility.yul\":24663:24707   */\n      tag_218\n      jump\t// in\n    tag_458:\n        /* \"#utility.yul\":24772:24790   */\n      0xffffffffffffffff\n        /* \"#utility.yul\":24764:24770   */\n      dup2\n        /* \"#utility.yul\":24761:24791   */\n      gt\n        /* \"#utility.yul\":24758:24814   */\n      iszero\n      tag_459\n      jumpi\n        /* \"#utility.yul\":24794:24812   */\n      tag_460\n      tag_177\n      jump\t// in\n    tag_460:\n        /* \"#utility.yul\":24758:24814   */\n    tag_459:\n        /* \"#utility.yul\":24838:24876   */\n      tag_461\n        /* \"#utility.yul\":24870:24874   */\n      dup3\n        /* \"#utility.yul\":24864:24875   */\n      sload\n        /* \"#utility.yul\":24838:24876   */\n      tag_70\n      jump\t// in\n    tag_461:\n        /* \"#utility.yul\":24923:24990   */\n      tag_462\n        /* \"#utility.yul\":24983:24989   */\n      dup3\n        /* \"#utility.yul\":24975:24981   */\n      dup3\n        /* \"#utility.yul\":24969:24973   */\n      dup6\n        /* \"#utility.yul\":24923:24990   */\n      tag_214\n      jump\t// in\n    tag_462:\n        /* \"#utility.yul\":25017:25018   */\n      0x00\n        /* \"#utility.yul\":25046:25048   */\n      0x1f\n        /* \"#utility.yul\":25038:25044   */\n      dup4\n        /* \"#utility.yul\":25035:25049   */\n      gt\n        /* \"#utility.yul\":25063:25064   */\n      0x01\n        /* \"#utility.yul\":25058:25690   */\n      dup2\n      eq\n      tag_464\n      jumpi\n        /* \"#utility.yul\":25734:25735   */\n      0x00\n        /* \"#utility.yul\":25751:25757   */\n      dup5\n        /* \"#utility.yul\":25748:25832   */\n      iszero\n      tag_465\n      jumpi\n        /* \"#utility.yul\":25807:25816   */\n      dup3\n        /* \"#utility.yul\":25802:25805   */\n      dup8\n        /* \"#utility.yul\":25798:25817   */\n      add\n        /* \"#utility.yul\":25785:25818   */\n      calldataload\n        /* \"#utility.yul\":25776:25818   */\n      swap1\n      pop\n        /* \"#utility.yul\":25748:25832   */\n    tag_465:\n        /* \"#utility.yul\":25858:25925   */\n      tag_466\n        /* \"#utility.yul\":25918:25924   */\n      dup6\n        /* \"#utility.yul\":25911:25916   */\n      dup3\n        /* \"#utility.yul\":25858:25925   */\n      tag_217\n      jump\t// in\n    tag_466:\n        /* \"#utility.yul\":25852:25856   */\n      dup7\n        /* \"#utility.yul\":25845:25926   */\n      sstore\n        /* \"#utility.yul\":25707:25936   */\n      pop\n        /* \"#utility.yul\":25028:25936   */\n      jump(tag_463)\n        /* \"#utility.yul\":25058:25690   */\n    tag_464:\n        /* \"#utility.yul\":25110:25114   */\n      0x1f\n        /* \"#utility.yul\":25106:25115   */\n      not\n        /* \"#utility.yul\":25098:25104   */\n      dup5\n        /* \"#utility.yul\":25094:25116   */\n      and\n        /* \"#utility.yul\":25144:25181   */\n      tag_467\n        /* \"#utility.yul\":25176:25180   */\n      dup7\n        /* \"#utility.yul\":25144:25181   */\n      tag_195\n      jump\t// in\n    tag_467:\n        /* \"#utility.yul\":25203:25204   */\n      0x00\n        /* \"#utility.yul\":25217:25432   */\n    tag_468:\n        /* \"#utility.yul\":25231:25238   */\n      dup3\n        /* \"#utility.yul\":25228:25229   */\n      dup2\n        /* \"#utility.yul\":25225:25239   */\n      lt\n        /* \"#utility.yul\":25217:25432   */\n      iszero\n      tag_470\n      jumpi\n        /* \"#utility.yul\":25317:25326   */\n      dup5\n        /* \"#utility.yul\":25312:25315   */\n      dup10\n        /* \"#utility.yul\":25308:25327   */\n      add\n        /* \"#utility.yul\":25295:25328   */\n      calldataload\n        /* \"#utility.yul\":25287:25293   */\n      dup3\n        /* \"#utility.yul\":25280:25329   */\n      sstore\n        /* \"#utility.yul\":25368:25369   */\n      0x01\n        /* \"#utility.yul\":25360:25366   */\n      dup3\n        /* \"#utility.yul\":25356:25370   */\n      add\n        /* \"#utility.yul\":25346:25370   */\n      swap2\n      pop\n        /* \"#utility.yul\":25415:25417   */\n      0x20\n        /* \"#utility.yul\":25404:25413   */\n      dup6\n        /* \"#utility.yul\":25400:25418   */\n      add\n        /* \"#utility.yul\":25387:25418   */\n      swap5\n      pop\n        /* \"#utility.yul\":25254:25258   */\n      0x20\n        /* \"#utility.yul\":25251:25252   */\n      dup2\n        /* \"#utility.yul\":25247:25259   */\n      add\n        /* \"#utility.yul\":25242:25259   */\n      swap1\n      pop\n        /* \"#utility.yul\":25217:25432   */\n      jump(tag_468)\n    tag_470:\n        /* \"#utility.yul\":25460:25466   */\n      dup7\n        /* \"#utility.yul\":25451:25458   */\n      dup4\n        /* \"#utility.yul\":25448:25467   */\n      lt\n        /* \"#utility.yul\":25445:25631   */\n      iszero\n      tag_471\n      jumpi\n        /* \"#utility.yul\":25525:25534   */\n      dup5\n        /* \"#utility.yul\":25520:25523   */\n      dup10\n        /* \"#utility.yul\":25516:25535   */\n      add\n        /* \"#utility.yul\":25503:25536   */\n      calldataload\n        /* \"#utility.yul\":25568:25616   */\n      tag_472\n        /* \"#utility.yul\":25610:25614   */\n      0x1f\n        /* \"#utility.yul\":25602:25608   */\n      dup10\n        /* \"#utility.yul\":25598:25615   */\n      and\n        /* \"#utility.yul\":25587:25596   */\n      dup3\n        /* \"#utility.yul\":25568:25616   */\n      tag_216\n      jump\t// in\n    tag_472:\n        /* \"#utility.yul\":25560:25566   */\n      dup4\n        /* \"#utility.yul\":25553:25617   */\n      sstore\n        /* \"#utility.yul\":25468:25631   */\n      pop\n        /* \"#utility.yul\":25445:25631   */\n    tag_471:\n        /* \"#utility.yul\":25677:25678   */\n      0x01\n        /* \"#utility.yul\":25673:25674   */\n      0x02\n        /* \"#utility.yul\":25665:25671   */\n      dup9\n        /* \"#utility.yul\":25661:25675   */\n      mul\n        /* \"#utility.yul\":25657:25679   */\n      add\n        /* \"#utility.yul\":25651:25655   */\n      dup9\n        /* \"#utility.yul\":25644:25680   */\n      sstore\n        /* \"#utility.yul\":25065:25690   */\n      pop\n      pop\n      pop\n        /* \"#utility.yul\":25028:25936   */\n    tag_463:\n      pop\n        /* \"#utility.yul\":24638:25942   */\n      pop\n      pop\n      pop\n        /* \"#utility.yul\":24539:25942   */\n      pop\n      pop\n      pop\n      jump\t// out\n        /* \"#utility.yul\":25948:26142   */\n    tag_219:\n        /* \"#utility.yul\":26117:26135   */\n      0x50617373656e676572204e616d653a2000000000000000000000000000000000\n        /* \"#utility.yul\":26112:26115   */\n      dup2\n        /* \"#utility.yul\":26105:26136   */\n      mstore\n        /* \"#utility.yul\":25948:26142   */\n      pop\n      jump\t// out\n        /* \"#utility.yul\":26148:26390   */\n    tag_220:\n        /* \"#utility.yul\":26317:26383   */\n      0x0a466c69676874204e756d6265723a2000000000000000000000000000000000\n        /* \"#utility.yul\":26312:26315   */\n      dup2\n        /* \"#utility.yul\":26305:26384   */\n      mstore\n        /* \"#utility.yul\":26148:26390   */\n      pop\n      jump\t// out\n        /* \"#utility.yul\":26396:26587   */\n    tag_221:\n        /* \"#utility.yul\":26565:26580   */\n      0x466c6967687420646174653a2000000000000000000000000000000000000000\n        /* \"#utility.yul\":26560:26563   */\n      dup2\n        /* \"#utility.yul\":26553:26581   */\n      mstore\n        /* \"#utility.yul\":26396:26587   */\n      pop\n      jump\t// out\n        /* \"#utility.yul\":26593:26787   */\n    tag_222:\n        /* \"#utility.yul\":26762:26780   */\n      0x44657061727475726520636974793a2000000000000000000000000000000000\n        /* \"#utility.yul\":26757:26760   */\n      dup2\n        /* \"#utility.yul\":26750:26781   */\n      mstore\n        /* \"#utility.yul\":26593:26787   */\n      pop\n      jump\t// out\n        /* \"#utility.yul\":26793:26989   */\n    tag_223:\n        /* \"#utility.yul\":26962:26982   */\n      0x44657374696e6174696f6e20636974793a200000000000000000000000000000\n        /* \"#utility.yul\":26957:26960   */\n      dup2\n        /* \"#utility.yul\":26950:26983   */\n      mstore\n        /* \"#utility.yul\":26793:26989   */\n      pop\n      jump\t// out\n        /* \"#utility.yul\":26995:27237   */\n    tag_224:\n        /* \"#utility.yul\":27164:27230   */\n      0x0a506f6c696379205374617475733a2000000000000000000000000000000000\n        /* \"#utility.yul\":27159:27162   */\n      dup2\n        /* \"#utility.yul\":27152:27231   */\n      mstore\n        /* \"#utility.yul\":26995:27237   */\n      pop\n      jump\t// out\n        /* \"#utility.yul\":27243:29884   */\n    tag_158:\n        /* \"#utility.yul\":28143:28146   */\n      0x00\n        /* \"#utility.yul\":28158:28296   */\n      tag_480\n        /* \"#utility.yul\":28292:28295   */\n      dup3\n        /* \"#utility.yul\":28158:28296   */\n      tag_219\n      jump\t// in\n    tag_480:\n        /* \"#utility.yul\":28321:28323   */\n      0x10\n        /* \"#utility.yul\":28316:28319   */\n      dup3\n        /* \"#utility.yul\":28312:28324   */\n      add\n        /* \"#utility.yul\":28305:28324   */\n      swap2\n      pop\n        /* \"#utility.yul\":28341:28433   */\n      tag_481\n        /* \"#utility.yul\":28429:28432   */\n      dup3\n        /* \"#utility.yul\":28420:28426   */\n      dup10\n        /* \"#utility.yul\":28341:28433   */\n      tag_196\n      jump\t// in\n    tag_481:\n        /* \"#utility.yul\":28334:28433   */\n      swap2\n      pop\n        /* \"#utility.yul\":28443:28581   */\n      tag_482\n        /* \"#utility.yul\":28577:28580   */\n      dup3\n        /* \"#utility.yul\":28443:28581   */\n      tag_220\n      jump\t// in\n    tag_482:\n        /* \"#utility.yul\":28606:28608   */\n      0x10\n        /* \"#utility.yul\":28601:28604   */\n      dup3\n        /* \"#utility.yul\":28597:28609   */\n      add\n        /* \"#utility.yul\":28590:28609   */\n      swap2\n      pop\n        /* \"#utility.yul\":28626:28718   */\n      tag_483\n        /* \"#utility.yul\":28714:28717   */\n      dup3\n        /* \"#utility.yul\":28705:28711   */\n      dup9\n        /* \"#utility.yul\":28626:28718   */\n      tag_196\n      jump\t// in\n    tag_483:\n        /* \"#utility.yul\":28619:28718   */\n      swap2\n      pop\n        /* \"#utility.yul\":28728:28866   */\n      tag_484\n        /* \"#utility.yul\":28862:28865   */\n      dup3\n        /* \"#utility.yul\":28728:28866   */\n      tag_221\n      jump\t// in\n    tag_484:\n        /* \"#utility.yul\":28891:28893   */\n      0x0d\n        /* \"#utility.yul\":28886:28889   */\n      dup3\n        /* \"#utility.yul\":28882:28894   */\n      add\n        /* \"#utility.yul\":28875:28894   */\n      swap2\n      pop\n        /* \"#utility.yul\":28911:29003   */\n      tag_485\n        /* \"#utility.yul\":28999:29002   */\n      dup3\n        /* \"#utility.yul\":28990:28996   */\n      dup8\n        /* \"#utility.yul\":28911:29003   */\n      tag_196\n      jump\t// in\n    tag_485:\n        /* \"#utility.yul\":28904:29003   */\n      swap2\n      pop\n        /* \"#utility.yul\":29013:29151   */\n      tag_486\n        /* \"#utility.yul\":29147:29150   */\n      dup3\n        /* \"#utility.yul\":29013:29151   */\n      tag_222\n      jump\t// in\n    tag_486:\n        /* \"#utility.yul\":29176:29178   */\n      0x10\n        /* \"#utility.yul\":29171:29174   */\n      dup3\n        /* \"#utility.yul\":29167:29179   */\n      add\n        /* \"#utility.yul\":29160:29179   */\n      swap2\n      pop\n        /* \"#utility.yul\":29196:29288   */\n      tag_487\n        /* \"#utility.yul\":29284:29287   */\n      dup3\n        /* \"#utility.yul\":29275:29281   */\n      dup7\n        /* \"#utility.yul\":29196:29288   */\n      tag_196\n      jump\t// in\n    tag_487:\n        /* \"#utility.yul\":29189:29288   */\n      swap2\n      pop\n        /* \"#utility.yul\":29298:29436   */\n      tag_488\n        /* \"#utility.yul\":29432:29435   */\n      dup3\n        /* \"#utility.yul\":29298:29436   */\n      tag_223\n      jump\t// in\n    tag_488:\n        /* \"#utility.yul\":29461:29463   */\n      0x12\n        /* \"#utility.yul\":29456:29459   */\n      dup3\n        /* \"#utility.yul\":29452:29464   */\n      add\n        /* \"#utility.yul\":29445:29464   */\n      swap2\n      pop\n        /* \"#utility.yul\":29481:29573   */\n      tag_489\n        /* \"#utility.yul\":29569:29572   */\n      dup3\n        /* \"#utility.yul\":29560:29566   */\n      dup6\n        /* \"#utility.yul\":29481:29573   */\n      tag_196\n      jump\t// in\n    tag_489:\n        /* \"#utility.yul\":29474:29573   */\n      swap2\n      pop\n        /* \"#utility.yul\":29583:29721   */\n      tag_490\n        /* \"#utility.yul\":29717:29720   */\n      dup3\n        /* \"#utility.yul\":29583:29721   */\n      tag_224\n      jump\t// in\n    tag_490:\n        /* \"#utility.yul\":29746:29748   */\n      0x10\n        /* \"#utility.yul\":29741:29744   */\n      dup3\n        /* \"#utility.yul\":29737:29749   */\n      add\n        /* \"#utility.yul\":29730:29749   */\n      swap2\n      pop\n        /* \"#utility.yul\":29766:29858   */\n      tag_491\n        /* \"#utility.yul\":29854:29857   */\n      dup3\n        /* \"#utility.yul\":29845:29851   */\n      dup5\n        /* \"#utility.yul\":29766:29858   */\n      tag_196\n      jump\t// in\n    tag_491:\n        /* \"#utility.yul\":29759:29858   */\n      swap2\n      pop\n        /* \"#utility.yul\":29875:29878   */\n      dup2\n        /* \"#utility.yul\":29868:29878   */\n      swap1\n      pop\n        /* \"#utility.yul\":27243:29884   */\n      swap8\n      swap7\n      pop\n      pop\n      pop\n      pop\n      pop\n      pop\n      pop\n      jump\t// out\n    stop\n    data_c8be08d5e2404c64eec4fa2070eabc6bbf9ff0d11045ed005e7513f9fc9de59b 5072656d69756d3a20302e3031204574686572200a496e64656d6e6974793a20302e3032204574686572200a436f766572616765206973737565733a206861696c20616e6420666c6f6f6473\n\n    auxdata: 0xa264697066735822122012e09967fd35b8ea6ba57dab974162671acbb456ae7be0ecb43d9fda2464b89564736f6c634300081a0033\n}\n",
				"bytecode": {
					"linkReferences": {},
					"object": "608060405234801561000f575f80fd5b50604051611ebf380380611ebf833981810160405281019061003191906100d5565b8060015f6101000a81548173ffffffffffffffffffffffffffffffffffffffff021916908373ffffffffffffffffffffffffffffffffffffffff16021790555050610100565b5f80fd5b5f73ffffffffffffffffffffffffffffffffffffffff82169050919050565b5f6100a48261007b565b9050919050565b6100b48161009a565b81146100be575f80fd5b50565b5f815190506100cf816100ab565b92915050565b5f602082840312156100ea576100e9610077565b5b5f6100f7848285016100c1565b91505092915050565b611db28061010d5f395ff3fe608060405260043610610089575f3560e01c8063b698d6a111610058578063b698d6a114610146578063c738b56314610182578063cbe2e531146101ac578063f25797c6146101e8578063fc735e991461022457610090565b80631a65261c1461009457806335f7a712146100be5780634a7ba3e5146100da57806350dd73be1461011c57610090565b3661009057005b5f80fd5b34801561009f575f80fd5b506100a861024e565b6040516100b59190610f24565b60405180910390f35b6100d860048036038101906100d39190611010565b61041a565b005b3480156100e5575f80fd5b5061010060048036038101906100fb9190611262565b610786565b60405161011397969594939291906112b8565b60405180910390f35b348015610127575f80fd5b50610130610b1f565b60405161013d919061134f565b60405180910390f35b348015610151575f80fd5b5061016c6004803603810190610167919061139b565b610b44565b6040516101799190610f24565b60405180910390f35b34801561018d575f80fd5b50610196610bea565b6040516101a39190610f24565b60405180910390f35b3480156101b7575f80fd5b506101d260048036038101906101cd91906114a4565b610c0a565b6040516101df9190610f24565b60405180910390f35b3480156101f3575f80fd5b5061020e60048036038101906102099190611262565b610d85565b60405161021b9190610f24565b60405180910390f35b34801561022f575f80fd5b50610238610e77565b6040516102459190610f24565b60405180910390f35b60605f60405180602001604052805f81525090505f5b600280549050811015610412575f60028281548110610286576102856114eb565b5b905f5260205f2001805461029990611545565b80601f01602080910402602001604051908101604052809291908181526020018280546102c590611545565b80156103105780601f106102e757610100808354040283529160200191610310565b820191905f5260205f20905b8154815290600101906020018083116102f357829003601f168201915b505050505090508260038260405161032891906115af565b90815260200160405180910390205f0160038360405161034891906115af565b908152602001604051809103902060020160038460405161036991906115af565b908152602001604051809103902060030160038560405161038a91906115af565b90815260200160405180910390206004016003866040516103ab91906115af565b90815260200160405180910390206005016003876040516103cc91906115af565b90815260200160405180910390206006016040516020016103f39796959493929190611761565b6040516020818303038152906040529250508080600101915050610264565b508091505090565b60015f9054906101000a900473ffffffffffffffffffffffffffffffffffffffff1673ffffffffffffffffffffffffffffffffffffffff166108fc662386f26fc1000090811502906040515f60405180830381858888f19350505050158015610485573d5f803e3d5ffd5b506040518060e001604052808c8c8080601f0160208091040260200160405190810160405280939291908181526020018383808284375f81840152601f19601f8201169050808301925050505050505081526020018a73ffffffffffffffffffffffffffffffffffffffff16815260200189898080601f0160208091040260200160405190810160405280939291908181526020018383808284375f81840152601f19601f82011690508083019250505050505050815260200187878080601f0160208091040260200160405190810160405280939291908181526020018383808284375f81840152601f19601f82011690508083019250505050505050815260200185858080601f0160208091040260200160405190810160405280939291908181526020018383808284375f81840152601f19601f82011690508083019250505050505050815260200183838080601f0160208091040260200160405190810160405280939291908181526020018383808284375f81840152601f19601f8201169050808301925050505050505081526020016040518060400160405280600981526020017f507572636861736564000000000000000000000000000000000000000000000081525081525060038c8c604051610665929190611852565b90815260200160405180910390205f820151815f01908161068691906119f5565b506020820151816001015f6101000a81548173ffffffffffffffffffffffffffffffffffffffff021916908373ffffffffffffffffffffffffffffffffffffffff16021790555060408201518160020190816106e291906119f5565b5060608201518160030190816106f891906119f5565b50608082015181600401908161070e91906119f5565b5060a082015181600501908161072491906119f5565b5060c082015181600601908161073a91906119f5565b5090505060028b8b90918060018154018082558091505060019003905f5260205f20015f909192909192909192909192509182610778929190611ace565b505050505050505050505050565b6003818051602081018201805184825260208301602085012081835280955050505050505f91509050805f0180546107bd90611545565b80601f01602080910402602001604051908101604052809291908181526020018280546107e990611545565b80156108345780601f1061080b57610100808354040283529160200191610834565b820191905f5260205f20905b81548152906001019060200180831161081757829003601f168201915b505050505090806001015f9054906101000a900473ffffffffffffffffffffffffffffffffffffffff169080600201805461086e90611545565b80601f016020809104026020016040519081016040528092919081815260200182805461089a90611545565b80156108e55780601f106108bc576101008083540402835291602001916108e5565b820191905f5260205f20905b8154815290600101906020018083116108c857829003601f168201915b5050505050908060030180546108fa90611545565b80601f016020809104026020016040519081016040528092919081815260200182805461092690611545565b80156109715780601f1061094857610100808354040283529160200191610971565b820191905f5260205f20905b81548152906001019060200180831161095457829003601f168201915b50505050509080600401805461098690611545565b80601f01602080910402602001604051908101604052809291908181526020018280546109b290611545565b80156109fd5780601f106109d4576101008083540402835291602001916109fd565b820191905f5260205f20905b8154815290600101906020018083116109e057829003601f168201915b505050505090806005018054610a1290611545565b80601f0160208091040260200160405190810160405280929190818152602001828054610a3e90611545565b8015610a895780601f10610a6057610100808354040283529160200191610a89565b820191905f5260205f20905b815481529060010190602001808311610a6c57829003601f168201915b505050505090806006018054610a9e90611545565b80601f0160208091040260200160405190810160405280929190818152602001828054610aca90611545565b8015610b155780601f10610aec57610100808354040283529160200191610b15565b820191905f5260205f20905b815481529060010190602001808311610af857829003601f168201915b5050505050905087565b60015f9054906101000a900473ffffffffffffffffffffffffffffffffffffffff1681565b60028181548110610b53575f80fd5b905f5260205f20015f915090508054610b6b90611545565b80601f0160208091040260200160405190810160405280929190818152602001828054610b9790611545565b8015610be25780601f10610bb957610100808354040283529160200191610be2565b820191905f5260205f20905b815481529060010190602001808311610bc557829003601f168201915b505050505081565b60606040518060800160405280604c8152602001611d31604c9139905090565b60605f5b8251811015610d47576003838281518110610c2c57610c2b6114eb565b5b6020026020010151604051610c4191906115af565b90815260200160405180910390206001015f9054906101000a900473ffffffffffffffffffffffffffffffffffffffff1673ffffffffffffffffffffffffffffffffffffffff166108fc66470de4df82000090811502906040515f60405180830381858888f19350505050158015610cbb573d5f803e3d5ffd5b506040518060400160405280600781526020017f436c61696d6564000000000000000000000000000000000000000000000000008152506003848381518110610d0757610d066114eb565b5b6020026020010151604051610d1c91906115af565b90815260200160405180910390206006019081610d3991906119f5565b508080600101915050610c0e565b506040518060400160405280601481526020017f5061796d656e7473207375636365737366756c210000000000000000000000008152509050919050565b6060600382604051610d9791906115af565b90815260200160405180910390205f01600383604051610db791906115af565b9081526020016040518091039020600201600384604051610dd891906115af565b9081526020016040518091039020600301600385604051610df991906115af565b9081526020016040518091039020600401600386604051610e1a91906115af565b9081526020016040518091039020600501600387604051610e3b91906115af565b9081526020016040518091039020600601604051602001610e6196959493929190611c7f565b6040516020818303038152906040529050919050565b60606040518060400160405280600981526020017f5665726966696564210000000000000000000000000000000000000000000000815250905090565b5f81519050919050565b5f82825260208201905092915050565b8281835e5f83830152505050565b5f601f19601f8301169050919050565b5f610ef682610eb4565b610f008185610ebe565b9350610f10818560208601610ece565b610f1981610edc565b840191505092915050565b5f6020820190508181035f830152610f3c8184610eec565b905092915050565b5f604051905090565b5f80fd5b5f80fd5b5f80fd5b5f80fd5b5f80fd5b5f8083601f840112610f7657610f75610f55565b5b8235905067ffffffffffffffff811115610f9357610f92610f59565b5b602083019150836001820283011115610faf57610fae610f5d565b5b9250929050565b5f73ffffffffffffffffffffffffffffffffffffffff82169050919050565b5f610fdf82610fb6565b9050919050565b610fef81610fd5565b8114610ff9575f80fd5b50565b5f8135905061100a81610fe6565b92915050565b5f805f805f805f805f805f60c08c8e03121561102f5761102e610f4d565b5b5f8c013567ffffffffffffffff81111561104c5761104b610f51565b5b6110588e828f01610f61565b9b509b5050602061106b8e828f01610ffc565b99505060408c013567ffffffffffffffff81111561108c5761108b610f51565b5b6110988e828f01610f61565b985098505060608c013567ffffffffffffffff8111156110bb576110ba610f51565b5b6110c78e828f01610f61565b965096505060808c013567ffffffffffffffff8111156110ea576110e9610f51565b5b6110f68e828f01610f61565b945094505060a08c013567ffffffffffffffff81111561111957611118610f51565b5b6111258e828f01610f61565b92509250509295989b509295989b9093969950565b5f80fd5b7f4e487b71000000000000000000000000000000000000000000000000000000005f52604160045260245ffd5b61117482610edc565b810181811067ffffffffffffffff821117156111935761119261113e565b5b80604052505050565b5f6111a5610f44565b90506111b1828261116b565b919050565b5f67ffffffffffffffff8211156111d0576111cf61113e565b5b6111d982610edc565b9050602081019050919050565b828183375f83830152505050565b5f611206611201846111b6565b61119c565b9050828152602081018484840111156112225761122161113a565b5b61122d8482856111e6565b509392505050565b5f82601f83011261124957611248610f55565b5b81356112598482602086016111f4565b91505092915050565b5f6020828403121561127757611276610f4d565b5b5f82013567ffffffffffffffff81111561129457611293610f51565b5b6112a084828501611235565b91505092915050565b6112b281610fd5565b82525050565b5f60e0820190508181035f8301526112d0818a610eec565b90506112df60208301896112a9565b81810360408301526112f18188610eec565b905081810360608301526113058187610eec565b905081810360808301526113198186610eec565b905081810360a083015261132d8185610eec565b905081810360c08301526113418184610eec565b905098975050505050505050565b5f6020820190506113625f8301846112a9565b92915050565b5f819050919050565b61137a81611368565b8114611384575f80fd5b50565b5f8135905061139581611371565b92915050565b5f602082840312156113b0576113af610f4d565b5b5f6113bd84828501611387565b91505092915050565b5f67ffffffffffffffff8211156113e0576113df61113e565b5b602082029050602081019050919050565b5f6114036113fe846113c6565b61119c565b9050808382526020820190506020840283018581111561142657611425610f5d565b5b835b8181101561146d57803567ffffffffffffffff81111561144b5761144a610f55565b5b8086016114588982611235565b85526020850194505050602081019050611428565b5050509392505050565b5f82601f83011261148b5761148a610f55565b5b813561149b8482602086016113f1565b91505092915050565b5f602082840312156114b9576114b8610f4d565b5b5f82013567ffffffffffffffff8111156114d6576114d5610f51565b5b6114e284828501611477565b91505092915050565b7f4e487b71000000000000000000000000000000000000000000000000000000005f52603260045260245ffd5b7f4e487b71000000000000000000000000000000000000000000000000000000005f52602260045260245ffd5b5f600282049050600182168061155c57607f821691505b60208210810361156f5761156e611518565b5b50919050565b5f81905092915050565b5f61158982610eb4565b6115938185611575565b93506115a3818560208601610ece565b80840191505092915050565b5f6115ba828461157f565b915081905092915050565b7f506f6c6963793a2050617373656e676572204e616d653a200000000000000000815250565b5f819050815f5260205f209050919050565b5f815461160981611545565b6116138186611575565b9450600182165f811461162d576001811461164257611674565b60ff1983168652811515820286019350611674565b61164b856115eb565b5f5b8381101561166c5781548189015260018201915060208101905061164d565b838801955050505b50505092915050565b7f20466c69676874204e756d6265723a2000000000000000000000000000000000815250565b7f20466c6967687420646174653a20000000000000000000000000000000000000815250565b7f2044657061727475726520636974793a20000000000000000000000000000000815250565b7f2044657374696e6174696f6e20636974793a2000000000000000000000000000815250565b7f205374617475733a200000000000000000000000000000000000000000000000815250565b7f0a00000000000000000000000000000000000000000000000000000000000000815250565b5f61176c828a61157f565b9150611777826115c5565b60188201915061178782896115fd565b91506117928261167d565b6010820191506117a282886115fd565b91506117ad826116a3565b600e820191506117bd82876115fd565b91506117c8826116c9565b6011820191506117d882866115fd565b91506117e3826116ef565b6013820191506117f382856115fd565b91506117fe82611715565b60098201915061180e82846115fd565b91506118198261173b565b60018201915081905098975050505050505050565b5f6118398385611575565b93506118468385846111e6565b82840190509392505050565b5f61185e82848661182e565b91508190509392505050565b5f6020601f8301049050919050565b5f82821b905092915050565b5f600883026118b47fffffffffffffffffffffffffffffffffffffffffffffffffffffffffffffffff82611879565b6118be8683611879565b95508019841693508086168417925050509392505050565b5f819050919050565b5f6118f96118f46118ef84611368565b6118d6565b611368565b9050919050565b5f819050919050565b611912836118df565b61192661191e82611900565b848454611885565b825550505050565b5f90565b61193a61192e565b611945818484611909565b505050565b5b818110156119685761195d5f82611932565b60018101905061194b565b5050565b601f8211156119ad5761197e816115eb565b6119878461186a565b81016020851015611996578190505b6119aa6119a28561186a565b83018261194a565b50505b505050565b5f82821c905092915050565b5f6119cd5f19846008026119b2565b1980831691505092915050565b5f6119e583836119be565b9150826002028217905092915050565b6119fe82610eb4565b67ffffffffffffffff811115611a1757611a1661113e565b5b611a218254611545565b611a2c82828561196c565b5f60209050601f831160018114611a5d575f8415611a4b578287015190505b611a5585826119da565b865550611abc565b601f198416611a6b866115eb565b5f5b82811015611a9257848901518255600182019150602085019450602081019050611a6d565b86831015611aaf5784890151611aab601f8916826119be565b8355505b6001600288020188555050505b505050505050565b5f82905092915050565b611ad88383611ac4565b67ffffffffffffffff811115611af157611af061113e565b5b611afb8254611545565b611b0682828561196c565b5f601f831160018114611b33575f8415611b21578287013590505b611b2b85826119da565b865550611b92565b601f198416611b41866115eb565b5f5b82811015611b6857848901358255600182019150602085019450602081019050611b43565b86831015611b855784890135611b81601f8916826119be565b8355505b6001600288020188555050505b50505050505050565b7f50617373656e676572204e616d653a2000000000000000000000000000000000815250565b7f0a466c69676874204e756d6265723a2000000000000000000000000000000000815250565b7f466c6967687420646174653a2000000000000000000000000000000000000000815250565b7f44657061727475726520636974793a2000000000000000000000000000000000815250565b7f44657374696e6174696f6e20636974793a200000000000000000000000000000815250565b7f0a506f6c696379205374617475733a2000000000000000000000000000000000815250565b5f611c8982611b9b565b601082019150611c9982896115fd565b9150611ca482611bc1565b601082019150611cb482886115fd565b9150611cbf82611be7565b600d82019150611ccf82876115fd565b9150611cda82611c0d565b601082019150611cea82866115fd565b9150611cf582611c33565b601282019150611d0582856115fd565b9150611d1082611c59565b601082019150611d2082846115fd565b915081905097965050505050505056fe5072656d69756d3a20302e3031204574686572200a496e64656d6e6974793a20302e3032204574686572200a436f766572616765206973737565733a206861696c20616e6420666c6f6f6473a264697066735822122012e09967fd35b8ea6ba57dab974162671acbb456ae7be0ecb43d9fda2464b89564736f6c634300081a0033",
					"opcodes": "PUSH1 0x80 PUSH1 0x40 MSTORE CALLVALUE DUP1 ISZERO PUSH2 0xF JUMPI PUSH0 DUP1 REVERT JUMPDEST POP PUSH1 0x40 MLOAD PUSH2 0x1EBF CODESIZE SUB DUP1 PUSH2 0x1EBF DUP4 CODECOPY DUP2 DUP2 ADD PUSH1 0x40 MSTORE DUP2 ADD SWAP1 PUSH2 0x31 SWAP2 SWAP1 PUSH2 0xD5 JUMP JUMPDEST DUP1 PUSH1 0x1 PUSH0 PUSH2 0x100 EXP DUP2 SLOAD DUP2 PUSH20 0xFFFFFFFFFFFFFFFFFFFFFFFFFFFFFFFFFFFFFFFF MUL NOT AND SWAP1 DUP4 PUSH20 0xFFFFFFFFFFFFFFFFFFFFFFFFFFFFFFFFFFFFFFFF AND MUL OR SWAP1 SSTORE POP POP PUSH2 0x100 JUMP JUMPDEST PUSH0 DUP1 REVERT JUMPDEST PUSH0 PUSH20 0xFFFFFFFFFFFFFFFFFFFFFFFFFFFFFFFFFFFFFFFF DUP3 AND SWAP1 POP SWAP2 SWAP1 POP JUMP JUMPDEST PUSH0 PUSH2 0xA4 DUP3 PUSH2 0x7B JUMP JUMPDEST SWAP1 POP SWAP2 SWAP1 POP JUMP JUMPDEST PUSH2 0xB4 DUP2 PUSH2 0x9A JUMP JUMPDEST DUP2 EQ PUSH2 0xBE JUMPI PUSH0 DUP1 REVERT JUMPDEST POP JUMP JUMPDEST PUSH0 DUP2 MLOAD SWAP1 POP PUSH2 0xCF DUP2 PUSH2 0xAB JUMP JUMPDEST SWAP3 SWAP2 POP POP JUMP JUMPDEST PUSH0 PUSH1 0x20 DUP3 DUP5 SUB SLT ISZERO PUSH2 0xEA JUMPI PUSH2 0xE9 PUSH2 0x77 JUMP JUMPDEST JUMPDEST PUSH0 PUSH2 0xF7 DUP5 DUP3 DUP6 ADD PUSH2 0xC1 JUMP JUMPDEST SWAP2 POP POP SWAP3 SWAP2 POP POP JUMP JUMPDEST PUSH2 0x1DB2 DUP1 PUSH2 0x10D PUSH0 CODECOPY PUSH0 RETURN INVALID PUSH1 0x80 PUSH1 0x40 MSTORE PUSH1 0x4 CALLDATASIZE LT PUSH2 0x89 JUMPI PUSH0 CALLDATALOAD PUSH1 0xE0 SHR DUP1 PUSH4 0xB698D6A1 GT PUSH2 0x58 JUMPI DUP1 PUSH4 0xB698D6A1 EQ PUSH2 0x146 JUMPI DUP1 PUSH4 0xC738B563 EQ PUSH2 0x182 JUMPI DUP1 PUSH4 0xCBE2E531 EQ PUSH2 0x1AC JUMPI DUP1 PUSH4 0xF25797C6 EQ PUSH2 0x1E8 JUMPI DUP1 PUSH4 0xFC735E99 EQ PUSH2 0x224 JUMPI PUSH2 0x90 JUMP JUMPDEST DUP1 PUSH4 0x1A65261C EQ PUSH2 0x94 JUMPI DUP1 PUSH4 0x35F7A712 EQ PUSH2 0xBE JUMPI DUP1 PUSH4 0x4A7BA3E5 EQ PUSH2 0xDA JUMPI DUP1 PUSH4 0x50DD73BE EQ PUSH2 0x11C JUMPI PUSH2 0x90 JUMP JUMPDEST CALLDATASIZE PUSH2 0x90 JUMPI STOP JUMPDEST PUSH0 DUP1 REVERT JUMPDEST CALLVALUE DUP1 ISZERO PUSH2 0x9F JUMPI PUSH0 DUP1 REVERT JUMPDEST POP PUSH2 0xA8 PUSH2 0x24E JUMP JUMPDEST PUSH1 0x40 MLOAD PUSH2 0xB5 SWAP2 SWAP1 PUSH2 0xF24 JUMP JUMPDEST PUSH1 0x40 MLOAD DUP1 SWAP2 SUB SWAP1 RETURN JUMPDEST PUSH2 0xD8 PUSH1 0x4 DUP1 CALLDATASIZE SUB DUP2 ADD SWAP1 PUSH2 0xD3 SWAP2 SWAP1 PUSH2 0x1010 JUMP JUMPDEST PUSH2 0x41A JUMP JUMPDEST STOP JUMPDEST CALLVALUE DUP1 ISZERO PUSH2 0xE5 JUMPI PUSH0 DUP1 REVERT JUMPDEST POP PUSH2 0x100 PUSH1 0x4 DUP1 CALLDATASIZE SUB DUP2 ADD SWAP1 PUSH2 0xFB SWAP2 SWAP1 PUSH2 0x1262 JUMP JUMPDEST PUSH2 0x786 JUMP JUMPDEST PUSH1 0x40 MLOAD PUSH2 0x113 SWAP8 SWAP7 SWAP6 SWAP5 SWAP4 SWAP3 SWAP2 SWAP1 PUSH2 0x12B8 JUMP JUMPDEST PUSH1 0x40 MLOAD DUP1 SWAP2 SUB SWAP1 RETURN JUMPDEST CALLVALUE DUP1 ISZERO PUSH2 0x127 JUMPI PUSH0 DUP1 REVERT JUMPDEST POP PUSH2 0x130 PUSH2 0xB1F JUMP JUMPDEST PUSH1 0x40 MLOAD PUSH2 0x13D SWAP2 SWAP1 PUSH2 0x134F JUMP JUMPDEST PUSH1 0x40 MLOAD DUP1 SWAP2 SUB SWAP1 RETURN JUMPDEST CALLVALUE DUP1 ISZERO PUSH2 0x151 JUMPI PUSH0 DUP1 REVERT JUMPDEST POP PUSH2 0x16C PUSH1 0x4 DUP1 CALLDATASIZE SUB DUP2 ADD SWAP1 PUSH2 0x167 SWAP2 SWAP1 PUSH2 0x139B JUMP JUMPDEST PUSH2 0xB44 JUMP JUMPDEST PUSH1 0x40 MLOAD PUSH2 0x179 SWAP2 SWAP1 PUSH2 0xF24 JUMP JUMPDEST PUSH1 0x40 MLOAD DUP1 SWAP2 SUB SWAP1 RETURN JUMPDEST CALLVALUE DUP1 ISZERO PUSH2 0x18D JUMPI PUSH0 DUP1 REVERT JUMPDEST POP PUSH2 0x196 PUSH2 0xBEA JUMP JUMPDEST PUSH1 0x40 MLOAD PUSH2 0x1A3 SWAP2 SWAP1 PUSH2 0xF24 JUMP JUMPDEST PUSH1 0x40 MLOAD DUP1 SWAP2 SUB SWAP1 RETURN JUMPDEST CALLVALUE DUP1 ISZERO PUSH2 0x1B7 JUMPI PUSH0 DUP1 REVERT JUMPDEST POP PUSH2 0x1D2 PUSH1 0x4 DUP1 CALLDATASIZE SUB DUP2 ADD SWAP1 PUSH2 0x1CD SWAP2 SWAP1 PUSH2 0x14A4 JUMP JUMPDEST PUSH2 0xC0A JUMP JUMPDEST PUSH1 0x40 MLOAD PUSH2 0x1DF SWAP2 SWAP1 PUSH2 0xF24 JUMP JUMPDEST PUSH1 0x40 MLOAD DUP1 SWAP2 SUB SWAP1 RETURN JUMPDEST CALLVALUE DUP1 ISZERO PUSH2 0x1F3 JUMPI PUSH0 DUP1 REVERT JUMPDEST POP PUSH2 0x20E PUSH1 0x4 DUP1 CALLDATASIZE SUB DUP2 ADD SWAP1 PUSH2 0x209 SWAP2 SWAP1 PUSH2 0x1262 JUMP JUMPDEST PUSH2 0xD85 JUMP JUMPDEST PUSH1 0x40 MLOAD PUSH2 0x21B SWAP2 SWAP1 PUSH2 0xF24 JUMP JUMPDEST PUSH1 0x40 MLOAD DUP1 SWAP2 SUB SWAP1 RETURN JUMPDEST CALLVALUE DUP1 ISZERO PUSH2 0x22F JUMPI PUSH0 DUP1 REVERT JUMPDEST POP PUSH2 0x238 PUSH2 0xE77 JUMP JUMPDEST PUSH1 0x40 MLOAD PUSH2 0x245 SWAP2 SWAP1 PUSH2 0xF24 JUMP JUMPDEST PUSH1 0x40 MLOAD DUP1 SWAP2 SUB SWAP1 RETURN JUMPDEST PUSH1 0x60 PUSH0 PUSH1 0x40 MLOAD DUP1 PUSH1 0x20 ADD PUSH1 0x40 MSTORE DUP1 PUSH0 DUP2 MSTORE POP SWAP1 POP PUSH0 JUMPDEST PUSH1 0x2 DUP1 SLOAD SWAP1 POP DUP2 LT ISZERO PUSH2 0x412 JUMPI PUSH0 PUSH1 0x2 DUP3 DUP2 SLOAD DUP2 LT PUSH2 0x286 JUMPI PUSH2 0x285 PUSH2 0x14EB JUMP JUMPDEST JUMPDEST SWAP1 PUSH0 MSTORE PUSH1 0x20 PUSH0 KECCAK256 ADD DUP1 SLOAD PUSH2 0x299 SWAP1 PUSH2 0x1545 JUMP JUMPDEST DUP1 PUSH1 0x1F ADD PUSH1 0x20 DUP1 SWAP2 DIV MUL PUSH1 0x20 ADD PUSH1 0x40 MLOAD SWAP1 DUP2 ADD PUSH1 0x40 MSTORE DUP1 SWAP3 SWAP2 SWAP1 DUP2 DUP2 MSTORE PUSH1 0x20 ADD DUP3 DUP1 SLOAD PUSH2 0x2C5 SWAP1 PUSH2 0x1545 JUMP JUMPDEST DUP1 ISZERO PUSH2 0x310 JUMPI DUP1 PUSH1 0x1F LT PUSH2 0x2E7 JUMPI PUSH2 0x100 DUP1 DUP4 SLOAD DIV MUL DUP4 MSTORE SWAP2 PUSH1 0x20 ADD SWAP2 PUSH2 0x310 JUMP JUMPDEST DUP3 ADD SWAP2 SWAP1 PUSH0 MSTORE PUSH1 0x20 PUSH0 KECCAK256 SWAP1 JUMPDEST DUP2 SLOAD DUP2 MSTORE SWAP1 PUSH1 0x1 ADD SWAP1 PUSH1 0x20 ADD DUP1 DUP4 GT PUSH2 0x2F3 JUMPI DUP3 SWAP1 SUB PUSH1 0x1F AND DUP3 ADD SWAP2 JUMPDEST POP POP POP POP POP SWAP1 POP DUP3 PUSH1 0x3 DUP3 PUSH1 0x40 MLOAD PUSH2 0x328 SWAP2 SWAP1 PUSH2 0x15AF JUMP JUMPDEST SWAP1 DUP2 MSTORE PUSH1 0x20 ADD PUSH1 0x40 MLOAD DUP1 SWAP2 SUB SWAP1 KECCAK256 PUSH0 ADD PUSH1 0x3 DUP4 PUSH1 0x40 MLOAD PUSH2 0x348 SWAP2 SWAP1 PUSH2 0x15AF JUMP JUMPDEST SWAP1 DUP2 MSTORE PUSH1 0x20 ADD PUSH1 0x40 MLOAD DUP1 SWAP2 SUB SWAP1 KECCAK256 PUSH1 0x2 ADD PUSH1 0x3 DUP5 PUSH1 0x40 MLOAD PUSH2 0x369 SWAP2 SWAP1 PUSH2 0x15AF JUMP JUMPDEST SWAP1 DUP2 MSTORE PUSH1 0x20 ADD PUSH1 0x40 MLOAD DUP1 SWAP2 SUB SWAP1 KECCAK256 PUSH1 0x3 ADD PUSH1 0x3 DUP6 PUSH1 0x40 MLOAD PUSH2 0x38A SWAP2 SWAP1 PUSH2 0x15AF JUMP JUMPDEST SWAP1 DUP2 MSTORE PUSH1 0x20 ADD PUSH1 0x40 MLOAD DUP1 SWAP2 SUB SWAP1 KECCAK256 PUSH1 0x4 ADD PUSH1 0x3 DUP7 PUSH1 0x40 MLOAD PUSH2 0x3AB SWAP2 SWAP1 PUSH2 0x15AF JUMP JUMPDEST SWAP1 DUP2 MSTORE PUSH1 0x20 ADD PUSH1 0x40 MLOAD DUP1 SWAP2 SUB SWAP1 KECCAK256 PUSH1 0x5 ADD PUSH1 0x3 DUP8 PUSH1 0x40 MLOAD PUSH2 0x3CC SWAP2 SWAP1 PUSH2 0x15AF JUMP JUMPDEST SWAP1 DUP2 MSTORE PUSH1 0x20 ADD PUSH1 0x40 MLOAD DUP1 SWAP2 SUB SWAP1 KECCAK256 PUSH1 0x6 ADD PUSH1 0x40 MLOAD PUSH1 0x20 ADD PUSH2 0x3F3 SWAP8 SWAP7 SWAP6 SWAP5 SWAP4 SWAP3 SWAP2 SWAP1 PUSH2 0x1761 JUMP JUMPDEST PUSH1 0x40 MLOAD PUSH1 0x20 DUP2 DUP4 SUB SUB DUP2 MSTORE SWAP1 PUSH1 0x40 MSTORE SWAP3 POP POP DUP1 DUP1 PUSH1 0x1 ADD SWAP2 POP POP PUSH2 0x264 JUMP JUMPDEST POP DUP1 SWAP2 POP POP SWAP1 JUMP JUMPDEST PUSH1 0x1 PUSH0 SWAP1 SLOAD SWAP1 PUSH2 0x100 EXP SWAP1 DIV PUSH20 0xFFFFFFFFFFFFFFFFFFFFFFFFFFFFFFFFFFFFFFFF AND PUSH20 0xFFFFFFFFFFFFFFFFFFFFFFFFFFFFFFFFFFFFFFFF AND PUSH2 0x8FC PUSH7 0x2386F26FC10000 SWAP1 DUP2 ISZERO MUL SWAP1 PUSH1 0x40 MLOAD PUSH0 PUSH1 0x40 MLOAD DUP1 DUP4 SUB DUP2 DUP6 DUP9 DUP9 CALL SWAP4 POP POP POP POP ISZERO DUP1 ISZERO PUSH2 0x485 JUMPI RETURNDATASIZE PUSH0 DUP1 RETURNDATACOPY RETURNDATASIZE PUSH0 REVERT JUMPDEST POP PUSH1 0x40 MLOAD DUP1 PUSH1 0xE0 ADD PUSH1 0x40 MSTORE DUP1 DUP13 DUP13 DUP1 DUP1 PUSH1 0x1F ADD PUSH1 0x20 DUP1 SWAP2 DIV MUL PUSH1 0x20 ADD PUSH1 0x40 MLOAD SWAP1 DUP2 ADD PUSH1 0x40 MSTORE DUP1 SWAP4 SWAP3 SWAP2 SWAP1 DUP2 DUP2 MSTORE PUSH1 0x20 ADD DUP4 DUP4 DUP1 DUP3 DUP5 CALLDATACOPY PUSH0 DUP2 DUP5 ADD MSTORE PUSH1 0x1F NOT PUSH1 0x1F DUP3 ADD AND SWAP1 POP DUP1 DUP4 ADD SWAP3 POP POP POP POP POP POP POP DUP2 MSTORE PUSH1 0x20 ADD DUP11 PUSH20 0xFFFFFFFFFFFFFFFFFFFFFFFFFFFFFFFFFFFFFFFF AND DUP2 MSTORE PUSH1 0x20 ADD DUP10 DUP10 DUP1 DUP1 PUSH1 0x1F ADD PUSH1 0x20 DUP1 SWAP2 DIV MUL PUSH1 0x20 ADD PUSH1 0x40 MLOAD SWAP1 DUP2 ADD PUSH1 0x40 MSTORE DUP1 SWAP4 SWAP3 SWAP2 SWAP1 DUP2 DUP2 MSTORE PUSH1 0x20 ADD DUP4 DUP4 DUP1 DUP3 DUP5 CALLDATACOPY PUSH0 DUP2 DUP5 ADD MSTORE PUSH1 0x1F NOT PUSH1 0x1F DUP3 ADD AND SWAP1 POP DUP1 DUP4 ADD SWAP3 POP POP POP POP POP POP POP DUP2 MSTORE PUSH1 0x20 ADD DUP8 DUP8 DUP1 DUP1 PUSH1 0x1F ADD PUSH1 0x20 DUP1 SWAP2 DIV MUL PUSH1 0x20 ADD PUSH1 0x40 MLOAD SWAP1 DUP2 ADD PUSH1 0x40 MSTORE DUP1 SWAP4 SWAP3 SWAP2 SWAP1 DUP2 DUP2 MSTORE PUSH1 0x20 ADD DUP4 DUP4 DUP1 DUP3 DUP5 CALLDATACOPY PUSH0 DUP2 DUP5 ADD MSTORE PUSH1 0x1F NOT PUSH1 0x1F DUP3 ADD AND SWAP1 POP DUP1 DUP4 ADD SWAP3 POP POP POP POP POP POP POP DUP2 MSTORE PUSH1 0x20 ADD DUP6 DUP6 DUP1 DUP1 PUSH1 0x1F ADD PUSH1 0x20 DUP1 SWAP2 DIV MUL PUSH1 0x20 ADD PUSH1 0x40 MLOAD SWAP1 DUP2 ADD PUSH1 0x40 MSTORE DUP1 SWAP4 SWAP3 SWAP2 SWAP1 DUP2 DUP2 MSTORE PUSH1 0x20 ADD DUP4 DUP4 DUP1 DUP3 DUP5 CALLDATACOPY PUSH0 DUP2 DUP5 ADD MSTORE PUSH1 0x1F NOT PUSH1 0x1F DUP3 ADD AND SWAP1 POP DUP1 DUP4 ADD SWAP3 POP POP POP POP POP POP POP DUP2 MSTORE PUSH1 0x20 ADD DUP4 DUP4 DUP1 DUP1 PUSH1 0x1F ADD PUSH1 0x20 DUP1 SWAP2 DIV MUL PUSH1 0x20 ADD PUSH1 0x40 MLOAD SWAP1 DUP2 ADD PUSH1 0x40 MSTORE DUP1 SWAP4 SWAP3 SWAP2 SWAP1 DUP2 DUP2 MSTORE PUSH1 0x20 ADD DUP4 DUP4 DUP1 DUP3 DUP5 CALLDATACOPY PUSH0 DUP2 DUP5 ADD MSTORE PUSH1 0x1F NOT PUSH1 0x1F DUP3 ADD AND SWAP1 POP DUP1 DUP4 ADD SWAP3 POP POP POP POP POP POP POP DUP2 MSTORE PUSH1 0x20 ADD PUSH1 0x40 MLOAD DUP1 PUSH1 0x40 ADD PUSH1 0x40 MSTORE DUP1 PUSH1 0x9 DUP2 MSTORE PUSH1 0x20 ADD PUSH32 0x5075726368617365640000000000000000000000000000000000000000000000 DUP2 MSTORE POP DUP2 MSTORE POP PUSH1 0x3 DUP13 DUP13 PUSH1 0x40 MLOAD PUSH2 0x665 SWAP3 SWAP2 SWAP1 PUSH2 0x1852 JUMP JUMPDEST SWAP1 DUP2 MSTORE PUSH1 0x20 ADD PUSH1 0x40 MLOAD DUP1 SWAP2 SUB SWAP1 KECCAK256 PUSH0 DUP3 ADD MLOAD DUP2 PUSH0 ADD SWAP1 DUP2 PUSH2 0x686 SWAP2 SWAP1 PUSH2 0x19F5 JUMP JUMPDEST POP PUSH1 0x20 DUP3 ADD MLOAD DUP2 PUSH1 0x1 ADD PUSH0 PUSH2 0x100 EXP DUP2 SLOAD DUP2 PUSH20 0xFFFFFFFFFFFFFFFFFFFFFFFFFFFFFFFFFFFFFFFF MUL NOT AND SWAP1 DUP4 PUSH20 0xFFFFFFFFFFFFFFFFFFFFFFFFFFFFFFFFFFFFFFFF AND MUL OR SWAP1 SSTORE POP PUSH1 0x40 DUP3 ADD MLOAD DUP2 PUSH1 0x2 ADD SWAP1 DUP2 PUSH2 0x6E2 SWAP2 SWAP1 PUSH2 0x19F5 JUMP JUMPDEST POP PUSH1 0x60 DUP3 ADD MLOAD DUP2 PUSH1 0x3 ADD SWAP1 DUP2 PUSH2 0x6F8 SWAP2 SWAP1 PUSH2 0x19F5 JUMP JUMPDEST POP PUSH1 0x80 DUP3 ADD MLOAD DUP2 PUSH1 0x4 ADD SWAP1 DUP2 PUSH2 0x70E SWAP2 SWAP1 PUSH2 0x19F5 JUMP JUMPDEST POP PUSH1 0xA0 DUP3 ADD MLOAD DUP2 PUSH1 0x5 ADD SWAP1 DUP2 PUSH2 0x724 SWAP2 SWAP1 PUSH2 0x19F5 JUMP JUMPDEST POP PUSH1 0xC0 DUP3 ADD MLOAD DUP2 PUSH1 0x6 ADD SWAP1 DUP2 PUSH2 0x73A SWAP2 SWAP1 PUSH2 0x19F5 JUMP JUMPDEST POP SWAP1 POP POP PUSH1 0x2 DUP12 DUP12 SWAP1 SWAP2 DUP1 PUSH1 0x1 DUP2 SLOAD ADD DUP1 DUP3 SSTORE DUP1 SWAP2 POP POP PUSH1 0x1 SWAP1 SUB SWAP1 PUSH0 MSTORE PUSH1 0x20 PUSH0 KECCAK256 ADD PUSH0 SWAP1 SWAP2 SWAP3 SWAP1 SWAP2 SWAP3 SWAP1 SWAP2 SWAP3 SWAP1 SWAP2 SWAP3 POP SWAP2 DUP3 PUSH2 0x778 SWAP3 SWAP2 SWAP1 PUSH2 0x1ACE JUMP JUMPDEST POP POP POP POP POP POP POP POP POP POP POP POP JUMP JUMPDEST PUSH1 0x3 DUP2 DUP1 MLOAD PUSH1 0x20 DUP2 ADD DUP3 ADD DUP1 MLOAD DUP5 DUP3 MSTORE PUSH1 0x20 DUP4 ADD PUSH1 0x20 DUP6 ADD KECCAK256 DUP2 DUP4 MSTORE DUP1 SWAP6 POP POP POP POP POP POP PUSH0 SWAP2 POP SWAP1 POP DUP1 PUSH0 ADD DUP1 SLOAD PUSH2 0x7BD SWAP1 PUSH2 0x1545 JUMP JUMPDEST DUP1 PUSH1 0x1F ADD PUSH1 0x20 DUP1 SWAP2 DIV MUL PUSH1 0x20 ADD PUSH1 0x40 MLOAD SWAP1 DUP2 ADD PUSH1 0x40 MSTORE DUP1 SWAP3 SWAP2 SWAP1 DUP2 DUP2 MSTORE PUSH1 0x20 ADD DUP3 DUP1 SLOAD PUSH2 0x7E9 SWAP1 PUSH2 0x1545 JUMP JUMPDEST DUP1 ISZERO PUSH2 0x834 JUMPI DUP1 PUSH1 0x1F LT PUSH2 0x80B JUMPI PUSH2 0x100 DUP1 DUP4 SLOAD DIV MUL DUP4 MSTORE SWAP2 PUSH1 0x20 ADD SWAP2 PUSH2 0x834 JUMP JUMPDEST DUP3 ADD SWAP2 SWAP1 PUSH0 MSTORE PUSH1 0x20 PUSH0 KECCAK256 SWAP1 JUMPDEST DUP2 SLOAD DUP2 MSTORE SWAP1 PUSH1 0x1 ADD SWAP1 PUSH1 0x20 ADD DUP1 DUP4 GT PUSH2 0x817 JUMPI DUP3 SWAP1 SUB PUSH1 0x1F AND DUP3 ADD SWAP2 JUMPDEST POP POP POP POP POP SWAP1 DUP1 PUSH1 0x1 ADD PUSH0 SWAP1 SLOAD SWAP1 PUSH2 0x100 EXP SWAP1 DIV PUSH20 0xFFFFFFFFFFFFFFFFFFFFFFFFFFFFFFFFFFFFFFFF AND SWAP1 DUP1 PUSH1 0x2 ADD DUP1 SLOAD PUSH2 0x86E SWAP1 PUSH2 0x1545 JUMP JUMPDEST DUP1 PUSH1 0x1F ADD PUSH1 0x20 DUP1 SWAP2 DIV MUL PUSH1 0x20 ADD PUSH1 0x40 MLOAD SWAP1 DUP2 ADD PUSH1 0x40 MSTORE DUP1 SWAP3 SWAP2 SWAP1 DUP2 DUP2 MSTORE PUSH1 0x20 ADD DUP3 DUP1 SLOAD PUSH2 0x89A SWAP1 PUSH2 0x1545 JUMP JUMPDEST DUP1 ISZERO PUSH2 0x8E5 JUMPI DUP1 PUSH1 0x1F LT PUSH2 0x8BC JUMPI PUSH2 0x100 DUP1 DUP4 SLOAD DIV MUL DUP4 MSTORE SWAP2 PUSH1 0x20 ADD SWAP2 PUSH2 0x8E5 JUMP JUMPDEST DUP3 ADD SWAP2 SWAP1 PUSH0 MSTORE PUSH1 0x20 PUSH0 KECCAK256 SWAP1 JUMPDEST DUP2 SLOAD DUP2 MSTORE SWAP1 PUSH1 0x1 ADD SWAP1 PUSH1 0x20 ADD DUP1 DUP4 GT PUSH2 0x8C8 JUMPI DUP3 SWAP1 SUB PUSH1 0x1F AND DUP3 ADD SWAP2 JUMPDEST POP POP POP POP POP SWAP1 DUP1 PUSH1 0x3 ADD DUP1 SLOAD PUSH2 0x8FA SWAP1 PUSH2 0x1545 JUMP JUMPDEST DUP1 PUSH1 0x1F ADD PUSH1 0x20 DUP1 SWAP2 DIV MUL PUSH1 0x20 ADD PUSH1 0x40 MLOAD SWAP1 DUP2 ADD PUSH1 0x40 MSTORE DUP1 SWAP3 SWAP2 SWAP1 DUP2 DUP2 MSTORE PUSH1 0x20 ADD DUP3 DUP1 SLOAD PUSH2 0x926 SWAP1 PUSH2 0x1545 JUMP JUMPDEST DUP1 ISZERO PUSH2 0x971 JUMPI DUP1 PUSH1 0x1F LT PUSH2 0x948 JUMPI PUSH2 0x100 DUP1 DUP4 SLOAD DIV MUL DUP4 MSTORE SWAP2 PUSH1 0x20 ADD SWAP2 PUSH2 0x971 JUMP JUMPDEST DUP3 ADD SWAP2 SWAP1 PUSH0 MSTORE PUSH1 0x20 PUSH0 KECCAK256 SWAP1 JUMPDEST DUP2 SLOAD DUP2 MSTORE SWAP1 PUSH1 0x1 ADD SWAP1 PUSH1 0x20 ADD DUP1 DUP4 GT PUSH2 0x954 JUMPI DUP3 SWAP1 SUB PUSH1 0x1F AND DUP3 ADD SWAP2 JUMPDEST POP POP POP POP POP SWAP1 DUP1 PUSH1 0x4 ADD DUP1 SLOAD PUSH2 0x986 SWAP1 PUSH2 0x1545 JUMP JUMPDEST DUP1 PUSH1 0x1F ADD PUSH1 0x20 DUP1 SWAP2 DIV MUL PUSH1 0x20 ADD PUSH1 0x40 MLOAD SWAP1 DUP2 ADD PUSH1 0x40 MSTORE DUP1 SWAP3 SWAP2 SWAP1 DUP2 DUP2 MSTORE PUSH1 0x20 ADD DUP3 DUP1 SLOAD PUSH2 0x9B2 SWAP1 PUSH2 0x1545 JUMP JUMPDEST DUP1 ISZERO PUSH2 0x9FD JUMPI DUP1 PUSH1 0x1F LT PUSH2 0x9D4 JUMPI PUSH2 0x100 DUP1 DUP4 SLOAD DIV MUL DUP4 MSTORE SWAP2 PUSH1 0x20 ADD SWAP2 PUSH2 0x9FD JUMP JUMPDEST DUP3 ADD SWAP2 SWAP1 PUSH0 MSTORE PUSH1 0x20 PUSH0 KECCAK256 SWAP1 JUMPDEST DUP2 SLOAD DUP2 MSTORE SWAP1 PUSH1 0x1 ADD SWAP1 PUSH1 0x20 ADD DUP1 DUP4 GT PUSH2 0x9E0 JUMPI DUP3 SWAP1 SUB PUSH1 0x1F AND DUP3 ADD SWAP2 JUMPDEST POP POP POP POP POP SWAP1 DUP1 PUSH1 0x5 ADD DUP1 SLOAD PUSH2 0xA12 SWAP1 PUSH2 0x1545 JUMP JUMPDEST DUP1 PUSH1 0x1F ADD PUSH1 0x20 DUP1 SWAP2 DIV MUL PUSH1 0x20 ADD PUSH1 0x40 MLOAD SWAP1 DUP2 ADD PUSH1 0x40 MSTORE DUP1 SWAP3 SWAP2 SWAP1 DUP2 DUP2 MSTORE PUSH1 0x20 ADD DUP3 DUP1 SLOAD PUSH2 0xA3E SWAP1 PUSH2 0x1545 JUMP JUMPDEST DUP1 ISZERO PUSH2 0xA89 JUMPI DUP1 PUSH1 0x1F LT PUSH2 0xA60 JUMPI PUSH2 0x100 DUP1 DUP4 SLOAD DIV MUL DUP4 MSTORE SWAP2 PUSH1 0x20 ADD SWAP2 PUSH2 0xA89 JUMP JUMPDEST DUP3 ADD SWAP2 SWAP1 PUSH0 MSTORE PUSH1 0x20 PUSH0 KECCAK256 SWAP1 JUMPDEST DUP2 SLOAD DUP2 MSTORE SWAP1 PUSH1 0x1 ADD SWAP1 PUSH1 0x20 ADD DUP1 DUP4 GT PUSH2 0xA6C JUMPI DUP3 SWAP1 SUB PUSH1 0x1F AND DUP3 ADD SWAP2 JUMPDEST POP POP POP POP POP SWAP1 DUP1 PUSH1 0x6 ADD DUP1 SLOAD PUSH2 0xA9E SWAP1 PUSH2 0x1545 JUMP JUMPDEST DUP1 PUSH1 0x1F ADD PUSH1 0x20 DUP1 SWAP2 DIV MUL PUSH1 0x20 ADD PUSH1 0x40 MLOAD SWAP1 DUP2 ADD PUSH1 0x40 MSTORE DUP1 SWAP3 SWAP2 SWAP1 DUP2 DUP2 MSTORE PUSH1 0x20 ADD DUP3 DUP1 SLOAD PUSH2 0xACA SWAP1 PUSH2 0x1545 JUMP JUMPDEST DUP1 ISZERO PUSH2 0xB15 JUMPI DUP1 PUSH1 0x1F LT PUSH2 0xAEC JUMPI PUSH2 0x100 DUP1 DUP4 SLOAD DIV MUL DUP4 MSTORE SWAP2 PUSH1 0x20 ADD SWAP2 PUSH2 0xB15 JUMP JUMPDEST DUP3 ADD SWAP2 SWAP1 PUSH0 MSTORE PUSH1 0x20 PUSH0 KECCAK256 SWAP1 JUMPDEST DUP2 SLOAD DUP2 MSTORE SWAP1 PUSH1 0x1 ADD SWAP1 PUSH1 0x20 ADD DUP1 DUP4 GT PUSH2 0xAF8 JUMPI DUP3 SWAP1 SUB PUSH1 0x1F AND DUP3 ADD SWAP2 JUMPDEST POP POP POP POP POP SWAP1 POP DUP8 JUMP JUMPDEST PUSH1 0x1 PUSH0 SWAP1 SLOAD SWAP1 PUSH2 0x100 EXP SWAP1 DIV PUSH20 0xFFFFFFFFFFFFFFFFFFFFFFFFFFFFFFFFFFFFFFFF AND DUP2 JUMP JUMPDEST PUSH1 0x2 DUP2 DUP2 SLOAD DUP2 LT PUSH2 0xB53 JUMPI PUSH0 DUP1 REVERT JUMPDEST SWAP1 PUSH0 MSTORE PUSH1 0x20 PUSH0 KECCAK256 ADD PUSH0 SWAP2 POP SWAP1 POP DUP1 SLOAD PUSH2 0xB6B SWAP1 PUSH2 0x1545 JUMP JUMPDEST DUP1 PUSH1 0x1F ADD PUSH1 0x20 DUP1 SWAP2 DIV MUL PUSH1 0x20 ADD PUSH1 0x40 MLOAD SWAP1 DUP2 ADD PUSH1 0x40 MSTORE DUP1 SWAP3 SWAP2 SWAP1 DUP2 DUP2 MSTORE PUSH1 0x20 ADD DUP3 DUP1 SLOAD PUSH2 0xB97 SWAP1 PUSH2 0x1545 JUMP JUMPDEST DUP1 ISZERO PUSH2 0xBE2 JUMPI DUP1 PUSH1 0x1F LT PUSH2 0xBB9 JUMPI PUSH2 0x100 DUP1 DUP4 SLOAD DIV MUL DUP4 MSTORE SWAP2 PUSH1 0x20 ADD SWAP2 PUSH2 0xBE2 JUMP JUMPDEST DUP3 ADD SWAP2 SWAP1 PUSH0 MSTORE PUSH1 0x20 PUSH0 KECCAK256 SWAP1 JUMPDEST DUP2 SLOAD DUP2 MSTORE SWAP1 PUSH1 0x1 ADD SWAP1 PUSH1 0x20 ADD DUP1 DUP4 GT PUSH2 0xBC5 JUMPI DUP3 SWAP1 SUB PUSH1 0x1F AND DUP3 ADD SWAP2 JUMPDEST POP POP POP POP POP DUP2 JUMP JUMPDEST PUSH1 0x60 PUSH1 0x40 MLOAD DUP1 PUSH1 0x80 ADD PUSH1 0x40 MSTORE DUP1 PUSH1 0x4C DUP2 MSTORE PUSH1 0x20 ADD PUSH2 0x1D31 PUSH1 0x4C SWAP2 CODECOPY SWAP1 POP SWAP1 JUMP JUMPDEST PUSH1 0x60 PUSH0 JUMPDEST DUP3 MLOAD DUP2 LT ISZERO PUSH2 0xD47 JUMPI PUSH1 0x3 DUP4 DUP3 DUP2 MLOAD DUP2 LT PUSH2 0xC2C JUMPI PUSH2 0xC2B PUSH2 0x14EB JUMP JUMPDEST JUMPDEST PUSH1 0x20 MUL PUSH1 0x20 ADD ADD MLOAD PUSH1 0x40 MLOAD PUSH2 0xC41 SWAP2 SWAP1 PUSH2 0x15AF JUMP JUMPDEST SWAP1 DUP2 MSTORE PUSH1 0x20 ADD PUSH1 0x40 MLOAD DUP1 SWAP2 SUB SWAP1 KECCAK256 PUSH1 0x1 ADD PUSH0 SWAP1 SLOAD SWAP1 PUSH2 0x100 EXP SWAP1 DIV PUSH20 0xFFFFFFFFFFFFFFFFFFFFFFFFFFFFFFFFFFFFFFFF AND PUSH20 0xFFFFFFFFFFFFFFFFFFFFFFFFFFFFFFFFFFFFFFFF AND PUSH2 0x8FC PUSH7 0x470DE4DF820000 SWAP1 DUP2 ISZERO MUL SWAP1 PUSH1 0x40 MLOAD PUSH0 PUSH1 0x40 MLOAD DUP1 DUP4 SUB DUP2 DUP6 DUP9 DUP9 CALL SWAP4 POP POP POP POP ISZERO DUP1 ISZERO PUSH2 0xCBB JUMPI RETURNDATASIZE PUSH0 DUP1 RETURNDATACOPY RETURNDATASIZE PUSH0 REVERT JUMPDEST POP PUSH1 0x40 MLOAD DUP1 PUSH1 0x40 ADD PUSH1 0x40 MSTORE DUP1 PUSH1 0x7 DUP2 MSTORE PUSH1 0x20 ADD PUSH32 0x436C61696D656400000000000000000000000000000000000000000000000000 DUP2 MSTORE POP PUSH1 0x3 DUP5 DUP4 DUP2 MLOAD DUP2 LT PUSH2 0xD07 JUMPI PUSH2 0xD06 PUSH2 0x14EB JUMP JUMPDEST JUMPDEST PUSH1 0x20 MUL PUSH1 0x20 ADD ADD MLOAD PUSH1 0x40 MLOAD PUSH2 0xD1C SWAP2 SWAP1 PUSH2 0x15AF JUMP JUMPDEST SWAP1 DUP2 MSTORE PUSH1 0x20 ADD PUSH1 0x40 MLOAD DUP1 SWAP2 SUB SWAP1 KECCAK256 PUSH1 0x6 ADD SWAP1 DUP2 PUSH2 0xD39 SWAP2 SWAP1 PUSH2 0x19F5 JUMP JUMPDEST POP DUP1 DUP1 PUSH1 0x1 ADD SWAP2 POP POP PUSH2 0xC0E JUMP JUMPDEST POP PUSH1 0x40 MLOAD DUP1 PUSH1 0x40 ADD PUSH1 0x40 MSTORE DUP1 PUSH1 0x14 DUP2 MSTORE PUSH1 0x20 ADD PUSH32 0x5061796D656E7473207375636365737366756C21000000000000000000000000 DUP2 MSTORE POP SWAP1 POP SWAP2 SWAP1 POP JUMP JUMPDEST PUSH1 0x60 PUSH1 0x3 DUP3 PUSH1 0x40 MLOAD PUSH2 0xD97 SWAP2 SWAP1 PUSH2 0x15AF JUMP JUMPDEST SWAP1 DUP2 MSTORE PUSH1 0x20 ADD PUSH1 0x40 MLOAD DUP1 SWAP2 SUB SWAP1 KECCAK256 PUSH0 ADD PUSH1 0x3 DUP4 PUSH1 0x40 MLOAD PUSH2 0xDB7 SWAP2 SWAP1 PUSH2 0x15AF JUMP JUMPDEST SWAP1 DUP2 MSTORE PUSH1 0x20 ADD PUSH1 0x40 MLOAD DUP1 SWAP2 SUB SWAP1 KECCAK256 PUSH1 0x2 ADD PUSH1 0x3 DUP5 PUSH1 0x40 MLOAD PUSH2 0xDD8 SWAP2 SWAP1 PUSH2 0x15AF JUMP JUMPDEST SWAP1 DUP2 MSTORE PUSH1 0x20 ADD PUSH1 0x40 MLOAD DUP1 SWAP2 SUB SWAP1 KECCAK256 PUSH1 0x3 ADD PUSH1 0x3 DUP6 PUSH1 0x40 MLOAD PUSH2 0xDF9 SWAP2 SWAP1 PUSH2 0x15AF JUMP JUMPDEST SWAP1 DUP2 MSTORE PUSH1 0x20 ADD PUSH1 0x40 MLOAD DUP1 SWAP2 SUB SWAP1 KECCAK256 PUSH1 0x4 ADD PUSH1 0x3 DUP7 PUSH1 0x40 MLOAD PUSH2 0xE1A SWAP2 SWAP1 PUSH2 0x15AF JUMP JUMPDEST SWAP1 DUP2 MSTORE PUSH1 0x20 ADD PUSH1 0x40 MLOAD DUP1 SWAP2 SUB SWAP1 KECCAK256 PUSH1 0x5 ADD PUSH1 0x3 DUP8 PUSH1 0x40 MLOAD PUSH2 0xE3B SWAP2 SWAP1 PUSH2 0x15AF JUMP JUMPDEST SWAP1 DUP2 MSTORE PUSH1 0x20 ADD PUSH1 0x40 MLOAD DUP1 SWAP2 SUB SWAP1 KECCAK256 PUSH1 0x6 ADD PUSH1 0x40 MLOAD PUSH1 0x20 ADD PUSH2 0xE61 SWAP7 SWAP6 SWAP5 SWAP4 SWAP3 SWAP2 SWAP1 PUSH2 0x1C7F JUMP JUMPDEST PUSH1 0x40 MLOAD PUSH1 0x20 DUP2 DUP4 SUB SUB DUP2 MSTORE SWAP1 PUSH1 0x40 MSTORE SWAP1 POP SWAP2 SWAP1 POP JUMP JUMPDEST PUSH1 0x60 PUSH1 0x40 MLOAD DUP1 PUSH1 0x40 ADD PUSH1 0x40 MSTORE DUP1 PUSH1 0x9 DUP2 MSTORE PUSH1 0x20 ADD PUSH32 0x5665726966696564210000000000000000000000000000000000000000000000 DUP2 MSTORE POP SWAP1 POP SWAP1 JUMP JUMPDEST PUSH0 DUP2 MLOAD SWAP1 POP SWAP2 SWAP1 POP JUMP JUMPDEST PUSH0 DUP3 DUP3 MSTORE PUSH1 0x20 DUP3 ADD SWAP1 POP SWAP3 SWAP2 POP POP JUMP JUMPDEST DUP3 DUP2 DUP4 MCOPY PUSH0 DUP4 DUP4 ADD MSTORE POP POP POP JUMP JUMPDEST PUSH0 PUSH1 0x1F NOT PUSH1 0x1F DUP4 ADD AND SWAP1 POP SWAP2 SWAP1 POP JUMP JUMPDEST PUSH0 PUSH2 0xEF6 DUP3 PUSH2 0xEB4 JUMP JUMPDEST PUSH2 0xF00 DUP2 DUP6 PUSH2 0xEBE JUMP JUMPDEST SWAP4 POP PUSH2 0xF10 DUP2 DUP6 PUSH1 0x20 DUP7 ADD PUSH2 0xECE JUMP JUMPDEST PUSH2 0xF19 DUP2 PUSH2 0xEDC JUMP JUMPDEST DUP5 ADD SWAP2 POP POP SWAP3 SWAP2 POP POP JUMP JUMPDEST PUSH0 PUSH1 0x20 DUP3 ADD SWAP1 POP DUP2 DUP2 SUB PUSH0 DUP4 ADD MSTORE PUSH2 0xF3C DUP2 DUP5 PUSH2 0xEEC JUMP JUMPDEST SWAP1 POP SWAP3 SWAP2 POP POP JUMP JUMPDEST PUSH0 PUSH1 0x40 MLOAD SWAP1 POP SWAP1 JUMP JUMPDEST PUSH0 DUP1 REVERT JUMPDEST PUSH0 DUP1 REVERT JUMPDEST PUSH0 DUP1 REVERT JUMPDEST PUSH0 DUP1 REVERT JUMPDEST PUSH0 DUP1 REVERT JUMPDEST PUSH0 DUP1 DUP4 PUSH1 0x1F DUP5 ADD SLT PUSH2 0xF76 JUMPI PUSH2 0xF75 PUSH2 0xF55 JUMP JUMPDEST JUMPDEST DUP3 CALLDATALOAD SWAP1 POP PUSH8 0xFFFFFFFFFFFFFFFF DUP2 GT ISZERO PUSH2 0xF93 JUMPI PUSH2 0xF92 PUSH2 0xF59 JUMP JUMPDEST JUMPDEST PUSH1 0x20 DUP4 ADD SWAP2 POP DUP4 PUSH1 0x1 DUP3 MUL DUP4 ADD GT ISZERO PUSH2 0xFAF JUMPI PUSH2 0xFAE PUSH2 0xF5D JUMP JUMPDEST JUMPDEST SWAP3 POP SWAP3 SWAP1 POP JUMP JUMPDEST PUSH0 PUSH20 0xFFFFFFFFFFFFFFFFFFFFFFFFFFFFFFFFFFFFFFFF DUP3 AND SWAP1 POP SWAP2 SWAP1 POP JUMP JUMPDEST PUSH0 PUSH2 0xFDF DUP3 PUSH2 0xFB6 JUMP JUMPDEST SWAP1 POP SWAP2 SWAP1 POP JUMP JUMPDEST PUSH2 0xFEF DUP2 PUSH2 0xFD5 JUMP JUMPDEST DUP2 EQ PUSH2 0xFF9 JUMPI PUSH0 DUP1 REVERT JUMPDEST POP JUMP JUMPDEST PUSH0 DUP2 CALLDATALOAD SWAP1 POP PUSH2 0x100A DUP2 PUSH2 0xFE6 JUMP JUMPDEST SWAP3 SWAP2 POP POP JUMP JUMPDEST PUSH0 DUP1 PUSH0 DUP1 PUSH0 DUP1 PUSH0 DUP1 PUSH0 DUP1 PUSH0 PUSH1 0xC0 DUP13 DUP15 SUB SLT ISZERO PUSH2 0x102F JUMPI PUSH2 0x102E PUSH2 0xF4D JUMP JUMPDEST JUMPDEST PUSH0 DUP13 ADD CALLDATALOAD PUSH8 0xFFFFFFFFFFFFFFFF DUP2 GT ISZERO PUSH2 0x104C JUMPI PUSH2 0x104B PUSH2 0xF51 JUMP JUMPDEST JUMPDEST PUSH2 0x1058 DUP15 DUP3 DUP16 ADD PUSH2 0xF61 JUMP JUMPDEST SWAP12 POP SWAP12 POP POP PUSH1 0x20 PUSH2 0x106B DUP15 DUP3 DUP16 ADD PUSH2 0xFFC JUMP JUMPDEST SWAP10 POP POP PUSH1 0x40 DUP13 ADD CALLDATALOAD PUSH8 0xFFFFFFFFFFFFFFFF DUP2 GT ISZERO PUSH2 0x108C JUMPI PUSH2 0x108B PUSH2 0xF51 JUMP JUMPDEST JUMPDEST PUSH2 0x1098 DUP15 DUP3 DUP16 ADD PUSH2 0xF61 JUMP JUMPDEST SWAP9 POP SWAP9 POP POP PUSH1 0x60 DUP13 ADD CALLDATALOAD PUSH8 0xFFFFFFFFFFFFFFFF DUP2 GT ISZERO PUSH2 0x10BB JUMPI PUSH2 0x10BA PUSH2 0xF51 JUMP JUMPDEST JUMPDEST PUSH2 0x10C7 DUP15 DUP3 DUP16 ADD PUSH2 0xF61 JUMP JUMPDEST SWAP7 POP SWAP7 POP POP PUSH1 0x80 DUP13 ADD CALLDATALOAD PUSH8 0xFFFFFFFFFFFFFFFF DUP2 GT ISZERO PUSH2 0x10EA JUMPI PUSH2 0x10E9 PUSH2 0xF51 JUMP JUMPDEST JUMPDEST PUSH2 0x10F6 DUP15 DUP3 DUP16 ADD PUSH2 0xF61 JUMP JUMPDEST SWAP5 POP SWAP5 POP POP PUSH1 0xA0 DUP13 ADD CALLDATALOAD PUSH8 0xFFFFFFFFFFFFFFFF DUP2 GT ISZERO PUSH2 0x1119 JUMPI PUSH2 0x1118 PUSH2 0xF51 JUMP JUMPDEST JUMPDEST PUSH2 0x1125 DUP15 DUP3 DUP16 ADD PUSH2 0xF61 JUMP JUMPDEST SWAP3 POP SWAP3 POP POP SWAP3 SWAP6 SWAP9 SWAP12 POP SWAP3 SWAP6 SWAP9 SWAP12 SWAP1 SWAP4 SWAP7 SWAP10 POP JUMP JUMPDEST PUSH0 DUP1 REVERT JUMPDEST PUSH32 0x4E487B7100000000000000000000000000000000000000000000000000000000 PUSH0 MSTORE PUSH1 0x41 PUSH1 0x4 MSTORE PUSH1 0x24 PUSH0 REVERT JUMPDEST PUSH2 0x1174 DUP3 PUSH2 0xEDC JUMP JUMPDEST DUP2 ADD DUP2 DUP2 LT PUSH8 0xFFFFFFFFFFFFFFFF DUP3 GT OR ISZERO PUSH2 0x1193 JUMPI PUSH2 0x1192 PUSH2 0x113E JUMP JUMPDEST JUMPDEST DUP1 PUSH1 0x40 MSTORE POP POP POP JUMP JUMPDEST PUSH0 PUSH2 0x11A5 PUSH2 0xF44 JUMP JUMPDEST SWAP1 POP PUSH2 0x11B1 DUP3 DUP3 PUSH2 0x116B JUMP JUMPDEST SWAP2 SWAP1 POP JUMP JUMPDEST PUSH0 PUSH8 0xFFFFFFFFFFFFFFFF DUP3 GT ISZERO PUSH2 0x11D0 JUMPI PUSH2 0x11CF PUSH2 0x113E JUMP JUMPDEST JUMPDEST PUSH2 0x11D9 DUP3 PUSH2 0xEDC JUMP JUMPDEST SWAP1 POP PUSH1 0x20 DUP2 ADD SWAP1 POP SWAP2 SWAP1 POP JUMP JUMPDEST DUP3 DUP2 DUP4 CALLDATACOPY PUSH0 DUP4 DUP4 ADD MSTORE POP POP POP JUMP JUMPDEST PUSH0 PUSH2 0x1206 PUSH2 0x1201 DUP5 PUSH2 0x11B6 JUMP JUMPDEST PUSH2 0x119C JUMP JUMPDEST SWAP1 POP DUP3 DUP2 MSTORE PUSH1 0x20 DUP2 ADD DUP5 DUP5 DUP5 ADD GT ISZERO PUSH2 0x1222 JUMPI PUSH2 0x1221 PUSH2 0x113A JUMP JUMPDEST JUMPDEST PUSH2 0x122D DUP5 DUP3 DUP6 PUSH2 0x11E6 JUMP JUMPDEST POP SWAP4 SWAP3 POP POP POP JUMP JUMPDEST PUSH0 DUP3 PUSH1 0x1F DUP4 ADD SLT PUSH2 0x1249 JUMPI PUSH2 0x1248 PUSH2 0xF55 JUMP JUMPDEST JUMPDEST DUP2 CALLDATALOAD PUSH2 0x1259 DUP5 DUP3 PUSH1 0x20 DUP7 ADD PUSH2 0x11F4 JUMP JUMPDEST SWAP2 POP POP SWAP3 SWAP2 POP POP JUMP JUMPDEST PUSH0 PUSH1 0x20 DUP3 DUP5 SUB SLT ISZERO PUSH2 0x1277 JUMPI PUSH2 0x1276 PUSH2 0xF4D JUMP JUMPDEST JUMPDEST PUSH0 DUP3 ADD CALLDATALOAD PUSH8 0xFFFFFFFFFFFFFFFF DUP2 GT ISZERO PUSH2 0x1294 JUMPI PUSH2 0x1293 PUSH2 0xF51 JUMP JUMPDEST JUMPDEST PUSH2 0x12A0 DUP5 DUP3 DUP6 ADD PUSH2 0x1235 JUMP JUMPDEST SWAP2 POP POP SWAP3 SWAP2 POP POP JUMP JUMPDEST PUSH2 0x12B2 DUP2 PUSH2 0xFD5 JUMP JUMPDEST DUP3 MSTORE POP POP JUMP JUMPDEST PUSH0 PUSH1 0xE0 DUP3 ADD SWAP1 POP DUP2 DUP2 SUB PUSH0 DUP4 ADD MSTORE PUSH2 0x12D0 DUP2 DUP11 PUSH2 0xEEC JUMP JUMPDEST SWAP1 POP PUSH2 0x12DF PUSH1 0x20 DUP4 ADD DUP10 PUSH2 0x12A9 JUMP JUMPDEST DUP2 DUP2 SUB PUSH1 0x40 DUP4 ADD MSTORE PUSH2 0x12F1 DUP2 DUP9 PUSH2 0xEEC JUMP JUMPDEST SWAP1 POP DUP2 DUP2 SUB PUSH1 0x60 DUP4 ADD MSTORE PUSH2 0x1305 DUP2 DUP8 PUSH2 0xEEC JUMP JUMPDEST SWAP1 POP DUP2 DUP2 SUB PUSH1 0x80 DUP4 ADD MSTORE PUSH2 0x1319 DUP2 DUP7 PUSH2 0xEEC JUMP JUMPDEST SWAP1 POP DUP2 DUP2 SUB PUSH1 0xA0 DUP4 ADD MSTORE PUSH2 0x132D DUP2 DUP6 PUSH2 0xEEC JUMP JUMPDEST SWAP1 POP DUP2 DUP2 SUB PUSH1 0xC0 DUP4 ADD MSTORE PUSH2 0x1341 DUP2 DUP5 PUSH2 0xEEC JUMP JUMPDEST SWAP1 POP SWAP9 SWAP8 POP POP POP POP POP POP POP POP JUMP JUMPDEST PUSH0 PUSH1 0x20 DUP3 ADD SWAP1 POP PUSH2 0x1362 PUSH0 DUP4 ADD DUP5 PUSH2 0x12A9 JUMP JUMPDEST SWAP3 SWAP2 POP POP JUMP JUMPDEST PUSH0 DUP2 SWAP1 POP SWAP2 SWAP1 POP JUMP JUMPDEST PUSH2 0x137A DUP2 PUSH2 0x1368 JUMP JUMPDEST DUP2 EQ PUSH2 0x1384 JUMPI PUSH0 DUP1 REVERT JUMPDEST POP JUMP JUMPDEST PUSH0 DUP2 CALLDATALOAD SWAP1 POP PUSH2 0x1395 DUP2 PUSH2 0x1371 JUMP JUMPDEST SWAP3 SWAP2 POP POP JUMP JUMPDEST PUSH0 PUSH1 0x20 DUP3 DUP5 SUB SLT ISZERO PUSH2 0x13B0 JUMPI PUSH2 0x13AF PUSH2 0xF4D JUMP JUMPDEST JUMPDEST PUSH0 PUSH2 0x13BD DUP5 DUP3 DUP6 ADD PUSH2 0x1387 JUMP JUMPDEST SWAP2 POP POP SWAP3 SWAP2 POP POP JUMP JUMPDEST PUSH0 PUSH8 0xFFFFFFFFFFFFFFFF DUP3 GT ISZERO PUSH2 0x13E0 JUMPI PUSH2 0x13DF PUSH2 0x113E JUMP JUMPDEST JUMPDEST PUSH1 0x20 DUP3 MUL SWAP1 POP PUSH1 0x20 DUP2 ADD SWAP1 POP SWAP2 SWAP1 POP JUMP JUMPDEST PUSH0 PUSH2 0x1403 PUSH2 0x13FE DUP5 PUSH2 0x13C6 JUMP JUMPDEST PUSH2 0x119C JUMP JUMPDEST SWAP1 POP DUP1 DUP4 DUP3 MSTORE PUSH1 0x20 DUP3 ADD SWAP1 POP PUSH1 0x20 DUP5 MUL DUP4 ADD DUP6 DUP2 GT ISZERO PUSH2 0x1426 JUMPI PUSH2 0x1425 PUSH2 0xF5D JUMP JUMPDEST JUMPDEST DUP4 JUMPDEST DUP2 DUP2 LT ISZERO PUSH2 0x146D JUMPI DUP1 CALLDATALOAD PUSH8 0xFFFFFFFFFFFFFFFF DUP2 GT ISZERO PUSH2 0x144B JUMPI PUSH2 0x144A PUSH2 0xF55 JUMP JUMPDEST JUMPDEST DUP1 DUP7 ADD PUSH2 0x1458 DUP10 DUP3 PUSH2 0x1235 JUMP JUMPDEST DUP6 MSTORE PUSH1 0x20 DUP6 ADD SWAP5 POP POP POP PUSH1 0x20 DUP2 ADD SWAP1 POP PUSH2 0x1428 JUMP JUMPDEST POP POP POP SWAP4 SWAP3 POP POP POP JUMP JUMPDEST PUSH0 DUP3 PUSH1 0x1F DUP4 ADD SLT PUSH2 0x148B JUMPI PUSH2 0x148A PUSH2 0xF55 JUMP JUMPDEST JUMPDEST DUP2 CALLDATALOAD PUSH2 0x149B DUP5 DUP3 PUSH1 0x20 DUP7 ADD PUSH2 0x13F1 JUMP JUMPDEST SWAP2 POP POP SWAP3 SWAP2 POP POP JUMP JUMPDEST PUSH0 PUSH1 0x20 DUP3 DUP5 SUB SLT ISZERO PUSH2 0x14B9 JUMPI PUSH2 0x14B8 PUSH2 0xF4D JUMP JUMPDEST JUMPDEST PUSH0 DUP3 ADD CALLDATALOAD PUSH8 0xFFFFFFFFFFFFFFFF DUP2 GT ISZERO PUSH2 0x14D6 JUMPI PUSH2 0x14D5 PUSH2 0xF51 JUMP JUMPDEST JUMPDEST PUSH2 0x14E2 DUP5 DUP3 DUP6 ADD PUSH2 0x1477 JUMP JUMPDEST SWAP2 POP POP SWAP3 SWAP2 POP POP JUMP JUMPDEST PUSH32 0x4E487B7100000000000000000000000000000000000000000000000000000000 PUSH0 MSTORE PUSH1 0x32 PUSH1 0x4 MSTORE PUSH1 0x24 PUSH0 REVERT JUMPDEST PUSH32 0x4E487B7100000000000000000000000000000000000000000000000000000000 PUSH0 MSTORE PUSH1 0x22 PUSH1 0x4 MSTORE PUSH1 0x24 PUSH0 REVERT JUMPDEST PUSH0 PUSH1 0x2 DUP3 DIV SWAP1 POP PUSH1 0x1 DUP3 AND DUP1 PUSH2 0x155C JUMPI PUSH1 0x7F DUP3 AND SWAP2 POP JUMPDEST PUSH1 0x20 DUP3 LT DUP2 SUB PUSH2 0x156F JUMPI PUSH2 0x156E PUSH2 0x1518 JUMP JUMPDEST JUMPDEST POP SWAP2 SWAP1 POP JUMP JUMPDEST PUSH0 DUP2 SWAP1 POP SWAP3 SWAP2 POP POP JUMP JUMPDEST PUSH0 PUSH2 0x1589 DUP3 PUSH2 0xEB4 JUMP JUMPDEST PUSH2 0x1593 DUP2 DUP6 PUSH2 0x1575 JUMP JUMPDEST SWAP4 POP PUSH2 0x15A3 DUP2 DUP6 PUSH1 0x20 DUP7 ADD PUSH2 0xECE JUMP JUMPDEST DUP1 DUP5 ADD SWAP2 POP POP SWAP3 SWAP2 POP POP JUMP JUMPDEST PUSH0 PUSH2 0x15BA DUP3 DUP5 PUSH2 0x157F JUMP JUMPDEST SWAP2 POP DUP2 SWAP1 POP SWAP3 SWAP2 POP POP JUMP JUMPDEST PUSH32 0x506F6C6963793A2050617373656E676572204E616D653A200000000000000000 DUP2 MSTORE POP JUMP JUMPDEST PUSH0 DUP2 SWAP1 POP DUP2 PUSH0 MSTORE PUSH1 0x20 PUSH0 KECCAK256 SWAP1 POP SWAP2 SWAP1 POP JUMP JUMPDEST PUSH0 DUP2 SLOAD PUSH2 0x1609 DUP2 PUSH2 0x1545 JUMP JUMPDEST PUSH2 0x1613 DUP2 DUP7 PUSH2 0x1575 JUMP JUMPDEST SWAP5 POP PUSH1 0x1 DUP3 AND PUSH0 DUP2 EQ PUSH2 0x162D JUMPI PUSH1 0x1 DUP2 EQ PUSH2 0x1642 JUMPI PUSH2 0x1674 JUMP JUMPDEST PUSH1 0xFF NOT DUP4 AND DUP7 MSTORE DUP2 ISZERO ISZERO DUP3 MUL DUP7 ADD SWAP4 POP PUSH2 0x1674 JUMP JUMPDEST PUSH2 0x164B DUP6 PUSH2 0x15EB JUMP JUMPDEST PUSH0 JUMPDEST DUP4 DUP2 LT ISZERO PUSH2 0x166C JUMPI DUP2 SLOAD DUP2 DUP10 ADD MSTORE PUSH1 0x1 DUP3 ADD SWAP2 POP PUSH1 0x20 DUP2 ADD SWAP1 POP PUSH2 0x164D JUMP JUMPDEST DUP4 DUP9 ADD SWAP6 POP POP POP JUMPDEST POP POP POP SWAP3 SWAP2 POP POP JUMP JUMPDEST PUSH32 0x20466C69676874204E756D6265723A2000000000000000000000000000000000 DUP2 MSTORE POP JUMP JUMPDEST PUSH32 0x20466C6967687420646174653A20000000000000000000000000000000000000 DUP2 MSTORE POP JUMP JUMPDEST PUSH32 0x2044657061727475726520636974793A20000000000000000000000000000000 DUP2 MSTORE POP JUMP JUMPDEST PUSH32 0x2044657374696E6174696F6E20636974793A2000000000000000000000000000 DUP2 MSTORE POP JUMP JUMPDEST PUSH32 0x205374617475733A200000000000000000000000000000000000000000000000 DUP2 MSTORE POP JUMP JUMPDEST PUSH32 0xA00000000000000000000000000000000000000000000000000000000000000 DUP2 MSTORE POP JUMP JUMPDEST PUSH0 PUSH2 0x176C DUP3 DUP11 PUSH2 0x157F JUMP JUMPDEST SWAP2 POP PUSH2 0x1777 DUP3 PUSH2 0x15C5 JUMP JUMPDEST PUSH1 0x18 DUP3 ADD SWAP2 POP PUSH2 0x1787 DUP3 DUP10 PUSH2 0x15FD JUMP JUMPDEST SWAP2 POP PUSH2 0x1792 DUP3 PUSH2 0x167D JUMP JUMPDEST PUSH1 0x10 DUP3 ADD SWAP2 POP PUSH2 0x17A2 DUP3 DUP9 PUSH2 0x15FD JUMP JUMPDEST SWAP2 POP PUSH2 0x17AD DUP3 PUSH2 0x16A3 JUMP JUMPDEST PUSH1 0xE DUP3 ADD SWAP2 POP PUSH2 0x17BD DUP3 DUP8 PUSH2 0x15FD JUMP JUMPDEST SWAP2 POP PUSH2 0x17C8 DUP3 PUSH2 0x16C9 JUMP JUMPDEST PUSH1 0x11 DUP3 ADD SWAP2 POP PUSH2 0x17D8 DUP3 DUP7 PUSH2 0x15FD JUMP JUMPDEST SWAP2 POP PUSH2 0x17E3 DUP3 PUSH2 0x16EF JUMP JUMPDEST PUSH1 0x13 DUP3 ADD SWAP2 POP PUSH2 0x17F3 DUP3 DUP6 PUSH2 0x15FD JUMP JUMPDEST SWAP2 POP PUSH2 0x17FE DUP3 PUSH2 0x1715 JUMP JUMPDEST PUSH1 0x9 DUP3 ADD SWAP2 POP PUSH2 0x180E DUP3 DUP5 PUSH2 0x15FD JUMP JUMPDEST SWAP2 POP PUSH2 0x1819 DUP3 PUSH2 0x173B JUMP JUMPDEST PUSH1 0x1 DUP3 ADD SWAP2 POP DUP2 SWAP1 POP SWAP9 SWAP8 POP POP POP POP POP POP POP POP JUMP JUMPDEST PUSH0 PUSH2 0x1839 DUP4 DUP6 PUSH2 0x1575 JUMP JUMPDEST SWAP4 POP PUSH2 0x1846 DUP4 DUP6 DUP5 PUSH2 0x11E6 JUMP JUMPDEST DUP3 DUP5 ADD SWAP1 POP SWAP4 SWAP3 POP POP POP JUMP JUMPDEST PUSH0 PUSH2 0x185E DUP3 DUP5 DUP7 PUSH2 0x182E JUMP JUMPDEST SWAP2 POP DUP2 SWAP1 POP SWAP4 SWAP3 POP POP POP JUMP JUMPDEST PUSH0 PUSH1 0x20 PUSH1 0x1F DUP4 ADD DIV SWAP1 POP SWAP2 SWAP1 POP JUMP JUMPDEST PUSH0 DUP3 DUP3 SHL SWAP1 POP SWAP3 SWAP2 POP POP JUMP JUMPDEST PUSH0 PUSH1 0x8 DUP4 MUL PUSH2 0x18B4 PUSH32 0xFFFFFFFFFFFFFFFFFFFFFFFFFFFFFFFFFFFFFFFFFFFFFFFFFFFFFFFFFFFFFFFF DUP3 PUSH2 0x1879 JUMP JUMPDEST PUSH2 0x18BE DUP7 DUP4 PUSH2 0x1879 JUMP JUMPDEST SWAP6 POP DUP1 NOT DUP5 AND SWAP4 POP DUP1 DUP7 AND DUP5 OR SWAP3 POP POP POP SWAP4 SWAP3 POP POP POP JUMP JUMPDEST PUSH0 DUP2 SWAP1 POP SWAP2 SWAP1 POP JUMP JUMPDEST PUSH0 PUSH2 0x18F9 PUSH2 0x18F4 PUSH2 0x18EF DUP5 PUSH2 0x1368 JUMP JUMPDEST PUSH2 0x18D6 JUMP JUMPDEST PUSH2 0x1368 JUMP JUMPDEST SWAP1 POP SWAP2 SWAP1 POP JUMP JUMPDEST PUSH0 DUP2 SWAP1 POP SWAP2 SWAP1 POP JUMP JUMPDEST PUSH2 0x1912 DUP4 PUSH2 0x18DF JUMP JUMPDEST PUSH2 0x1926 PUSH2 0x191E DUP3 PUSH2 0x1900 JUMP JUMPDEST DUP5 DUP5 SLOAD PUSH2 0x1885 JUMP JUMPDEST DUP3 SSTORE POP POP POP POP JUMP JUMPDEST PUSH0 SWAP1 JUMP JUMPDEST PUSH2 0x193A PUSH2 0x192E JUMP JUMPDEST PUSH2 0x1945 DUP2 DUP5 DUP5 PUSH2 0x1909 JUMP JUMPDEST POP POP POP JUMP JUMPDEST JUMPDEST DUP2 DUP2 LT ISZERO PUSH2 0x1968 JUMPI PUSH2 0x195D PUSH0 DUP3 PUSH2 0x1932 JUMP JUMPDEST PUSH1 0x1 DUP2 ADD SWAP1 POP PUSH2 0x194B JUMP JUMPDEST POP POP JUMP JUMPDEST PUSH1 0x1F DUP3 GT ISZERO PUSH2 0x19AD JUMPI PUSH2 0x197E DUP2 PUSH2 0x15EB JUMP JUMPDEST PUSH2 0x1987 DUP5 PUSH2 0x186A JUMP JUMPDEST DUP2 ADD PUSH1 0x20 DUP6 LT ISZERO PUSH2 0x1996 JUMPI DUP2 SWAP1 POP JUMPDEST PUSH2 0x19AA PUSH2 0x19A2 DUP6 PUSH2 0x186A JUMP JUMPDEST DUP4 ADD DUP3 PUSH2 0x194A JUMP JUMPDEST POP POP JUMPDEST POP POP POP JUMP JUMPDEST PUSH0 DUP3 DUP3 SHR SWAP1 POP SWAP3 SWAP2 POP POP JUMP JUMPDEST PUSH0 PUSH2 0x19CD PUSH0 NOT DUP5 PUSH1 0x8 MUL PUSH2 0x19B2 JUMP JUMPDEST NOT DUP1 DUP4 AND SWAP2 POP POP SWAP3 SWAP2 POP POP JUMP JUMPDEST PUSH0 PUSH2 0x19E5 DUP4 DUP4 PUSH2 0x19BE JUMP JUMPDEST SWAP2 POP DUP3 PUSH1 0x2 MUL DUP3 OR SWAP1 POP SWAP3 SWAP2 POP POP JUMP JUMPDEST PUSH2 0x19FE DUP3 PUSH2 0xEB4 JUMP JUMPDEST PUSH8 0xFFFFFFFFFFFFFFFF DUP2 GT ISZERO PUSH2 0x1A17 JUMPI PUSH2 0x1A16 PUSH2 0x113E JUMP JUMPDEST JUMPDEST PUSH2 0x1A21 DUP3 SLOAD PUSH2 0x1545 JUMP JUMPDEST PUSH2 0x1A2C DUP3 DUP3 DUP6 PUSH2 0x196C JUMP JUMPDEST PUSH0 PUSH1 0x20 SWAP1 POP PUSH1 0x1F DUP4 GT PUSH1 0x1 DUP2 EQ PUSH2 0x1A5D JUMPI PUSH0 DUP5 ISZERO PUSH2 0x1A4B JUMPI DUP3 DUP8 ADD MLOAD SWAP1 POP JUMPDEST PUSH2 0x1A55 DUP6 DUP3 PUSH2 0x19DA JUMP JUMPDEST DUP7 SSTORE POP PUSH2 0x1ABC JUMP JUMPDEST PUSH1 0x1F NOT DUP5 AND PUSH2 0x1A6B DUP7 PUSH2 0x15EB JUMP JUMPDEST PUSH0 JUMPDEST DUP3 DUP2 LT ISZERO PUSH2 0x1A92 JUMPI DUP5 DUP10 ADD MLOAD DUP3 SSTORE PUSH1 0x1 DUP3 ADD SWAP2 POP PUSH1 0x20 DUP6 ADD SWAP5 POP PUSH1 0x20 DUP2 ADD SWAP1 POP PUSH2 0x1A6D JUMP JUMPDEST DUP7 DUP4 LT ISZERO PUSH2 0x1AAF JUMPI DUP5 DUP10 ADD MLOAD PUSH2 0x1AAB PUSH1 0x1F DUP10 AND DUP3 PUSH2 0x19BE JUMP JUMPDEST DUP4 SSTORE POP JUMPDEST PUSH1 0x1 PUSH1 0x2 DUP9 MUL ADD DUP9 SSTORE POP POP POP JUMPDEST POP POP POP POP POP POP JUMP JUMPDEST PUSH0 DUP3 SWAP1 POP SWAP3 SWAP2 POP POP JUMP JUMPDEST PUSH2 0x1AD8 DUP4 DUP4 PUSH2 0x1AC4 JUMP JUMPDEST PUSH8 0xFFFFFFFFFFFFFFFF DUP2 GT ISZERO PUSH2 0x1AF1 JUMPI PUSH2 0x1AF0 PUSH2 0x113E JUMP JUMPDEST JUMPDEST PUSH2 0x1AFB DUP3 SLOAD PUSH2 0x1545 JUMP JUMPDEST PUSH2 0x1B06 DUP3 DUP3 DUP6 PUSH2 0x196C JUMP JUMPDEST PUSH0 PUSH1 0x1F DUP4 GT PUSH1 0x1 DUP2 EQ PUSH2 0x1B33 JUMPI PUSH0 DUP5 ISZERO PUSH2 0x1B21 JUMPI DUP3 DUP8 ADD CALLDATALOAD SWAP1 POP JUMPDEST PUSH2 0x1B2B DUP6 DUP3 PUSH2 0x19DA JUMP JUMPDEST DUP7 SSTORE POP PUSH2 0x1B92 JUMP JUMPDEST PUSH1 0x1F NOT DUP5 AND PUSH2 0x1B41 DUP7 PUSH2 0x15EB JUMP JUMPDEST PUSH0 JUMPDEST DUP3 DUP2 LT ISZERO PUSH2 0x1B68 JUMPI DUP5 DUP10 ADD CALLDATALOAD DUP3 SSTORE PUSH1 0x1 DUP3 ADD SWAP2 POP PUSH1 0x20 DUP6 ADD SWAP5 POP PUSH1 0x20 DUP2 ADD SWAP1 POP PUSH2 0x1B43 JUMP JUMPDEST DUP7 DUP4 LT ISZERO PUSH2 0x1B85 JUMPI DUP5 DUP10 ADD CALLDATALOAD PUSH2 0x1B81 PUSH1 0x1F DUP10 AND DUP3 PUSH2 0x19BE JUMP JUMPDEST DUP4 SSTORE POP JUMPDEST PUSH1 0x1 PUSH1 0x2 DUP9 MUL ADD DUP9 SSTORE POP POP POP JUMPDEST POP POP POP POP POP POP POP JUMP JUMPDEST PUSH32 0x50617373656E676572204E616D653A2000000000000000000000000000000000 DUP2 MSTORE POP JUMP JUMPDEST PUSH32 0xA466C69676874204E756D6265723A2000000000000000000000000000000000 DUP2 MSTORE POP JUMP JUMPDEST PUSH32 0x466C6967687420646174653A2000000000000000000000000000000000000000 DUP2 MSTORE POP JUMP JUMPDEST PUSH32 0x44657061727475726520636974793A2000000000000000000000000000000000 DUP2 MSTORE POP JUMP JUMPDEST PUSH32 0x44657374696E6174696F6E20636974793A200000000000000000000000000000 DUP2 MSTORE POP JUMP JUMPDEST PUSH32 0xA506F6C696379205374617475733A2000000000000000000000000000000000 DUP2 MSTORE POP JUMP JUMPDEST PUSH0 PUSH2 0x1C89 DUP3 PUSH2 0x1B9B JUMP JUMPDEST PUSH1 0x10 DUP3 ADD SWAP2 POP PUSH2 0x1C99 DUP3 DUP10 PUSH2 0x15FD JUMP JUMPDEST SWAP2 POP PUSH2 0x1CA4 DUP3 PUSH2 0x1BC1 JUMP JUMPDEST PUSH1 0x10 DUP3 ADD SWAP2 POP PUSH2 0x1CB4 DUP3 DUP9 PUSH2 0x15FD JUMP JUMPDEST SWAP2 POP PUSH2 0x1CBF DUP3 PUSH2 0x1BE7 JUMP JUMPDEST PUSH1 0xD DUP3 ADD SWAP2 POP PUSH2 0x1CCF DUP3 DUP8 PUSH2 0x15FD JUMP JUMPDEST SWAP2 POP PUSH2 0x1CDA DUP3 PUSH2 0x1C0D JUMP JUMPDEST PUSH1 0x10 DUP3 ADD SWAP2 POP PUSH2 0x1CEA DUP3 DUP7 PUSH2 0x15FD JUMP JUMPDEST SWAP2 POP PUSH2 0x1CF5 DUP3 PUSH2 0x1C33 JUMP JUMPDEST PUSH1 0x12 DUP3 ADD SWAP2 POP PUSH2 0x1D05 DUP3 DUP6 PUSH2 0x15FD JUMP JUMPDEST SWAP2 POP PUSH2 0x1D10 DUP3 PUSH2 0x1C59 JUMP JUMPDEST PUSH1 0x10 DUP3 ADD SWAP2 POP PUSH2 0x1D20 DUP3 DUP5 PUSH2 0x15FD JUMP JUMPDEST SWAP2 POP DUP2 SWAP1 POP SWAP8 SWAP7 POP POP POP POP POP POP POP JUMP INVALID POP PUSH19 0x656D69756D3A20302E3031204574686572200A BLOBHASH PUSH15 0x64656D6E6974793A20302E30322045 PUSH21 0x686572200A436F766572616765206973737565733A KECCAK256 PUSH9 0x61696C20616E642066 PUSH13 0x6F6F6473A26469706673582212 KECCAK256 SLT 0xE0 SWAP10 PUSH8 0xFD35B8EA6BA57DAB SWAP8 COINBASE PUSH3 0x671ACB 0xB4 JUMP 0xAE PUSH28 0xE0ECB43D9FDA2464B89564736F6C634300081A003300000000000000 "
				},
				"gasEstimates": {
					"creation": {
						"codeDepositCost": "1520400",
						"executionCost": "infinite",
						"totalCost": "infinite"
					},
					"external": {
						"insurance_provider()": "2575",
						"name_array(uint256)": "infinite",
						"pay_indemnity(string[])": "infinite",
						"policies(string)": "infinite",
						"purchase_policy(string,address,string,string,string,string)": "infinite",
						"verify()": "infinite",
						"view_all_policies()": "infinite",
						"view_policy()": "infinite",
						"view_purchased_policy(string)": "infinite"
					}
				},
				"methodIdentifiers": {
					"insurance_provider()": "50dd73be",
					"name_array(uint256)": "b698d6a1",
					"pay_indemnity(string[])": "cbe2e531",
					"policies(string)": "4a7ba3e5",
					"purchase_policy(string,address,string,string,string,string)": "35f7a712",
					"verify()": "fc735e99",
					"view_all_policies()": "1a65261c",
					"view_policy()": "c738b563",
					"view_purchased_policy(string)": "f25797c6"
				}
			},
			"storageLayout": {
				"storage": [
					{
						"astId": 3,
						"contract": "Project3/PhaseI.sol:PhaseI",
						"label": "value",
						"offset": 0,
						"slot": "0",
						"type": "t_uint256"
					},
					{
						"astId": 5,
						"contract": "Project3/PhaseI.sol:PhaseI",
						"label": "insurance_provider",
						"offset": 0,
						"slot": "1",
						"type": "t_address_payable"
					},
					{
						"astId": 23,
						"contract": "Project3/PhaseI.sol:PhaseI",
						"label": "name_array",
						"offset": 0,
						"slot": "2",
						"type": "t_array(t_string_storage)dyn_storage"
					},
					{
						"astId": 28,
						"contract": "Project3/PhaseI.sol:PhaseI",
						"label": "policies",
						"offset": 0,
						"slot": "3",
						"type": "t_mapping(t_string_memory_ptr,t_struct(Policy)20_storage)"
					}
				],
				"types": {
					"t_address_payable": {
						"encoding": "inplace",
						"label": "address payable",
						"numberOfBytes": "20"
					},
					"t_array(t_string_storage)dyn_storage": {
						"base": "t_string_storage",
						"encoding": "dynamic_array",
						"label": "string[]",
						"numberOfBytes": "32"
					},
					"t_mapping(t_string_memory_ptr,t_struct(Policy)20_storage)": {
						"encoding": "mapping",
						"key": "t_string_memory_ptr",
						"label": "mapping(string => struct PhaseI.Policy)",
						"numberOfBytes": "32",
						"value": "t_struct(Policy)20_storage"
					},
					"t_string_memory_ptr": {
						"encoding": "bytes",
						"label": "string",
						"numberOfBytes": "32"
					},
					"t_string_storage": {
						"encoding": "bytes",
						"label": "string",
						"numberOfBytes": "32"
					},
					"t_struct(Policy)20_storage": {
						"encoding": "inplace",
						"label": "struct PhaseI.Policy",
						"members": [
							{
								"astId": 7,
								"contract": "Project3/PhaseI.sol:PhaseI",
								"label": "name",
								"offset": 0,
								"slot": "0",
								"type": "t_string_storage"
							},
							{
								"astId": 9,
								"contract": "Project3/PhaseI.sol:PhaseI",
								"label": "passenger_address",
								"offset": 0,
								"slot": "1",
								"type": "t_address_payable"
							},
							{
								"astId": 11,
								"contract": "Project3/PhaseI.sol:PhaseI",
								"label": "flight_number",
								"offset": 0,
								"slot": "2",
								"type": "t_string_storage"
							},
							{
								"astId": 13,
								"contract": "Project3/PhaseI.sol:PhaseI",
								"label": "flight_date",
								"offset": 0,
								"slot": "3",
								"type": "t_string_storage"
							},
							{
								"astId": 15,
								"contract": "Project3/PhaseI.sol:PhaseI",
								"label": "departure_city",
								"offset": 0,
								"slot": "4",
								"type": "t_string_storage"
							},
							{
								"astId": 17,
								"contract": "Project3/PhaseI.sol:PhaseI",
								"label": "destination_city",
								"offset": 0,
								"slot": "5",
								"type": "t_string_storage"
							},
							{
								"astId": 19,
								"contract": "Project3/PhaseI.sol:PhaseI",
								"label": "policy_status",
								"offset": 0,
								"slot": "6",
								"type": "t_string_storage"
							}
						],
						"numberOfBytes": "224"
					},
					"t_uint256": {
						"encoding": "inplace",
						"label": "uint256",
						"numberOfBytes": "32"
					}
				}
			},
			"userdoc": {
				"kind": "user",
				"methods": {},
				"version": 1
			}
		}
	}
}