{
	"Project3/PhaseIandII.sol": {
		"PhaseIandII": {
			"abi": [
				{
					"inputs": [
						{
							"internalType": "address payable",
							"name": "_insurance_provider",
							"type": "address"
						}
					],
					"stateMutability": "nonpayable",
					"type": "constructor"
				},
				{
					"inputs": [],
					"name": "insurance_provider",
					"outputs": [
						{
							"internalType": "address payable",
							"name": "",
							"type": "address"
						}
					],
					"stateMutability": "view",
					"type": "function"
				},
				{
					"inputs": [
						{
							"internalType": "uint256",
							"name": "",
							"type": "uint256"
						}
					],
					"name": "name_array",
					"outputs": [
						{
							"internalType": "string",
							"name": "",
							"type": "string"
						}
					],
					"stateMutability": "view",
					"type": "function"
				},
				{
					"inputs": [],
					"name": "owner",
					"outputs": [
						{
							"internalType": "address payable",
							"name": "",
							"type": "address"
						}
					],
					"stateMutability": "view",
					"type": "function"
				},
				{
					"inputs": [
						{
							"internalType": "string[]",
							"name": "claim_list",
							"type": "string[]"
						}
					],
					"name": "pay_indemnity",
					"outputs": [
						{
							"internalType": "string",
							"name": "",
							"type": "string"
						}
					],
					"stateMutability": "payable",
					"type": "function"
				},
				{
					"inputs": [
						{
							"internalType": "string",
							"name": "",
							"type": "string"
						}
					],
					"name": "policies",
					"outputs": [
						{
							"internalType": "string",
							"name": "name",
							"type": "string"
						},
						{
							"internalType": "address payable",
							"name": "passenger_address",
							"type": "address"
						},
						{
							"internalType": "string",
							"name": "flight_number",
							"type": "string"
						},
						{
							"internalType": "string",
							"name": "flight_date",
							"type": "string"
						},
						{
							"internalType": "string",
							"name": "departure_city",
							"type": "string"
						},
						{
							"internalType": "string",
							"name": "destination_city",
							"type": "string"
						},
						{
							"internalType": "string",
							"name": "policy_status",
							"type": "string"
						}
					],
					"stateMutability": "view",
					"type": "function"
				},
				{
					"inputs": [
						{
							"internalType": "string",
							"name": "name",
							"type": "string"
						},
						{
							"internalType": "address payable",
							"name": "p_address",
							"type": "address"
						},
						{
							"internalType": "string",
							"name": "number",
							"type": "string"
						},
						{
							"internalType": "string",
							"name": "date",
							"type": "string"
						},
						{
							"internalType": "string",
							"name": "departure",
							"type": "string"
						},
						{
							"internalType": "string",
							"name": "destination",
							"type": "string"
						}
					],
					"name": "purchase_policy",
					"outputs": [],
					"stateMutability": "payable",
					"type": "function"
				},
				{
					"inputs": [],
					"name": "verify",
					"outputs": [
						{
							"internalType": "string",
							"name": "",
							"type": "string"
						}
					],
					"stateMutability": "view",
					"type": "function"
				},
				{
					"inputs": [],
					"name": "view_all_policies",
					"outputs": [
						{
							"internalType": "string",
							"name": "",
							"type": "string"
						}
					],
					"stateMutability": "view",
					"type": "function"
				},
				{
					"inputs": [],
					"name": "view_available_policy",
					"outputs": [
						{
							"internalType": "string",
							"name": "",
							"type": "string"
						}
					],
					"stateMutability": "pure",
					"type": "function"
				},
				{
					"inputs": [
						{
							"internalType": "string",
							"name": "passenger",
							"type": "string"
						}
					],
					"name": "view_balance",
					"outputs": [
						{
							"internalType": "uint256",
							"name": "",
							"type": "uint256"
						}
					],
					"stateMutability": "view",
					"type": "function"
				},
				{
					"inputs": [
						{
							"internalType": "string",
							"name": "name",
							"type": "string"
						}
					],
					"name": "view_purchased_policy",
					"outputs": [
						{
							"internalType": "string",
							"name": "",
							"type": "string"
						}
					],
					"stateMutability": "view",
					"type": "function"
				},
				{
					"stateMutability": "payable",
					"type": "receive"
				}
			],
			"devdoc": {
				"kind": "dev",
				"methods": {},
				"version": 1
			},
			"evm": {
				"assembly": "    /* \"Project3/PhaseIandII.sol\":68:3071  contract PhaseIandII {... */\n  mstore(0x40, 0x80)\n    /* \"Project3/PhaseIandII.sol\":499:605  constructor(address payable _insurance_provider) {... */\n  callvalue\n  dup1\n  iszero\n  tag_1\n  jumpi\n  0x00\n  dup1\n  revert\ntag_1:\n  pop\n  mload(0x40)\n  sub(codesize, bytecodeSize)\n  dup1\n  bytecodeSize\n  dup4\n  codecopy\n  dup2\n  dup2\n  add\n  0x40\n  mstore\n  dup2\n  add\n  swap1\n  tag_2\n  swap2\n  swap1\n  tag_3\n  jump\t// in\ntag_2:\n    /* \"Project3/PhaseIandII.sol\":579:598  _insurance_provider */\n  dup1\n    /* \"Project3/PhaseIandII.sol\":558:576  insurance_provider */\n  0x01\n  0x00\n    /* \"Project3/PhaseIandII.sol\":558:598  insurance_provider = _insurance_provider */\n  0x0100\n  exp\n  dup2\n  sload\n  dup2\n  0xffffffffffffffffffffffffffffffffffffffff\n  mul\n  not\n  and\n  swap1\n  dup4\n  0xffffffffffffffffffffffffffffffffffffffff\n  and\n  mul\n  or\n  swap1\n  sstore\n  pop\n    /* \"Project3/PhaseIandII.sol\":499:605  constructor(address payable _insurance_provider) {... */\n  pop\n    /* \"Project3/PhaseIandII.sol\":68:3071  contract PhaseIandII {... */\n  jump(tag_6)\n    /* \"#utility.yul\":88:205   */\ntag_8:\n    /* \"#utility.yul\":197:198   */\n  0x00\n    /* \"#utility.yul\":194:195   */\n  dup1\n    /* \"#utility.yul\":187:199   */\n  revert\n    /* \"#utility.yul\":334:460   */\ntag_10:\n    /* \"#utility.yul\":371:378   */\n  0x00\n    /* \"#utility.yul\":411:453   */\n  0xffffffffffffffffffffffffffffffffffffffff\n    /* \"#utility.yul\":404:409   */\n  dup3\n    /* \"#utility.yul\":400:454   */\n  and\n    /* \"#utility.yul\":389:454   */\n  swap1\n  pop\n    /* \"#utility.yul\":334:460   */\n  swap2\n  swap1\n  pop\n  jump\t// out\n    /* \"#utility.yul\":466:570   */\ntag_11:\n    /* \"#utility.yul\":511:518   */\n  0x00\n    /* \"#utility.yul\":540:564   */\n  tag_20\n    /* \"#utility.yul\":558:563   */\n  dup3\n    /* \"#utility.yul\":540:564   */\n  tag_10\n  jump\t// in\ntag_20:\n    /* \"#utility.yul\":529:564   */\n  swap1\n  pop\n    /* \"#utility.yul\":466:570   */\n  swap2\n  swap1\n  pop\n  jump\t// out\n    /* \"#utility.yul\":576:714   */\ntag_12:\n    /* \"#utility.yul\":657:689   */\n  tag_22\n    /* \"#utility.yul\":683:688   */\n  dup2\n    /* \"#utility.yul\":657:689   */\n  tag_11\n  jump\t// in\ntag_22:\n    /* \"#utility.yul\":650:655   */\n  dup2\n    /* \"#utility.yul\":647:690   */\n  eq\n    /* \"#utility.yul\":637:708   */\n  tag_23\n  jumpi\n    /* \"#utility.yul\":704:705   */\n  0x00\n    /* \"#utility.yul\":701:702   */\n  dup1\n    /* \"#utility.yul\":694:706   */\n  revert\n    /* \"#utility.yul\":637:708   */\ntag_23:\n    /* \"#utility.yul\":576:714   */\n  pop\n  jump\t// out\n    /* \"#utility.yul\":720:879   */\ntag_13:\n    /* \"#utility.yul\":785:790   */\n  0x00\n    /* \"#utility.yul\":816:822   */\n  dup2\n    /* \"#utility.yul\":810:823   */\n  mload\n    /* \"#utility.yul\":801:823   */\n  swap1\n  pop\n    /* \"#utility.yul\":832:873   */\n  tag_25\n    /* \"#utility.yul\":867:872   */\n  dup2\n    /* \"#utility.yul\":832:873   */\n  tag_12\n  jump\t// in\ntag_25:\n    /* \"#utility.yul\":720:879   */\n  swap3\n  swap2\n  pop\n  pop\n  jump\t// out\n    /* \"#utility.yul\":885:1252   */\ntag_3:\n    /* \"#utility.yul\":963:969   */\n  0x00\n    /* \"#utility.yul\":1012:1014   */\n  0x20\n    /* \"#utility.yul\":1000:1009   */\n  dup3\n    /* \"#utility.yul\":991:998   */\n  dup5\n    /* \"#utility.yul\":987:1010   */\n  sub\n    /* \"#utility.yul\":983:1015   */\n  slt\n    /* \"#utility.yul\":980:1099   */\n  iszero\n  tag_27\n  jumpi\n    /* \"#utility.yul\":1018:1097   */\n  tag_28\n  tag_8\n  jump\t// in\ntag_28:\n    /* \"#utility.yul\":980:1099   */\ntag_27:\n    /* \"#utility.yul\":1138:1139   */\n  0x00\n    /* \"#utility.yul\":1163:1235   */\n  tag_29\n    /* \"#utility.yul\":1227:1234   */\n  dup5\n    /* \"#utility.yul\":1218:1224   */\n  dup3\n    /* \"#utility.yul\":1207:1216   */\n  dup6\n    /* \"#utility.yul\":1203:1225   */\n  add\n    /* \"#utility.yul\":1163:1235   */\n  tag_13\n  jump\t// in\ntag_29:\n    /* \"#utility.yul\":1153:1235   */\n  swap2\n  pop\n    /* \"#utility.yul\":1109:1245   */\n  pop\n    /* \"#utility.yul\":885:1252   */\n  swap3\n  swap2\n  pop\n  pop\n  jump\t// out\n    /* \"Project3/PhaseIandII.sol\":68:3071  contract PhaseIandII {... */\ntag_6:\n  dataSize(sub_0)\n  dup1\n  dataOffset(sub_0)\n  0x00\n  codecopy\n  0x00\n  return\nstop\n\nsub_0: assembly {\n        /* \"Project3/PhaseIandII.sol\":68:3071  contract PhaseIandII {... */\n      mstore(0x40, 0x80)\n      jumpi(tag_1, lt(calldatasize, 0x04))\n      shr(0xe0, calldataload(0x00))\n      dup1\n      0x8da5cb5b\n      gt\n      tag_14\n      jumpi\n      dup1\n      0x8da5cb5b\n      eq\n      tag_8\n      jumpi\n      dup1\n      0xb698d6a1\n      eq\n      tag_9\n      jumpi\n      dup1\n      0xcbe2e531\n      eq\n      tag_10\n      jumpi\n      dup1\n      0xf25797c6\n      eq\n      tag_11\n      jumpi\n      dup1\n      0xfa0543d6\n      eq\n      tag_12\n      jumpi\n      dup1\n      0xfc735e99\n      eq\n      tag_13\n      jumpi\n      jump(tag_2)\n    tag_14:\n      dup1\n      0x1a65261c\n      eq\n      tag_3\n      jumpi\n      dup1\n      0x35f7a712\n      eq\n      tag_4\n      jumpi\n      dup1\n      0x4a7ba3e5\n      eq\n      tag_5\n      jumpi\n      dup1\n      0x50dd73be\n      eq\n      tag_6\n      jumpi\n      dup1\n      0x6873837d\n      eq\n      tag_7\n      jumpi\n      jump(tag_2)\n    tag_1:\n      jumpi(tag_2, calldatasize)\n      stop\n    tag_2:\n      0x00\n      dup1\n      revert\n        /* \"Project3/PhaseIandII.sol\":1752:2417  function view_all_policies() onlyProvider public view returns (string memory) {... */\n    tag_3:\n      callvalue\n      dup1\n      iszero\n      tag_17\n      jumpi\n      0x00\n      dup1\n      revert\n    tag_17:\n      pop\n      tag_18\n      tag_19\n      jump\t// in\n    tag_18:\n      mload(0x40)\n      tag_20\n      swap2\n      swap1\n      tag_21\n      jump\t// in\n    tag_20:\n      mload(0x40)\n      dup1\n      swap2\n      sub\n      swap1\n      return\n        /* \"Project3/PhaseIandII.sol\":887:1271  function purchase_policy(string calldata name, address payable p_address,... */\n    tag_4:\n      tag_22\n      0x04\n      dup1\n      calldatasize\n      sub\n      dup2\n      add\n      swap1\n      tag_23\n      swap2\n      swap1\n      tag_24\n      jump\t// in\n    tag_23:\n      tag_25\n      jump\t// in\n    tag_22:\n      stop\n        /* \"Project3/PhaseIandII.sol\":451:492  mapping(string => Policy) public policies */\n    tag_5:\n      callvalue\n      dup1\n      iszero\n      tag_26\n      jumpi\n      0x00\n      dup1\n      revert\n    tag_26:\n      pop\n      tag_27\n      0x04\n      dup1\n      calldatasize\n      sub\n      dup2\n      add\n      swap1\n      tag_28\n      swap2\n      swap1\n      tag_29\n      jump\t// in\n    tag_28:\n      tag_30\n      jump\t// in\n    tag_27:\n      mload(0x40)\n      tag_31\n      swap8\n      swap7\n      swap6\n      swap5\n      swap4\n      swap3\n      swap2\n      swap1\n      tag_32\n      jump\t// in\n    tag_31:\n      mload(0x40)\n      dup1\n      swap2\n      sub\n      swap1\n      return\n        /* \"Project3/PhaseIandII.sol\":130:171  address payable public insurance_provider */\n    tag_6:\n      callvalue\n      dup1\n      iszero\n      tag_33\n      jumpi\n      0x00\n      dup1\n      revert\n    tag_33:\n      pop\n      tag_34\n      tag_35\n      jump\t// in\n    tag_34:\n      mload(0x40)\n      tag_36\n      swap2\n      swap1\n      tag_37\n      jump\t// in\n    tag_36:\n      mload(0x40)\n      dup1\n      swap2\n      sub\n      swap1\n      return\n        /* \"Project3/PhaseIandII.sol\":2888:3034  function view_balance(string memory passenger) public view returns (uint256) {... */\n    tag_7:\n      callvalue\n      dup1\n      iszero\n      tag_38\n      jumpi\n      0x00\n      dup1\n      revert\n    tag_38:\n      pop\n      tag_39\n      0x04\n      dup1\n      calldatasize\n      sub\n      dup2\n      add\n      swap1\n      tag_40\n      swap2\n      swap1\n      tag_29\n      jump\t// in\n    tag_40:\n      tag_41\n      jump\t// in\n    tag_39:\n      mload(0x40)\n      tag_42\n      swap2\n      swap1\n      tag_43\n      jump\t// in\n    tag_42:\n      mload(0x40)\n      dup1\n      swap2\n      sub\n      swap1\n      return\n        /* \"Project3/PhaseIandII.sol\":96:124  address payable public owner */\n    tag_8:\n      callvalue\n      dup1\n      iszero\n      tag_44\n      jumpi\n      0x00\n      dup1\n      revert\n    tag_44:\n      pop\n      tag_45\n      tag_46\n      jump\t// in\n    tag_45:\n      mload(0x40)\n      tag_47\n      swap2\n      swap1\n      tag_37\n      jump\t// in\n    tag_47:\n      mload(0x40)\n      dup1\n      swap2\n      sub\n      swap1\n      return\n        /* \"Project3/PhaseIandII.sol\":419:445  string[] public name_array */\n    tag_9:\n      callvalue\n      dup1\n      iszero\n      tag_48\n      jumpi\n      0x00\n      dup1\n      revert\n    tag_48:\n      pop\n      tag_49\n      0x04\n      dup1\n      calldatasize\n      sub\n      dup2\n      add\n      swap1\n      tag_50\n      swap2\n      swap1\n      tag_51\n      jump\t// in\n    tag_50:\n      tag_52\n      jump\t// in\n    tag_49:\n      mload(0x40)\n      tag_53\n      swap2\n      swap1\n      tag_21\n      jump\t// in\n    tag_53:\n      mload(0x40)\n      dup1\n      swap2\n      sub\n      swap1\n      return\n        /* \"Project3/PhaseIandII.sol\":2531:2882  function pay_indemnity(string[] memory claim_list) onlyProvider public payable returns (string memory) {... */\n    tag_10:\n      tag_54\n      0x04\n      dup1\n      calldatasize\n      sub\n      dup2\n      add\n      swap1\n      tag_55\n      swap2\n      swap1\n      tag_56\n      jump\t// in\n    tag_55:\n      tag_57\n      jump\t// in\n    tag_54:\n      mload(0x40)\n      tag_58\n      swap2\n      swap1\n      tag_21\n      jump\t// in\n    tag_58:\n      mload(0x40)\n      dup1\n      swap2\n      sub\n      swap1\n      return\n        /* \"Project3/PhaseIandII.sol\":1277:1746  function view_purchased_policy(string memory name) public view returns (string memory) {... */\n    tag_11:\n      callvalue\n      dup1\n      iszero\n      tag_59\n      jumpi\n      0x00\n      dup1\n      revert\n    tag_59:\n      pop\n      tag_60\n      0x04\n      dup1\n      calldatasize\n      sub\n      dup2\n      add\n      swap1\n      tag_61\n      swap2\n      swap1\n      tag_29\n      jump\t// in\n    tag_61:\n      tag_62\n      jump\t// in\n    tag_60:\n      mload(0x40)\n      tag_63\n      swap2\n      swap1\n      tag_21\n      jump\t// in\n    tag_63:\n      mload(0x40)\n      dup1\n      swap2\n      sub\n      swap1\n      return\n        /* \"Project3/PhaseIandII.sol\":708:881  function view_available_policy() public pure returns (string memory) {... */\n    tag_12:\n      callvalue\n      dup1\n      iszero\n      tag_64\n      jumpi\n      0x00\n      dup1\n      revert\n    tag_64:\n      pop\n      tag_65\n      tag_66\n      jump\t// in\n    tag_65:\n      mload(0x40)\n      tag_67\n      swap2\n      swap1\n      tag_21\n      jump\t// in\n    tag_67:\n      mload(0x40)\n      dup1\n      swap2\n      sub\n      swap1\n      return\n        /* \"Project3/PhaseIandII.sol\":2423:2525  function verify() onlyProvider public view returns (string memory) {... */\n    tag_13:\n      callvalue\n      dup1\n      iszero\n      tag_68\n      jumpi\n      0x00\n      dup1\n      revert\n    tag_68:\n      pop\n      tag_69\n      tag_70\n      jump\t// in\n    tag_69:\n      mload(0x40)\n      tag_71\n      swap2\n      swap1\n      tag_21\n      jump\t// in\n    tag_71:\n      mload(0x40)\n      dup1\n      swap2\n      sub\n      swap1\n      return\n        /* \"Project3/PhaseIandII.sol\":1752:2417  function view_all_policies() onlyProvider public view returns (string memory) {... */\n    tag_19:\n        /* \"Project3/PhaseIandII.sol\":1815:1828  string memory */\n      0x60\n        /* \"Project3/PhaseIandII.sol\":665:683  insurance_provider */\n      0x01\n      0x00\n      swap1\n      sload\n      swap1\n      0x0100\n      exp\n      swap1\n      div\n      0xffffffffffffffffffffffffffffffffffffffff\n      and\n        /* \"Project3/PhaseIandII.sol\":651:683  msg.sender == insurance_provider */\n      0xffffffffffffffffffffffffffffffffffffffff\n      and\n        /* \"Project3/PhaseIandII.sol\":651:661  msg.sender */\n      caller\n        /* \"Project3/PhaseIandII.sol\":651:683  msg.sender == insurance_provider */\n      0xffffffffffffffffffffffffffffffffffffffff\n      and\n      eq\n        /* \"Project3/PhaseIandII.sol\":643:684  require(msg.sender == insurance_provider) */\n      tag_73\n      jumpi\n      0x00\n      dup1\n      revert\n    tag_73:\n        /* \"Project3/PhaseIandII.sol\":1840:1860  string memory result */\n      0x00\n        /* \"Project3/PhaseIandII.sol\":1840:1865  string memory result = \"\" */\n      mload(0x40)\n      dup1\n      0x20\n      add\n      0x40\n      mstore\n      dup1\n      0x00\n      dup2\n      mstore\n      pop\n      swap1\n      pop\n        /* \"Project3/PhaseIandII.sol\":1879:1885  uint i */\n      0x00\n        /* \"Project3/PhaseIandII.sol\":1875:2388  for(uint i = 0; i < name_array.length; i++){... */\n    tag_75:\n        /* \"Project3/PhaseIandII.sol\":1895:1905  name_array */\n      0x02\n        /* \"Project3/PhaseIandII.sol\":1895:1912  name_array.length */\n      dup1\n      sload\n      swap1\n      pop\n        /* \"Project3/PhaseIandII.sol\":1891:1892  i */\n      dup2\n        /* \"Project3/PhaseIandII.sol\":1891:1912  i < name_array.length */\n      lt\n        /* \"Project3/PhaseIandII.sol\":1875:2388  for(uint i = 0; i < name_array.length; i++){... */\n      iszero\n      tag_76\n      jumpi\n        /* \"Project3/PhaseIandII.sol\":1932:1950  string memory name */\n      0x00\n        /* \"Project3/PhaseIandII.sol\":1953:1963  name_array */\n      0x02\n        /* \"Project3/PhaseIandII.sol\":1964:1965  i */\n      dup3\n        /* \"Project3/PhaseIandII.sol\":1953:1966  name_array[i] */\n      dup2\n      sload\n      dup2\n      lt\n      tag_78\n      jumpi\n      tag_79\n      tag_80\n      jump\t// in\n    tag_79:\n    tag_78:\n      swap1\n      0x00\n      mstore\n      keccak256(0x00, 0x20)\n      add\n        /* \"Project3/PhaseIandII.sol\":1932:1966  string memory name = name_array[i] */\n      dup1\n      sload\n      tag_82\n      swap1\n      tag_83\n      jump\t// in\n    tag_82:\n      dup1\n      0x1f\n      add\n      0x20\n      dup1\n      swap2\n      div\n      mul\n      0x20\n      add\n      mload(0x40)\n      swap1\n      dup2\n      add\n      0x40\n      mstore\n      dup1\n      swap3\n      swap2\n      swap1\n      dup2\n      dup2\n      mstore\n      0x20\n      add\n      dup3\n      dup1\n      sload\n      tag_84\n      swap1\n      tag_83\n      jump\t// in\n    tag_84:\n      dup1\n      iszero\n      tag_85\n      jumpi\n      dup1\n      0x1f\n      lt\n      tag_86\n      jumpi\n      0x0100\n      dup1\n      dup4\n      sload\n      div\n      mul\n      dup4\n      mstore\n      swap2\n      0x20\n      add\n      swap2\n      jump(tag_85)\n    tag_86:\n      dup3\n      add\n      swap2\n      swap1\n      0x00\n      mstore\n      keccak256(0x00, 0x20)\n      swap1\n    tag_87:\n      dup2\n      sload\n      dup2\n      mstore\n      swap1\n      0x01\n      add\n      swap1\n      0x20\n      add\n      dup1\n      dup4\n      gt\n      tag_87\n      jumpi\n      dup3\n      swap1\n      sub\n      0x1f\n      and\n      dup3\n      add\n      swap2\n    tag_85:\n      pop\n      pop\n      pop\n      pop\n      pop\n      swap1\n      pop\n        /* \"Project3/PhaseIandII.sol\":2003:2009  result */\n      dup3\n        /* \"Project3/PhaseIandII.sol\":2039:2047  policies */\n      0x03\n        /* \"Project3/PhaseIandII.sol\":2048:2052  name */\n      dup3\n        /* \"Project3/PhaseIandII.sol\":2039:2053  policies[name] */\n      mload(0x40)\n      tag_88\n      swap2\n      swap1\n      tag_89\n      jump\t// in\n    tag_88:\n      swap1\n      dup2\n      mstore\n      0x20\n      add\n      mload(0x40)\n      dup1\n      swap2\n      sub\n      swap1\n      keccak256\n        /* \"Project3/PhaseIandII.sol\":2039:2058  policies[name].name */\n      0x00\n      add\n        /* \"Project3/PhaseIandII.sol\":2093:2101  policies */\n      0x03\n        /* \"Project3/PhaseIandII.sol\":2102:2106  name */\n      dup4\n        /* \"Project3/PhaseIandII.sol\":2093:2107  policies[name] */\n      mload(0x40)\n      tag_90\n      swap2\n      swap1\n      tag_89\n      jump\t// in\n    tag_90:\n      swap1\n      dup2\n      mstore\n      0x20\n      add\n      mload(0x40)\n      dup1\n      swap2\n      sub\n      swap1\n      keccak256\n        /* \"Project3/PhaseIandII.sol\":2093:2121  policies[name].flight_number */\n      0x02\n      add\n        /* \"Project3/PhaseIandII.sol\":2154:2162  policies */\n      0x03\n        /* \"Project3/PhaseIandII.sol\":2163:2167  name */\n      dup5\n        /* \"Project3/PhaseIandII.sol\":2154:2168  policies[name] */\n      mload(0x40)\n      tag_91\n      swap2\n      swap1\n      tag_89\n      jump\t// in\n    tag_91:\n      swap1\n      dup2\n      mstore\n      0x20\n      add\n      mload(0x40)\n      dup1\n      swap2\n      sub\n      swap1\n      keccak256\n        /* \"Project3/PhaseIandII.sol\":2154:2180  policies[name].flight_date */\n      0x03\n      add\n        /* \"Project3/PhaseIandII.sol\":2216:2224  policies */\n      0x03\n        /* \"Project3/PhaseIandII.sol\":2225:2229  name */\n      dup6\n        /* \"Project3/PhaseIandII.sol\":2216:2230  policies[name] */\n      mload(0x40)\n      tag_92\n      swap2\n      swap1\n      tag_89\n      jump\t// in\n    tag_92:\n      swap1\n      dup2\n      mstore\n      0x20\n      add\n      mload(0x40)\n      dup1\n      swap2\n      sub\n      swap1\n      keccak256\n        /* \"Project3/PhaseIandII.sol\":2216:2245  policies[name].departure_city */\n      0x04\n      add\n        /* \"Project3/PhaseIandII.sol\":2283:2291  policies */\n      0x03\n        /* \"Project3/PhaseIandII.sol\":2292:2296  name */\n      dup7\n        /* \"Project3/PhaseIandII.sol\":2283:2297  policies[name] */\n      mload(0x40)\n      tag_93\n      swap2\n      swap1\n      tag_89\n      jump\t// in\n    tag_93:\n      swap1\n      dup2\n      mstore\n      0x20\n      add\n      mload(0x40)\n      dup1\n      swap2\n      sub\n      swap1\n      keccak256\n        /* \"Project3/PhaseIandII.sol\":2283:2314  policies[name].destination_city */\n      0x05\n      add\n        /* \"Project3/PhaseIandII.sol\":2342:2350  policies */\n      0x03\n        /* \"Project3/PhaseIandII.sol\":2351:2355  name */\n      dup8\n        /* \"Project3/PhaseIandII.sol\":2342:2356  policies[name] */\n      mload(0x40)\n      tag_94\n      swap2\n      swap1\n      tag_89\n      jump\t// in\n    tag_94:\n      swap1\n      dup2\n      mstore\n      0x20\n      add\n      mload(0x40)\n      dup1\n      swap2\n      sub\n      swap1\n      keccak256\n        /* \"Project3/PhaseIandII.sol\":2342:2370  policies[name].policy_status */\n      0x06\n      add\n        /* \"Project3/PhaseIandII.sol\":1989:2377  string.concat(result, \"Policy: Passenger Name: \", policies[name].name, ... */\n      add(0x20, mload(0x40))\n      tag_95\n      swap8\n      swap7\n      swap6\n      swap5\n      swap4\n      swap3\n      swap2\n      swap1\n      tag_96\n      jump\t// in\n    tag_95:\n      mload(0x40)\n      0x20\n      dup2\n      dup4\n      sub\n      sub\n      dup2\n      mstore\n      swap1\n      0x40\n      mstore\n        /* \"Project3/PhaseIandII.sol\":1980:2377  result = string.concat(result, \"Policy: Passenger Name: \", policies[name].name, ... */\n      swap3\n      pop\n        /* \"Project3/PhaseIandII.sol\":1918:2388  {... */\n      pop\n        /* \"Project3/PhaseIandII.sol\":1914:1917  i++ */\n      dup1\n      dup1\n      0x01\n      add\n      swap2\n      pop\n      pop\n        /* \"Project3/PhaseIandII.sol\":1875:2388  for(uint i = 0; i < name_array.length; i++){... */\n      jump(tag_75)\n    tag_76:\n      pop\n        /* \"Project3/PhaseIandII.sol\":2404:2410  result */\n      dup1\n        /* \"Project3/PhaseIandII.sol\":2397:2410  return result */\n      swap2\n      pop\n      pop\n        /* \"Project3/PhaseIandII.sol\":1752:2417  function view_all_policies() onlyProvider public view returns (string memory) {... */\n      swap1\n      jump\t// out\n        /* \"Project3/PhaseIandII.sol\":887:1271  function purchase_policy(string calldata name, address payable p_address,... */\n    tag_25:\n        /* \"Project3/PhaseIandII.sol\":1093:1111  insurance_provider */\n      0x01\n      0x00\n      swap1\n      sload\n      swap1\n      0x0100\n      exp\n      swap1\n      div\n      0xffffffffffffffffffffffffffffffffffffffff\n      and\n        /* \"Project3/PhaseIandII.sol\":1093:1120  insurance_provider.transfer */\n      0xffffffffffffffffffffffffffffffffffffffff\n      and\n        /* \"Project3/PhaseIandII.sol\":1093:1132  insurance_provider.transfer(0.01 ether) */\n      0x08fc\n        /* \"Project3/PhaseIandII.sol\":1121:1131  0.01 ether */\n      0x2386f26fc10000\n        /* \"Project3/PhaseIandII.sol\":1093:1132  insurance_provider.transfer(0.01 ether) */\n      swap1\n      dup2\n      iszero\n      mul\n      swap1\n      mload(0x40)\n      0x00\n      mload(0x40)\n      dup1\n      dup4\n      sub\n      dup2\n      dup6\n      dup9\n      dup9\n      call\n      swap4\n      pop\n      pop\n      pop\n      pop\n      iszero\n      dup1\n      iszero\n      tag_99\n      jumpi\n      returndatasize\n      0x00\n      dup1\n      returndatacopy\n      revert(0x00, returndatasize)\n    tag_99:\n      pop\n        /* \"Project3/PhaseIandII.sol\":1159:1233  Policy(name, p_address, number, date, departure, destination, \"Purchased\") */\n      mload(0x40)\n      dup1\n      0xe0\n      add\n      0x40\n      mstore\n      dup1\n        /* \"Project3/PhaseIandII.sol\":1166:1170  name */\n      dup13\n      dup13\n        /* \"Project3/PhaseIandII.sol\":1159:1233  Policy(name, p_address, number, date, departure, destination, \"Purchased\") */\n      dup1\n      dup1\n      0x1f\n      add\n      0x20\n      dup1\n      swap2\n      div\n      mul\n      0x20\n      add\n      mload(0x40)\n      swap1\n      dup2\n      add\n      0x40\n      mstore\n      dup1\n      swap4\n      swap3\n      swap2\n      swap1\n      dup2\n      dup2\n      mstore\n      0x20\n      add\n      dup4\n      dup4\n      dup1\n      dup3\n      dup5\n      calldatacopy\n      0x00\n      dup2\n      dup5\n      add\n      mstore\n      not(0x1f)\n      0x1f\n      dup3\n      add\n      and\n      swap1\n      pop\n      dup1\n      dup4\n      add\n      swap3\n      pop\n      pop\n      pop\n      pop\n      pop\n      pop\n      pop\n      dup2\n      mstore\n      0x20\n      add\n        /* \"Project3/PhaseIandII.sol\":1172:1181  p_address */\n      dup11\n        /* \"Project3/PhaseIandII.sol\":1159:1233  Policy(name, p_address, number, date, departure, destination, \"Purchased\") */\n      0xffffffffffffffffffffffffffffffffffffffff\n      and\n      dup2\n      mstore\n      0x20\n      add\n        /* \"Project3/PhaseIandII.sol\":1183:1189  number */\n      dup10\n      dup10\n        /* \"Project3/PhaseIandII.sol\":1159:1233  Policy(name, p_address, number, date, departure, destination, \"Purchased\") */\n      dup1\n      dup1\n      0x1f\n      add\n      0x20\n      dup1\n      swap2\n      div\n      mul\n      0x20\n      add\n      mload(0x40)\n      swap1\n      dup2\n      add\n      0x40\n      mstore\n      dup1\n      swap4\n      swap3\n      swap2\n      swap1\n      dup2\n      dup2\n      mstore\n      0x20\n      add\n      dup4\n      dup4\n      dup1\n      dup3\n      dup5\n      calldatacopy\n      0x00\n      dup2\n      dup5\n      add\n      mstore\n      not(0x1f)\n      0x1f\n      dup3\n      add\n      and\n      swap1\n      pop\n      dup1\n      dup4\n      add\n      swap3\n      pop\n      pop\n      pop\n      pop\n      pop\n      pop\n      pop\n      dup2\n      mstore\n      0x20\n      add\n        /* \"Project3/PhaseIandII.sol\":1191:1195  date */\n      dup8\n      dup8\n        /* \"Project3/PhaseIandII.sol\":1159:1233  Policy(name, p_address, number, date, departure, destination, \"Purchased\") */\n      dup1\n      dup1\n      0x1f\n      add\n      0x20\n      dup1\n      swap2\n      div\n      mul\n      0x20\n      add\n      mload(0x40)\n      swap1\n      dup2\n      add\n      0x40\n      mstore\n      dup1\n      swap4\n      swap3\n      swap2\n      swap1\n      dup2\n      dup2\n      mstore\n      0x20\n      add\n      dup4\n      dup4\n      dup1\n      dup3\n      dup5\n      calldatacopy\n      0x00\n      dup2\n      dup5\n      add\n      mstore\n      not(0x1f)\n      0x1f\n      dup3\n      add\n      and\n      swap1\n      pop\n      dup1\n      dup4\n      add\n      swap3\n      pop\n      pop\n      pop\n      pop\n      pop\n      pop\n      pop\n      dup2\n      mstore\n      0x20\n      add\n        /* \"Project3/PhaseIandII.sol\":1197:1206  departure */\n      dup6\n      dup6\n        /* \"Project3/PhaseIandII.sol\":1159:1233  Policy(name, p_address, number, date, departure, destination, \"Purchased\") */\n      dup1\n      dup1\n      0x1f\n      add\n      0x20\n      dup1\n      swap2\n      div\n      mul\n      0x20\n      add\n      mload(0x40)\n      swap1\n      dup2\n      add\n      0x40\n      mstore\n      dup1\n      swap4\n      swap3\n      swap2\n      swap1\n      dup2\n      dup2\n      mstore\n      0x20\n      add\n      dup4\n      dup4\n      dup1\n      dup3\n      dup5\n      calldatacopy\n      0x00\n      dup2\n      dup5\n      add\n      mstore\n      not(0x1f)\n      0x1f\n      dup3\n      add\n      and\n      swap1\n      pop\n      dup1\n      dup4\n      add\n      swap3\n      pop\n      pop\n      pop\n      pop\n      pop\n      pop\n      pop\n      dup2\n      mstore\n      0x20\n      add\n        /* \"Project3/PhaseIandII.sol\":1208:1219  destination */\n      dup4\n      dup4\n        /* \"Project3/PhaseIandII.sol\":1159:1233  Policy(name, p_address, number, date, departure, destination, \"Purchased\") */\n      dup1\n      dup1\n      0x1f\n      add\n      0x20\n      dup1\n      swap2\n      div\n      mul\n      0x20\n      add\n      mload(0x40)\n      swap1\n      dup2\n      add\n      0x40\n      mstore\n      dup1\n      swap4\n      swap3\n      swap2\n      swap1\n      dup2\n      dup2\n      mstore\n      0x20\n      add\n      dup4\n      dup4\n      dup1\n      dup3\n      dup5\n      calldatacopy\n      0x00\n      dup2\n      dup5\n      add\n      mstore\n      not(0x1f)\n      0x1f\n      dup3\n      add\n      and\n      swap1\n      pop\n      dup1\n      dup4\n      add\n      swap3\n      pop\n      pop\n      pop\n      pop\n      pop\n      pop\n      pop\n      dup2\n      mstore\n      0x20\n      add\n      mload(0x40)\n      dup1\n      0x40\n      add\n      0x40\n      mstore\n      dup1\n      0x09\n      dup2\n      mstore\n      0x20\n      add\n      0x5075726368617365640000000000000000000000000000000000000000000000\n      dup2\n      mstore\n      pop\n      dup2\n      mstore\n      pop\n        /* \"Project3/PhaseIandII.sol\":1142:1150  policies */\n      0x03\n        /* \"Project3/PhaseIandII.sol\":1151:1155  name */\n      dup13\n      dup13\n        /* \"Project3/PhaseIandII.sol\":1142:1156  policies[name] */\n      mload(0x40)\n      tag_100\n      swap3\n      swap2\n      swap1\n      tag_101\n      jump\t// in\n    tag_100:\n      swap1\n      dup2\n      mstore\n      0x20\n      add\n      mload(0x40)\n      dup1\n      swap2\n      sub\n      swap1\n      keccak256\n        /* \"Project3/PhaseIandII.sol\":1142:1233  policies[name] = Policy(name, p_address, number, date, departure, destination, \"Purchased\") */\n      0x00\n      dup3\n      add\n      mload\n      dup2\n      0x00\n      add\n      swap1\n      dup2\n      tag_102\n      swap2\n      swap1\n      tag_103\n      jump\t// in\n    tag_102:\n      pop\n      0x20\n      dup3\n      add\n      mload\n      dup2\n      0x01\n      add\n      exp(0x0100, 0x00)\n      dup2\n      sload\n      dup2\n      0xffffffffffffffffffffffffffffffffffffffff\n      mul\n      not\n      and\n      swap1\n      dup4\n      0xffffffffffffffffffffffffffffffffffffffff\n      and\n      mul\n      or\n      swap1\n      sstore\n      pop\n      0x40\n      dup3\n      add\n      mload\n      dup2\n      0x02\n      add\n      swap1\n      dup2\n      tag_104\n      swap2\n      swap1\n      tag_103\n      jump\t// in\n    tag_104:\n      pop\n      0x60\n      dup3\n      add\n      mload\n      dup2\n      0x03\n      add\n      swap1\n      dup2\n      tag_105\n      swap2\n      swap1\n      tag_103\n      jump\t// in\n    tag_105:\n      pop\n      0x80\n      dup3\n      add\n      mload\n      dup2\n      0x04\n      add\n      swap1\n      dup2\n      tag_106\n      swap2\n      swap1\n      tag_103\n      jump\t// in\n    tag_106:\n      pop\n      0xa0\n      dup3\n      add\n      mload\n      dup2\n      0x05\n      add\n      swap1\n      dup2\n      tag_107\n      swap2\n      swap1\n      tag_103\n      jump\t// in\n    tag_107:\n      pop\n      0xc0\n      dup3\n      add\n      mload\n      dup2\n      0x06\n      add\n      swap1\n      dup2\n      tag_108\n      swap2\n      swap1\n      tag_103\n      jump\t// in\n    tag_108:\n      pop\n      swap1\n      pop\n      pop\n        /* \"Project3/PhaseIandII.sol\":1243:1253  name_array */\n      0x02\n        /* \"Project3/PhaseIandII.sol\":1259:1263  name */\n      dup12\n      dup12\n        /* \"Project3/PhaseIandII.sol\":1243:1264  name_array.push(name) */\n      swap1\n      swap2\n      dup1\n      0x01\n      dup2\n      sload\n      add\n      dup1\n      dup3\n      sstore\n      dup1\n      swap2\n      pop\n      pop\n      0x01\n      swap1\n      sub\n      swap1\n      0x00\n      mstore\n      keccak256(0x00, 0x20)\n      add\n      0x00\n      swap1\n      swap2\n      swap3\n      swap1\n      swap2\n      swap3\n      swap1\n      swap2\n      swap3\n      swap1\n      swap2\n      swap3\n      pop\n      swap2\n      dup3\n      tag_110\n      swap3\n      swap2\n      swap1\n      tag_111\n      jump\t// in\n    tag_110:\n      pop\n        /* \"Project3/PhaseIandII.sol\":887:1271  function purchase_policy(string calldata name, address payable p_address,... */\n      pop\n      pop\n      pop\n      pop\n      pop\n      pop\n      pop\n      pop\n      pop\n      pop\n      pop\n      jump\t// out\n        /* \"Project3/PhaseIandII.sol\":451:492  mapping(string => Policy) public policies */\n    tag_30:\n      0x03\n      dup2\n      dup1\n      mload\n      0x20\n      dup2\n      add\n      dup3\n      add\n      dup1\n      mload\n      dup5\n      dup3\n      mstore\n      0x20\n      dup4\n      add\n      0x20\n      dup6\n      add\n      keccak256\n      dup2\n      dup4\n      mstore\n      dup1\n      swap6\n      pop\n      pop\n      pop\n      pop\n      pop\n      pop\n      0x00\n      swap2\n      pop\n      swap1\n      pop\n      dup1\n      0x00\n      add\n      dup1\n      sload\n      tag_112\n      swap1\n      tag_83\n      jump\t// in\n    tag_112:\n      dup1\n      0x1f\n      add\n      0x20\n      dup1\n      swap2\n      div\n      mul\n      0x20\n      add\n      mload(0x40)\n      swap1\n      dup2\n      add\n      0x40\n      mstore\n      dup1\n      swap3\n      swap2\n      swap1\n      dup2\n      dup2\n      mstore\n      0x20\n      add\n      dup3\n      dup1\n      sload\n      tag_113\n      swap1\n      tag_83\n      jump\t// in\n    tag_113:\n      dup1\n      iszero\n      tag_114\n      jumpi\n      dup1\n      0x1f\n      lt\n      tag_115\n      jumpi\n      0x0100\n      dup1\n      dup4\n      sload\n      div\n      mul\n      dup4\n      mstore\n      swap2\n      0x20\n      add\n      swap2\n      jump(tag_114)\n    tag_115:\n      dup3\n      add\n      swap2\n      swap1\n      0x00\n      mstore\n      keccak256(0x00, 0x20)\n      swap1\n    tag_116:\n      dup2\n      sload\n      dup2\n      mstore\n      swap1\n      0x01\n      add\n      swap1\n      0x20\n      add\n      dup1\n      dup4\n      gt\n      tag_116\n      jumpi\n      dup3\n      swap1\n      sub\n      0x1f\n      and\n      dup3\n      add\n      swap2\n    tag_114:\n      pop\n      pop\n      pop\n      pop\n      pop\n      swap1\n      dup1\n      0x01\n      add\n      0x00\n      swap1\n      sload\n      swap1\n      0x0100\n      exp\n      swap1\n      div\n      0xffffffffffffffffffffffffffffffffffffffff\n      and\n      swap1\n      dup1\n      0x02\n      add\n      dup1\n      sload\n      tag_117\n      swap1\n      tag_83\n      jump\t// in\n    tag_117:\n      dup1\n      0x1f\n      add\n      0x20\n      dup1\n      swap2\n      div\n      mul\n      0x20\n      add\n      mload(0x40)\n      swap1\n      dup2\n      add\n      0x40\n      mstore\n      dup1\n      swap3\n      swap2\n      swap1\n      dup2\n      dup2\n      mstore\n      0x20\n      add\n      dup3\n      dup1\n      sload\n      tag_118\n      swap1\n      tag_83\n      jump\t// in\n    tag_118:\n      dup1\n      iszero\n      tag_119\n      jumpi\n      dup1\n      0x1f\n      lt\n      tag_120\n      jumpi\n      0x0100\n      dup1\n      dup4\n      sload\n      div\n      mul\n      dup4\n      mstore\n      swap2\n      0x20\n      add\n      swap2\n      jump(tag_119)\n    tag_120:\n      dup3\n      add\n      swap2\n      swap1\n      0x00\n      mstore\n      keccak256(0x00, 0x20)\n      swap1\n    tag_121:\n      dup2\n      sload\n      dup2\n      mstore\n      swap1\n      0x01\n      add\n      swap1\n      0x20\n      add\n      dup1\n      dup4\n      gt\n      tag_121\n      jumpi\n      dup3\n      swap1\n      sub\n      0x1f\n      and\n      dup3\n      add\n      swap2\n    tag_119:\n      pop\n      pop\n      pop\n      pop\n      pop\n      swap1\n      dup1\n      0x03\n      add\n      dup1\n      sload\n      tag_122\n      swap1\n      tag_83\n      jump\t// in\n    tag_122:\n      dup1\n      0x1f\n      add\n      0x20\n      dup1\n      swap2\n      div\n      mul\n      0x20\n      add\n      mload(0x40)\n      swap1\n      dup2\n      add\n      0x40\n      mstore\n      dup1\n      swap3\n      swap2\n      swap1\n      dup2\n      dup2\n      mstore\n      0x20\n      add\n      dup3\n      dup1\n      sload\n      tag_123\n      swap1\n      tag_83\n      jump\t// in\n    tag_123:\n      dup1\n      iszero\n      tag_124\n      jumpi\n      dup1\n      0x1f\n      lt\n      tag_125\n      jumpi\n      0x0100\n      dup1\n      dup4\n      sload\n      div\n      mul\n      dup4\n      mstore\n      swap2\n      0x20\n      add\n      swap2\n      jump(tag_124)\n    tag_125:\n      dup3\n      add\n      swap2\n      swap1\n      0x00\n      mstore\n      keccak256(0x00, 0x20)\n      swap1\n    tag_126:\n      dup2\n      sload\n      dup2\n      mstore\n      swap1\n      0x01\n      add\n      swap1\n      0x20\n      add\n      dup1\n      dup4\n      gt\n      tag_126\n      jumpi\n      dup3\n      swap1\n      sub\n      0x1f\n      and\n      dup3\n      add\n      swap2\n    tag_124:\n      pop\n      pop\n      pop\n      pop\n      pop\n      swap1\n      dup1\n      0x04\n      add\n      dup1\n      sload\n      tag_127\n      swap1\n      tag_83\n      jump\t// in\n    tag_127:\n      dup1\n      0x1f\n      add\n      0x20\n      dup1\n      swap2\n      div\n      mul\n      0x20\n      add\n      mload(0x40)\n      swap1\n      dup2\n      add\n      0x40\n      mstore\n      dup1\n      swap3\n      swap2\n      swap1\n      dup2\n      dup2\n      mstore\n      0x20\n      add\n      dup3\n      dup1\n      sload\n      tag_128\n      swap1\n      tag_83\n      jump\t// in\n    tag_128:\n      dup1\n      iszero\n      tag_129\n      jumpi\n      dup1\n      0x1f\n      lt\n      tag_130\n      jumpi\n      0x0100\n      dup1\n      dup4\n      sload\n      div\n      mul\n      dup4\n      mstore\n      swap2\n      0x20\n      add\n      swap2\n      jump(tag_129)\n    tag_130:\n      dup3\n      add\n      swap2\n      swap1\n      0x00\n      mstore\n      keccak256(0x00, 0x20)\n      swap1\n    tag_131:\n      dup2\n      sload\n      dup2\n      mstore\n      swap1\n      0x01\n      add\n      swap1\n      0x20\n      add\n      dup1\n      dup4\n      gt\n      tag_131\n      jumpi\n      dup3\n      swap1\n      sub\n      0x1f\n      and\n      dup3\n      add\n      swap2\n    tag_129:\n      pop\n      pop\n      pop\n      pop\n      pop\n      swap1\n      dup1\n      0x05\n      add\n      dup1\n      sload\n      tag_132\n      swap1\n      tag_83\n      jump\t// in\n    tag_132:\n      dup1\n      0x1f\n      add\n      0x20\n      dup1\n      swap2\n      div\n      mul\n      0x20\n      add\n      mload(0x40)\n      swap1\n      dup2\n      add\n      0x40\n      mstore\n      dup1\n      swap3\n      swap2\n      swap1\n      dup2\n      dup2\n      mstore\n      0x20\n      add\n      dup3\n      dup1\n      sload\n      tag_133\n      swap1\n      tag_83\n      jump\t// in\n    tag_133:\n      dup1\n      iszero\n      tag_134\n      jumpi\n      dup1\n      0x1f\n      lt\n      tag_135\n      jumpi\n      0x0100\n      dup1\n      dup4\n      sload\n      div\n      mul\n      dup4\n      mstore\n      swap2\n      0x20\n      add\n      swap2\n      jump(tag_134)\n    tag_135:\n      dup3\n      add\n      swap2\n      swap1\n      0x00\n      mstore\n      keccak256(0x00, 0x20)\n      swap1\n    tag_136:\n      dup2\n      sload\n      dup2\n      mstore\n      swap1\n      0x01\n      add\n      swap1\n      0x20\n      add\n      dup1\n      dup4\n      gt\n      tag_136\n      jumpi\n      dup3\n      swap1\n      sub\n      0x1f\n      and\n      dup3\n      add\n      swap2\n    tag_134:\n      pop\n      pop\n      pop\n      pop\n      pop\n      swap1\n      dup1\n      0x06\n      add\n      dup1\n      sload\n      tag_137\n      swap1\n      tag_83\n      jump\t// in\n    tag_137:\n      dup1\n      0x1f\n      add\n      0x20\n      dup1\n      swap2\n      div\n      mul\n      0x20\n      add\n      mload(0x40)\n      swap1\n      dup2\n      add\n      0x40\n      mstore\n      dup1\n      swap3\n      swap2\n      swap1\n      dup2\n      dup2\n      mstore\n      0x20\n      add\n      dup3\n      dup1\n      sload\n      tag_138\n      swap1\n      tag_83\n      jump\t// in\n    tag_138:\n      dup1\n      iszero\n      tag_139\n      jumpi\n      dup1\n      0x1f\n      lt\n      tag_140\n      jumpi\n      0x0100\n      dup1\n      dup4\n      sload\n      div\n      mul\n      dup4\n      mstore\n      swap2\n      0x20\n      add\n      swap2\n      jump(tag_139)\n    tag_140:\n      dup3\n      add\n      swap2\n      swap1\n      0x00\n      mstore\n      keccak256(0x00, 0x20)\n      swap1\n    tag_141:\n      dup2\n      sload\n      dup2\n      mstore\n      swap1\n      0x01\n      add\n      swap1\n      0x20\n      add\n      dup1\n      dup4\n      gt\n      tag_141\n      jumpi\n      dup3\n      swap1\n      sub\n      0x1f\n      and\n      dup3\n      add\n      swap2\n    tag_139:\n      pop\n      pop\n      pop\n      pop\n      pop\n      swap1\n      pop\n      dup8\n      jump\t// out\n        /* \"Project3/PhaseIandII.sol\":130:171  address payable public insurance_provider */\n    tag_35:\n      0x01\n      0x00\n      swap1\n      sload\n      swap1\n      0x0100\n      exp\n      swap1\n      div\n      0xffffffffffffffffffffffffffffffffffffffff\n      and\n      dup2\n      jump\t// out\n        /* \"Project3/PhaseIandII.sol\":2888:3034  function view_balance(string memory passenger) public view returns (uint256) {... */\n    tag_41:\n        /* \"Project3/PhaseIandII.sol\":2956:2963  uint256 */\n      0x00\n        /* \"Project3/PhaseIandII.sol\":2982:2990  policies */\n      0x03\n        /* \"Project3/PhaseIandII.sol\":2991:3000  passenger */\n      dup3\n        /* \"Project3/PhaseIandII.sol\":2982:3001  policies[passenger] */\n      mload(0x40)\n      tag_143\n      swap2\n      swap1\n      tag_89\n      jump\t// in\n    tag_143:\n      swap1\n      dup2\n      mstore\n      0x20\n      add\n      mload(0x40)\n      dup1\n      swap2\n      sub\n      swap1\n      keccak256\n        /* \"Project3/PhaseIandII.sol\":2982:3019  policies[passenger].passenger_address */\n      0x01\n      add\n      0x00\n      swap1\n      sload\n      swap1\n      0x0100\n      exp\n      swap1\n      div\n      0xffffffffffffffffffffffffffffffffffffffff\n      and\n        /* \"Project3/PhaseIandII.sol\":2982:3027  policies[passenger].passenger_address.balance */\n      0xffffffffffffffffffffffffffffffffffffffff\n      and\n      balance\n        /* \"Project3/PhaseIandII.sol\":2975:3027  return policies[passenger].passenger_address.balance */\n      swap1\n      pop\n        /* \"Project3/PhaseIandII.sol\":2888:3034  function view_balance(string memory passenger) public view returns (uint256) {... */\n      swap2\n      swap1\n      pop\n      jump\t// out\n        /* \"Project3/PhaseIandII.sol\":96:124  address payable public owner */\n    tag_46:\n      0x00\n      dup1\n      sload\n      swap1\n      0x0100\n      exp\n      swap1\n      div\n      0xffffffffffffffffffffffffffffffffffffffff\n      and\n      dup2\n      jump\t// out\n        /* \"Project3/PhaseIandII.sol\":419:445  string[] public name_array */\n    tag_52:\n      0x02\n      dup2\n      dup2\n      sload\n      dup2\n      lt\n      tag_144\n      jumpi\n      0x00\n      dup1\n      revert\n    tag_144:\n      swap1\n      0x00\n      mstore\n      keccak256(0x00, 0x20)\n      add\n      0x00\n      swap2\n      pop\n      swap1\n      pop\n      dup1\n      sload\n      tag_146\n      swap1\n      tag_83\n      jump\t// in\n    tag_146:\n      dup1\n      0x1f\n      add\n      0x20\n      dup1\n      swap2\n      div\n      mul\n      0x20\n      add\n      mload(0x40)\n      swap1\n      dup2\n      add\n      0x40\n      mstore\n      dup1\n      swap3\n      swap2\n      swap1\n      dup2\n      dup2\n      mstore\n      0x20\n      add\n      dup3\n      dup1\n      sload\n      tag_147\n      swap1\n      tag_83\n      jump\t// in\n    tag_147:\n      dup1\n      iszero\n      tag_148\n      jumpi\n      dup1\n      0x1f\n      lt\n      tag_149\n      jumpi\n      0x0100\n      dup1\n      dup4\n      sload\n      div\n      mul\n      dup4\n      mstore\n      swap2\n      0x20\n      add\n      swap2\n      jump(tag_148)\n    tag_149:\n      dup3\n      add\n      swap2\n      swap1\n      0x00\n      mstore\n      keccak256(0x00, 0x20)\n      swap1\n    tag_150:\n      dup2\n      sload\n      dup2\n      mstore\n      swap1\n      0x01\n      add\n      swap1\n      0x20\n      add\n      dup1\n      dup4\n      gt\n      tag_150\n      jumpi\n      dup3\n      swap1\n      sub\n      0x1f\n      and\n      dup3\n      add\n      swap2\n    tag_148:\n      pop\n      pop\n      pop\n      pop\n      pop\n      dup2\n      jump\t// out\n        /* \"Project3/PhaseIandII.sol\":2531:2882  function pay_indemnity(string[] memory claim_list) onlyProvider public payable returns (string memory) {... */\n    tag_57:\n        /* \"Project3/PhaseIandII.sol\":2619:2632  string memory */\n      0x60\n        /* \"Project3/PhaseIandII.sol\":665:683  insurance_provider */\n      0x01\n      0x00\n      swap1\n      sload\n      swap1\n      0x0100\n      exp\n      swap1\n      div\n      0xffffffffffffffffffffffffffffffffffffffff\n      and\n        /* \"Project3/PhaseIandII.sol\":651:683  msg.sender == insurance_provider */\n      0xffffffffffffffffffffffffffffffffffffffff\n      and\n        /* \"Project3/PhaseIandII.sol\":651:661  msg.sender */\n      caller\n        /* \"Project3/PhaseIandII.sol\":651:683  msg.sender == insurance_provider */\n      0xffffffffffffffffffffffffffffffffffffffff\n      and\n      eq\n        /* \"Project3/PhaseIandII.sol\":643:684  require(msg.sender == insurance_provider) */\n      tag_152\n      jumpi\n      0x00\n      dup1\n      revert\n    tag_152:\n        /* \"Project3/PhaseIandII.sol\":2648:2654  uint i */\n      0x00\n        /* \"Project3/PhaseIandII.sol\":2644:2837  for(uint i = 0; i < claim_list.length; i++){... */\n    tag_154:\n        /* \"Project3/PhaseIandII.sol\":2664:2674  claim_list */\n      dup3\n        /* \"Project3/PhaseIandII.sol\":2664:2681  claim_list.length */\n      mload\n        /* \"Project3/PhaseIandII.sol\":2660:2661  i */\n      dup2\n        /* \"Project3/PhaseIandII.sol\":2660:2681  i < claim_list.length */\n      lt\n        /* \"Project3/PhaseIandII.sol\":2644:2837  for(uint i = 0; i < claim_list.length; i++){... */\n      iszero\n      tag_155\n      jumpi\n        /* \"Project3/PhaseIandII.sol\":2701:2709  policies */\n      0x03\n        /* \"Project3/PhaseIandII.sol\":2710:2720  claim_list */\n      dup4\n        /* \"Project3/PhaseIandII.sol\":2721:2722  i */\n      dup3\n        /* \"Project3/PhaseIandII.sol\":2710:2723  claim_list[i] */\n      dup2\n      mload\n      dup2\n      lt\n      tag_157\n      jumpi\n      tag_158\n      tag_80\n      jump\t// in\n    tag_158:\n    tag_157:\n      0x20\n      mul\n      0x20\n      add\n      add\n      mload\n        /* \"Project3/PhaseIandII.sol\":2701:2724  policies[claim_list[i]] */\n      mload(0x40)\n      tag_159\n      swap2\n      swap1\n      tag_89\n      jump\t// in\n    tag_159:\n      swap1\n      dup2\n      mstore\n      0x20\n      add\n      mload(0x40)\n      dup1\n      swap2\n      sub\n      swap1\n      keccak256\n        /* \"Project3/PhaseIandII.sol\":2701:2742  policies[claim_list[i]].passenger_address */\n      0x01\n      add\n      0x00\n      swap1\n      sload\n      swap1\n      0x0100\n      exp\n      swap1\n      div\n      0xffffffffffffffffffffffffffffffffffffffff\n      and\n        /* \"Project3/PhaseIandII.sol\":2701:2751  policies[claim_list[i]].passenger_address.transfer */\n      0xffffffffffffffffffffffffffffffffffffffff\n      and\n        /* \"Project3/PhaseIandII.sol\":2701:2763  policies[claim_list[i]].passenger_address.transfer(0.02 ether) */\n      0x08fc\n        /* \"Project3/PhaseIandII.sol\":2752:2762  0.02 ether */\n      0x470de4df820000\n        /* \"Project3/PhaseIandII.sol\":2701:2763  policies[claim_list[i]].passenger_address.transfer(0.02 ether) */\n      swap1\n      dup2\n      iszero\n      mul\n      swap1\n      mload(0x40)\n      0x00\n      mload(0x40)\n      dup1\n      dup4\n      sub\n      dup2\n      dup6\n      dup9\n      dup9\n      call\n      swap4\n      pop\n      pop\n      pop\n      pop\n      iszero\n      dup1\n      iszero\n      tag_161\n      jumpi\n      returndatasize\n      0x00\n      dup1\n      returndatacopy\n      revert(0x00, returndatasize)\n    tag_161:\n      pop\n        /* \"Project3/PhaseIandII.sol\":2777:2826  policies[claim_list[i]].policy_status = \"Claimed\" */\n      mload(0x40)\n      dup1\n      0x40\n      add\n      0x40\n      mstore\n      dup1\n      0x07\n      dup2\n      mstore\n      0x20\n      add\n      0x436c61696d656400000000000000000000000000000000000000000000000000\n      dup2\n      mstore\n      pop\n        /* \"Project3/PhaseIandII.sol\":2777:2785  policies */\n      0x03\n        /* \"Project3/PhaseIandII.sol\":2786:2796  claim_list */\n      dup5\n        /* \"Project3/PhaseIandII.sol\":2797:2798  i */\n      dup4\n        /* \"Project3/PhaseIandII.sol\":2786:2799  claim_list[i] */\n      dup2\n      mload\n      dup2\n      lt\n      tag_162\n      jumpi\n      tag_163\n      tag_80\n      jump\t// in\n    tag_163:\n    tag_162:\n      0x20\n      mul\n      0x20\n      add\n      add\n      mload\n        /* \"Project3/PhaseIandII.sol\":2777:2800  policies[claim_list[i]] */\n      mload(0x40)\n      tag_164\n      swap2\n      swap1\n      tag_89\n      jump\t// in\n    tag_164:\n      swap1\n      dup2\n      mstore\n      0x20\n      add\n      mload(0x40)\n      dup1\n      swap2\n      sub\n      swap1\n      keccak256\n        /* \"Project3/PhaseIandII.sol\":2777:2814  policies[claim_list[i]].policy_status */\n      0x06\n      add\n        /* \"Project3/PhaseIandII.sol\":2777:2826  policies[claim_list[i]].policy_status = \"Claimed\" */\n      swap1\n      dup2\n      tag_165\n      swap2\n      swap1\n      tag_103\n      jump\t// in\n    tag_165:\n      pop\n        /* \"Project3/PhaseIandII.sol\":2683:2686  i++ */\n      dup1\n      dup1\n      0x01\n      add\n      swap2\n      pop\n      pop\n        /* \"Project3/PhaseIandII.sol\":2644:2837  for(uint i = 0; i < claim_list.length; i++){... */\n      jump(tag_154)\n    tag_155:\n      pop\n        /* \"Project3/PhaseIandII.sol\":2846:2875  return \"Payments successful!\" */\n      mload(0x40)\n      dup1\n      0x40\n      add\n      0x40\n      mstore\n      dup1\n      0x14\n      dup2\n      mstore\n      0x20\n      add\n      0x5061796d656e7473207375636365737366756c21000000000000000000000000\n      dup2\n      mstore\n      pop\n      swap1\n      pop\n        /* \"Project3/PhaseIandII.sol\":2531:2882  function pay_indemnity(string[] memory claim_list) onlyProvider public payable returns (string memory) {... */\n      swap2\n      swap1\n      pop\n      jump\t// out\n        /* \"Project3/PhaseIandII.sol\":1277:1746  function view_purchased_policy(string memory name) public view returns (string memory) {... */\n    tag_62:\n        /* \"Project3/PhaseIandII.sol\":1349:1362  string memory */\n      0x60\n        /* \"Project3/PhaseIandII.sol\":1415:1423  policies */\n      0x03\n        /* \"Project3/PhaseIandII.sol\":1424:1428  name */\n      dup3\n        /* \"Project3/PhaseIandII.sol\":1415:1429  policies[name] */\n      mload(0x40)\n      tag_167\n      swap2\n      swap1\n      tag_89\n      jump\t// in\n    tag_167:\n      swap1\n      dup2\n      mstore\n      0x20\n      add\n      mload(0x40)\n      dup1\n      swap2\n      sub\n      swap1\n      keccak256\n        /* \"Project3/PhaseIandII.sol\":1415:1434  policies[name].name */\n      0x00\n      add\n        /* \"Project3/PhaseIandII.sol\":1466:1474  policies */\n      0x03\n        /* \"Project3/PhaseIandII.sol\":1475:1479  name */\n      dup4\n        /* \"Project3/PhaseIandII.sol\":1466:1480  policies[name] */\n      mload(0x40)\n      tag_168\n      swap2\n      swap1\n      tag_89\n      jump\t// in\n    tag_168:\n      swap1\n      dup2\n      mstore\n      0x20\n      add\n      mload(0x40)\n      dup1\n      swap2\n      sub\n      swap1\n      keccak256\n        /* \"Project3/PhaseIandII.sol\":1466:1494  policies[name].flight_number */\n      0x02\n      add\n        /* \"Project3/PhaseIandII.sol\":1524:1532  policies */\n      0x03\n        /* \"Project3/PhaseIandII.sol\":1533:1537  name */\n      dup5\n        /* \"Project3/PhaseIandII.sol\":1524:1538  policies[name] */\n      mload(0x40)\n      tag_169\n      swap2\n      swap1\n      tag_89\n      jump\t// in\n    tag_169:\n      swap1\n      dup2\n      mstore\n      0x20\n      add\n      mload(0x40)\n      dup1\n      swap2\n      sub\n      swap1\n      keccak256\n        /* \"Project3/PhaseIandII.sol\":1524:1550  policies[name].flight_date */\n      0x03\n      add\n        /* \"Project3/PhaseIandII.sol\":1583:1591  policies */\n      0x03\n        /* \"Project3/PhaseIandII.sol\":1592:1596  name */\n      dup6\n        /* \"Project3/PhaseIandII.sol\":1583:1597  policies[name] */\n      mload(0x40)\n      tag_170\n      swap2\n      swap1\n      tag_89\n      jump\t// in\n    tag_170:\n      swap1\n      dup2\n      mstore\n      0x20\n      add\n      mload(0x40)\n      dup1\n      swap2\n      sub\n      swap1\n      keccak256\n        /* \"Project3/PhaseIandII.sol\":1583:1612  policies[name].departure_city */\n      0x04\n      add\n        /* \"Project3/PhaseIandII.sol\":1647:1655  policies */\n      0x03\n        /* \"Project3/PhaseIandII.sol\":1656:1660  name */\n      dup7\n        /* \"Project3/PhaseIandII.sol\":1647:1661  policies[name] */\n      mload(0x40)\n      tag_171\n      swap2\n      swap1\n      tag_89\n      jump\t// in\n    tag_171:\n      swap1\n      dup2\n      mstore\n      0x20\n      add\n      mload(0x40)\n      dup1\n      swap2\n      sub\n      swap1\n      keccak256\n        /* \"Project3/PhaseIandII.sol\":1647:1678  policies[name].destination_city */\n      0x05\n      add\n        /* \"Project3/PhaseIandII.sol\":1710:1718  policies */\n      0x03\n        /* \"Project3/PhaseIandII.sol\":1719:1723  name */\n      dup8\n        /* \"Project3/PhaseIandII.sol\":1710:1724  policies[name] */\n      mload(0x40)\n      tag_172\n      swap2\n      swap1\n      tag_89\n      jump\t// in\n    tag_172:\n      swap1\n      dup2\n      mstore\n      0x20\n      add\n      mload(0x40)\n      dup1\n      swap2\n      sub\n      swap1\n      keccak256\n        /* \"Project3/PhaseIandII.sol\":1710:1738  policies[name].policy_status */\n      0x06\n      add\n        /* \"Project3/PhaseIandII.sol\":1381:1739  string.concat(\"Passenger Name: \", policies[name].name, ... */\n      add(0x20, mload(0x40))\n      tag_173\n      swap7\n      swap6\n      swap5\n      swap4\n      swap3\n      swap2\n      swap1\n      tag_174\n      jump\t// in\n    tag_173:\n      mload(0x40)\n      0x20\n      dup2\n      dup4\n      sub\n      sub\n      dup2\n      mstore\n      swap1\n      0x40\n      mstore\n        /* \"Project3/PhaseIandII.sol\":1374:1739  return string.concat(\"Passenger Name: \", policies[name].name, ... */\n      swap1\n      pop\n        /* \"Project3/PhaseIandII.sol\":1277:1746  function view_purchased_policy(string memory name) public view returns (string memory) {... */\n      swap2\n      swap1\n      pop\n      jump\t// out\n        /* \"Project3/PhaseIandII.sol\":708:881  function view_available_policy() public pure returns (string memory) {... */\n    tag_66:\n        /* \"Project3/PhaseIandII.sol\":762:775  string memory */\n      0x60\n        /* \"Project3/PhaseIandII.sol\":787:874  return \"Premium: 0.01 Ether \\nIndemnity: 0.02 Ether \\nCoverage issues: hail and floods\" */\n      mload(0x40)\n      dup1\n      0x80\n      add\n      0x40\n      mstore\n      dup1\n      0x4c\n      dup2\n      mstore\n      0x20\n      add\n      data_c8be08d5e2404c64eec4fa2070eabc6bbf9ff0d11045ed005e7513f9fc9de59b\n      0x4c\n      swap2\n      codecopy\n      swap1\n      pop\n        /* \"Project3/PhaseIandII.sol\":708:881  function view_available_policy() public pure returns (string memory) {... */\n      swap1\n      jump\t// out\n        /* \"Project3/PhaseIandII.sol\":2423:2525  function verify() onlyProvider public view returns (string memory) {... */\n    tag_70:\n        /* \"Project3/PhaseIandII.sol\":2475:2488  string memory */\n      0x60\n        /* \"Project3/PhaseIandII.sol\":665:683  insurance_provider */\n      0x01\n      0x00\n      swap1\n      sload\n      swap1\n      0x0100\n      exp\n      swap1\n      div\n      0xffffffffffffffffffffffffffffffffffffffff\n      and\n        /* \"Project3/PhaseIandII.sol\":651:683  msg.sender == insurance_provider */\n      0xffffffffffffffffffffffffffffffffffffffff\n      and\n        /* \"Project3/PhaseIandII.sol\":651:661  msg.sender */\n      caller\n        /* \"Project3/PhaseIandII.sol\":651:683  msg.sender == insurance_provider */\n      0xffffffffffffffffffffffffffffffffffffffff\n      and\n      eq\n        /* \"Project3/PhaseIandII.sol\":643:684  require(msg.sender == insurance_provider) */\n      tag_177\n      jumpi\n      0x00\n      dup1\n      revert\n    tag_177:\n        /* \"Project3/PhaseIandII.sol\":2500:2518  return \"Verified!\" */\n      mload(0x40)\n      dup1\n      0x40\n      add\n      0x40\n      mstore\n      dup1\n      0x09\n      dup2\n      mstore\n      0x20\n      add\n      0x5665726966696564210000000000000000000000000000000000000000000000\n      dup2\n      mstore\n      pop\n      swap1\n      pop\n        /* \"Project3/PhaseIandII.sol\":2423:2525  function verify() onlyProvider public view returns (string memory) {... */\n      swap1\n      jump\t// out\n        /* \"#utility.yul\":7:106   */\n    tag_179:\n        /* \"#utility.yul\":59:65   */\n      0x00\n        /* \"#utility.yul\":93:98   */\n      dup2\n        /* \"#utility.yul\":87:99   */\n      mload\n        /* \"#utility.yul\":77:99   */\n      swap1\n      pop\n        /* \"#utility.yul\":7:106   */\n      swap2\n      swap1\n      pop\n      jump\t// out\n        /* \"#utility.yul\":112:281   */\n    tag_180:\n        /* \"#utility.yul\":196:207   */\n      0x00\n        /* \"#utility.yul\":230:236   */\n      dup3\n        /* \"#utility.yul\":225:228   */\n      dup3\n        /* \"#utility.yul\":218:237   */\n      mstore\n        /* \"#utility.yul\":270:274   */\n      0x20\n        /* \"#utility.yul\":265:268   */\n      dup3\n        /* \"#utility.yul\":261:275   */\n      add\n        /* \"#utility.yul\":246:275   */\n      swap1\n      pop\n        /* \"#utility.yul\":112:281   */\n      swap3\n      swap2\n      pop\n      pop\n      jump\t// out\n        /* \"#utility.yul\":287:426   */\n    tag_181:\n        /* \"#utility.yul\":376:382   */\n      dup3\n        /* \"#utility.yul\":371:374   */\n      dup2\n        /* \"#utility.yul\":366:369   */\n      dup4\n        /* \"#utility.yul\":360:383   */\n      mcopy\n        /* \"#utility.yul\":417:418   */\n      0x00\n        /* \"#utility.yul\":408:414   */\n      dup4\n        /* \"#utility.yul\":403:406   */\n      dup4\n        /* \"#utility.yul\":399:415   */\n      add\n        /* \"#utility.yul\":392:419   */\n      mstore\n        /* \"#utility.yul\":287:426   */\n      pop\n      pop\n      pop\n      jump\t// out\n        /* \"#utility.yul\":432:534   */\n    tag_182:\n        /* \"#utility.yul\":473:479   */\n      0x00\n        /* \"#utility.yul\":524:526   */\n      0x1f\n        /* \"#utility.yul\":520:527   */\n      not\n        /* \"#utility.yul\":515:517   */\n      0x1f\n        /* \"#utility.yul\":508:513   */\n      dup4\n        /* \"#utility.yul\":504:518   */\n      add\n        /* \"#utility.yul\":500:528   */\n      and\n        /* \"#utility.yul\":490:528   */\n      swap1\n      pop\n        /* \"#utility.yul\":432:534   */\n      swap2\n      swap1\n      pop\n      jump\t// out\n        /* \"#utility.yul\":540:917   */\n    tag_183:\n        /* \"#utility.yul\":628:631   */\n      0x00\n        /* \"#utility.yul\":656:695   */\n      tag_251\n        /* \"#utility.yul\":689:694   */\n      dup3\n        /* \"#utility.yul\":656:695   */\n      tag_179\n      jump\t// in\n    tag_251:\n        /* \"#utility.yul\":711:782   */\n      tag_252\n        /* \"#utility.yul\":775:781   */\n      dup2\n        /* \"#utility.yul\":770:773   */\n      dup6\n        /* \"#utility.yul\":711:782   */\n      tag_180\n      jump\t// in\n    tag_252:\n        /* \"#utility.yul\":704:782   */\n      swap4\n      pop\n        /* \"#utility.yul\":791:856   */\n      tag_253\n        /* \"#utility.yul\":849:855   */\n      dup2\n        /* \"#utility.yul\":844:847   */\n      dup6\n        /* \"#utility.yul\":837:841   */\n      0x20\n        /* \"#utility.yul\":830:835   */\n      dup7\n        /* \"#utility.yul\":826:842   */\n      add\n        /* \"#utility.yul\":791:856   */\n      tag_181\n      jump\t// in\n    tag_253:\n        /* \"#utility.yul\":881:910   */\n      tag_254\n        /* \"#utility.yul\":903:909   */\n      dup2\n        /* \"#utility.yul\":881:910   */\n      tag_182\n      jump\t// in\n    tag_254:\n        /* \"#utility.yul\":876:879   */\n      dup5\n        /* \"#utility.yul\":872:911   */\n      add\n        /* \"#utility.yul\":865:911   */\n      swap2\n      pop\n        /* \"#utility.yul\":632:917   */\n      pop\n        /* \"#utility.yul\":540:917   */\n      swap3\n      swap2\n      pop\n      pop\n      jump\t// out\n        /* \"#utility.yul\":923:1236   */\n    tag_21:\n        /* \"#utility.yul\":1036:1040   */\n      0x00\n        /* \"#utility.yul\":1074:1076   */\n      0x20\n        /* \"#utility.yul\":1063:1072   */\n      dup3\n        /* \"#utility.yul\":1059:1077   */\n      add\n        /* \"#utility.yul\":1051:1077   */\n      swap1\n      pop\n        /* \"#utility.yul\":1123:1132   */\n      dup2\n        /* \"#utility.yul\":1117:1121   */\n      dup2\n        /* \"#utility.yul\":1113:1133   */\n      sub\n        /* \"#utility.yul\":1109:1110   */\n      0x00\n        /* \"#utility.yul\":1098:1107   */\n      dup4\n        /* \"#utility.yul\":1094:1111   */\n      add\n        /* \"#utility.yul\":1087:1134   */\n      mstore\n        /* \"#utility.yul\":1151:1229   */\n      tag_256\n        /* \"#utility.yul\":1224:1228   */\n      dup2\n        /* \"#utility.yul\":1215:1221   */\n      dup5\n        /* \"#utility.yul\":1151:1229   */\n      tag_183\n      jump\t// in\n    tag_256:\n        /* \"#utility.yul\":1143:1229   */\n      swap1\n      pop\n        /* \"#utility.yul\":923:1236   */\n      swap3\n      swap2\n      pop\n      pop\n      jump\t// out\n        /* \"#utility.yul\":1242:1317   */\n    tag_184:\n        /* \"#utility.yul\":1275:1281   */\n      0x00\n        /* \"#utility.yul\":1308:1310   */\n      0x40\n        /* \"#utility.yul\":1302:1311   */\n      mload\n        /* \"#utility.yul\":1292:1311   */\n      swap1\n      pop\n        /* \"#utility.yul\":1242:1317   */\n      swap1\n      jump\t// out\n        /* \"#utility.yul\":1323:1440   */\n    tag_185:\n        /* \"#utility.yul\":1432:1433   */\n      0x00\n        /* \"#utility.yul\":1429:1430   */\n      dup1\n        /* \"#utility.yul\":1422:1434   */\n      revert\n        /* \"#utility.yul\":1446:1563   */\n    tag_186:\n        /* \"#utility.yul\":1555:1556   */\n      0x00\n        /* \"#utility.yul\":1552:1553   */\n      dup1\n        /* \"#utility.yul\":1545:1557   */\n      revert\n        /* \"#utility.yul\":1569:1686   */\n    tag_187:\n        /* \"#utility.yul\":1678:1679   */\n      0x00\n        /* \"#utility.yul\":1675:1676   */\n      dup1\n        /* \"#utility.yul\":1668:1680   */\n      revert\n        /* \"#utility.yul\":1692:1809   */\n    tag_188:\n        /* \"#utility.yul\":1801:1802   */\n      0x00\n        /* \"#utility.yul\":1798:1799   */\n      dup1\n        /* \"#utility.yul\":1791:1803   */\n      revert\n        /* \"#utility.yul\":1815:1932   */\n    tag_189:\n        /* \"#utility.yul\":1924:1925   */\n      0x00\n        /* \"#utility.yul\":1921:1922   */\n      dup1\n        /* \"#utility.yul\":1914:1926   */\n      revert\n        /* \"#utility.yul\":1952:2505   */\n    tag_190:\n        /* \"#utility.yul\":2010:2018   */\n      0x00\n        /* \"#utility.yul\":2020:2026   */\n      dup1\n        /* \"#utility.yul\":2070:2073   */\n      dup4\n        /* \"#utility.yul\":2063:2067   */\n      0x1f\n        /* \"#utility.yul\":2055:2061   */\n      dup5\n        /* \"#utility.yul\":2051:2068   */\n      add\n        /* \"#utility.yul\":2047:2074   */\n      slt\n        /* \"#utility.yul\":2037:2159   */\n      tag_264\n      jumpi\n        /* \"#utility.yul\":2078:2157   */\n      tag_265\n      tag_187\n      jump\t// in\n    tag_265:\n        /* \"#utility.yul\":2037:2159   */\n    tag_264:\n        /* \"#utility.yul\":2191:2197   */\n      dup3\n        /* \"#utility.yul\":2178:2198   */\n      calldataload\n        /* \"#utility.yul\":2168:2198   */\n      swap1\n      pop\n        /* \"#utility.yul\":2221:2239   */\n      0xffffffffffffffff\n        /* \"#utility.yul\":2213:2219   */\n      dup2\n        /* \"#utility.yul\":2210:2240   */\n      gt\n        /* \"#utility.yul\":2207:2324   */\n      iszero\n      tag_266\n      jumpi\n        /* \"#utility.yul\":2243:2322   */\n      tag_267\n      tag_188\n      jump\t// in\n    tag_267:\n        /* \"#utility.yul\":2207:2324   */\n    tag_266:\n        /* \"#utility.yul\":2357:2361   */\n      0x20\n        /* \"#utility.yul\":2349:2355   */\n      dup4\n        /* \"#utility.yul\":2345:2362   */\n      add\n        /* \"#utility.yul\":2333:2362   */\n      swap2\n      pop\n        /* \"#utility.yul\":2411:2414   */\n      dup4\n        /* \"#utility.yul\":2403:2407   */\n      0x01\n        /* \"#utility.yul\":2395:2401   */\n      dup3\n        /* \"#utility.yul\":2391:2408   */\n      mul\n        /* \"#utility.yul\":2381:2389   */\n      dup4\n        /* \"#utility.yul\":2377:2409   */\n      add\n        /* \"#utility.yul\":2374:2415   */\n      gt\n        /* \"#utility.yul\":2371:2499   */\n      iszero\n      tag_268\n      jumpi\n        /* \"#utility.yul\":2418:2497   */\n      tag_269\n      tag_189\n      jump\t// in\n    tag_269:\n        /* \"#utility.yul\":2371:2499   */\n    tag_268:\n        /* \"#utility.yul\":1952:2505   */\n      swap3\n      pop\n      swap3\n      swap1\n      pop\n      jump\t// out\n        /* \"#utility.yul\":2511:2637   */\n    tag_191:\n        /* \"#utility.yul\":2548:2555   */\n      0x00\n        /* \"#utility.yul\":2588:2630   */\n      0xffffffffffffffffffffffffffffffffffffffff\n        /* \"#utility.yul\":2581:2586   */\n      dup3\n        /* \"#utility.yul\":2577:2631   */\n      and\n        /* \"#utility.yul\":2566:2631   */\n      swap1\n      pop\n        /* \"#utility.yul\":2511:2637   */\n      swap2\n      swap1\n      pop\n      jump\t// out\n        /* \"#utility.yul\":2643:2747   */\n    tag_192:\n        /* \"#utility.yul\":2688:2695   */\n      0x00\n        /* \"#utility.yul\":2717:2741   */\n      tag_272\n        /* \"#utility.yul\":2735:2740   */\n      dup3\n        /* \"#utility.yul\":2717:2741   */\n      tag_191\n      jump\t// in\n    tag_272:\n        /* \"#utility.yul\":2706:2741   */\n      swap1\n      pop\n        /* \"#utility.yul\":2643:2747   */\n      swap2\n      swap1\n      pop\n      jump\t// out\n        /* \"#utility.yul\":2753:2891   */\n    tag_193:\n        /* \"#utility.yul\":2834:2866   */\n      tag_274\n        /* \"#utility.yul\":2860:2865   */\n      dup2\n        /* \"#utility.yul\":2834:2866   */\n      tag_192\n      jump\t// in\n    tag_274:\n        /* \"#utility.yul\":2827:2832   */\n      dup2\n        /* \"#utility.yul\":2824:2867   */\n      eq\n        /* \"#utility.yul\":2814:2885   */\n      tag_275\n      jumpi\n        /* \"#utility.yul\":2881:2882   */\n      0x00\n        /* \"#utility.yul\":2878:2879   */\n      dup1\n        /* \"#utility.yul\":2871:2883   */\n      revert\n        /* \"#utility.yul\":2814:2885   */\n    tag_275:\n        /* \"#utility.yul\":2753:2891   */\n      pop\n      jump\t// out\n        /* \"#utility.yul\":2897:3052   */\n    tag_194:\n        /* \"#utility.yul\":2951:2956   */\n      0x00\n        /* \"#utility.yul\":2989:2995   */\n      dup2\n        /* \"#utility.yul\":2976:2996   */\n      calldataload\n        /* \"#utility.yul\":2967:2996   */\n      swap1\n      pop\n        /* \"#utility.yul\":3005:3046   */\n      tag_277\n        /* \"#utility.yul\":3040:3045   */\n      dup2\n        /* \"#utility.yul\":3005:3046   */\n      tag_193\n      jump\t// in\n    tag_277:\n        /* \"#utility.yul\":2897:3052   */\n      swap3\n      swap2\n      pop\n      pop\n      jump\t// out\n        /* \"#utility.yul\":3058:5133   */\n    tag_24:\n        /* \"#utility.yul\":3230:3236   */\n      0x00\n        /* \"#utility.yul\":3238:3244   */\n      dup1\n        /* \"#utility.yul\":3246:3252   */\n      0x00\n        /* \"#utility.yul\":3254:3260   */\n      dup1\n        /* \"#utility.yul\":3262:3268   */\n      0x00\n        /* \"#utility.yul\":3270:3276   */\n      dup1\n        /* \"#utility.yul\":3278:3284   */\n      0x00\n        /* \"#utility.yul\":3286:3292   */\n      dup1\n        /* \"#utility.yul\":3294:3300   */\n      0x00\n        /* \"#utility.yul\":3302:3308   */\n      dup1\n        /* \"#utility.yul\":3310:3317   */\n      0x00\n        /* \"#utility.yul\":3360:3363   */\n      0xc0\n        /* \"#utility.yul\":3348:3357   */\n      dup13\n        /* \"#utility.yul\":3339:3346   */\n      dup15\n        /* \"#utility.yul\":3335:3358   */\n      sub\n        /* \"#utility.yul\":3331:3364   */\n      slt\n        /* \"#utility.yul\":3328:3448   */\n      iszero\n      tag_279\n      jumpi\n        /* \"#utility.yul\":3367:3446   */\n      tag_280\n      tag_185\n      jump\t// in\n    tag_280:\n        /* \"#utility.yul\":3328:3448   */\n    tag_279:\n        /* \"#utility.yul\":3515:3516   */\n      0x00\n        /* \"#utility.yul\":3504:3513   */\n      dup13\n        /* \"#utility.yul\":3500:3517   */\n      add\n        /* \"#utility.yul\":3487:3518   */\n      calldataload\n        /* \"#utility.yul\":3545:3563   */\n      0xffffffffffffffff\n        /* \"#utility.yul\":3537:3543   */\n      dup2\n        /* \"#utility.yul\":3534:3564   */\n      gt\n        /* \"#utility.yul\":3531:3648   */\n      iszero\n      tag_281\n      jumpi\n        /* \"#utility.yul\":3567:3646   */\n      tag_282\n      tag_186\n      jump\t// in\n    tag_282:\n        /* \"#utility.yul\":3531:3648   */\n    tag_281:\n        /* \"#utility.yul\":3680:3745   */\n      tag_283\n        /* \"#utility.yul\":3737:3744   */\n      dup15\n        /* \"#utility.yul\":3728:3734   */\n      dup3\n        /* \"#utility.yul\":3717:3726   */\n      dup16\n        /* \"#utility.yul\":3713:3735   */\n      add\n        /* \"#utility.yul\":3680:3745   */\n      tag_190\n      jump\t// in\n    tag_283:\n        /* \"#utility.yul\":3662:3745   */\n      swap12\n      pop\n      swap12\n      pop\n        /* \"#utility.yul\":3458:3755   */\n      pop\n        /* \"#utility.yul\":3794:3796   */\n      0x20\n        /* \"#utility.yul\":3820:3881   */\n      tag_284\n        /* \"#utility.yul\":3873:3880   */\n      dup15\n        /* \"#utility.yul\":3864:3870   */\n      dup3\n        /* \"#utility.yul\":3853:3862   */\n      dup16\n        /* \"#utility.yul\":3849:3871   */\n      add\n        /* \"#utility.yul\":3820:3881   */\n      tag_194\n      jump\t// in\n    tag_284:\n        /* \"#utility.yul\":3810:3881   */\n      swap10\n      pop\n        /* \"#utility.yul\":3765:3891   */\n      pop\n        /* \"#utility.yul\":3958:3960   */\n      0x40\n        /* \"#utility.yul\":3947:3956   */\n      dup13\n        /* \"#utility.yul\":3943:3961   */\n      add\n        /* \"#utility.yul\":3930:3962   */\n      calldataload\n        /* \"#utility.yul\":3989:4007   */\n      0xffffffffffffffff\n        /* \"#utility.yul\":3981:3987   */\n      dup2\n        /* \"#utility.yul\":3978:4008   */\n      gt\n        /* \"#utility.yul\":3975:4092   */\n      iszero\n      tag_285\n      jumpi\n        /* \"#utility.yul\":4011:4090   */\n      tag_286\n      tag_186\n      jump\t// in\n    tag_286:\n        /* \"#utility.yul\":3975:4092   */\n    tag_285:\n        /* \"#utility.yul\":4124:4189   */\n      tag_287\n        /* \"#utility.yul\":4181:4188   */\n      dup15\n        /* \"#utility.yul\":4172:4178   */\n      dup3\n        /* \"#utility.yul\":4161:4170   */\n      dup16\n        /* \"#utility.yul\":4157:4179   */\n      add\n        /* \"#utility.yul\":4124:4189   */\n      tag_190\n      jump\t// in\n    tag_287:\n        /* \"#utility.yul\":4106:4189   */\n      swap9\n      pop\n      swap9\n      pop\n        /* \"#utility.yul\":3901:4199   */\n      pop\n        /* \"#utility.yul\":4266:4268   */\n      0x60\n        /* \"#utility.yul\":4255:4264   */\n      dup13\n        /* \"#utility.yul\":4251:4269   */\n      add\n        /* \"#utility.yul\":4238:4270   */\n      calldataload\n        /* \"#utility.yul\":4297:4315   */\n      0xffffffffffffffff\n        /* \"#utility.yul\":4289:4295   */\n      dup2\n        /* \"#utility.yul\":4286:4316   */\n      gt\n        /* \"#utility.yul\":4283:4400   */\n      iszero\n      tag_288\n      jumpi\n        /* \"#utility.yul\":4319:4398   */\n      tag_289\n      tag_186\n      jump\t// in\n    tag_289:\n        /* \"#utility.yul\":4283:4400   */\n    tag_288:\n        /* \"#utility.yul\":4432:4497   */\n      tag_290\n        /* \"#utility.yul\":4489:4496   */\n      dup15\n        /* \"#utility.yul\":4480:4486   */\n      dup3\n        /* \"#utility.yul\":4469:4478   */\n      dup16\n        /* \"#utility.yul\":4465:4487   */\n      add\n        /* \"#utility.yul\":4432:4497   */\n      tag_190\n      jump\t// in\n    tag_290:\n        /* \"#utility.yul\":4414:4497   */\n      swap7\n      pop\n      swap7\n      pop\n        /* \"#utility.yul\":4209:4507   */\n      pop\n        /* \"#utility.yul\":4574:4577   */\n      0x80\n        /* \"#utility.yul\":4563:4572   */\n      dup13\n        /* \"#utility.yul\":4559:4578   */\n      add\n        /* \"#utility.yul\":4546:4579   */\n      calldataload\n        /* \"#utility.yul\":4606:4624   */\n      0xffffffffffffffff\n        /* \"#utility.yul\":4598:4604   */\n      dup2\n        /* \"#utility.yul\":4595:4625   */\n      gt\n        /* \"#utility.yul\":4592:4709   */\n      iszero\n      tag_291\n      jumpi\n        /* \"#utility.yul\":4628:4707   */\n      tag_292\n      tag_186\n      jump\t// in\n    tag_292:\n        /* \"#utility.yul\":4592:4709   */\n    tag_291:\n        /* \"#utility.yul\":4741:4806   */\n      tag_293\n        /* \"#utility.yul\":4798:4805   */\n      dup15\n        /* \"#utility.yul\":4789:4795   */\n      dup3\n        /* \"#utility.yul\":4778:4787   */\n      dup16\n        /* \"#utility.yul\":4774:4796   */\n      add\n        /* \"#utility.yul\":4741:4806   */\n      tag_190\n      jump\t// in\n    tag_293:\n        /* \"#utility.yul\":4723:4806   */\n      swap5\n      pop\n      swap5\n      pop\n        /* \"#utility.yul\":4517:4816   */\n      pop\n        /* \"#utility.yul\":4883:4886   */\n      0xa0\n        /* \"#utility.yul\":4872:4881   */\n      dup13\n        /* \"#utility.yul\":4868:4887   */\n      add\n        /* \"#utility.yul\":4855:4888   */\n      calldataload\n        /* \"#utility.yul\":4915:4933   */\n      0xffffffffffffffff\n        /* \"#utility.yul\":4907:4913   */\n      dup2\n        /* \"#utility.yul\":4904:4934   */\n      gt\n        /* \"#utility.yul\":4901:5018   */\n      iszero\n      tag_294\n      jumpi\n        /* \"#utility.yul\":4937:5016   */\n      tag_295\n      tag_186\n      jump\t// in\n    tag_295:\n        /* \"#utility.yul\":4901:5018   */\n    tag_294:\n        /* \"#utility.yul\":5051:5116   */\n      tag_296\n        /* \"#utility.yul\":5108:5115   */\n      dup15\n        /* \"#utility.yul\":5099:5105   */\n      dup3\n        /* \"#utility.yul\":5088:5097   */\n      dup16\n        /* \"#utility.yul\":5084:5106   */\n      add\n        /* \"#utility.yul\":5051:5116   */\n      tag_190\n      jump\t// in\n    tag_296:\n        /* \"#utility.yul\":5032:5116   */\n      swap3\n      pop\n      swap3\n      pop\n        /* \"#utility.yul\":4826:5126   */\n      pop\n        /* \"#utility.yul\":3058:5133   */\n      swap3\n      swap6\n      swap9\n      swap12\n      pop\n      swap3\n      swap6\n      swap9\n      swap12\n      swap1\n      swap4\n      swap7\n      swap10\n      pop\n      jump\t// out\n        /* \"#utility.yul\":5139:5256   */\n    tag_195:\n        /* \"#utility.yul\":5248:5249   */\n      0x00\n        /* \"#utility.yul\":5245:5246   */\n      dup1\n        /* \"#utility.yul\":5238:5250   */\n      revert\n        /* \"#utility.yul\":5262:5442   */\n    tag_196:\n        /* \"#utility.yul\":5310:5387   */\n      0x4e487b7100000000000000000000000000000000000000000000000000000000\n        /* \"#utility.yul\":5307:5308   */\n      0x00\n        /* \"#utility.yul\":5300:5388   */\n      mstore\n        /* \"#utility.yul\":5407:5411   */\n      0x41\n        /* \"#utility.yul\":5404:5405   */\n      0x04\n        /* \"#utility.yul\":5397:5412   */\n      mstore\n        /* \"#utility.yul\":5431:5435   */\n      0x24\n        /* \"#utility.yul\":5428:5429   */\n      0x00\n        /* \"#utility.yul\":5421:5436   */\n      revert\n        /* \"#utility.yul\":5448:5729   */\n    tag_197:\n        /* \"#utility.yul\":5531:5558   */\n      tag_300\n        /* \"#utility.yul\":5553:5557   */\n      dup3\n        /* \"#utility.yul\":5531:5558   */\n      tag_182\n      jump\t// in\n    tag_300:\n        /* \"#utility.yul\":5523:5529   */\n      dup2\n        /* \"#utility.yul\":5519:5559   */\n      add\n        /* \"#utility.yul\":5661:5667   */\n      dup2\n        /* \"#utility.yul\":5649:5659   */\n      dup2\n        /* \"#utility.yul\":5646:5668   */\n      lt\n        /* \"#utility.yul\":5625:5643   */\n      0xffffffffffffffff\n        /* \"#utility.yul\":5613:5623   */\n      dup3\n        /* \"#utility.yul\":5610:5644   */\n      gt\n        /* \"#utility.yul\":5607:5669   */\n      or\n        /* \"#utility.yul\":5604:5692   */\n      iszero\n      tag_301\n      jumpi\n        /* \"#utility.yul\":5672:5690   */\n      tag_302\n      tag_196\n      jump\t// in\n    tag_302:\n        /* \"#utility.yul\":5604:5692   */\n    tag_301:\n        /* \"#utility.yul\":5712:5722   */\n      dup1\n        /* \"#utility.yul\":5708:5710   */\n      0x40\n        /* \"#utility.yul\":5701:5723   */\n      mstore\n        /* \"#utility.yul\":5491:5729   */\n      pop\n        /* \"#utility.yul\":5448:5729   */\n      pop\n      pop\n      jump\t// out\n        /* \"#utility.yul\":5735:5864   */\n    tag_198:\n        /* \"#utility.yul\":5769:5775   */\n      0x00\n        /* \"#utility.yul\":5796:5816   */\n      tag_304\n      tag_184\n      jump\t// in\n    tag_304:\n        /* \"#utility.yul\":5786:5816   */\n      swap1\n      pop\n        /* \"#utility.yul\":5825:5858   */\n      tag_305\n        /* \"#utility.yul\":5853:5857   */\n      dup3\n        /* \"#utility.yul\":5845:5851   */\n      dup3\n        /* \"#utility.yul\":5825:5858   */\n      tag_197\n      jump\t// in\n    tag_305:\n        /* \"#utility.yul\":5735:5864   */\n      swap2\n      swap1\n      pop\n      jump\t// out\n        /* \"#utility.yul\":5870:6178   */\n    tag_199:\n        /* \"#utility.yul\":5932:5936   */\n      0x00\n        /* \"#utility.yul\":6022:6040   */\n      0xffffffffffffffff\n        /* \"#utility.yul\":6014:6020   */\n      dup3\n        /* \"#utility.yul\":6011:6041   */\n      gt\n        /* \"#utility.yul\":6008:6064   */\n      iszero\n      tag_307\n      jumpi\n        /* \"#utility.yul\":6044:6062   */\n      tag_308\n      tag_196\n      jump\t// in\n    tag_308:\n        /* \"#utility.yul\":6008:6064   */\n    tag_307:\n        /* \"#utility.yul\":6082:6111   */\n      tag_309\n        /* \"#utility.yul\":6104:6110   */\n      dup3\n        /* \"#utility.yul\":6082:6111   */\n      tag_182\n      jump\t// in\n    tag_309:\n        /* \"#utility.yul\":6074:6111   */\n      swap1\n      pop\n        /* \"#utility.yul\":6166:6170   */\n      0x20\n        /* \"#utility.yul\":6160:6164   */\n      dup2\n        /* \"#utility.yul\":6156:6171   */\n      add\n        /* \"#utility.yul\":6148:6171   */\n      swap1\n      pop\n        /* \"#utility.yul\":5870:6178   */\n      swap2\n      swap1\n      pop\n      jump\t// out\n        /* \"#utility.yul\":6184:6332   */\n    tag_200:\n        /* \"#utility.yul\":6282:6288   */\n      dup3\n        /* \"#utility.yul\":6277:6280   */\n      dup2\n        /* \"#utility.yul\":6272:6275   */\n      dup4\n        /* \"#utility.yul\":6259:6289   */\n      calldatacopy\n        /* \"#utility.yul\":6323:6324   */\n      0x00\n        /* \"#utility.yul\":6314:6320   */\n      dup4\n        /* \"#utility.yul\":6309:6312   */\n      dup4\n        /* \"#utility.yul\":6305:6321   */\n      add\n        /* \"#utility.yul\":6298:6325   */\n      mstore\n        /* \"#utility.yul\":6184:6332   */\n      pop\n      pop\n      pop\n      jump\t// out\n        /* \"#utility.yul\":6338:6763   */\n    tag_201:\n        /* \"#utility.yul\":6416:6421   */\n      0x00\n        /* \"#utility.yul\":6441:6507   */\n      tag_312\n        /* \"#utility.yul\":6457:6506   */\n      tag_313\n        /* \"#utility.yul\":6499:6505   */\n      dup5\n        /* \"#utility.yul\":6457:6506   */\n      tag_199\n      jump\t// in\n    tag_313:\n        /* \"#utility.yul\":6441:6507   */\n      tag_198\n      jump\t// in\n    tag_312:\n        /* \"#utility.yul\":6432:6507   */\n      swap1\n      pop\n        /* \"#utility.yul\":6530:6536   */\n      dup3\n        /* \"#utility.yul\":6523:6528   */\n      dup2\n        /* \"#utility.yul\":6516:6537   */\n      mstore\n        /* \"#utility.yul\":6568:6572   */\n      0x20\n        /* \"#utility.yul\":6561:6566   */\n      dup2\n        /* \"#utility.yul\":6557:6573   */\n      add\n        /* \"#utility.yul\":6606:6609   */\n      dup5\n        /* \"#utility.yul\":6597:6603   */\n      dup5\n        /* \"#utility.yul\":6592:6595   */\n      dup5\n        /* \"#utility.yul\":6588:6604   */\n      add\n        /* \"#utility.yul\":6585:6610   */\n      gt\n        /* \"#utility.yul\":6582:6694   */\n      iszero\n      tag_314\n      jumpi\n        /* \"#utility.yul\":6613:6692   */\n      tag_315\n      tag_195\n      jump\t// in\n    tag_315:\n        /* \"#utility.yul\":6582:6694   */\n    tag_314:\n        /* \"#utility.yul\":6703:6757   */\n      tag_316\n        /* \"#utility.yul\":6750:6756   */\n      dup5\n        /* \"#utility.yul\":6745:6748   */\n      dup3\n        /* \"#utility.yul\":6740:6743   */\n      dup6\n        /* \"#utility.yul\":6703:6757   */\n      tag_200\n      jump\t// in\n    tag_316:\n        /* \"#utility.yul\":6422:6763   */\n      pop\n        /* \"#utility.yul\":6338:6763   */\n      swap4\n      swap3\n      pop\n      pop\n      pop\n      jump\t// out\n        /* \"#utility.yul\":6783:7123   */\n    tag_202:\n        /* \"#utility.yul\":6839:6844   */\n      0x00\n        /* \"#utility.yul\":6888:6891   */\n      dup3\n        /* \"#utility.yul\":6881:6885   */\n      0x1f\n        /* \"#utility.yul\":6873:6879   */\n      dup4\n        /* \"#utility.yul\":6869:6886   */\n      add\n        /* \"#utility.yul\":6865:6892   */\n      slt\n        /* \"#utility.yul\":6855:6977   */\n      tag_318\n      jumpi\n        /* \"#utility.yul\":6896:6975   */\n      tag_319\n      tag_187\n      jump\t// in\n    tag_319:\n        /* \"#utility.yul\":6855:6977   */\n    tag_318:\n        /* \"#utility.yul\":7013:7019   */\n      dup2\n        /* \"#utility.yul\":7000:7020   */\n      calldataload\n        /* \"#utility.yul\":7038:7117   */\n      tag_320\n        /* \"#utility.yul\":7113:7116   */\n      dup5\n        /* \"#utility.yul\":7105:7111   */\n      dup3\n        /* \"#utility.yul\":7098:7102   */\n      0x20\n        /* \"#utility.yul\":7090:7096   */\n      dup7\n        /* \"#utility.yul\":7086:7103   */\n      add\n        /* \"#utility.yul\":7038:7117   */\n      tag_201\n      jump\t// in\n    tag_320:\n        /* \"#utility.yul\":7029:7117   */\n      swap2\n      pop\n        /* \"#utility.yul\":6845:7123   */\n      pop\n        /* \"#utility.yul\":6783:7123   */\n      swap3\n      swap2\n      pop\n      pop\n      jump\t// out\n        /* \"#utility.yul\":7129:7638   */\n    tag_29:\n        /* \"#utility.yul\":7198:7204   */\n      0x00\n        /* \"#utility.yul\":7247:7249   */\n      0x20\n        /* \"#utility.yul\":7235:7244   */\n      dup3\n        /* \"#utility.yul\":7226:7233   */\n      dup5\n        /* \"#utility.yul\":7222:7245   */\n      sub\n        /* \"#utility.yul\":7218:7250   */\n      slt\n        /* \"#utility.yul\":7215:7334   */\n      iszero\n      tag_322\n      jumpi\n        /* \"#utility.yul\":7253:7332   */\n      tag_323\n      tag_185\n      jump\t// in\n    tag_323:\n        /* \"#utility.yul\":7215:7334   */\n    tag_322:\n        /* \"#utility.yul\":7401:7402   */\n      0x00\n        /* \"#utility.yul\":7390:7399   */\n      dup3\n        /* \"#utility.yul\":7386:7403   */\n      add\n        /* \"#utility.yul\":7373:7404   */\n      calldataload\n        /* \"#utility.yul\":7431:7449   */\n      0xffffffffffffffff\n        /* \"#utility.yul\":7423:7429   */\n      dup2\n        /* \"#utility.yul\":7420:7450   */\n      gt\n        /* \"#utility.yul\":7417:7534   */\n      iszero\n      tag_324\n      jumpi\n        /* \"#utility.yul\":7453:7532   */\n      tag_325\n      tag_186\n      jump\t// in\n    tag_325:\n        /* \"#utility.yul\":7417:7534   */\n    tag_324:\n        /* \"#utility.yul\":7558:7621   */\n      tag_326\n        /* \"#utility.yul\":7613:7620   */\n      dup5\n        /* \"#utility.yul\":7604:7610   */\n      dup3\n        /* \"#utility.yul\":7593:7602   */\n      dup6\n        /* \"#utility.yul\":7589:7611   */\n      add\n        /* \"#utility.yul\":7558:7621   */\n      tag_202\n      jump\t// in\n    tag_326:\n        /* \"#utility.yul\":7548:7621   */\n      swap2\n      pop\n        /* \"#utility.yul\":7344:7631   */\n      pop\n        /* \"#utility.yul\":7129:7638   */\n      swap3\n      swap2\n      pop\n      pop\n      jump\t// out\n        /* \"#utility.yul\":7644:7786   */\n    tag_203:\n        /* \"#utility.yul\":7747:7779   */\n      tag_328\n        /* \"#utility.yul\":7773:7778   */\n      dup2\n        /* \"#utility.yul\":7747:7779   */\n      tag_192\n      jump\t// in\n    tag_328:\n        /* \"#utility.yul\":7742:7745   */\n      dup3\n        /* \"#utility.yul\":7735:7780   */\n      mstore\n        /* \"#utility.yul\":7644:7786   */\n      pop\n      pop\n      jump\t// out\n        /* \"#utility.yul\":7792:9256   */\n    tag_32:\n        /* \"#utility.yul\":8189:8193   */\n      0x00\n        /* \"#utility.yul\":8227:8230   */\n      0xe0\n        /* \"#utility.yul\":8216:8225   */\n      dup3\n        /* \"#utility.yul\":8212:8231   */\n      add\n        /* \"#utility.yul\":8204:8231   */\n      swap1\n      pop\n        /* \"#utility.yul\":8277:8286   */\n      dup2\n        /* \"#utility.yul\":8271:8275   */\n      dup2\n        /* \"#utility.yul\":8267:8287   */\n      sub\n        /* \"#utility.yul\":8263:8264   */\n      0x00\n        /* \"#utility.yul\":8252:8261   */\n      dup4\n        /* \"#utility.yul\":8248:8265   */\n      add\n        /* \"#utility.yul\":8241:8288   */\n      mstore\n        /* \"#utility.yul\":8305:8383   */\n      tag_330\n        /* \"#utility.yul\":8378:8382   */\n      dup2\n        /* \"#utility.yul\":8369:8375   */\n      dup11\n        /* \"#utility.yul\":8305:8383   */\n      tag_183\n      jump\t// in\n    tag_330:\n        /* \"#utility.yul\":8297:8383   */\n      swap1\n      pop\n        /* \"#utility.yul\":8393:8481   */\n      tag_331\n        /* \"#utility.yul\":8477:8479   */\n      0x20\n        /* \"#utility.yul\":8466:8475   */\n      dup4\n        /* \"#utility.yul\":8462:8480   */\n      add\n        /* \"#utility.yul\":8453:8459   */\n      dup10\n        /* \"#utility.yul\":8393:8481   */\n      tag_203\n      jump\t// in\n    tag_331:\n        /* \"#utility.yul\":8528:8537   */\n      dup2\n        /* \"#utility.yul\":8522:8526   */\n      dup2\n        /* \"#utility.yul\":8518:8538   */\n      sub\n        /* \"#utility.yul\":8513:8515   */\n      0x40\n        /* \"#utility.yul\":8502:8511   */\n      dup4\n        /* \"#utility.yul\":8498:8516   */\n      add\n        /* \"#utility.yul\":8491:8539   */\n      mstore\n        /* \"#utility.yul\":8556:8634   */\n      tag_332\n        /* \"#utility.yul\":8629:8633   */\n      dup2\n        /* \"#utility.yul\":8620:8626   */\n      dup9\n        /* \"#utility.yul\":8556:8634   */\n      tag_183\n      jump\t// in\n    tag_332:\n        /* \"#utility.yul\":8548:8634   */\n      swap1\n      pop\n        /* \"#utility.yul\":8681:8690   */\n      dup2\n        /* \"#utility.yul\":8675:8679   */\n      dup2\n        /* \"#utility.yul\":8671:8691   */\n      sub\n        /* \"#utility.yul\":8666:8668   */\n      0x60\n        /* \"#utility.yul\":8655:8664   */\n      dup4\n        /* \"#utility.yul\":8651:8669   */\n      add\n        /* \"#utility.yul\":8644:8692   */\n      mstore\n        /* \"#utility.yul\":8709:8787   */\n      tag_333\n        /* \"#utility.yul\":8782:8786   */\n      dup2\n        /* \"#utility.yul\":8773:8779   */\n      dup8\n        /* \"#utility.yul\":8709:8787   */\n      tag_183\n      jump\t// in\n    tag_333:\n        /* \"#utility.yul\":8701:8787   */\n      swap1\n      pop\n        /* \"#utility.yul\":8835:8844   */\n      dup2\n        /* \"#utility.yul\":8829:8833   */\n      dup2\n        /* \"#utility.yul\":8825:8845   */\n      sub\n        /* \"#utility.yul\":8819:8822   */\n      0x80\n        /* \"#utility.yul\":8808:8817   */\n      dup4\n        /* \"#utility.yul\":8804:8823   */\n      add\n        /* \"#utility.yul\":8797:8846   */\n      mstore\n        /* \"#utility.yul\":8863:8941   */\n      tag_334\n        /* \"#utility.yul\":8936:8940   */\n      dup2\n        /* \"#utility.yul\":8927:8933   */\n      dup7\n        /* \"#utility.yul\":8863:8941   */\n      tag_183\n      jump\t// in\n    tag_334:\n        /* \"#utility.yul\":8855:8941   */\n      swap1\n      pop\n        /* \"#utility.yul\":8989:8998   */\n      dup2\n        /* \"#utility.yul\":8983:8987   */\n      dup2\n        /* \"#utility.yul\":8979:8999   */\n      sub\n        /* \"#utility.yul\":8973:8976   */\n      0xa0\n        /* \"#utility.yul\":8962:8971   */\n      dup4\n        /* \"#utility.yul\":8958:8977   */\n      add\n        /* \"#utility.yul\":8951:9000   */\n      mstore\n        /* \"#utility.yul\":9017:9095   */\n      tag_335\n        /* \"#utility.yul\":9090:9094   */\n      dup2\n        /* \"#utility.yul\":9081:9087   */\n      dup6\n        /* \"#utility.yul\":9017:9095   */\n      tag_183\n      jump\t// in\n    tag_335:\n        /* \"#utility.yul\":9009:9095   */\n      swap1\n      pop\n        /* \"#utility.yul\":9143:9152   */\n      dup2\n        /* \"#utility.yul\":9137:9141   */\n      dup2\n        /* \"#utility.yul\":9133:9153   */\n      sub\n        /* \"#utility.yul\":9127:9130   */\n      0xc0\n        /* \"#utility.yul\":9116:9125   */\n      dup4\n        /* \"#utility.yul\":9112:9131   */\n      add\n        /* \"#utility.yul\":9105:9154   */\n      mstore\n        /* \"#utility.yul\":9171:9249   */\n      tag_336\n        /* \"#utility.yul\":9244:9248   */\n      dup2\n        /* \"#utility.yul\":9235:9241   */\n      dup5\n        /* \"#utility.yul\":9171:9249   */\n      tag_183\n      jump\t// in\n    tag_336:\n        /* \"#utility.yul\":9163:9249   */\n      swap1\n      pop\n        /* \"#utility.yul\":7792:9256   */\n      swap9\n      swap8\n      pop\n      pop\n      pop\n      pop\n      pop\n      pop\n      pop\n      pop\n      jump\t// out\n        /* \"#utility.yul\":9262:9516   */\n    tag_37:\n        /* \"#utility.yul\":9371:9375   */\n      0x00\n        /* \"#utility.yul\":9409:9411   */\n      0x20\n        /* \"#utility.yul\":9398:9407   */\n      dup3\n        /* \"#utility.yul\":9394:9412   */\n      add\n        /* \"#utility.yul\":9386:9412   */\n      swap1\n      pop\n        /* \"#utility.yul\":9422:9509   */\n      tag_338\n        /* \"#utility.yul\":9506:9507   */\n      0x00\n        /* \"#utility.yul\":9495:9504   */\n      dup4\n        /* \"#utility.yul\":9491:9508   */\n      add\n        /* \"#utility.yul\":9482:9488   */\n      dup5\n        /* \"#utility.yul\":9422:9509   */\n      tag_203\n      jump\t// in\n    tag_338:\n        /* \"#utility.yul\":9262:9516   */\n      swap3\n      swap2\n      pop\n      pop\n      jump\t// out\n        /* \"#utility.yul\":9522:9599   */\n    tag_204:\n        /* \"#utility.yul\":9559:9566   */\n      0x00\n        /* \"#utility.yul\":9588:9593   */\n      dup2\n        /* \"#utility.yul\":9577:9593   */\n      swap1\n      pop\n        /* \"#utility.yul\":9522:9599   */\n      swap2\n      swap1\n      pop\n      jump\t// out\n        /* \"#utility.yul\":9605:9723   */\n    tag_205:\n        /* \"#utility.yul\":9692:9716   */\n      tag_341\n        /* \"#utility.yul\":9710:9715   */\n      dup2\n        /* \"#utility.yul\":9692:9716   */\n      tag_204\n      jump\t// in\n    tag_341:\n        /* \"#utility.yul\":9687:9690   */\n      dup3\n        /* \"#utility.yul\":9680:9717   */\n      mstore\n        /* \"#utility.yul\":9605:9723   */\n      pop\n      pop\n      jump\t// out\n        /* \"#utility.yul\":9729:9951   */\n    tag_43:\n        /* \"#utility.yul\":9822:9826   */\n      0x00\n        /* \"#utility.yul\":9860:9862   */\n      0x20\n        /* \"#utility.yul\":9849:9858   */\n      dup3\n        /* \"#utility.yul\":9845:9863   */\n      add\n        /* \"#utility.yul\":9837:9863   */\n      swap1\n      pop\n        /* \"#utility.yul\":9873:9944   */\n      tag_343\n        /* \"#utility.yul\":9941:9942   */\n      0x00\n        /* \"#utility.yul\":9930:9939   */\n      dup4\n        /* \"#utility.yul\":9926:9943   */\n      add\n        /* \"#utility.yul\":9917:9923   */\n      dup5\n        /* \"#utility.yul\":9873:9944   */\n      tag_205\n      jump\t// in\n    tag_343:\n        /* \"#utility.yul\":9729:9951   */\n      swap3\n      swap2\n      pop\n      pop\n      jump\t// out\n        /* \"#utility.yul\":9957:10079   */\n    tag_206:\n        /* \"#utility.yul\":10030:10054   */\n      tag_345\n        /* \"#utility.yul\":10048:10053   */\n      dup2\n        /* \"#utility.yul\":10030:10054   */\n      tag_204\n      jump\t// in\n    tag_345:\n        /* \"#utility.yul\":10023:10028   */\n      dup2\n        /* \"#utility.yul\":10020:10055   */\n      eq\n        /* \"#utility.yul\":10010:10073   */\n      tag_346\n      jumpi\n        /* \"#utility.yul\":10069:10070   */\n      0x00\n        /* \"#utility.yul\":10066:10067   */\n      dup1\n        /* \"#utility.yul\":10059:10071   */\n      revert\n        /* \"#utility.yul\":10010:10073   */\n    tag_346:\n        /* \"#utility.yul\":9957:10079   */\n      pop\n      jump\t// out\n        /* \"#utility.yul\":10085:10224   */\n    tag_207:\n        /* \"#utility.yul\":10131:10136   */\n      0x00\n        /* \"#utility.yul\":10169:10175   */\n      dup2\n        /* \"#utility.yul\":10156:10176   */\n      calldataload\n        /* \"#utility.yul\":10147:10176   */\n      swap1\n      pop\n        /* \"#utility.yul\":10185:10218   */\n      tag_348\n        /* \"#utility.yul\":10212:10217   */\n      dup2\n        /* \"#utility.yul\":10185:10218   */\n      tag_206\n      jump\t// in\n    tag_348:\n        /* \"#utility.yul\":10085:10224   */\n      swap3\n      swap2\n      pop\n      pop\n      jump\t// out\n        /* \"#utility.yul\":10230:10559   */\n    tag_51:\n        /* \"#utility.yul\":10289:10295   */\n      0x00\n        /* \"#utility.yul\":10338:10340   */\n      0x20\n        /* \"#utility.yul\":10326:10335   */\n      dup3\n        /* \"#utility.yul\":10317:10324   */\n      dup5\n        /* \"#utility.yul\":10313:10336   */\n      sub\n        /* \"#utility.yul\":10309:10341   */\n      slt\n        /* \"#utility.yul\":10306:10425   */\n      iszero\n      tag_350\n      jumpi\n        /* \"#utility.yul\":10344:10423   */\n      tag_351\n      tag_185\n      jump\t// in\n    tag_351:\n        /* \"#utility.yul\":10306:10425   */\n    tag_350:\n        /* \"#utility.yul\":10464:10465   */\n      0x00\n        /* \"#utility.yul\":10489:10542   */\n      tag_352\n        /* \"#utility.yul\":10534:10541   */\n      dup5\n        /* \"#utility.yul\":10525:10531   */\n      dup3\n        /* \"#utility.yul\":10514:10523   */\n      dup6\n        /* \"#utility.yul\":10510:10532   */\n      add\n        /* \"#utility.yul\":10489:10542   */\n      tag_207\n      jump\t// in\n    tag_352:\n        /* \"#utility.yul\":10479:10542   */\n      swap2\n      pop\n        /* \"#utility.yul\":10435:10552   */\n      pop\n        /* \"#utility.yul\":10230:10559   */\n      swap3\n      swap2\n      pop\n      pop\n      jump\t// out\n        /* \"#utility.yul\":10565:10886   */\n    tag_208:\n        /* \"#utility.yul\":10652:10656   */\n      0x00\n        /* \"#utility.yul\":10742:10760   */\n      0xffffffffffffffff\n        /* \"#utility.yul\":10734:10740   */\n      dup3\n        /* \"#utility.yul\":10731:10761   */\n      gt\n        /* \"#utility.yul\":10728:10784   */\n      iszero\n      tag_354\n      jumpi\n        /* \"#utility.yul\":10764:10782   */\n      tag_355\n      tag_196\n      jump\t// in\n    tag_355:\n        /* \"#utility.yul\":10728:10784   */\n    tag_354:\n        /* \"#utility.yul\":10814:10818   */\n      0x20\n        /* \"#utility.yul\":10806:10812   */\n      dup3\n        /* \"#utility.yul\":10802:10819   */\n      mul\n        /* \"#utility.yul\":10794:10819   */\n      swap1\n      pop\n        /* \"#utility.yul\":10874:10878   */\n      0x20\n        /* \"#utility.yul\":10868:10872   */\n      dup2\n        /* \"#utility.yul\":10864:10879   */\n      add\n        /* \"#utility.yul\":10856:10879   */\n      swap1\n      pop\n        /* \"#utility.yul\":10565:10886   */\n      swap2\n      swap1\n      pop\n      jump\t// out\n        /* \"#utility.yul\":10908:11853   */\n    tag_209:\n        /* \"#utility.yul\":11014:11019   */\n      0x00\n        /* \"#utility.yul\":11039:11130   */\n      tag_357\n        /* \"#utility.yul\":11055:11129   */\n      tag_358\n        /* \"#utility.yul\":11122:11128   */\n      dup5\n        /* \"#utility.yul\":11055:11129   */\n      tag_208\n      jump\t// in\n    tag_358:\n        /* \"#utility.yul\":11039:11130   */\n      tag_198\n      jump\t// in\n    tag_357:\n        /* \"#utility.yul\":11030:11130   */\n      swap1\n      pop\n        /* \"#utility.yul\":11150:11155   */\n      dup1\n        /* \"#utility.yul\":11179:11185   */\n      dup4\n        /* \"#utility.yul\":11172:11177   */\n      dup3\n        /* \"#utility.yul\":11165:11186   */\n      mstore\n        /* \"#utility.yul\":11213:11217   */\n      0x20\n        /* \"#utility.yul\":11206:11211   */\n      dup3\n        /* \"#utility.yul\":11202:11218   */\n      add\n        /* \"#utility.yul\":11195:11218   */\n      swap1\n      pop\n        /* \"#utility.yul\":11266:11270   */\n      0x20\n        /* \"#utility.yul\":11258:11264   */\n      dup5\n        /* \"#utility.yul\":11254:11271   */\n      mul\n        /* \"#utility.yul\":11246:11252   */\n      dup4\n        /* \"#utility.yul\":11242:11272   */\n      add\n        /* \"#utility.yul\":11295:11298   */\n      dup6\n        /* \"#utility.yul\":11287:11293   */\n      dup2\n        /* \"#utility.yul\":11284:11299   */\n      gt\n        /* \"#utility.yul\":11281:11403   */\n      iszero\n      tag_359\n      jumpi\n        /* \"#utility.yul\":11314:11393   */\n      tag_360\n      tag_189\n      jump\t// in\n    tag_360:\n        /* \"#utility.yul\":11281:11403   */\n    tag_359:\n        /* \"#utility.yul\":11429:11435   */\n      dup4\n        /* \"#utility.yul\":11412:11847   */\n    tag_361:\n        /* \"#utility.yul\":11446:11452   */\n      dup2\n        /* \"#utility.yul\":11441:11444   */\n      dup2\n        /* \"#utility.yul\":11438:11453   */\n      lt\n        /* \"#utility.yul\":11412:11847   */\n      iszero\n      tag_363\n      jumpi\n        /* \"#utility.yul\":11535:11538   */\n      dup1\n        /* \"#utility.yul\":11522:11539   */\n      calldataload\n        /* \"#utility.yul\":11571:11589   */\n      0xffffffffffffffff\n        /* \"#utility.yul\":11558:11569   */\n      dup2\n        /* \"#utility.yul\":11555:11590   */\n      gt\n        /* \"#utility.yul\":11552:11674   */\n      iszero\n      tag_364\n      jumpi\n        /* \"#utility.yul\":11593:11672   */\n      tag_365\n      tag_187\n      jump\t// in\n    tag_365:\n        /* \"#utility.yul\":11552:11674   */\n    tag_364:\n        /* \"#utility.yul\":11717:11728   */\n      dup1\n        /* \"#utility.yul\":11709:11715   */\n      dup7\n        /* \"#utility.yul\":11705:11729   */\n      add\n        /* \"#utility.yul\":11755:11802   */\n      tag_366\n        /* \"#utility.yul\":11798:11801   */\n      dup10\n        /* \"#utility.yul\":11786:11796   */\n      dup3\n        /* \"#utility.yul\":11755:11802   */\n      tag_202\n      jump\t// in\n    tag_366:\n        /* \"#utility.yul\":11750:11753   */\n      dup6\n        /* \"#utility.yul\":11743:11803   */\n      mstore\n        /* \"#utility.yul\":11832:11836   */\n      0x20\n        /* \"#utility.yul\":11827:11830   */\n      dup6\n        /* \"#utility.yul\":11823:11837   */\n      add\n        /* \"#utility.yul\":11816:11837   */\n      swap5\n      pop\n        /* \"#utility.yul\":11488:11847   */\n      pop\n      pop\n        /* \"#utility.yul\":11472:11476   */\n      0x20\n        /* \"#utility.yul\":11467:11470   */\n      dup2\n        /* \"#utility.yul\":11463:11477   */\n      add\n        /* \"#utility.yul\":11456:11477   */\n      swap1\n      pop\n        /* \"#utility.yul\":11412:11847   */\n      jump(tag_361)\n    tag_363:\n        /* \"#utility.yul\":11416:11437   */\n      pop\n        /* \"#utility.yul\":11020:11853   */\n      pop\n      pop\n        /* \"#utility.yul\":10908:11853   */\n      swap4\n      swap3\n      pop\n      pop\n      pop\n      jump\t// out\n        /* \"#utility.yul\":11875:12265   */\n    tag_210:\n        /* \"#utility.yul\":11956:11961   */\n      0x00\n        /* \"#utility.yul\":12005:12008   */\n      dup3\n        /* \"#utility.yul\":11998:12002   */\n      0x1f\n        /* \"#utility.yul\":11990:11996   */\n      dup4\n        /* \"#utility.yul\":11986:12003   */\n      add\n        /* \"#utility.yul\":11982:12009   */\n      slt\n        /* \"#utility.yul\":11972:12094   */\n      tag_368\n      jumpi\n        /* \"#utility.yul\":12013:12092   */\n      tag_369\n      tag_187\n      jump\t// in\n    tag_369:\n        /* \"#utility.yul\":11972:12094   */\n    tag_368:\n        /* \"#utility.yul\":12130:12136   */\n      dup2\n        /* \"#utility.yul\":12117:12137   */\n      calldataload\n        /* \"#utility.yul\":12155:12259   */\n      tag_370\n        /* \"#utility.yul\":12255:12258   */\n      dup5\n        /* \"#utility.yul\":12247:12253   */\n      dup3\n        /* \"#utility.yul\":12240:12244   */\n      0x20\n        /* \"#utility.yul\":12232:12238   */\n      dup7\n        /* \"#utility.yul\":12228:12245   */\n      add\n        /* \"#utility.yul\":12155:12259   */\n      tag_209\n      jump\t// in\n    tag_370:\n        /* \"#utility.yul\":12146:12259   */\n      swap2\n      pop\n        /* \"#utility.yul\":11962:12265   */\n      pop\n        /* \"#utility.yul\":11875:12265   */\n      swap3\n      swap2\n      pop\n      pop\n      jump\t// out\n        /* \"#utility.yul\":12271:12830   */\n    tag_56:\n        /* \"#utility.yul\":12365:12371   */\n      0x00\n        /* \"#utility.yul\":12414:12416   */\n      0x20\n        /* \"#utility.yul\":12402:12411   */\n      dup3\n        /* \"#utility.yul\":12393:12400   */\n      dup5\n        /* \"#utility.yul\":12389:12412   */\n      sub\n        /* \"#utility.yul\":12385:12417   */\n      slt\n        /* \"#utility.yul\":12382:12501   */\n      iszero\n      tag_372\n      jumpi\n        /* \"#utility.yul\":12420:12499   */\n      tag_373\n      tag_185\n      jump\t// in\n    tag_373:\n        /* \"#utility.yul\":12382:12501   */\n    tag_372:\n        /* \"#utility.yul\":12568:12569   */\n      0x00\n        /* \"#utility.yul\":12557:12566   */\n      dup3\n        /* \"#utility.yul\":12553:12570   */\n      add\n        /* \"#utility.yul\":12540:12571   */\n      calldataload\n        /* \"#utility.yul\":12598:12616   */\n      0xffffffffffffffff\n        /* \"#utility.yul\":12590:12596   */\n      dup2\n        /* \"#utility.yul\":12587:12617   */\n      gt\n        /* \"#utility.yul\":12584:12701   */\n      iszero\n      tag_374\n      jumpi\n        /* \"#utility.yul\":12620:12699   */\n      tag_375\n      tag_186\n      jump\t// in\n    tag_375:\n        /* \"#utility.yul\":12584:12701   */\n    tag_374:\n        /* \"#utility.yul\":12725:12813   */\n      tag_376\n        /* \"#utility.yul\":12805:12812   */\n      dup5\n        /* \"#utility.yul\":12796:12802   */\n      dup3\n        /* \"#utility.yul\":12785:12794   */\n      dup6\n        /* \"#utility.yul\":12781:12803   */\n      add\n        /* \"#utility.yul\":12725:12813   */\n      tag_210\n      jump\t// in\n    tag_376:\n        /* \"#utility.yul\":12715:12813   */\n      swap2\n      pop\n        /* \"#utility.yul\":12511:12823   */\n      pop\n        /* \"#utility.yul\":12271:12830   */\n      swap3\n      swap2\n      pop\n      pop\n      jump\t// out\n        /* \"#utility.yul\":12836:13016   */\n    tag_80:\n        /* \"#utility.yul\":12884:12961   */\n      0x4e487b7100000000000000000000000000000000000000000000000000000000\n        /* \"#utility.yul\":12881:12882   */\n      0x00\n        /* \"#utility.yul\":12874:12962   */\n      mstore\n        /* \"#utility.yul\":12981:12985   */\n      0x32\n        /* \"#utility.yul\":12978:12979   */\n      0x04\n        /* \"#utility.yul\":12971:12986   */\n      mstore\n        /* \"#utility.yul\":13005:13009   */\n      0x24\n        /* \"#utility.yul\":13002:13003   */\n      0x00\n        /* \"#utility.yul\":12995:13010   */\n      revert\n        /* \"#utility.yul\":13022:13202   */\n    tag_211:\n        /* \"#utility.yul\":13070:13147   */\n      0x4e487b7100000000000000000000000000000000000000000000000000000000\n        /* \"#utility.yul\":13067:13068   */\n      0x00\n        /* \"#utility.yul\":13060:13148   */\n      mstore\n        /* \"#utility.yul\":13167:13171   */\n      0x22\n        /* \"#utility.yul\":13164:13165   */\n      0x04\n        /* \"#utility.yul\":13157:13172   */\n      mstore\n        /* \"#utility.yul\":13191:13195   */\n      0x24\n        /* \"#utility.yul\":13188:13189   */\n      0x00\n        /* \"#utility.yul\":13181:13196   */\n      revert\n        /* \"#utility.yul\":13208:13528   */\n    tag_83:\n        /* \"#utility.yul\":13252:13258   */\n      0x00\n        /* \"#utility.yul\":13289:13290   */\n      0x02\n        /* \"#utility.yul\":13283:13287   */\n      dup3\n        /* \"#utility.yul\":13279:13291   */\n      div\n        /* \"#utility.yul\":13269:13291   */\n      swap1\n      pop\n        /* \"#utility.yul\":13336:13337   */\n      0x01\n        /* \"#utility.yul\":13330:13334   */\n      dup3\n        /* \"#utility.yul\":13326:13338   */\n      and\n        /* \"#utility.yul\":13357:13375   */\n      dup1\n        /* \"#utility.yul\":13347:13428   */\n      tag_380\n      jumpi\n        /* \"#utility.yul\":13413:13417   */\n      0x7f\n        /* \"#utility.yul\":13405:13411   */\n      dup3\n        /* \"#utility.yul\":13401:13418   */\n      and\n        /* \"#utility.yul\":13391:13418   */\n      swap2\n      pop\n        /* \"#utility.yul\":13347:13428   */\n    tag_380:\n        /* \"#utility.yul\":13475:13477   */\n      0x20\n        /* \"#utility.yul\":13467:13473   */\n      dup3\n        /* \"#utility.yul\":13464:13478   */\n      lt\n        /* \"#utility.yul\":13444:13462   */\n      dup2\n        /* \"#utility.yul\":13441:13479   */\n      sub\n        /* \"#utility.yul\":13438:13522   */\n      tag_381\n      jumpi\n        /* \"#utility.yul\":13494:13512   */\n      tag_382\n      tag_211\n      jump\t// in\n    tag_382:\n        /* \"#utility.yul\":13438:13522   */\n    tag_381:\n        /* \"#utility.yul\":13259:13528   */\n      pop\n        /* \"#utility.yul\":13208:13528   */\n      swap2\n      swap1\n      pop\n      jump\t// out\n        /* \"#utility.yul\":13534:13682   */\n    tag_212:\n        /* \"#utility.yul\":13636:13647   */\n      0x00\n        /* \"#utility.yul\":13673:13676   */\n      dup2\n        /* \"#utility.yul\":13658:13676   */\n      swap1\n      pop\n        /* \"#utility.yul\":13534:13682   */\n      swap3\n      swap2\n      pop\n      pop\n      jump\t// out\n        /* \"#utility.yul\":13688:14078   */\n    tag_213:\n        /* \"#utility.yul\":13794:13797   */\n      0x00\n        /* \"#utility.yul\":13822:13861   */\n      tag_385\n        /* \"#utility.yul\":13855:13860   */\n      dup3\n        /* \"#utility.yul\":13822:13861   */\n      tag_179\n      jump\t// in\n    tag_385:\n        /* \"#utility.yul\":13877:13966   */\n      tag_386\n        /* \"#utility.yul\":13959:13965   */\n      dup2\n        /* \"#utility.yul\":13954:13957   */\n      dup6\n        /* \"#utility.yul\":13877:13966   */\n      tag_212\n      jump\t// in\n    tag_386:\n        /* \"#utility.yul\":13870:13966   */\n      swap4\n      pop\n        /* \"#utility.yul\":13975:14040   */\n      tag_387\n        /* \"#utility.yul\":14033:14039   */\n      dup2\n        /* \"#utility.yul\":14028:14031   */\n      dup6\n        /* \"#utility.yul\":14021:14025   */\n      0x20\n        /* \"#utility.yul\":14014:14019   */\n      dup7\n        /* \"#utility.yul\":14010:14026   */\n      add\n        /* \"#utility.yul\":13975:14040   */\n      tag_181\n      jump\t// in\n    tag_387:\n        /* \"#utility.yul\":14065:14071   */\n      dup1\n        /* \"#utility.yul\":14060:14063   */\n      dup5\n        /* \"#utility.yul\":14056:14072   */\n      add\n        /* \"#utility.yul\":14049:14072   */\n      swap2\n      pop\n        /* \"#utility.yul\":13798:14078   */\n      pop\n        /* \"#utility.yul\":13688:14078   */\n      swap3\n      swap2\n      pop\n      pop\n      jump\t// out\n        /* \"#utility.yul\":14084:14359   */\n    tag_89:\n        /* \"#utility.yul\":14216:14219   */\n      0x00\n        /* \"#utility.yul\":14238:14333   */\n      tag_389\n        /* \"#utility.yul\":14329:14332   */\n      dup3\n        /* \"#utility.yul\":14320:14326   */\n      dup5\n        /* \"#utility.yul\":14238:14333   */\n      tag_213\n      jump\t// in\n    tag_389:\n        /* \"#utility.yul\":14231:14333   */\n      swap2\n      pop\n        /* \"#utility.yul\":14350:14353   */\n      dup2\n        /* \"#utility.yul\":14343:14353   */\n      swap1\n      pop\n        /* \"#utility.yul\":14084:14359   */\n      swap3\n      swap2\n      pop\n      pop\n      jump\t// out\n        /* \"#utility.yul\":14365:14567   */\n    tag_214:\n        /* \"#utility.yul\":14534:14560   */\n      0x506f6c6963793a2050617373656e676572204e616d653a200000000000000000\n        /* \"#utility.yul\":14529:14532   */\n      dup2\n        /* \"#utility.yul\":14522:14561   */\n      mstore\n        /* \"#utility.yul\":14365:14567   */\n      pop\n      jump\t// out\n        /* \"#utility.yul\":14573:14714   */\n    tag_215:\n        /* \"#utility.yul\":14622:14626   */\n      0x00\n        /* \"#utility.yul\":14645:14648   */\n      dup2\n        /* \"#utility.yul\":14637:14648   */\n      swap1\n      pop\n        /* \"#utility.yul\":14668:14671   */\n      dup2\n        /* \"#utility.yul\":14665:14666   */\n      0x00\n        /* \"#utility.yul\":14658:14672   */\n      mstore\n        /* \"#utility.yul\":14702:14706   */\n      0x20\n        /* \"#utility.yul\":14699:14700   */\n      0x00\n        /* \"#utility.yul\":14689:14707   */\n      keccak256\n        /* \"#utility.yul\":14681:14707   */\n      swap1\n      pop\n        /* \"#utility.yul\":14573:14714   */\n      swap2\n      swap1\n      pop\n      jump\t// out\n        /* \"#utility.yul\":14744:15618   */\n    tag_216:\n        /* \"#utility.yul\":14847:14850   */\n      0x00\n        /* \"#utility.yul\":14884:14889   */\n      dup2\n        /* \"#utility.yul\":14878:14890   */\n      sload\n        /* \"#utility.yul\":14913:14949   */\n      tag_393\n        /* \"#utility.yul\":14939:14948   */\n      dup2\n        /* \"#utility.yul\":14913:14949   */\n      tag_83\n      jump\t// in\n    tag_393:\n        /* \"#utility.yul\":14965:15054   */\n      tag_394\n        /* \"#utility.yul\":15047:15053   */\n      dup2\n        /* \"#utility.yul\":15042:15045   */\n      dup7\n        /* \"#utility.yul\":14965:15054   */\n      tag_212\n      jump\t// in\n    tag_394:\n        /* \"#utility.yul\":14958:15054   */\n      swap5\n      pop\n        /* \"#utility.yul\":15085:15086   */\n      0x01\n        /* \"#utility.yul\":15074:15083   */\n      dup3\n        /* \"#utility.yul\":15070:15087   */\n      and\n        /* \"#utility.yul\":15101:15102   */\n      0x00\n        /* \"#utility.yul\":15096:15262   */\n      dup2\n      eq\n      tag_396\n      jumpi\n        /* \"#utility.yul\":15276:15277   */\n      0x01\n        /* \"#utility.yul\":15271:15612   */\n      dup2\n      eq\n      tag_397\n      jumpi\n        /* \"#utility.yul\":15063:15612   */\n      jump(tag_395)\n        /* \"#utility.yul\":15096:15262   */\n    tag_396:\n        /* \"#utility.yul\":15180:15184   */\n      0xff\n        /* \"#utility.yul\":15176:15185   */\n      not\n        /* \"#utility.yul\":15165:15174   */\n      dup4\n        /* \"#utility.yul\":15161:15186   */\n      and\n        /* \"#utility.yul\":15156:15159   */\n      dup7\n        /* \"#utility.yul\":15149:15187   */\n      mstore\n        /* \"#utility.yul\":15242:15248   */\n      dup2\n        /* \"#utility.yul\":15235:15249   */\n      iszero\n        /* \"#utility.yul\":15228:15250   */\n      iszero\n        /* \"#utility.yul\":15220:15226   */\n      dup3\n        /* \"#utility.yul\":15216:15251   */\n      mul\n        /* \"#utility.yul\":15211:15214   */\n      dup7\n        /* \"#utility.yul\":15207:15252   */\n      add\n        /* \"#utility.yul\":15200:15252   */\n      swap4\n      pop\n        /* \"#utility.yul\":15096:15262   */\n      jump(tag_395)\n        /* \"#utility.yul\":15271:15612   */\n    tag_397:\n        /* \"#utility.yul\":15338:15376   */\n      tag_398\n        /* \"#utility.yul\":15370:15375   */\n      dup6\n        /* \"#utility.yul\":15338:15376   */\n      tag_215\n      jump\t// in\n    tag_398:\n        /* \"#utility.yul\":15398:15399   */\n      0x00\n        /* \"#utility.yul\":15412:15566   */\n    tag_399:\n        /* \"#utility.yul\":15426:15432   */\n      dup4\n        /* \"#utility.yul\":15423:15424   */\n      dup2\n        /* \"#utility.yul\":15420:15433   */\n      lt\n        /* \"#utility.yul\":15412:15566   */\n      iszero\n      tag_401\n      jumpi\n        /* \"#utility.yul\":15500:15507   */\n      dup2\n        /* \"#utility.yul\":15494:15508   */\n      sload\n        /* \"#utility.yul\":15490:15491   */\n      dup2\n        /* \"#utility.yul\":15485:15488   */\n      dup10\n        /* \"#utility.yul\":15481:15492   */\n      add\n        /* \"#utility.yul\":15474:15509   */\n      mstore\n        /* \"#utility.yul\":15550:15551   */\n      0x01\n        /* \"#utility.yul\":15541:15548   */\n      dup3\n        /* \"#utility.yul\":15537:15552   */\n      add\n        /* \"#utility.yul\":15526:15552   */\n      swap2\n      pop\n        /* \"#utility.yul\":15448:15452   */\n      0x20\n        /* \"#utility.yul\":15445:15446   */\n      dup2\n        /* \"#utility.yul\":15441:15453   */\n      add\n        /* \"#utility.yul\":15436:15453   */\n      swap1\n      pop\n        /* \"#utility.yul\":15412:15566   */\n      jump(tag_399)\n    tag_401:\n        /* \"#utility.yul\":15595:15601   */\n      dup4\n        /* \"#utility.yul\":15590:15593   */\n      dup9\n        /* \"#utility.yul\":15586:15602   */\n      add\n        /* \"#utility.yul\":15579:15602   */\n      swap6\n      pop\n        /* \"#utility.yul\":15278:15612   */\n      pop\n      pop\n        /* \"#utility.yul\":15063:15612   */\n    tag_395:\n      pop\n        /* \"#utility.yul\":14851:15618   */\n      pop\n      pop\n        /* \"#utility.yul\":14744:15618   */\n      swap3\n      swap2\n      pop\n      pop\n      jump\t// out\n        /* \"#utility.yul\":15624:15818   */\n    tag_217:\n        /* \"#utility.yul\":15793:15811   */\n      0x20466c69676874204e756d6265723a2000000000000000000000000000000000\n        /* \"#utility.yul\":15788:15791   */\n      dup2\n        /* \"#utility.yul\":15781:15812   */\n      mstore\n        /* \"#utility.yul\":15624:15818   */\n      pop\n      jump\t// out\n        /* \"#utility.yul\":15824:16016   */\n    tag_218:\n        /* \"#utility.yul\":15993:16009   */\n      0x20466c6967687420646174653a20000000000000000000000000000000000000\n        /* \"#utility.yul\":15988:15991   */\n      dup2\n        /* \"#utility.yul\":15981:16010   */\n      mstore\n        /* \"#utility.yul\":15824:16016   */\n      pop\n      jump\t// out\n        /* \"#utility.yul\":16022:16217   */\n    tag_219:\n        /* \"#utility.yul\":16191:16210   */\n      0x2044657061727475726520636974793a20000000000000000000000000000000\n        /* \"#utility.yul\":16186:16189   */\n      dup2\n        /* \"#utility.yul\":16179:16211   */\n      mstore\n        /* \"#utility.yul\":16022:16217   */\n      pop\n      jump\t// out\n        /* \"#utility.yul\":16223:16420   */\n    tag_220:\n        /* \"#utility.yul\":16392:16413   */\n      0x2044657374696e6174696f6e20636974793a2000000000000000000000000000\n        /* \"#utility.yul\":16387:16390   */\n      dup2\n        /* \"#utility.yul\":16380:16414   */\n      mstore\n        /* \"#utility.yul\":16223:16420   */\n      pop\n      jump\t// out\n        /* \"#utility.yul\":16426:16612   */\n    tag_221:\n        /* \"#utility.yul\":16594:16605   */\n      0x205374617475733a200000000000000000000000000000000000000000000000\n        /* \"#utility.yul\":16589:16592   */\n      dup2\n        /* \"#utility.yul\":16582:16606   */\n      mstore\n        /* \"#utility.yul\":16426:16612   */\n      pop\n      jump\t// out\n        /* \"#utility.yul\":16618:16859   */\n    tag_222:\n        /* \"#utility.yul\":16786:16852   */\n      0x0a00000000000000000000000000000000000000000000000000000000000000\n        /* \"#utility.yul\":16781:16784   */\n      dup2\n        /* \"#utility.yul\":16774:16853   */\n      mstore\n        /* \"#utility.yul\":16618:16859   */\n      pop\n      jump\t// out\n        /* \"#utility.yul\":16865:19927   */\n    tag_96:\n        /* \"#utility.yul\":17902:17905   */\n      0x00\n        /* \"#utility.yul\":17924:18019   */\n      tag_409\n        /* \"#utility.yul\":18015:18018   */\n      dup3\n        /* \"#utility.yul\":18006:18012   */\n      dup11\n        /* \"#utility.yul\":17924:18019   */\n      tag_213\n      jump\t// in\n    tag_409:\n        /* \"#utility.yul\":17917:18019   */\n      swap2\n      pop\n        /* \"#utility.yul\":18029:18167   */\n      tag_410\n        /* \"#utility.yul\":18163:18166   */\n      dup3\n        /* \"#utility.yul\":18029:18167   */\n      tag_214\n      jump\t// in\n    tag_410:\n        /* \"#utility.yul\":18192:18194   */\n      0x18\n        /* \"#utility.yul\":18187:18190   */\n      dup3\n        /* \"#utility.yul\":18183:18195   */\n      add\n        /* \"#utility.yul\":18176:18195   */\n      swap2\n      pop\n        /* \"#utility.yul\":18212:18304   */\n      tag_411\n        /* \"#utility.yul\":18300:18303   */\n      dup3\n        /* \"#utility.yul\":18291:18297   */\n      dup10\n        /* \"#utility.yul\":18212:18304   */\n      tag_216\n      jump\t// in\n    tag_411:\n        /* \"#utility.yul\":18205:18304   */\n      swap2\n      pop\n        /* \"#utility.yul\":18314:18452   */\n      tag_412\n        /* \"#utility.yul\":18448:18451   */\n      dup3\n        /* \"#utility.yul\":18314:18452   */\n      tag_217\n      jump\t// in\n    tag_412:\n        /* \"#utility.yul\":18477:18479   */\n      0x10\n        /* \"#utility.yul\":18472:18475   */\n      dup3\n        /* \"#utility.yul\":18468:18480   */\n      add\n        /* \"#utility.yul\":18461:18480   */\n      swap2\n      pop\n        /* \"#utility.yul\":18497:18589   */\n      tag_413\n        /* \"#utility.yul\":18585:18588   */\n      dup3\n        /* \"#utility.yul\":18576:18582   */\n      dup9\n        /* \"#utility.yul\":18497:18589   */\n      tag_216\n      jump\t// in\n    tag_413:\n        /* \"#utility.yul\":18490:18589   */\n      swap2\n      pop\n        /* \"#utility.yul\":18599:18737   */\n      tag_414\n        /* \"#utility.yul\":18733:18736   */\n      dup3\n        /* \"#utility.yul\":18599:18737   */\n      tag_218\n      jump\t// in\n    tag_414:\n        /* \"#utility.yul\":18762:18764   */\n      0x0e\n        /* \"#utility.yul\":18757:18760   */\n      dup3\n        /* \"#utility.yul\":18753:18765   */\n      add\n        /* \"#utility.yul\":18746:18765   */\n      swap2\n      pop\n        /* \"#utility.yul\":18782:18874   */\n      tag_415\n        /* \"#utility.yul\":18870:18873   */\n      dup3\n        /* \"#utility.yul\":18861:18867   */\n      dup8\n        /* \"#utility.yul\":18782:18874   */\n      tag_216\n      jump\t// in\n    tag_415:\n        /* \"#utility.yul\":18775:18874   */\n      swap2\n      pop\n        /* \"#utility.yul\":18884:19022   */\n      tag_416\n        /* \"#utility.yul\":19018:19021   */\n      dup3\n        /* \"#utility.yul\":18884:19022   */\n      tag_219\n      jump\t// in\n    tag_416:\n        /* \"#utility.yul\":19047:19049   */\n      0x11\n        /* \"#utility.yul\":19042:19045   */\n      dup3\n        /* \"#utility.yul\":19038:19050   */\n      add\n        /* \"#utility.yul\":19031:19050   */\n      swap2\n      pop\n        /* \"#utility.yul\":19067:19159   */\n      tag_417\n        /* \"#utility.yul\":19155:19158   */\n      dup3\n        /* \"#utility.yul\":19146:19152   */\n      dup7\n        /* \"#utility.yul\":19067:19159   */\n      tag_216\n      jump\t// in\n    tag_417:\n        /* \"#utility.yul\":19060:19159   */\n      swap2\n      pop\n        /* \"#utility.yul\":19169:19307   */\n      tag_418\n        /* \"#utility.yul\":19303:19306   */\n      dup3\n        /* \"#utility.yul\":19169:19307   */\n      tag_220\n      jump\t// in\n    tag_418:\n        /* \"#utility.yul\":19332:19334   */\n      0x13\n        /* \"#utility.yul\":19327:19330   */\n      dup3\n        /* \"#utility.yul\":19323:19335   */\n      add\n        /* \"#utility.yul\":19316:19335   */\n      swap2\n      pop\n        /* \"#utility.yul\":19352:19444   */\n      tag_419\n        /* \"#utility.yul\":19440:19443   */\n      dup3\n        /* \"#utility.yul\":19431:19437   */\n      dup6\n        /* \"#utility.yul\":19352:19444   */\n      tag_216\n      jump\t// in\n    tag_419:\n        /* \"#utility.yul\":19345:19444   */\n      swap2\n      pop\n        /* \"#utility.yul\":19454:19591   */\n      tag_420\n        /* \"#utility.yul\":19587:19590   */\n      dup3\n        /* \"#utility.yul\":19454:19591   */\n      tag_221\n      jump\t// in\n    tag_420:\n        /* \"#utility.yul\":19616:19617   */\n      0x09\n        /* \"#utility.yul\":19611:19614   */\n      dup3\n        /* \"#utility.yul\":19607:19618   */\n      add\n        /* \"#utility.yul\":19600:19618   */\n      swap2\n      pop\n        /* \"#utility.yul\":19635:19727   */\n      tag_421\n        /* \"#utility.yul\":19723:19726   */\n      dup3\n        /* \"#utility.yul\":19714:19720   */\n      dup5\n        /* \"#utility.yul\":19635:19727   */\n      tag_216\n      jump\t// in\n    tag_421:\n        /* \"#utility.yul\":19628:19727   */\n      swap2\n      pop\n        /* \"#utility.yul\":19737:19874   */\n      tag_422\n        /* \"#utility.yul\":19870:19873   */\n      dup3\n        /* \"#utility.yul\":19737:19874   */\n      tag_222\n      jump\t// in\n    tag_422:\n        /* \"#utility.yul\":19899:19900   */\n      0x01\n        /* \"#utility.yul\":19894:19897   */\n      dup3\n        /* \"#utility.yul\":19890:19901   */\n      add\n        /* \"#utility.yul\":19883:19901   */\n      swap2\n      pop\n        /* \"#utility.yul\":19918:19921   */\n      dup2\n        /* \"#utility.yul\":19911:19921   */\n      swap1\n      pop\n        /* \"#utility.yul\":16865:19927   */\n      swap9\n      swap8\n      pop\n      pop\n      pop\n      pop\n      pop\n      pop\n      pop\n      pop\n      jump\t// out\n        /* \"#utility.yul\":19957:20287   */\n    tag_223:\n        /* \"#utility.yul\":20073:20076   */\n      0x00\n        /* \"#utility.yul\":20094:20183   */\n      tag_424\n        /* \"#utility.yul\":20176:20182   */\n      dup4\n        /* \"#utility.yul\":20171:20174   */\n      dup6\n        /* \"#utility.yul\":20094:20183   */\n      tag_212\n      jump\t// in\n    tag_424:\n        /* \"#utility.yul\":20087:20183   */\n      swap4\n      pop\n        /* \"#utility.yul\":20193:20249   */\n      tag_425\n        /* \"#utility.yul\":20242:20248   */\n      dup4\n        /* \"#utility.yul\":20237:20240   */\n      dup6\n        /* \"#utility.yul\":20230:20235   */\n      dup5\n        /* \"#utility.yul\":20193:20249   */\n      tag_200\n      jump\t// in\n    tag_425:\n        /* \"#utility.yul\":20274:20280   */\n      dup3\n        /* \"#utility.yul\":20269:20272   */\n      dup5\n        /* \"#utility.yul\":20265:20281   */\n      add\n        /* \"#utility.yul\":20258:20281   */\n      swap1\n      pop\n        /* \"#utility.yul\":19957:20287   */\n      swap4\n      swap3\n      pop\n      pop\n      pop\n      jump\t// out\n        /* \"#utility.yul\":20293:20588   */\n    tag_101:\n        /* \"#utility.yul\":20435:20438   */\n      0x00\n        /* \"#utility.yul\":20457:20562   */\n      tag_427\n        /* \"#utility.yul\":20558:20561   */\n      dup3\n        /* \"#utility.yul\":20549:20555   */\n      dup5\n        /* \"#utility.yul\":20541:20547   */\n      dup7\n        /* \"#utility.yul\":20457:20562   */\n      tag_223\n      jump\t// in\n    tag_427:\n        /* \"#utility.yul\":20450:20562   */\n      swap2\n      pop\n        /* \"#utility.yul\":20579:20582   */\n      dup2\n        /* \"#utility.yul\":20572:20582   */\n      swap1\n      pop\n        /* \"#utility.yul\":20293:20588   */\n      swap4\n      swap3\n      pop\n      pop\n      pop\n      jump\t// out\n        /* \"#utility.yul\":20594:20687   */\n    tag_224:\n        /* \"#utility.yul\":20631:20637   */\n      0x00\n        /* \"#utility.yul\":20678:20680   */\n      0x20\n        /* \"#utility.yul\":20673:20675   */\n      0x1f\n        /* \"#utility.yul\":20666:20671   */\n      dup4\n        /* \"#utility.yul\":20662:20676   */\n      add\n        /* \"#utility.yul\":20658:20681   */\n      div\n        /* \"#utility.yul\":20648:20681   */\n      swap1\n      pop\n        /* \"#utility.yul\":20594:20687   */\n      swap2\n      swap1\n      pop\n      jump\t// out\n        /* \"#utility.yul\":20693:20800   */\n    tag_225:\n        /* \"#utility.yul\":20737:20745   */\n      0x00\n        /* \"#utility.yul\":20787:20792   */\n      dup3\n        /* \"#utility.yul\":20781:20785   */\n      dup3\n        /* \"#utility.yul\":20777:20793   */\n      shl\n        /* \"#utility.yul\":20756:20793   */\n      swap1\n      pop\n        /* \"#utility.yul\":20693:20800   */\n      swap3\n      swap2\n      pop\n      pop\n      jump\t// out\n        /* \"#utility.yul\":20806:21199   */\n    tag_226:\n        /* \"#utility.yul\":20875:20881   */\n      0x00\n        /* \"#utility.yul\":20925:20926   */\n      0x08\n        /* \"#utility.yul\":20913:20923   */\n      dup4\n        /* \"#utility.yul\":20909:20927   */\n      mul\n        /* \"#utility.yul\":20948:21045   */\n      tag_431\n        /* \"#utility.yul\":20978:21044   */\n      0xffffffffffffffffffffffffffffffffffffffffffffffffffffffffffffffff\n        /* \"#utility.yul\":20967:20976   */\n      dup3\n        /* \"#utility.yul\":20948:21045   */\n      tag_225\n      jump\t// in\n    tag_431:\n        /* \"#utility.yul\":21066:21105   */\n      tag_432\n        /* \"#utility.yul\":21096:21104   */\n      dup7\n        /* \"#utility.yul\":21085:21094   */\n      dup4\n        /* \"#utility.yul\":21066:21105   */\n      tag_225\n      jump\t// in\n    tag_432:\n        /* \"#utility.yul\":21054:21105   */\n      swap6\n      pop\n        /* \"#utility.yul\":21138:21142   */\n      dup1\n        /* \"#utility.yul\":21134:21143   */\n      not\n        /* \"#utility.yul\":21127:21132   */\n      dup5\n        /* \"#utility.yul\":21123:21144   */\n      and\n        /* \"#utility.yul\":21114:21144   */\n      swap4\n      pop\n        /* \"#utility.yul\":21187:21191   */\n      dup1\n        /* \"#utility.yul\":21177:21185   */\n      dup7\n        /* \"#utility.yul\":21173:21192   */\n      and\n        /* \"#utility.yul\":21166:21171   */\n      dup5\n        /* \"#utility.yul\":21163:21193   */\n      or\n        /* \"#utility.yul\":21153:21193   */\n      swap3\n      pop\n        /* \"#utility.yul\":20882:21199   */\n      pop\n      pop\n        /* \"#utility.yul\":20806:21199   */\n      swap4\n      swap3\n      pop\n      pop\n      pop\n      jump\t// out\n        /* \"#utility.yul\":21205:21265   */\n    tag_227:\n        /* \"#utility.yul\":21233:21236   */\n      0x00\n        /* \"#utility.yul\":21254:21259   */\n      dup2\n        /* \"#utility.yul\":21247:21259   */\n      swap1\n      pop\n        /* \"#utility.yul\":21205:21265   */\n      swap2\n      swap1\n      pop\n      jump\t// out\n        /* \"#utility.yul\":21271:21413   */\n    tag_228:\n        /* \"#utility.yul\":21321:21330   */\n      0x00\n        /* \"#utility.yul\":21354:21407   */\n      tag_435\n        /* \"#utility.yul\":21372:21406   */\n      tag_436\n        /* \"#utility.yul\":21381:21405   */\n      tag_437\n        /* \"#utility.yul\":21399:21404   */\n      dup5\n        /* \"#utility.yul\":21381:21405   */\n      tag_204\n      jump\t// in\n    tag_437:\n        /* \"#utility.yul\":21372:21406   */\n      tag_227\n      jump\t// in\n    tag_436:\n        /* \"#utility.yul\":21354:21407   */\n      tag_204\n      jump\t// in\n    tag_435:\n        /* \"#utility.yul\":21341:21407   */\n      swap1\n      pop\n        /* \"#utility.yul\":21271:21413   */\n      swap2\n      swap1\n      pop\n      jump\t// out\n        /* \"#utility.yul\":21419:21494   */\n    tag_229:\n        /* \"#utility.yul\":21462:21465   */\n      0x00\n        /* \"#utility.yul\":21483:21488   */\n      dup2\n        /* \"#utility.yul\":21476:21488   */\n      swap1\n      pop\n        /* \"#utility.yul\":21419:21494   */\n      swap2\n      swap1\n      pop\n      jump\t// out\n        /* \"#utility.yul\":21500:21769   */\n    tag_230:\n        /* \"#utility.yul\":21610:21649   */\n      tag_440\n        /* \"#utility.yul\":21641:21648   */\n      dup4\n        /* \"#utility.yul\":21610:21649   */\n      tag_228\n      jump\t// in\n    tag_440:\n        /* \"#utility.yul\":21671:21762   */\n      tag_441\n        /* \"#utility.yul\":21720:21761   */\n      tag_442\n        /* \"#utility.yul\":21744:21760   */\n      dup3\n        /* \"#utility.yul\":21720:21761   */\n      tag_229\n      jump\t// in\n    tag_442:\n        /* \"#utility.yul\":21712:21718   */\n      dup5\n        /* \"#utility.yul\":21705:21709   */\n      dup5\n        /* \"#utility.yul\":21699:21710   */\n      sload\n        /* \"#utility.yul\":21671:21762   */\n      tag_226\n      jump\t// in\n    tag_441:\n        /* \"#utility.yul\":21665:21669   */\n      dup3\n        /* \"#utility.yul\":21658:21763   */\n      sstore\n        /* \"#utility.yul\":21576:21769   */\n      pop\n        /* \"#utility.yul\":21500:21769   */\n      pop\n      pop\n      pop\n      jump\t// out\n        /* \"#utility.yul\":21775:21848   */\n    tag_231:\n        /* \"#utility.yul\":21820:21823   */\n      0x00\n        /* \"#utility.yul\":21775:21848   */\n      swap1\n      jump\t// out\n        /* \"#utility.yul\":21854:22043   */\n    tag_232:\n        /* \"#utility.yul\":21931:21963   */\n      tag_445\n      tag_231\n      jump\t// in\n    tag_445:\n        /* \"#utility.yul\":21972:22037   */\n      tag_446\n        /* \"#utility.yul\":22030:22036   */\n      dup2\n        /* \"#utility.yul\":22022:22028   */\n      dup5\n        /* \"#utility.yul\":22016:22020   */\n      dup5\n        /* \"#utility.yul\":21972:22037   */\n      tag_230\n      jump\t// in\n    tag_446:\n        /* \"#utility.yul\":21907:22043   */\n      pop\n        /* \"#utility.yul\":21854:22043   */\n      pop\n      pop\n      jump\t// out\n        /* \"#utility.yul\":22049:22235   */\n    tag_233:\n        /* \"#utility.yul\":22109:22229   */\n    tag_448:\n        /* \"#utility.yul\":22126:22129   */\n      dup2\n        /* \"#utility.yul\":22119:22124   */\n      dup2\n        /* \"#utility.yul\":22116:22130   */\n      lt\n        /* \"#utility.yul\":22109:22229   */\n      iszero\n      tag_450\n      jumpi\n        /* \"#utility.yul\":22180:22219   */\n      tag_451\n        /* \"#utility.yul\":22217:22218   */\n      0x00\n        /* \"#utility.yul\":22210:22215   */\n      dup3\n        /* \"#utility.yul\":22180:22219   */\n      tag_232\n      jump\t// in\n    tag_451:\n        /* \"#utility.yul\":22153:22154   */\n      0x01\n        /* \"#utility.yul\":22146:22151   */\n      dup2\n        /* \"#utility.yul\":22142:22155   */\n      add\n        /* \"#utility.yul\":22133:22155   */\n      swap1\n      pop\n        /* \"#utility.yul\":22109:22229   */\n      jump(tag_448)\n    tag_450:\n        /* \"#utility.yul\":22049:22235   */\n      pop\n      pop\n      jump\t// out\n        /* \"#utility.yul\":22241:22784   */\n    tag_234:\n        /* \"#utility.yul\":22342:22344   */\n      0x1f\n        /* \"#utility.yul\":22337:22340   */\n      dup3\n        /* \"#utility.yul\":22334:22345   */\n      gt\n        /* \"#utility.yul\":22331:22777   */\n      iszero\n      tag_453\n      jumpi\n        /* \"#utility.yul\":22376:22414   */\n      tag_454\n        /* \"#utility.yul\":22408:22413   */\n      dup2\n        /* \"#utility.yul\":22376:22414   */\n      tag_215\n      jump\t// in\n    tag_454:\n        /* \"#utility.yul\":22460:22489   */\n      tag_455\n        /* \"#utility.yul\":22478:22488   */\n      dup5\n        /* \"#utility.yul\":22460:22489   */\n      tag_224\n      jump\t// in\n    tag_455:\n        /* \"#utility.yul\":22450:22458   */\n      dup2\n        /* \"#utility.yul\":22446:22490   */\n      add\n        /* \"#utility.yul\":22643:22645   */\n      0x20\n        /* \"#utility.yul\":22631:22641   */\n      dup6\n        /* \"#utility.yul\":22628:22646   */\n      lt\n        /* \"#utility.yul\":22625:22674   */\n      iszero\n      tag_456\n      jumpi\n        /* \"#utility.yul\":22664:22672   */\n      dup2\n        /* \"#utility.yul\":22649:22672   */\n      swap1\n      pop\n        /* \"#utility.yul\":22625:22674   */\n    tag_456:\n        /* \"#utility.yul\":22687:22767   */\n      tag_457\n        /* \"#utility.yul\":22743:22765   */\n      tag_458\n        /* \"#utility.yul\":22761:22764   */\n      dup6\n        /* \"#utility.yul\":22743:22765   */\n      tag_224\n      jump\t// in\n    tag_458:\n        /* \"#utility.yul\":22733:22741   */\n      dup4\n        /* \"#utility.yul\":22729:22766   */\n      add\n        /* \"#utility.yul\":22716:22727   */\n      dup3\n        /* \"#utility.yul\":22687:22767   */\n      tag_233\n      jump\t// in\n    tag_457:\n        /* \"#utility.yul\":22346:22777   */\n      pop\n      pop\n        /* \"#utility.yul\":22331:22777   */\n    tag_453:\n        /* \"#utility.yul\":22241:22784   */\n      pop\n      pop\n      pop\n      jump\t// out\n        /* \"#utility.yul\":22790:22907   */\n    tag_235:\n        /* \"#utility.yul\":22844:22852   */\n      0x00\n        /* \"#utility.yul\":22894:22899   */\n      dup3\n        /* \"#utility.yul\":22888:22892   */\n      dup3\n        /* \"#utility.yul\":22884:22900   */\n      shr\n        /* \"#utility.yul\":22863:22900   */\n      swap1\n      pop\n        /* \"#utility.yul\":22790:22907   */\n      swap3\n      swap2\n      pop\n      pop\n      jump\t// out\n        /* \"#utility.yul\":22913:23082   */\n    tag_236:\n        /* \"#utility.yul\":22957:22963   */\n      0x00\n        /* \"#utility.yul\":22990:23041   */\n      tag_461\n        /* \"#utility.yul\":23038:23039   */\n      0x00\n        /* \"#utility.yul\":23034:23040   */\n      not\n        /* \"#utility.yul\":23026:23031   */\n      dup5\n        /* \"#utility.yul\":23023:23024   */\n      0x08\n        /* \"#utility.yul\":23019:23032   */\n      mul\n        /* \"#utility.yul\":22990:23041   */\n      tag_235\n      jump\t// in\n    tag_461:\n        /* \"#utility.yul\":22986:23042   */\n      not\n        /* \"#utility.yul\":23071:23075   */\n      dup1\n        /* \"#utility.yul\":23065:23069   */\n      dup4\n        /* \"#utility.yul\":23061:23076   */\n      and\n        /* \"#utility.yul\":23051:23076   */\n      swap2\n      pop\n        /* \"#utility.yul\":22964:23082   */\n      pop\n        /* \"#utility.yul\":22913:23082   */\n      swap3\n      swap2\n      pop\n      pop\n      jump\t// out\n        /* \"#utility.yul\":23087:23382   */\n    tag_237:\n        /* \"#utility.yul\":23163:23167   */\n      0x00\n        /* \"#utility.yul\":23309:23338   */\n      tag_463\n        /* \"#utility.yul\":23334:23337   */\n      dup4\n        /* \"#utility.yul\":23328:23332   */\n      dup4\n        /* \"#utility.yul\":23309:23338   */\n      tag_236\n      jump\t// in\n    tag_463:\n        /* \"#utility.yul\":23301:23338   */\n      swap2\n      pop\n        /* \"#utility.yul\":23371:23374   */\n      dup3\n        /* \"#utility.yul\":23368:23369   */\n      0x02\n        /* \"#utility.yul\":23364:23375   */\n      mul\n        /* \"#utility.yul\":23358:23362   */\n      dup3\n        /* \"#utility.yul\":23355:23376   */\n      or\n        /* \"#utility.yul\":23347:23376   */\n      swap1\n      pop\n        /* \"#utility.yul\":23087:23382   */\n      swap3\n      swap2\n      pop\n      pop\n      jump\t// out\n        /* \"#utility.yul\":23387:24782   */\n    tag_103:\n        /* \"#utility.yul\":23504:23541   */\n      tag_465\n        /* \"#utility.yul\":23537:23540   */\n      dup3\n        /* \"#utility.yul\":23504:23541   */\n      tag_179\n      jump\t// in\n    tag_465:\n        /* \"#utility.yul\":23606:23624   */\n      0xffffffffffffffff\n        /* \"#utility.yul\":23598:23604   */\n      dup2\n        /* \"#utility.yul\":23595:23625   */\n      gt\n        /* \"#utility.yul\":23592:23648   */\n      iszero\n      tag_466\n      jumpi\n        /* \"#utility.yul\":23628:23646   */\n      tag_467\n      tag_196\n      jump\t// in\n    tag_467:\n        /* \"#utility.yul\":23592:23648   */\n    tag_466:\n        /* \"#utility.yul\":23672:23710   */\n      tag_468\n        /* \"#utility.yul\":23704:23708   */\n      dup3\n        /* \"#utility.yul\":23698:23709   */\n      sload\n        /* \"#utility.yul\":23672:23710   */\n      tag_83\n      jump\t// in\n    tag_468:\n        /* \"#utility.yul\":23757:23824   */\n      tag_469\n        /* \"#utility.yul\":23817:23823   */\n      dup3\n        /* \"#utility.yul\":23809:23815   */\n      dup3\n        /* \"#utility.yul\":23803:23807   */\n      dup6\n        /* \"#utility.yul\":23757:23824   */\n      tag_234\n      jump\t// in\n    tag_469:\n        /* \"#utility.yul\":23851:23852   */\n      0x00\n        /* \"#utility.yul\":23875:23879   */\n      0x20\n        /* \"#utility.yul\":23862:23879   */\n      swap1\n      pop\n        /* \"#utility.yul\":23907:23909   */\n      0x1f\n        /* \"#utility.yul\":23899:23905   */\n      dup4\n        /* \"#utility.yul\":23896:23910   */\n      gt\n        /* \"#utility.yul\":23924:23925   */\n      0x01\n        /* \"#utility.yul\":23919:24537   */\n      dup2\n      eq\n      tag_471\n      jumpi\n        /* \"#utility.yul\":24581:24582   */\n      0x00\n        /* \"#utility.yul\":24598:24604   */\n      dup5\n        /* \"#utility.yul\":24595:24672   */\n      iszero\n      tag_472\n      jumpi\n        /* \"#utility.yul\":24647:24656   */\n      dup3\n        /* \"#utility.yul\":24642:24645   */\n      dup8\n        /* \"#utility.yul\":24638:24657   */\n      add\n        /* \"#utility.yul\":24632:24658   */\n      mload\n        /* \"#utility.yul\":24623:24658   */\n      swap1\n      pop\n        /* \"#utility.yul\":24595:24672   */\n    tag_472:\n        /* \"#utility.yul\":24698:24765   */\n      tag_473\n        /* \"#utility.yul\":24758:24764   */\n      dup6\n        /* \"#utility.yul\":24751:24756   */\n      dup3\n        /* \"#utility.yul\":24698:24765   */\n      tag_237\n      jump\t// in\n    tag_473:\n        /* \"#utility.yul\":24692:24696   */\n      dup7\n        /* \"#utility.yul\":24685:24766   */\n      sstore\n        /* \"#utility.yul\":24554:24776   */\n      pop\n        /* \"#utility.yul\":23889:24776   */\n      jump(tag_470)\n        /* \"#utility.yul\":23919:24537   */\n    tag_471:\n        /* \"#utility.yul\":23971:23975   */\n      0x1f\n        /* \"#utility.yul\":23967:23976   */\n      not\n        /* \"#utility.yul\":23959:23965   */\n      dup5\n        /* \"#utility.yul\":23955:23977   */\n      and\n        /* \"#utility.yul\":24005:24042   */\n      tag_474\n        /* \"#utility.yul\":24037:24041   */\n      dup7\n        /* \"#utility.yul\":24005:24042   */\n      tag_215\n      jump\t// in\n    tag_474:\n        /* \"#utility.yul\":24064:24065   */\n      0x00\n        /* \"#utility.yul\":24078:24286   */\n    tag_475:\n        /* \"#utility.yul\":24092:24099   */\n      dup3\n        /* \"#utility.yul\":24089:24090   */\n      dup2\n        /* \"#utility.yul\":24086:24100   */\n      lt\n        /* \"#utility.yul\":24078:24286   */\n      iszero\n      tag_477\n      jumpi\n        /* \"#utility.yul\":24171:24180   */\n      dup5\n        /* \"#utility.yul\":24166:24169   */\n      dup10\n        /* \"#utility.yul\":24162:24181   */\n      add\n        /* \"#utility.yul\":24156:24182   */\n      mload\n        /* \"#utility.yul\":24148:24154   */\n      dup3\n        /* \"#utility.yul\":24141:24183   */\n      sstore\n        /* \"#utility.yul\":24222:24223   */\n      0x01\n        /* \"#utility.yul\":24214:24220   */\n      dup3\n        /* \"#utility.yul\":24210:24224   */\n      add\n        /* \"#utility.yul\":24200:24224   */\n      swap2\n      pop\n        /* \"#utility.yul\":24269:24271   */\n      0x20\n        /* \"#utility.yul\":24258:24267   */\n      dup6\n        /* \"#utility.yul\":24254:24272   */\n      add\n        /* \"#utility.yul\":24241:24272   */\n      swap5\n      pop\n        /* \"#utility.yul\":24115:24119   */\n      0x20\n        /* \"#utility.yul\":24112:24113   */\n      dup2\n        /* \"#utility.yul\":24108:24120   */\n      add\n        /* \"#utility.yul\":24103:24120   */\n      swap1\n      pop\n        /* \"#utility.yul\":24078:24286   */\n      jump(tag_475)\n    tag_477:\n        /* \"#utility.yul\":24314:24320   */\n      dup7\n        /* \"#utility.yul\":24305:24312   */\n      dup4\n        /* \"#utility.yul\":24302:24321   */\n      lt\n        /* \"#utility.yul\":24299:24478   */\n      iszero\n      tag_478\n      jumpi\n        /* \"#utility.yul\":24372:24381   */\n      dup5\n        /* \"#utility.yul\":24367:24370   */\n      dup10\n        /* \"#utility.yul\":24363:24382   */\n      add\n        /* \"#utility.yul\":24357:24383   */\n      mload\n        /* \"#utility.yul\":24415:24463   */\n      tag_479\n        /* \"#utility.yul\":24457:24461   */\n      0x1f\n        /* \"#utility.yul\":24449:24455   */\n      dup10\n        /* \"#utility.yul\":24445:24462   */\n      and\n        /* \"#utility.yul\":24434:24443   */\n      dup3\n        /* \"#utility.yul\":24415:24463   */\n      tag_236\n      jump\t// in\n    tag_479:\n        /* \"#utility.yul\":24407:24413   */\n      dup4\n        /* \"#utility.yul\":24400:24464   */\n      sstore\n        /* \"#utility.yul\":24322:24478   */\n      pop\n        /* \"#utility.yul\":24299:24478   */\n    tag_478:\n        /* \"#utility.yul\":24524:24525   */\n      0x01\n        /* \"#utility.yul\":24520:24521   */\n      0x02\n        /* \"#utility.yul\":24512:24518   */\n      dup9\n        /* \"#utility.yul\":24508:24522   */\n      mul\n        /* \"#utility.yul\":24504:24526   */\n      add\n        /* \"#utility.yul\":24498:24502   */\n      dup9\n        /* \"#utility.yul\":24491:24527   */\n      sstore\n        /* \"#utility.yul\":23926:24537   */\n      pop\n      pop\n      pop\n        /* \"#utility.yul\":23889:24776   */\n    tag_470:\n      pop\n        /* \"#utility.yul\":23479:24782   */\n      pop\n      pop\n      pop\n        /* \"#utility.yul\":23387:24782   */\n      pop\n      pop\n      jump\t// out\n        /* \"#utility.yul\":24788:24885   */\n    tag_238:\n        /* \"#utility.yul\":24847:24853   */\n      0x00\n        /* \"#utility.yul\":24875:24878   */\n      dup3\n        /* \"#utility.yul\":24865:24878   */\n      swap1\n      pop\n        /* \"#utility.yul\":24788:24885   */\n      swap3\n      swap2\n      pop\n      pop\n      jump\t// out\n        /* \"#utility.yul\":24891:26294   */\n    tag_111:\n        /* \"#utility.yul\":25015:25059   */\n      tag_482\n        /* \"#utility.yul\":25055:25058   */\n      dup4\n        /* \"#utility.yul\":25050:25053   */\n      dup4\n        /* \"#utility.yul\":25015:25059   */\n      tag_238\n      jump\t// in\n    tag_482:\n        /* \"#utility.yul\":25124:25142   */\n      0xffffffffffffffff\n        /* \"#utility.yul\":25116:25122   */\n      dup2\n        /* \"#utility.yul\":25113:25143   */\n      gt\n        /* \"#utility.yul\":25110:25166   */\n      iszero\n      tag_483\n      jumpi\n        /* \"#utility.yul\":25146:25164   */\n      tag_484\n      tag_196\n      jump\t// in\n    tag_484:\n        /* \"#utility.yul\":25110:25166   */\n    tag_483:\n        /* \"#utility.yul\":25190:25228   */\n      tag_485\n        /* \"#utility.yul\":25222:25226   */\n      dup3\n        /* \"#utility.yul\":25216:25227   */\n      sload\n        /* \"#utility.yul\":25190:25228   */\n      tag_83\n      jump\t// in\n    tag_485:\n        /* \"#utility.yul\":25275:25342   */\n      tag_486\n        /* \"#utility.yul\":25335:25341   */\n      dup3\n        /* \"#utility.yul\":25327:25333   */\n      dup3\n        /* \"#utility.yul\":25321:25325   */\n      dup6\n        /* \"#utility.yul\":25275:25342   */\n      tag_234\n      jump\t// in\n    tag_486:\n        /* \"#utility.yul\":25369:25370   */\n      0x00\n        /* \"#utility.yul\":25398:25400   */\n      0x1f\n        /* \"#utility.yul\":25390:25396   */\n      dup4\n        /* \"#utility.yul\":25387:25401   */\n      gt\n        /* \"#utility.yul\":25415:25416   */\n      0x01\n        /* \"#utility.yul\":25410:26042   */\n      dup2\n      eq\n      tag_488\n      jumpi\n        /* \"#utility.yul\":26086:26087   */\n      0x00\n        /* \"#utility.yul\":26103:26109   */\n      dup5\n        /* \"#utility.yul\":26100:26184   */\n      iszero\n      tag_489\n      jumpi\n        /* \"#utility.yul\":26159:26168   */\n      dup3\n        /* \"#utility.yul\":26154:26157   */\n      dup8\n        /* \"#utility.yul\":26150:26169   */\n      add\n        /* \"#utility.yul\":26137:26170   */\n      calldataload\n        /* \"#utility.yul\":26128:26170   */\n      swap1\n      pop\n        /* \"#utility.yul\":26100:26184   */\n    tag_489:\n        /* \"#utility.yul\":26210:26277   */\n      tag_490\n        /* \"#utility.yul\":26270:26276   */\n      dup6\n        /* \"#utility.yul\":26263:26268   */\n      dup3\n        /* \"#utility.yul\":26210:26277   */\n      tag_237\n      jump\t// in\n    tag_490:\n        /* \"#utility.yul\":26204:26208   */\n      dup7\n        /* \"#utility.yul\":26197:26278   */\n      sstore\n        /* \"#utility.yul\":26059:26288   */\n      pop\n        /* \"#utility.yul\":25380:26288   */\n      jump(tag_487)\n        /* \"#utility.yul\":25410:26042   */\n    tag_488:\n        /* \"#utility.yul\":25462:25466   */\n      0x1f\n        /* \"#utility.yul\":25458:25467   */\n      not\n        /* \"#utility.yul\":25450:25456   */\n      dup5\n        /* \"#utility.yul\":25446:25468   */\n      and\n        /* \"#utility.yul\":25496:25533   */\n      tag_491\n        /* \"#utility.yul\":25528:25532   */\n      dup7\n        /* \"#utility.yul\":25496:25533   */\n      tag_215\n      jump\t// in\n    tag_491:\n        /* \"#utility.yul\":25555:25556   */\n      0x00\n        /* \"#utility.yul\":25569:25784   */\n    tag_492:\n        /* \"#utility.yul\":25583:25590   */\n      dup3\n        /* \"#utility.yul\":25580:25581   */\n      dup2\n        /* \"#utility.yul\":25577:25591   */\n      lt\n        /* \"#utility.yul\":25569:25784   */\n      iszero\n      tag_494\n      jumpi\n        /* \"#utility.yul\":25669:25678   */\n      dup5\n        /* \"#utility.yul\":25664:25667   */\n      dup10\n        /* \"#utility.yul\":25660:25679   */\n      add\n        /* \"#utility.yul\":25647:25680   */\n      calldataload\n        /* \"#utility.yul\":25639:25645   */\n      dup3\n        /* \"#utility.yul\":25632:25681   */\n      sstore\n        /* \"#utility.yul\":25720:25721   */\n      0x01\n        /* \"#utility.yul\":25712:25718   */\n      dup3\n        /* \"#utility.yul\":25708:25722   */\n      add\n        /* \"#utility.yul\":25698:25722   */\n      swap2\n      pop\n        /* \"#utility.yul\":25767:25769   */\n      0x20\n        /* \"#utility.yul\":25756:25765   */\n      dup6\n        /* \"#utility.yul\":25752:25770   */\n      add\n        /* \"#utility.yul\":25739:25770   */\n      swap5\n      pop\n        /* \"#utility.yul\":25606:25610   */\n      0x20\n        /* \"#utility.yul\":25603:25604   */\n      dup2\n        /* \"#utility.yul\":25599:25611   */\n      add\n        /* \"#utility.yul\":25594:25611   */\n      swap1\n      pop\n        /* \"#utility.yul\":25569:25784   */\n      jump(tag_492)\n    tag_494:\n        /* \"#utility.yul\":25812:25818   */\n      dup7\n        /* \"#utility.yul\":25803:25810   */\n      dup4\n        /* \"#utility.yul\":25800:25819   */\n      lt\n        /* \"#utility.yul\":25797:25983   */\n      iszero\n      tag_495\n      jumpi\n        /* \"#utility.yul\":25877:25886   */\n      dup5\n        /* \"#utility.yul\":25872:25875   */\n      dup10\n        /* \"#utility.yul\":25868:25887   */\n      add\n        /* \"#utility.yul\":25855:25888   */\n      calldataload\n        /* \"#utility.yul\":25920:25968   */\n      tag_496\n        /* \"#utility.yul\":25962:25966   */\n      0x1f\n        /* \"#utility.yul\":25954:25960   */\n      dup10\n        /* \"#utility.yul\":25950:25967   */\n      and\n        /* \"#utility.yul\":25939:25948   */\n      dup3\n        /* \"#utility.yul\":25920:25968   */\n      tag_236\n      jump\t// in\n    tag_496:\n        /* \"#utility.yul\":25912:25918   */\n      dup4\n        /* \"#utility.yul\":25905:25969   */\n      sstore\n        /* \"#utility.yul\":25820:25983   */\n      pop\n        /* \"#utility.yul\":25797:25983   */\n    tag_495:\n        /* \"#utility.yul\":26029:26030   */\n      0x01\n        /* \"#utility.yul\":26025:26026   */\n      0x02\n        /* \"#utility.yul\":26017:26023   */\n      dup9\n        /* \"#utility.yul\":26013:26027   */\n      mul\n        /* \"#utility.yul\":26009:26031   */\n      add\n        /* \"#utility.yul\":26003:26007   */\n      dup9\n        /* \"#utility.yul\":25996:26032   */\n      sstore\n        /* \"#utility.yul\":25417:26042   */\n      pop\n      pop\n      pop\n        /* \"#utility.yul\":25380:26288   */\n    tag_487:\n      pop\n        /* \"#utility.yul\":24990:26294   */\n      pop\n      pop\n      pop\n        /* \"#utility.yul\":24891:26294   */\n      pop\n      pop\n      pop\n      jump\t// out\n        /* \"#utility.yul\":26300:26494   */\n    tag_239:\n        /* \"#utility.yul\":26469:26487   */\n      0x50617373656e676572204e616d653a2000000000000000000000000000000000\n        /* \"#utility.yul\":26464:26467   */\n      dup2\n        /* \"#utility.yul\":26457:26488   */\n      mstore\n        /* \"#utility.yul\":26300:26494   */\n      pop\n      jump\t// out\n        /* \"#utility.yul\":26500:26742   */\n    tag_240:\n        /* \"#utility.yul\":26669:26735   */\n      0x0a466c69676874204e756d6265723a2000000000000000000000000000000000\n        /* \"#utility.yul\":26664:26667   */\n      dup2\n        /* \"#utility.yul\":26657:26736   */\n      mstore\n        /* \"#utility.yul\":26500:26742   */\n      pop\n      jump\t// out\n        /* \"#utility.yul\":26748:26990   */\n    tag_241:\n        /* \"#utility.yul\":26917:26983   */\n      0x0a466c6967687420646174653a20000000000000000000000000000000000000\n        /* \"#utility.yul\":26912:26915   */\n      dup2\n        /* \"#utility.yul\":26905:26984   */\n      mstore\n        /* \"#utility.yul\":26748:26990   */\n      pop\n      jump\t// out\n        /* \"#utility.yul\":26996:27238   */\n    tag_242:\n        /* \"#utility.yul\":27165:27231   */\n      0x0a44657061727475726520636974793a20000000000000000000000000000000\n        /* \"#utility.yul\":27160:27163   */\n      dup2\n        /* \"#utility.yul\":27153:27232   */\n      mstore\n        /* \"#utility.yul\":26996:27238   */\n      pop\n      jump\t// out\n        /* \"#utility.yul\":27244:27486   */\n    tag_243:\n        /* \"#utility.yul\":27413:27479   */\n      0x0a44657374696e6174696f6e20636974793a2000000000000000000000000000\n        /* \"#utility.yul\":27408:27411   */\n      dup2\n        /* \"#utility.yul\":27401:27480   */\n      mstore\n        /* \"#utility.yul\":27244:27486   */\n      pop\n      jump\t// out\n        /* \"#utility.yul\":27492:27734   */\n    tag_244:\n        /* \"#utility.yul\":27661:27727   */\n      0x0a506f6c696379205374617475733a2000000000000000000000000000000000\n        /* \"#utility.yul\":27656:27659   */\n      dup2\n        /* \"#utility.yul\":27649:27728   */\n      mstore\n        /* \"#utility.yul\":27492:27734   */\n      pop\n      jump\t// out\n        /* \"#utility.yul\":27740:30381   */\n    tag_174:\n        /* \"#utility.yul\":28640:28643   */\n      0x00\n        /* \"#utility.yul\":28655:28793   */\n      tag_504\n        /* \"#utility.yul\":28789:28792   */\n      dup3\n        /* \"#utility.yul\":28655:28793   */\n      tag_239\n      jump\t// in\n    tag_504:\n        /* \"#utility.yul\":28818:28820   */\n      0x10\n        /* \"#utility.yul\":28813:28816   */\n      dup3\n        /* \"#utility.yul\":28809:28821   */\n      add\n        /* \"#utility.yul\":28802:28821   */\n      swap2\n      pop\n        /* \"#utility.yul\":28838:28930   */\n      tag_505\n        /* \"#utility.yul\":28926:28929   */\n      dup3\n        /* \"#utility.yul\":28917:28923   */\n      dup10\n        /* \"#utility.yul\":28838:28930   */\n      tag_216\n      jump\t// in\n    tag_505:\n        /* \"#utility.yul\":28831:28930   */\n      swap2\n      pop\n        /* \"#utility.yul\":28940:29078   */\n      tag_506\n        /* \"#utility.yul\":29074:29077   */\n      dup3\n        /* \"#utility.yul\":28940:29078   */\n      tag_240\n      jump\t// in\n    tag_506:\n        /* \"#utility.yul\":29103:29105   */\n      0x10\n        /* \"#utility.yul\":29098:29101   */\n      dup3\n        /* \"#utility.yul\":29094:29106   */\n      add\n        /* \"#utility.yul\":29087:29106   */\n      swap2\n      pop\n        /* \"#utility.yul\":29123:29215   */\n      tag_507\n        /* \"#utility.yul\":29211:29214   */\n      dup3\n        /* \"#utility.yul\":29202:29208   */\n      dup9\n        /* \"#utility.yul\":29123:29215   */\n      tag_216\n      jump\t// in\n    tag_507:\n        /* \"#utility.yul\":29116:29215   */\n      swap2\n      pop\n        /* \"#utility.yul\":29225:29363   */\n      tag_508\n        /* \"#utility.yul\":29359:29362   */\n      dup3\n        /* \"#utility.yul\":29225:29363   */\n      tag_241\n      jump\t// in\n    tag_508:\n        /* \"#utility.yul\":29388:29390   */\n      0x0e\n        /* \"#utility.yul\":29383:29386   */\n      dup3\n        /* \"#utility.yul\":29379:29391   */\n      add\n        /* \"#utility.yul\":29372:29391   */\n      swap2\n      pop\n        /* \"#utility.yul\":29408:29500   */\n      tag_509\n        /* \"#utility.yul\":29496:29499   */\n      dup3\n        /* \"#utility.yul\":29487:29493   */\n      dup8\n        /* \"#utility.yul\":29408:29500   */\n      tag_216\n      jump\t// in\n    tag_509:\n        /* \"#utility.yul\":29401:29500   */\n      swap2\n      pop\n        /* \"#utility.yul\":29510:29648   */\n      tag_510\n        /* \"#utility.yul\":29644:29647   */\n      dup3\n        /* \"#utility.yul\":29510:29648   */\n      tag_242\n      jump\t// in\n    tag_510:\n        /* \"#utility.yul\":29673:29675   */\n      0x11\n        /* \"#utility.yul\":29668:29671   */\n      dup3\n        /* \"#utility.yul\":29664:29676   */\n      add\n        /* \"#utility.yul\":29657:29676   */\n      swap2\n      pop\n        /* \"#utility.yul\":29693:29785   */\n      tag_511\n        /* \"#utility.yul\":29781:29784   */\n      dup3\n        /* \"#utility.yul\":29772:29778   */\n      dup7\n        /* \"#utility.yul\":29693:29785   */\n      tag_216\n      jump\t// in\n    tag_511:\n        /* \"#utility.yul\":29686:29785   */\n      swap2\n      pop\n        /* \"#utility.yul\":29795:29933   */\n      tag_512\n        /* \"#utility.yul\":29929:29932   */\n      dup3\n        /* \"#utility.yul\":29795:29933   */\n      tag_243\n      jump\t// in\n    tag_512:\n        /* \"#utility.yul\":29958:29960   */\n      0x13\n        /* \"#utility.yul\":29953:29956   */\n      dup3\n        /* \"#utility.yul\":29949:29961   */\n      add\n        /* \"#utility.yul\":29942:29961   */\n      swap2\n      pop\n        /* \"#utility.yul\":29978:30070   */\n      tag_513\n        /* \"#utility.yul\":30066:30069   */\n      dup3\n        /* \"#utility.yul\":30057:30063   */\n      dup6\n        /* \"#utility.yul\":29978:30070   */\n      tag_216\n      jump\t// in\n    tag_513:\n        /* \"#utility.yul\":29971:30070   */\n      swap2\n      pop\n        /* \"#utility.yul\":30080:30218   */\n      tag_514\n        /* \"#utility.yul\":30214:30217   */\n      dup3\n        /* \"#utility.yul\":30080:30218   */\n      tag_244\n      jump\t// in\n    tag_514:\n        /* \"#utility.yul\":30243:30245   */\n      0x10\n        /* \"#utility.yul\":30238:30241   */\n      dup3\n        /* \"#utility.yul\":30234:30246   */\n      add\n        /* \"#utility.yul\":30227:30246   */\n      swap2\n      pop\n        /* \"#utility.yul\":30263:30355   */\n      tag_515\n        /* \"#utility.yul\":30351:30354   */\n      dup3\n        /* \"#utility.yul\":30342:30348   */\n      dup5\n        /* \"#utility.yul\":30263:30355   */\n      tag_216\n      jump\t// in\n    tag_515:\n        /* \"#utility.yul\":30256:30355   */\n      swap2\n      pop\n        /* \"#utility.yul\":30372:30375   */\n      dup2\n        /* \"#utility.yul\":30365:30375   */\n      swap1\n      pop\n        /* \"#utility.yul\":27740:30381   */\n      swap8\n      swap7\n      pop\n      pop\n      pop\n      pop\n      pop\n      pop\n      pop\n      jump\t// out\n    stop\n    data_c8be08d5e2404c64eec4fa2070eabc6bbf9ff0d11045ed005e7513f9fc9de59b 5072656d69756d3a20302e3031204574686572200a496e64656d6e6974793a20302e3032204574686572200a436f766572616765206973737565733a206861696c20616e6420666c6f6f6473\n\n    auxdata: 0xa264697066735822122022451751e44f2962d7900f9e415138c8a692da19b3cccb81f6643eefe8816cc464736f6c634300081a0033\n}\n",
				"bytecode": {
					"linkReferences": {},
					"object": "608060405234801561000f575f80fd5b506040516120e23803806120e2833981810160405281019061003191906100d5565b8060015f6101000a81548173ffffffffffffffffffffffffffffffffffffffff021916908373ffffffffffffffffffffffffffffffffffffffff16021790555050610100565b5f80fd5b5f73ffffffffffffffffffffffffffffffffffffffff82169050919050565b5f6100a48261007b565b9050919050565b6100b48161009a565b81146100be575f80fd5b50565b5f815190506100cf816100ab565b92915050565b5f602082840312156100ea576100e9610077565b5b5f6100f7848285016100c1565b91505092915050565b611fd58061010d5f395ff3fe60806040526004361061009f575f3560e01c80638da5cb5b116100635780638da5cb5b14610198578063b698d6a1146101c2578063cbe2e531146101fe578063f25797c61461022e578063fa0543d61461026a578063fc735e9914610294576100a6565b80631a65261c146100aa57806335f7a712146100d45780634a7ba3e5146100f057806350dd73be146101325780636873837d1461015c576100a6565b366100a657005b5f80fd5b3480156100b5575f80fd5b506100be6102be565b6040516100cb919061111f565b60405180910390f35b6100ee60048036038101906100e9919061120b565b6104e2565b005b3480156100fb575f80fd5b506101166004803603810190610111919061145d565b61084e565b60405161012997969594939291906114b3565b60405180910390f35b34801561013d575f80fd5b50610146610be7565b604051610153919061154a565b60405180910390f35b348015610167575f80fd5b50610182600480360381019061017d919061145d565b610c0c565b60405161018f919061157b565b60405180910390f35b3480156101a3575f80fd5b506101ac610c6c565b6040516101b9919061154a565b60405180910390f35b3480156101cd575f80fd5b506101e860048036038101906101e391906115be565b610c8f565b6040516101f5919061111f565b60405180910390f35b610218600480360381019061021391906116c7565b610d35565b604051610225919061111f565b60405180910390f35b348015610239575f80fd5b50610254600480360381019061024f919061145d565b610f08565b604051610261919061111f565b60405180910390f35b348015610275575f80fd5b5061027e610ffa565b60405161028b919061111f565b60405180910390f35b34801561029f575f80fd5b506102a861101a565b6040516102b5919061111f565b60405180910390f35b606060015f9054906101000a900473ffffffffffffffffffffffffffffffffffffffff1673ffffffffffffffffffffffffffffffffffffffff163373ffffffffffffffffffffffffffffffffffffffff1614610318575f80fd5b5f60405180602001604052805f81525090505f5b6002805490508110156104da575f6002828154811061034e5761034d61170e565b5b905f5260205f2001805461036190611768565b80601f016020809104026020016040519081016040528092919081815260200182805461038d90611768565b80156103d85780601f106103af576101008083540402835291602001916103d8565b820191905f5260205f20905b8154815290600101906020018083116103bb57829003601f168201915b50505050509050826003826040516103f091906117d2565b90815260200160405180910390205f0160038360405161041091906117d2565b908152602001604051809103902060020160038460405161043191906117d2565b908152602001604051809103902060030160038560405161045291906117d2565b908152602001604051809103902060040160038660405161047391906117d2565b908152602001604051809103902060050160038760405161049491906117d2565b90815260200160405180910390206006016040516020016104bb9796959493929190611984565b604051602081830303815290604052925050808060010191505061032c565b508091505090565b60015f9054906101000a900473ffffffffffffffffffffffffffffffffffffffff1673ffffffffffffffffffffffffffffffffffffffff166108fc662386f26fc1000090811502906040515f60405180830381858888f1935050505015801561054d573d5f803e3d5ffd5b506040518060e001604052808c8c8080601f0160208091040260200160405190810160405280939291908181526020018383808284375f81840152601f19601f8201169050808301925050505050505081526020018a73ffffffffffffffffffffffffffffffffffffffff16815260200189898080601f0160208091040260200160405190810160405280939291908181526020018383808284375f81840152601f19601f82011690508083019250505050505050815260200187878080601f0160208091040260200160405190810160405280939291908181526020018383808284375f81840152601f19601f82011690508083019250505050505050815260200185858080601f0160208091040260200160405190810160405280939291908181526020018383808284375f81840152601f19601f82011690508083019250505050505050815260200183838080601f0160208091040260200160405190810160405280939291908181526020018383808284375f81840152601f19601f8201169050808301925050505050505081526020016040518060400160405280600981526020017f507572636861736564000000000000000000000000000000000000000000000081525081525060038c8c60405161072d929190611a75565b90815260200160405180910390205f820151815f01908161074e9190611c18565b506020820151816001015f6101000a81548173ffffffffffffffffffffffffffffffffffffffff021916908373ffffffffffffffffffffffffffffffffffffffff16021790555060408201518160020190816107aa9190611c18565b5060608201518160030190816107c09190611c18565b5060808201518160040190816107d69190611c18565b5060a08201518160050190816107ec9190611c18565b5060c08201518160060190816108029190611c18565b5090505060028b8b90918060018154018082558091505060019003905f5260205f20015f909192909192909192909192509182610840929190611cf1565b505050505050505050505050565b6003818051602081018201805184825260208301602085012081835280955050505050505f91509050805f01805461088590611768565b80601f01602080910402602001604051908101604052809291908181526020018280546108b190611768565b80156108fc5780601f106108d3576101008083540402835291602001916108fc565b820191905f5260205f20905b8154815290600101906020018083116108df57829003601f168201915b505050505090806001015f9054906101000a900473ffffffffffffffffffffffffffffffffffffffff169080600201805461093690611768565b80601f016020809104026020016040519081016040528092919081815260200182805461096290611768565b80156109ad5780601f10610984576101008083540402835291602001916109ad565b820191905f5260205f20905b81548152906001019060200180831161099057829003601f168201915b5050505050908060030180546109c290611768565b80601f01602080910402602001604051908101604052809291908181526020018280546109ee90611768565b8015610a395780601f10610a1057610100808354040283529160200191610a39565b820191905f5260205f20905b815481529060010190602001808311610a1c57829003601f168201915b505050505090806004018054610a4e90611768565b80601f0160208091040260200160405190810160405280929190818152602001828054610a7a90611768565b8015610ac55780601f10610a9c57610100808354040283529160200191610ac5565b820191905f5260205f20905b815481529060010190602001808311610aa857829003601f168201915b505050505090806005018054610ada90611768565b80601f0160208091040260200160405190810160405280929190818152602001828054610b0690611768565b8015610b515780601f10610b2857610100808354040283529160200191610b51565b820191905f5260205f20905b815481529060010190602001808311610b3457829003601f168201915b505050505090806006018054610b6690611768565b80601f0160208091040260200160405190810160405280929190818152602001828054610b9290611768565b8015610bdd5780601f10610bb457610100808354040283529160200191610bdd565b820191905f5260205f20905b815481529060010190602001808311610bc057829003601f168201915b5050505050905087565b60015f9054906101000a900473ffffffffffffffffffffffffffffffffffffffff1681565b5f600382604051610c1d91906117d2565b90815260200160405180910390206001015f9054906101000a900473ffffffffffffffffffffffffffffffffffffffff1673ffffffffffffffffffffffffffffffffffffffff16319050919050565b5f8054906101000a900473ffffffffffffffffffffffffffffffffffffffff1681565b60028181548110610c9e575f80fd5b905f5260205f20015f915090508054610cb690611768565b80601f0160208091040260200160405190810160405280929190818152602001828054610ce290611768565b8015610d2d5780601f10610d0457610100808354040283529160200191610d2d565b820191905f5260205f20905b815481529060010190602001808311610d1057829003601f168201915b505050505081565b606060015f9054906101000a900473ffffffffffffffffffffffffffffffffffffffff1673ffffffffffffffffffffffffffffffffffffffff163373ffffffffffffffffffffffffffffffffffffffff1614610d8f575f80fd5b5f5b8251811015610eca576003838281518110610daf57610dae61170e565b5b6020026020010151604051610dc491906117d2565b90815260200160405180910390206001015f9054906101000a900473ffffffffffffffffffffffffffffffffffffffff1673ffffffffffffffffffffffffffffffffffffffff166108fc66470de4df82000090811502906040515f60405180830381858888f19350505050158015610e3e573d5f803e3d5ffd5b506040518060400160405280600781526020017f436c61696d6564000000000000000000000000000000000000000000000000008152506003848381518110610e8a57610e8961170e565b5b6020026020010151604051610e9f91906117d2565b90815260200160405180910390206006019081610ebc9190611c18565b508080600101915050610d91565b506040518060400160405280601481526020017f5061796d656e7473207375636365737366756c210000000000000000000000008152509050919050565b6060600382604051610f1a91906117d2565b90815260200160405180910390205f01600383604051610f3a91906117d2565b9081526020016040518091039020600201600384604051610f5b91906117d2565b9081526020016040518091039020600301600385604051610f7c91906117d2565b9081526020016040518091039020600401600386604051610f9d91906117d2565b9081526020016040518091039020600501600387604051610fbe91906117d2565b9081526020016040518091039020600601604051602001610fe496959493929190611ea2565b6040516020818303038152906040529050919050565b60606040518060800160405280604c8152602001611f54604c9139905090565b606060015f9054906101000a900473ffffffffffffffffffffffffffffffffffffffff1673ffffffffffffffffffffffffffffffffffffffff163373ffffffffffffffffffffffffffffffffffffffff1614611074575f80fd5b6040518060400160405280600981526020017f5665726966696564210000000000000000000000000000000000000000000000815250905090565b5f81519050919050565b5f82825260208201905092915050565b8281835e5f83830152505050565b5f601f19601f8301169050919050565b5f6110f1826110af565b6110fb81856110b9565b935061110b8185602086016110c9565b611114816110d7565b840191505092915050565b5f6020820190508181035f83015261113781846110e7565b905092915050565b5f604051905090565b5f80fd5b5f80fd5b5f80fd5b5f80fd5b5f80fd5b5f8083601f84011261117157611170611150565b5b8235905067ffffffffffffffff81111561118e5761118d611154565b5b6020830191508360018202830111156111aa576111a9611158565b5b9250929050565b5f73ffffffffffffffffffffffffffffffffffffffff82169050919050565b5f6111da826111b1565b9050919050565b6111ea816111d0565b81146111f4575f80fd5b50565b5f81359050611205816111e1565b92915050565b5f805f805f805f805f805f60c08c8e03121561122a57611229611148565b5b5f8c013567ffffffffffffffff8111156112475761124661114c565b5b6112538e828f0161115c565b9b509b505060206112668e828f016111f7565b99505060408c013567ffffffffffffffff8111156112875761128661114c565b5b6112938e828f0161115c565b985098505060608c013567ffffffffffffffff8111156112b6576112b561114c565b5b6112c28e828f0161115c565b965096505060808c013567ffffffffffffffff8111156112e5576112e461114c565b5b6112f18e828f0161115c565b945094505060a08c013567ffffffffffffffff8111156113145761131361114c565b5b6113208e828f0161115c565b92509250509295989b509295989b9093969950565b5f80fd5b7f4e487b71000000000000000000000000000000000000000000000000000000005f52604160045260245ffd5b61136f826110d7565b810181811067ffffffffffffffff8211171561138e5761138d611339565b5b80604052505050565b5f6113a061113f565b90506113ac8282611366565b919050565b5f67ffffffffffffffff8211156113cb576113ca611339565b5b6113d4826110d7565b9050602081019050919050565b828183375f83830152505050565b5f6114016113fc846113b1565b611397565b90508281526020810184848401111561141d5761141c611335565b5b6114288482856113e1565b509392505050565b5f82601f83011261144457611443611150565b5b81356114548482602086016113ef565b91505092915050565b5f6020828403121561147257611471611148565b5b5f82013567ffffffffffffffff81111561148f5761148e61114c565b5b61149b84828501611430565b91505092915050565b6114ad816111d0565b82525050565b5f60e0820190508181035f8301526114cb818a6110e7565b90506114da60208301896114a4565b81810360408301526114ec81886110e7565b9050818103606083015261150081876110e7565b9050818103608083015261151481866110e7565b905081810360a083015261152881856110e7565b905081810360c083015261153c81846110e7565b905098975050505050505050565b5f60208201905061155d5f8301846114a4565b92915050565b5f819050919050565b61157581611563565b82525050565b5f60208201905061158e5f83018461156c565b92915050565b61159d81611563565b81146115a7575f80fd5b50565b5f813590506115b881611594565b92915050565b5f602082840312156115d3576115d2611148565b5b5f6115e0848285016115aa565b91505092915050565b5f67ffffffffffffffff82111561160357611602611339565b5b602082029050602081019050919050565b5f611626611621846115e9565b611397565b9050808382526020820190506020840283018581111561164957611648611158565b5b835b8181101561169057803567ffffffffffffffff81111561166e5761166d611150565b5b80860161167b8982611430565b8552602085019450505060208101905061164b565b5050509392505050565b5f82601f8301126116ae576116ad611150565b5b81356116be848260208601611614565b91505092915050565b5f602082840312156116dc576116db611148565b5b5f82013567ffffffffffffffff8111156116f9576116f861114c565b5b6117058482850161169a565b91505092915050565b7f4e487b71000000000000000000000000000000000000000000000000000000005f52603260045260245ffd5b7f4e487b71000000000000000000000000000000000000000000000000000000005f52602260045260245ffd5b5f600282049050600182168061177f57607f821691505b6020821081036117925761179161173b565b5b50919050565b5f81905092915050565b5f6117ac826110af565b6117b68185611798565b93506117c68185602086016110c9565b80840191505092915050565b5f6117dd82846117a2565b915081905092915050565b7f506f6c6963793a2050617373656e676572204e616d653a200000000000000000815250565b5f819050815f5260205f209050919050565b5f815461182c81611768565b6118368186611798565b9450600182165f8114611850576001811461186557611897565b60ff1983168652811515820286019350611897565b61186e8561180e565b5f5b8381101561188f57815481890152600182019150602081019050611870565b838801955050505b50505092915050565b7f20466c69676874204e756d6265723a2000000000000000000000000000000000815250565b7f20466c6967687420646174653a20000000000000000000000000000000000000815250565b7f2044657061727475726520636974793a20000000000000000000000000000000815250565b7f2044657374696e6174696f6e20636974793a2000000000000000000000000000815250565b7f205374617475733a200000000000000000000000000000000000000000000000815250565b7f0a00000000000000000000000000000000000000000000000000000000000000815250565b5f61198f828a6117a2565b915061199a826117e8565b6018820191506119aa8289611820565b91506119b5826118a0565b6010820191506119c58288611820565b91506119d0826118c6565b600e820191506119e08287611820565b91506119eb826118ec565b6011820191506119fb8286611820565b9150611a0682611912565b601382019150611a168285611820565b9150611a2182611938565b600982019150611a318284611820565b9150611a3c8261195e565b60018201915081905098975050505050505050565b5f611a5c8385611798565b9350611a698385846113e1565b82840190509392505050565b5f611a81828486611a51565b91508190509392505050565b5f6020601f8301049050919050565b5f82821b905092915050565b5f60088302611ad77fffffffffffffffffffffffffffffffffffffffffffffffffffffffffffffffff82611a9c565b611ae18683611a9c565b95508019841693508086168417925050509392505050565b5f819050919050565b5f611b1c611b17611b1284611563565b611af9565b611563565b9050919050565b5f819050919050565b611b3583611b02565b611b49611b4182611b23565b848454611aa8565b825550505050565b5f90565b611b5d611b51565b611b68818484611b2c565b505050565b5b81811015611b8b57611b805f82611b55565b600181019050611b6e565b5050565b601f821115611bd057611ba18161180e565b611baa84611a8d565b81016020851015611bb9578190505b611bcd611bc585611a8d565b830182611b6d565b50505b505050565b5f82821c905092915050565b5f611bf05f1984600802611bd5565b1980831691505092915050565b5f611c088383611be1565b9150826002028217905092915050565b611c21826110af565b67ffffffffffffffff811115611c3a57611c39611339565b5b611c448254611768565b611c4f828285611b8f565b5f60209050601f831160018114611c80575f8415611c6e578287015190505b611c788582611bfd565b865550611cdf565b601f198416611c8e8661180e565b5f5b82811015611cb557848901518255600182019150602085019450602081019050611c90565b86831015611cd25784890151611cce601f891682611be1565b8355505b6001600288020188555050505b505050505050565b5f82905092915050565b611cfb8383611ce7565b67ffffffffffffffff811115611d1457611d13611339565b5b611d1e8254611768565b611d29828285611b8f565b5f601f831160018114611d56575f8415611d44578287013590505b611d4e8582611bfd565b865550611db5565b601f198416611d648661180e565b5f5b82811015611d8b57848901358255600182019150602085019450602081019050611d66565b86831015611da85784890135611da4601f891682611be1565b8355505b6001600288020188555050505b50505050505050565b7f50617373656e676572204e616d653a2000000000000000000000000000000000815250565b7f0a466c69676874204e756d6265723a2000000000000000000000000000000000815250565b7f0a466c6967687420646174653a20000000000000000000000000000000000000815250565b7f0a44657061727475726520636974793a20000000000000000000000000000000815250565b7f0a44657374696e6174696f6e20636974793a2000000000000000000000000000815250565b7f0a506f6c696379205374617475733a2000000000000000000000000000000000815250565b5f611eac82611dbe565b601082019150611ebc8289611820565b9150611ec782611de4565b601082019150611ed78288611820565b9150611ee282611e0a565b600e82019150611ef28287611820565b9150611efd82611e30565b601182019150611f0d8286611820565b9150611f1882611e56565b601382019150611f288285611820565b9150611f3382611e7c565b601082019150611f438284611820565b915081905097965050505050505056fe5072656d69756d3a20302e3031204574686572200a496e64656d6e6974793a20302e3032204574686572200a436f766572616765206973737565733a206861696c20616e6420666c6f6f6473a264697066735822122022451751e44f2962d7900f9e415138c8a692da19b3cccb81f6643eefe8816cc464736f6c634300081a0033",
					"opcodes": "PUSH1 0x80 PUSH1 0x40 MSTORE CALLVALUE DUP1 ISZERO PUSH2 0xF JUMPI PUSH0 DUP1 REVERT JUMPDEST POP PUSH1 0x40 MLOAD PUSH2 0x20E2 CODESIZE SUB DUP1 PUSH2 0x20E2 DUP4 CODECOPY DUP2 DUP2 ADD PUSH1 0x40 MSTORE DUP2 ADD SWAP1 PUSH2 0x31 SWAP2 SWAP1 PUSH2 0xD5 JUMP JUMPDEST DUP1 PUSH1 0x1 PUSH0 PUSH2 0x100 EXP DUP2 SLOAD DUP2 PUSH20 0xFFFFFFFFFFFFFFFFFFFFFFFFFFFFFFFFFFFFFFFF MUL NOT AND SWAP1 DUP4 PUSH20 0xFFFFFFFFFFFFFFFFFFFFFFFFFFFFFFFFFFFFFFFF AND MUL OR SWAP1 SSTORE POP POP PUSH2 0x100 JUMP JUMPDEST PUSH0 DUP1 REVERT JUMPDEST PUSH0 PUSH20 0xFFFFFFFFFFFFFFFFFFFFFFFFFFFFFFFFFFFFFFFF DUP3 AND SWAP1 POP SWAP2 SWAP1 POP JUMP JUMPDEST PUSH0 PUSH2 0xA4 DUP3 PUSH2 0x7B JUMP JUMPDEST SWAP1 POP SWAP2 SWAP1 POP JUMP JUMPDEST PUSH2 0xB4 DUP2 PUSH2 0x9A JUMP JUMPDEST DUP2 EQ PUSH2 0xBE JUMPI PUSH0 DUP1 REVERT JUMPDEST POP JUMP JUMPDEST PUSH0 DUP2 MLOAD SWAP1 POP PUSH2 0xCF DUP2 PUSH2 0xAB JUMP JUMPDEST SWAP3 SWAP2 POP POP JUMP JUMPDEST PUSH0 PUSH1 0x20 DUP3 DUP5 SUB SLT ISZERO PUSH2 0xEA JUMPI PUSH2 0xE9 PUSH2 0x77 JUMP JUMPDEST JUMPDEST PUSH0 PUSH2 0xF7 DUP5 DUP3 DUP6 ADD PUSH2 0xC1 JUMP JUMPDEST SWAP2 POP POP SWAP3 SWAP2 POP POP JUMP JUMPDEST PUSH2 0x1FD5 DUP1 PUSH2 0x10D PUSH0 CODECOPY PUSH0 RETURN INVALID PUSH1 0x80 PUSH1 0x40 MSTORE PUSH1 0x4 CALLDATASIZE LT PUSH2 0x9F JUMPI PUSH0 CALLDATALOAD PUSH1 0xE0 SHR DUP1 PUSH4 0x8DA5CB5B GT PUSH2 0x63 JUMPI DUP1 PUSH4 0x8DA5CB5B EQ PUSH2 0x198 JUMPI DUP1 PUSH4 0xB698D6A1 EQ PUSH2 0x1C2 JUMPI DUP1 PUSH4 0xCBE2E531 EQ PUSH2 0x1FE JUMPI DUP1 PUSH4 0xF25797C6 EQ PUSH2 0x22E JUMPI DUP1 PUSH4 0xFA0543D6 EQ PUSH2 0x26A JUMPI DUP1 PUSH4 0xFC735E99 EQ PUSH2 0x294 JUMPI PUSH2 0xA6 JUMP JUMPDEST DUP1 PUSH4 0x1A65261C EQ PUSH2 0xAA JUMPI DUP1 PUSH4 0x35F7A712 EQ PUSH2 0xD4 JUMPI DUP1 PUSH4 0x4A7BA3E5 EQ PUSH2 0xF0 JUMPI DUP1 PUSH4 0x50DD73BE EQ PUSH2 0x132 JUMPI DUP1 PUSH4 0x6873837D EQ PUSH2 0x15C JUMPI PUSH2 0xA6 JUMP JUMPDEST CALLDATASIZE PUSH2 0xA6 JUMPI STOP JUMPDEST PUSH0 DUP1 REVERT JUMPDEST CALLVALUE DUP1 ISZERO PUSH2 0xB5 JUMPI PUSH0 DUP1 REVERT JUMPDEST POP PUSH2 0xBE PUSH2 0x2BE JUMP JUMPDEST PUSH1 0x40 MLOAD PUSH2 0xCB SWAP2 SWAP1 PUSH2 0x111F JUMP JUMPDEST PUSH1 0x40 MLOAD DUP1 SWAP2 SUB SWAP1 RETURN JUMPDEST PUSH2 0xEE PUSH1 0x4 DUP1 CALLDATASIZE SUB DUP2 ADD SWAP1 PUSH2 0xE9 SWAP2 SWAP1 PUSH2 0x120B JUMP JUMPDEST PUSH2 0x4E2 JUMP JUMPDEST STOP JUMPDEST CALLVALUE DUP1 ISZERO PUSH2 0xFB JUMPI PUSH0 DUP1 REVERT JUMPDEST POP PUSH2 0x116 PUSH1 0x4 DUP1 CALLDATASIZE SUB DUP2 ADD SWAP1 PUSH2 0x111 SWAP2 SWAP1 PUSH2 0x145D JUMP JUMPDEST PUSH2 0x84E JUMP JUMPDEST PUSH1 0x40 MLOAD PUSH2 0x129 SWAP8 SWAP7 SWAP6 SWAP5 SWAP4 SWAP3 SWAP2 SWAP1 PUSH2 0x14B3 JUMP JUMPDEST PUSH1 0x40 MLOAD DUP1 SWAP2 SUB SWAP1 RETURN JUMPDEST CALLVALUE DUP1 ISZERO PUSH2 0x13D JUMPI PUSH0 DUP1 REVERT JUMPDEST POP PUSH2 0x146 PUSH2 0xBE7 JUMP JUMPDEST PUSH1 0x40 MLOAD PUSH2 0x153 SWAP2 SWAP1 PUSH2 0x154A JUMP JUMPDEST PUSH1 0x40 MLOAD DUP1 SWAP2 SUB SWAP1 RETURN JUMPDEST CALLVALUE DUP1 ISZERO PUSH2 0x167 JUMPI PUSH0 DUP1 REVERT JUMPDEST POP PUSH2 0x182 PUSH1 0x4 DUP1 CALLDATASIZE SUB DUP2 ADD SWAP1 PUSH2 0x17D SWAP2 SWAP1 PUSH2 0x145D JUMP JUMPDEST PUSH2 0xC0C JUMP JUMPDEST PUSH1 0x40 MLOAD PUSH2 0x18F SWAP2 SWAP1 PUSH2 0x157B JUMP JUMPDEST PUSH1 0x40 MLOAD DUP1 SWAP2 SUB SWAP1 RETURN JUMPDEST CALLVALUE DUP1 ISZERO PUSH2 0x1A3 JUMPI PUSH0 DUP1 REVERT JUMPDEST POP PUSH2 0x1AC PUSH2 0xC6C JUMP JUMPDEST PUSH1 0x40 MLOAD PUSH2 0x1B9 SWAP2 SWAP1 PUSH2 0x154A JUMP JUMPDEST PUSH1 0x40 MLOAD DUP1 SWAP2 SUB SWAP1 RETURN JUMPDEST CALLVALUE DUP1 ISZERO PUSH2 0x1CD JUMPI PUSH0 DUP1 REVERT JUMPDEST POP PUSH2 0x1E8 PUSH1 0x4 DUP1 CALLDATASIZE SUB DUP2 ADD SWAP1 PUSH2 0x1E3 SWAP2 SWAP1 PUSH2 0x15BE JUMP JUMPDEST PUSH2 0xC8F JUMP JUMPDEST PUSH1 0x40 MLOAD PUSH2 0x1F5 SWAP2 SWAP1 PUSH2 0x111F JUMP JUMPDEST PUSH1 0x40 MLOAD DUP1 SWAP2 SUB SWAP1 RETURN JUMPDEST PUSH2 0x218 PUSH1 0x4 DUP1 CALLDATASIZE SUB DUP2 ADD SWAP1 PUSH2 0x213 SWAP2 SWAP1 PUSH2 0x16C7 JUMP JUMPDEST PUSH2 0xD35 JUMP JUMPDEST PUSH1 0x40 MLOAD PUSH2 0x225 SWAP2 SWAP1 PUSH2 0x111F JUMP JUMPDEST PUSH1 0x40 MLOAD DUP1 SWAP2 SUB SWAP1 RETURN JUMPDEST CALLVALUE DUP1 ISZERO PUSH2 0x239 JUMPI PUSH0 DUP1 REVERT JUMPDEST POP PUSH2 0x254 PUSH1 0x4 DUP1 CALLDATASIZE SUB DUP2 ADD SWAP1 PUSH2 0x24F SWAP2 SWAP1 PUSH2 0x145D JUMP JUMPDEST PUSH2 0xF08 JUMP JUMPDEST PUSH1 0x40 MLOAD PUSH2 0x261 SWAP2 SWAP1 PUSH2 0x111F JUMP JUMPDEST PUSH1 0x40 MLOAD DUP1 SWAP2 SUB SWAP1 RETURN JUMPDEST CALLVALUE DUP1 ISZERO PUSH2 0x275 JUMPI PUSH0 DUP1 REVERT JUMPDEST POP PUSH2 0x27E PUSH2 0xFFA JUMP JUMPDEST PUSH1 0x40 MLOAD PUSH2 0x28B SWAP2 SWAP1 PUSH2 0x111F JUMP JUMPDEST PUSH1 0x40 MLOAD DUP1 SWAP2 SUB SWAP1 RETURN JUMPDEST CALLVALUE DUP1 ISZERO PUSH2 0x29F JUMPI PUSH0 DUP1 REVERT JUMPDEST POP PUSH2 0x2A8 PUSH2 0x101A JUMP JUMPDEST PUSH1 0x40 MLOAD PUSH2 0x2B5 SWAP2 SWAP1 PUSH2 0x111F JUMP JUMPDEST PUSH1 0x40 MLOAD DUP1 SWAP2 SUB SWAP1 RETURN JUMPDEST PUSH1 0x60 PUSH1 0x1 PUSH0 SWAP1 SLOAD SWAP1 PUSH2 0x100 EXP SWAP1 DIV PUSH20 0xFFFFFFFFFFFFFFFFFFFFFFFFFFFFFFFFFFFFFFFF AND PUSH20 0xFFFFFFFFFFFFFFFFFFFFFFFFFFFFFFFFFFFFFFFF AND CALLER PUSH20 0xFFFFFFFFFFFFFFFFFFFFFFFFFFFFFFFFFFFFFFFF AND EQ PUSH2 0x318 JUMPI PUSH0 DUP1 REVERT JUMPDEST PUSH0 PUSH1 0x40 MLOAD DUP1 PUSH1 0x20 ADD PUSH1 0x40 MSTORE DUP1 PUSH0 DUP2 MSTORE POP SWAP1 POP PUSH0 JUMPDEST PUSH1 0x2 DUP1 SLOAD SWAP1 POP DUP2 LT ISZERO PUSH2 0x4DA JUMPI PUSH0 PUSH1 0x2 DUP3 DUP2 SLOAD DUP2 LT PUSH2 0x34E JUMPI PUSH2 0x34D PUSH2 0x170E JUMP JUMPDEST JUMPDEST SWAP1 PUSH0 MSTORE PUSH1 0x20 PUSH0 KECCAK256 ADD DUP1 SLOAD PUSH2 0x361 SWAP1 PUSH2 0x1768 JUMP JUMPDEST DUP1 PUSH1 0x1F ADD PUSH1 0x20 DUP1 SWAP2 DIV MUL PUSH1 0x20 ADD PUSH1 0x40 MLOAD SWAP1 DUP2 ADD PUSH1 0x40 MSTORE DUP1 SWAP3 SWAP2 SWAP1 DUP2 DUP2 MSTORE PUSH1 0x20 ADD DUP3 DUP1 SLOAD PUSH2 0x38D SWAP1 PUSH2 0x1768 JUMP JUMPDEST DUP1 ISZERO PUSH2 0x3D8 JUMPI DUP1 PUSH1 0x1F LT PUSH2 0x3AF JUMPI PUSH2 0x100 DUP1 DUP4 SLOAD DIV MUL DUP4 MSTORE SWAP2 PUSH1 0x20 ADD SWAP2 PUSH2 0x3D8 JUMP JUMPDEST DUP3 ADD SWAP2 SWAP1 PUSH0 MSTORE PUSH1 0x20 PUSH0 KECCAK256 SWAP1 JUMPDEST DUP2 SLOAD DUP2 MSTORE SWAP1 PUSH1 0x1 ADD SWAP1 PUSH1 0x20 ADD DUP1 DUP4 GT PUSH2 0x3BB JUMPI DUP3 SWAP1 SUB PUSH1 0x1F AND DUP3 ADD SWAP2 JUMPDEST POP POP POP POP POP SWAP1 POP DUP3 PUSH1 0x3 DUP3 PUSH1 0x40 MLOAD PUSH2 0x3F0 SWAP2 SWAP1 PUSH2 0x17D2 JUMP JUMPDEST SWAP1 DUP2 MSTORE PUSH1 0x20 ADD PUSH1 0x40 MLOAD DUP1 SWAP2 SUB SWAP1 KECCAK256 PUSH0 ADD PUSH1 0x3 DUP4 PUSH1 0x40 MLOAD PUSH2 0x410 SWAP2 SWAP1 PUSH2 0x17D2 JUMP JUMPDEST SWAP1 DUP2 MSTORE PUSH1 0x20 ADD PUSH1 0x40 MLOAD DUP1 SWAP2 SUB SWAP1 KECCAK256 PUSH1 0x2 ADD PUSH1 0x3 DUP5 PUSH1 0x40 MLOAD PUSH2 0x431 SWAP2 SWAP1 PUSH2 0x17D2 JUMP JUMPDEST SWAP1 DUP2 MSTORE PUSH1 0x20 ADD PUSH1 0x40 MLOAD DUP1 SWAP2 SUB SWAP1 KECCAK256 PUSH1 0x3 ADD PUSH1 0x3 DUP6 PUSH1 0x40 MLOAD PUSH2 0x452 SWAP2 SWAP1 PUSH2 0x17D2 JUMP JUMPDEST SWAP1 DUP2 MSTORE PUSH1 0x20 ADD PUSH1 0x40 MLOAD DUP1 SWAP2 SUB SWAP1 KECCAK256 PUSH1 0x4 ADD PUSH1 0x3 DUP7 PUSH1 0x40 MLOAD PUSH2 0x473 SWAP2 SWAP1 PUSH2 0x17D2 JUMP JUMPDEST SWAP1 DUP2 MSTORE PUSH1 0x20 ADD PUSH1 0x40 MLOAD DUP1 SWAP2 SUB SWAP1 KECCAK256 PUSH1 0x5 ADD PUSH1 0x3 DUP8 PUSH1 0x40 MLOAD PUSH2 0x494 SWAP2 SWAP1 PUSH2 0x17D2 JUMP JUMPDEST SWAP1 DUP2 MSTORE PUSH1 0x20 ADD PUSH1 0x40 MLOAD DUP1 SWAP2 SUB SWAP1 KECCAK256 PUSH1 0x6 ADD PUSH1 0x40 MLOAD PUSH1 0x20 ADD PUSH2 0x4BB SWAP8 SWAP7 SWAP6 SWAP5 SWAP4 SWAP3 SWAP2 SWAP1 PUSH2 0x1984 JUMP JUMPDEST PUSH1 0x40 MLOAD PUSH1 0x20 DUP2 DUP4 SUB SUB DUP2 MSTORE SWAP1 PUSH1 0x40 MSTORE SWAP3 POP POP DUP1 DUP1 PUSH1 0x1 ADD SWAP2 POP POP PUSH2 0x32C JUMP JUMPDEST POP DUP1 SWAP2 POP POP SWAP1 JUMP JUMPDEST PUSH1 0x1 PUSH0 SWAP1 SLOAD SWAP1 PUSH2 0x100 EXP SWAP1 DIV PUSH20 0xFFFFFFFFFFFFFFFFFFFFFFFFFFFFFFFFFFFFFFFF AND PUSH20 0xFFFFFFFFFFFFFFFFFFFFFFFFFFFFFFFFFFFFFFFF AND PUSH2 0x8FC PUSH7 0x2386F26FC10000 SWAP1 DUP2 ISZERO MUL SWAP1 PUSH1 0x40 MLOAD PUSH0 PUSH1 0x40 MLOAD DUP1 DUP4 SUB DUP2 DUP6 DUP9 DUP9 CALL SWAP4 POP POP POP POP ISZERO DUP1 ISZERO PUSH2 0x54D JUMPI RETURNDATASIZE PUSH0 DUP1 RETURNDATACOPY RETURNDATASIZE PUSH0 REVERT JUMPDEST POP PUSH1 0x40 MLOAD DUP1 PUSH1 0xE0 ADD PUSH1 0x40 MSTORE DUP1 DUP13 DUP13 DUP1 DUP1 PUSH1 0x1F ADD PUSH1 0x20 DUP1 SWAP2 DIV MUL PUSH1 0x20 ADD PUSH1 0x40 MLOAD SWAP1 DUP2 ADD PUSH1 0x40 MSTORE DUP1 SWAP4 SWAP3 SWAP2 SWAP1 DUP2 DUP2 MSTORE PUSH1 0x20 ADD DUP4 DUP4 DUP1 DUP3 DUP5 CALLDATACOPY PUSH0 DUP2 DUP5 ADD MSTORE PUSH1 0x1F NOT PUSH1 0x1F DUP3 ADD AND SWAP1 POP DUP1 DUP4 ADD SWAP3 POP POP POP POP POP POP POP DUP2 MSTORE PUSH1 0x20 ADD DUP11 PUSH20 0xFFFFFFFFFFFFFFFFFFFFFFFFFFFFFFFFFFFFFFFF AND DUP2 MSTORE PUSH1 0x20 ADD DUP10 DUP10 DUP1 DUP1 PUSH1 0x1F ADD PUSH1 0x20 DUP1 SWAP2 DIV MUL PUSH1 0x20 ADD PUSH1 0x40 MLOAD SWAP1 DUP2 ADD PUSH1 0x40 MSTORE DUP1 SWAP4 SWAP3 SWAP2 SWAP1 DUP2 DUP2 MSTORE PUSH1 0x20 ADD DUP4 DUP4 DUP1 DUP3 DUP5 CALLDATACOPY PUSH0 DUP2 DUP5 ADD MSTORE PUSH1 0x1F NOT PUSH1 0x1F DUP3 ADD AND SWAP1 POP DUP1 DUP4 ADD SWAP3 POP POP POP POP POP POP POP DUP2 MSTORE PUSH1 0x20 ADD DUP8 DUP8 DUP1 DUP1 PUSH1 0x1F ADD PUSH1 0x20 DUP1 SWAP2 DIV MUL PUSH1 0x20 ADD PUSH1 0x40 MLOAD SWAP1 DUP2 ADD PUSH1 0x40 MSTORE DUP1 SWAP4 SWAP3 SWAP2 SWAP1 DUP2 DUP2 MSTORE PUSH1 0x20 ADD DUP4 DUP4 DUP1 DUP3 DUP5 CALLDATACOPY PUSH0 DUP2 DUP5 ADD MSTORE PUSH1 0x1F NOT PUSH1 0x1F DUP3 ADD AND SWAP1 POP DUP1 DUP4 ADD SWAP3 POP POP POP POP POP POP POP DUP2 MSTORE PUSH1 0x20 ADD DUP6 DUP6 DUP1 DUP1 PUSH1 0x1F ADD PUSH1 0x20 DUP1 SWAP2 DIV MUL PUSH1 0x20 ADD PUSH1 0x40 MLOAD SWAP1 DUP2 ADD PUSH1 0x40 MSTORE DUP1 SWAP4 SWAP3 SWAP2 SWAP1 DUP2 DUP2 MSTORE PUSH1 0x20 ADD DUP4 DUP4 DUP1 DUP3 DUP5 CALLDATACOPY PUSH0 DUP2 DUP5 ADD MSTORE PUSH1 0x1F NOT PUSH1 0x1F DUP3 ADD AND SWAP1 POP DUP1 DUP4 ADD SWAP3 POP POP POP POP POP POP POP DUP2 MSTORE PUSH1 0x20 ADD DUP4 DUP4 DUP1 DUP1 PUSH1 0x1F ADD PUSH1 0x20 DUP1 SWAP2 DIV MUL PUSH1 0x20 ADD PUSH1 0x40 MLOAD SWAP1 DUP2 ADD PUSH1 0x40 MSTORE DUP1 SWAP4 SWAP3 SWAP2 SWAP1 DUP2 DUP2 MSTORE PUSH1 0x20 ADD DUP4 DUP4 DUP1 DUP3 DUP5 CALLDATACOPY PUSH0 DUP2 DUP5 ADD MSTORE PUSH1 0x1F NOT PUSH1 0x1F DUP3 ADD AND SWAP1 POP DUP1 DUP4 ADD SWAP3 POP POP POP POP POP POP POP DUP2 MSTORE PUSH1 0x20 ADD PUSH1 0x40 MLOAD DUP1 PUSH1 0x40 ADD PUSH1 0x40 MSTORE DUP1 PUSH1 0x9 DUP2 MSTORE PUSH1 0x20 ADD PUSH32 0x5075726368617365640000000000000000000000000000000000000000000000 DUP2 MSTORE POP DUP2 MSTORE POP PUSH1 0x3 DUP13 DUP13 PUSH1 0x40 MLOAD PUSH2 0x72D SWAP3 SWAP2 SWAP1 PUSH2 0x1A75 JUMP JUMPDEST SWAP1 DUP2 MSTORE PUSH1 0x20 ADD PUSH1 0x40 MLOAD DUP1 SWAP2 SUB SWAP1 KECCAK256 PUSH0 DUP3 ADD MLOAD DUP2 PUSH0 ADD SWAP1 DUP2 PUSH2 0x74E SWAP2 SWAP1 PUSH2 0x1C18 JUMP JUMPDEST POP PUSH1 0x20 DUP3 ADD MLOAD DUP2 PUSH1 0x1 ADD PUSH0 PUSH2 0x100 EXP DUP2 SLOAD DUP2 PUSH20 0xFFFFFFFFFFFFFFFFFFFFFFFFFFFFFFFFFFFFFFFF MUL NOT AND SWAP1 DUP4 PUSH20 0xFFFFFFFFFFFFFFFFFFFFFFFFFFFFFFFFFFFFFFFF AND MUL OR SWAP1 SSTORE POP PUSH1 0x40 DUP3 ADD MLOAD DUP2 PUSH1 0x2 ADD SWAP1 DUP2 PUSH2 0x7AA SWAP2 SWAP1 PUSH2 0x1C18 JUMP JUMPDEST POP PUSH1 0x60 DUP3 ADD MLOAD DUP2 PUSH1 0x3 ADD SWAP1 DUP2 PUSH2 0x7C0 SWAP2 SWAP1 PUSH2 0x1C18 JUMP JUMPDEST POP PUSH1 0x80 DUP3 ADD MLOAD DUP2 PUSH1 0x4 ADD SWAP1 DUP2 PUSH2 0x7D6 SWAP2 SWAP1 PUSH2 0x1C18 JUMP JUMPDEST POP PUSH1 0xA0 DUP3 ADD MLOAD DUP2 PUSH1 0x5 ADD SWAP1 DUP2 PUSH2 0x7EC SWAP2 SWAP1 PUSH2 0x1C18 JUMP JUMPDEST POP PUSH1 0xC0 DUP3 ADD MLOAD DUP2 PUSH1 0x6 ADD SWAP1 DUP2 PUSH2 0x802 SWAP2 SWAP1 PUSH2 0x1C18 JUMP JUMPDEST POP SWAP1 POP POP PUSH1 0x2 DUP12 DUP12 SWAP1 SWAP2 DUP1 PUSH1 0x1 DUP2 SLOAD ADD DUP1 DUP3 SSTORE DUP1 SWAP2 POP POP PUSH1 0x1 SWAP1 SUB SWAP1 PUSH0 MSTORE PUSH1 0x20 PUSH0 KECCAK256 ADD PUSH0 SWAP1 SWAP2 SWAP3 SWAP1 SWAP2 SWAP3 SWAP1 SWAP2 SWAP3 SWAP1 SWAP2 SWAP3 POP SWAP2 DUP3 PUSH2 0x840 SWAP3 SWAP2 SWAP1 PUSH2 0x1CF1 JUMP JUMPDEST POP POP POP POP POP POP POP POP POP POP POP POP JUMP JUMPDEST PUSH1 0x3 DUP2 DUP1 MLOAD PUSH1 0x20 DUP2 ADD DUP3 ADD DUP1 MLOAD DUP5 DUP3 MSTORE PUSH1 0x20 DUP4 ADD PUSH1 0x20 DUP6 ADD KECCAK256 DUP2 DUP4 MSTORE DUP1 SWAP6 POP POP POP POP POP POP PUSH0 SWAP2 POP SWAP1 POP DUP1 PUSH0 ADD DUP1 SLOAD PUSH2 0x885 SWAP1 PUSH2 0x1768 JUMP JUMPDEST DUP1 PUSH1 0x1F ADD PUSH1 0x20 DUP1 SWAP2 DIV MUL PUSH1 0x20 ADD PUSH1 0x40 MLOAD SWAP1 DUP2 ADD PUSH1 0x40 MSTORE DUP1 SWAP3 SWAP2 SWAP1 DUP2 DUP2 MSTORE PUSH1 0x20 ADD DUP3 DUP1 SLOAD PUSH2 0x8B1 SWAP1 PUSH2 0x1768 JUMP JUMPDEST DUP1 ISZERO PUSH2 0x8FC JUMPI DUP1 PUSH1 0x1F LT PUSH2 0x8D3 JUMPI PUSH2 0x100 DUP1 DUP4 SLOAD DIV MUL DUP4 MSTORE SWAP2 PUSH1 0x20 ADD SWAP2 PUSH2 0x8FC JUMP JUMPDEST DUP3 ADD SWAP2 SWAP1 PUSH0 MSTORE PUSH1 0x20 PUSH0 KECCAK256 SWAP1 JUMPDEST DUP2 SLOAD DUP2 MSTORE SWAP1 PUSH1 0x1 ADD SWAP1 PUSH1 0x20 ADD DUP1 DUP4 GT PUSH2 0x8DF JUMPI DUP3 SWAP1 SUB PUSH1 0x1F AND DUP3 ADD SWAP2 JUMPDEST POP POP POP POP POP SWAP1 DUP1 PUSH1 0x1 ADD PUSH0 SWAP1 SLOAD SWAP1 PUSH2 0x100 EXP SWAP1 DIV PUSH20 0xFFFFFFFFFFFFFFFFFFFFFFFFFFFFFFFFFFFFFFFF AND SWAP1 DUP1 PUSH1 0x2 ADD DUP1 SLOAD PUSH2 0x936 SWAP1 PUSH2 0x1768 JUMP JUMPDEST DUP1 PUSH1 0x1F ADD PUSH1 0x20 DUP1 SWAP2 DIV MUL PUSH1 0x20 ADD PUSH1 0x40 MLOAD SWAP1 DUP2 ADD PUSH1 0x40 MSTORE DUP1 SWAP3 SWAP2 SWAP1 DUP2 DUP2 MSTORE PUSH1 0x20 ADD DUP3 DUP1 SLOAD PUSH2 0x962 SWAP1 PUSH2 0x1768 JUMP JUMPDEST DUP1 ISZERO PUSH2 0x9AD JUMPI DUP1 PUSH1 0x1F LT PUSH2 0x984 JUMPI PUSH2 0x100 DUP1 DUP4 SLOAD DIV MUL DUP4 MSTORE SWAP2 PUSH1 0x20 ADD SWAP2 PUSH2 0x9AD JUMP JUMPDEST DUP3 ADD SWAP2 SWAP1 PUSH0 MSTORE PUSH1 0x20 PUSH0 KECCAK256 SWAP1 JUMPDEST DUP2 SLOAD DUP2 MSTORE SWAP1 PUSH1 0x1 ADD SWAP1 PUSH1 0x20 ADD DUP1 DUP4 GT PUSH2 0x990 JUMPI DUP3 SWAP1 SUB PUSH1 0x1F AND DUP3 ADD SWAP2 JUMPDEST POP POP POP POP POP SWAP1 DUP1 PUSH1 0x3 ADD DUP1 SLOAD PUSH2 0x9C2 SWAP1 PUSH2 0x1768 JUMP JUMPDEST DUP1 PUSH1 0x1F ADD PUSH1 0x20 DUP1 SWAP2 DIV MUL PUSH1 0x20 ADD PUSH1 0x40 MLOAD SWAP1 DUP2 ADD PUSH1 0x40 MSTORE DUP1 SWAP3 SWAP2 SWAP1 DUP2 DUP2 MSTORE PUSH1 0x20 ADD DUP3 DUP1 SLOAD PUSH2 0x9EE SWAP1 PUSH2 0x1768 JUMP JUMPDEST DUP1 ISZERO PUSH2 0xA39 JUMPI DUP1 PUSH1 0x1F LT PUSH2 0xA10 JUMPI PUSH2 0x100 DUP1 DUP4 SLOAD DIV MUL DUP4 MSTORE SWAP2 PUSH1 0x20 ADD SWAP2 PUSH2 0xA39 JUMP JUMPDEST DUP3 ADD SWAP2 SWAP1 PUSH0 MSTORE PUSH1 0x20 PUSH0 KECCAK256 SWAP1 JUMPDEST DUP2 SLOAD DUP2 MSTORE SWAP1 PUSH1 0x1 ADD SWAP1 PUSH1 0x20 ADD DUP1 DUP4 GT PUSH2 0xA1C JUMPI DUP3 SWAP1 SUB PUSH1 0x1F AND DUP3 ADD SWAP2 JUMPDEST POP POP POP POP POP SWAP1 DUP1 PUSH1 0x4 ADD DUP1 SLOAD PUSH2 0xA4E SWAP1 PUSH2 0x1768 JUMP JUMPDEST DUP1 PUSH1 0x1F ADD PUSH1 0x20 DUP1 SWAP2 DIV MUL PUSH1 0x20 ADD PUSH1 0x40 MLOAD SWAP1 DUP2 ADD PUSH1 0x40 MSTORE DUP1 SWAP3 SWAP2 SWAP1 DUP2 DUP2 MSTORE PUSH1 0x20 ADD DUP3 DUP1 SLOAD PUSH2 0xA7A SWAP1 PUSH2 0x1768 JUMP JUMPDEST DUP1 ISZERO PUSH2 0xAC5 JUMPI DUP1 PUSH1 0x1F LT PUSH2 0xA9C JUMPI PUSH2 0x100 DUP1 DUP4 SLOAD DIV MUL DUP4 MSTORE SWAP2 PUSH1 0x20 ADD SWAP2 PUSH2 0xAC5 JUMP JUMPDEST DUP3 ADD SWAP2 SWAP1 PUSH0 MSTORE PUSH1 0x20 PUSH0 KECCAK256 SWAP1 JUMPDEST DUP2 SLOAD DUP2 MSTORE SWAP1 PUSH1 0x1 ADD SWAP1 PUSH1 0x20 ADD DUP1 DUP4 GT PUSH2 0xAA8 JUMPI DUP3 SWAP1 SUB PUSH1 0x1F AND DUP3 ADD SWAP2 JUMPDEST POP POP POP POP POP SWAP1 DUP1 PUSH1 0x5 ADD DUP1 SLOAD PUSH2 0xADA SWAP1 PUSH2 0x1768 JUMP JUMPDEST DUP1 PUSH1 0x1F ADD PUSH1 0x20 DUP1 SWAP2 DIV MUL PUSH1 0x20 ADD PUSH1 0x40 MLOAD SWAP1 DUP2 ADD PUSH1 0x40 MSTORE DUP1 SWAP3 SWAP2 SWAP1 DUP2 DUP2 MSTORE PUSH1 0x20 ADD DUP3 DUP1 SLOAD PUSH2 0xB06 SWAP1 PUSH2 0x1768 JUMP JUMPDEST DUP1 ISZERO PUSH2 0xB51 JUMPI DUP1 PUSH1 0x1F LT PUSH2 0xB28 JUMPI PUSH2 0x100 DUP1 DUP4 SLOAD DIV MUL DUP4 MSTORE SWAP2 PUSH1 0x20 ADD SWAP2 PUSH2 0xB51 JUMP JUMPDEST DUP3 ADD SWAP2 SWAP1 PUSH0 MSTORE PUSH1 0x20 PUSH0 KECCAK256 SWAP1 JUMPDEST DUP2 SLOAD DUP2 MSTORE SWAP1 PUSH1 0x1 ADD SWAP1 PUSH1 0x20 ADD DUP1 DUP4 GT PUSH2 0xB34 JUMPI DUP3 SWAP1 SUB PUSH1 0x1F AND DUP3 ADD SWAP2 JUMPDEST POP POP POP POP POP SWAP1 DUP1 PUSH1 0x6 ADD DUP1 SLOAD PUSH2 0xB66 SWAP1 PUSH2 0x1768 JUMP JUMPDEST DUP1 PUSH1 0x1F ADD PUSH1 0x20 DUP1 SWAP2 DIV MUL PUSH1 0x20 ADD PUSH1 0x40 MLOAD SWAP1 DUP2 ADD PUSH1 0x40 MSTORE DUP1 SWAP3 SWAP2 SWAP1 DUP2 DUP2 MSTORE PUSH1 0x20 ADD DUP3 DUP1 SLOAD PUSH2 0xB92 SWAP1 PUSH2 0x1768 JUMP JUMPDEST DUP1 ISZERO PUSH2 0xBDD JUMPI DUP1 PUSH1 0x1F LT PUSH2 0xBB4 JUMPI PUSH2 0x100 DUP1 DUP4 SLOAD DIV MUL DUP4 MSTORE SWAP2 PUSH1 0x20 ADD SWAP2 PUSH2 0xBDD JUMP JUMPDEST DUP3 ADD SWAP2 SWAP1 PUSH0 MSTORE PUSH1 0x20 PUSH0 KECCAK256 SWAP1 JUMPDEST DUP2 SLOAD DUP2 MSTORE SWAP1 PUSH1 0x1 ADD SWAP1 PUSH1 0x20 ADD DUP1 DUP4 GT PUSH2 0xBC0 JUMPI DUP3 SWAP1 SUB PUSH1 0x1F AND DUP3 ADD SWAP2 JUMPDEST POP POP POP POP POP SWAP1 POP DUP8 JUMP JUMPDEST PUSH1 0x1 PUSH0 SWAP1 SLOAD SWAP1 PUSH2 0x100 EXP SWAP1 DIV PUSH20 0xFFFFFFFFFFFFFFFFFFFFFFFFFFFFFFFFFFFFFFFF AND DUP2 JUMP JUMPDEST PUSH0 PUSH1 0x3 DUP3 PUSH1 0x40 MLOAD PUSH2 0xC1D SWAP2 SWAP1 PUSH2 0x17D2 JUMP JUMPDEST SWAP1 DUP2 MSTORE PUSH1 0x20 ADD PUSH1 0x40 MLOAD DUP1 SWAP2 SUB SWAP1 KECCAK256 PUSH1 0x1 ADD PUSH0 SWAP1 SLOAD SWAP1 PUSH2 0x100 EXP SWAP1 DIV PUSH20 0xFFFFFFFFFFFFFFFFFFFFFFFFFFFFFFFFFFFFFFFF AND PUSH20 0xFFFFFFFFFFFFFFFFFFFFFFFFFFFFFFFFFFFFFFFF AND BALANCE SWAP1 POP SWAP2 SWAP1 POP JUMP JUMPDEST PUSH0 DUP1 SLOAD SWAP1 PUSH2 0x100 EXP SWAP1 DIV PUSH20 0xFFFFFFFFFFFFFFFFFFFFFFFFFFFFFFFFFFFFFFFF AND DUP2 JUMP JUMPDEST PUSH1 0x2 DUP2 DUP2 SLOAD DUP2 LT PUSH2 0xC9E JUMPI PUSH0 DUP1 REVERT JUMPDEST SWAP1 PUSH0 MSTORE PUSH1 0x20 PUSH0 KECCAK256 ADD PUSH0 SWAP2 POP SWAP1 POP DUP1 SLOAD PUSH2 0xCB6 SWAP1 PUSH2 0x1768 JUMP JUMPDEST DUP1 PUSH1 0x1F ADD PUSH1 0x20 DUP1 SWAP2 DIV MUL PUSH1 0x20 ADD PUSH1 0x40 MLOAD SWAP1 DUP2 ADD PUSH1 0x40 MSTORE DUP1 SWAP3 SWAP2 SWAP1 DUP2 DUP2 MSTORE PUSH1 0x20 ADD DUP3 DUP1 SLOAD PUSH2 0xCE2 SWAP1 PUSH2 0x1768 JUMP JUMPDEST DUP1 ISZERO PUSH2 0xD2D JUMPI DUP1 PUSH1 0x1F LT PUSH2 0xD04 JUMPI PUSH2 0x100 DUP1 DUP4 SLOAD DIV MUL DUP4 MSTORE SWAP2 PUSH1 0x20 ADD SWAP2 PUSH2 0xD2D JUMP JUMPDEST DUP3 ADD SWAP2 SWAP1 PUSH0 MSTORE PUSH1 0x20 PUSH0 KECCAK256 SWAP1 JUMPDEST DUP2 SLOAD DUP2 MSTORE SWAP1 PUSH1 0x1 ADD SWAP1 PUSH1 0x20 ADD DUP1 DUP4 GT PUSH2 0xD10 JUMPI DUP3 SWAP1 SUB PUSH1 0x1F AND DUP3 ADD SWAP2 JUMPDEST POP POP POP POP POP DUP2 JUMP JUMPDEST PUSH1 0x60 PUSH1 0x1 PUSH0 SWAP1 SLOAD SWAP1 PUSH2 0x100 EXP SWAP1 DIV PUSH20 0xFFFFFFFFFFFFFFFFFFFFFFFFFFFFFFFFFFFFFFFF AND PUSH20 0xFFFFFFFFFFFFFFFFFFFFFFFFFFFFFFFFFFFFFFFF AND CALLER PUSH20 0xFFFFFFFFFFFFFFFFFFFFFFFFFFFFFFFFFFFFFFFF AND EQ PUSH2 0xD8F JUMPI PUSH0 DUP1 REVERT JUMPDEST PUSH0 JUMPDEST DUP3 MLOAD DUP2 LT ISZERO PUSH2 0xECA JUMPI PUSH1 0x3 DUP4 DUP3 DUP2 MLOAD DUP2 LT PUSH2 0xDAF JUMPI PUSH2 0xDAE PUSH2 0x170E JUMP JUMPDEST JUMPDEST PUSH1 0x20 MUL PUSH1 0x20 ADD ADD MLOAD PUSH1 0x40 MLOAD PUSH2 0xDC4 SWAP2 SWAP1 PUSH2 0x17D2 JUMP JUMPDEST SWAP1 DUP2 MSTORE PUSH1 0x20 ADD PUSH1 0x40 MLOAD DUP1 SWAP2 SUB SWAP1 KECCAK256 PUSH1 0x1 ADD PUSH0 SWAP1 SLOAD SWAP1 PUSH2 0x100 EXP SWAP1 DIV PUSH20 0xFFFFFFFFFFFFFFFFFFFFFFFFFFFFFFFFFFFFFFFF AND PUSH20 0xFFFFFFFFFFFFFFFFFFFFFFFFFFFFFFFFFFFFFFFF AND PUSH2 0x8FC PUSH7 0x470DE4DF820000 SWAP1 DUP2 ISZERO MUL SWAP1 PUSH1 0x40 MLOAD PUSH0 PUSH1 0x40 MLOAD DUP1 DUP4 SUB DUP2 DUP6 DUP9 DUP9 CALL SWAP4 POP POP POP POP ISZERO DUP1 ISZERO PUSH2 0xE3E JUMPI RETURNDATASIZE PUSH0 DUP1 RETURNDATACOPY RETURNDATASIZE PUSH0 REVERT JUMPDEST POP PUSH1 0x40 MLOAD DUP1 PUSH1 0x40 ADD PUSH1 0x40 MSTORE DUP1 PUSH1 0x7 DUP2 MSTORE PUSH1 0x20 ADD PUSH32 0x436C61696D656400000000000000000000000000000000000000000000000000 DUP2 MSTORE POP PUSH1 0x3 DUP5 DUP4 DUP2 MLOAD DUP2 LT PUSH2 0xE8A JUMPI PUSH2 0xE89 PUSH2 0x170E JUMP JUMPDEST JUMPDEST PUSH1 0x20 MUL PUSH1 0x20 ADD ADD MLOAD PUSH1 0x40 MLOAD PUSH2 0xE9F SWAP2 SWAP1 PUSH2 0x17D2 JUMP JUMPDEST SWAP1 DUP2 MSTORE PUSH1 0x20 ADD PUSH1 0x40 MLOAD DUP1 SWAP2 SUB SWAP1 KECCAK256 PUSH1 0x6 ADD SWAP1 DUP2 PUSH2 0xEBC SWAP2 SWAP1 PUSH2 0x1C18 JUMP JUMPDEST POP DUP1 DUP1 PUSH1 0x1 ADD SWAP2 POP POP PUSH2 0xD91 JUMP JUMPDEST POP PUSH1 0x40 MLOAD DUP1 PUSH1 0x40 ADD PUSH1 0x40 MSTORE DUP1 PUSH1 0x14 DUP2 MSTORE PUSH1 0x20 ADD PUSH32 0x5061796D656E7473207375636365737366756C21000000000000000000000000 DUP2 MSTORE POP SWAP1 POP SWAP2 SWAP1 POP JUMP JUMPDEST PUSH1 0x60 PUSH1 0x3 DUP3 PUSH1 0x40 MLOAD PUSH2 0xF1A SWAP2 SWAP1 PUSH2 0x17D2 JUMP JUMPDEST SWAP1 DUP2 MSTORE PUSH1 0x20 ADD PUSH1 0x40 MLOAD DUP1 SWAP2 SUB SWAP1 KECCAK256 PUSH0 ADD PUSH1 0x3 DUP4 PUSH1 0x40 MLOAD PUSH2 0xF3A SWAP2 SWAP1 PUSH2 0x17D2 JUMP JUMPDEST SWAP1 DUP2 MSTORE PUSH1 0x20 ADD PUSH1 0x40 MLOAD DUP1 SWAP2 SUB SWAP1 KECCAK256 PUSH1 0x2 ADD PUSH1 0x3 DUP5 PUSH1 0x40 MLOAD PUSH2 0xF5B SWAP2 SWAP1 PUSH2 0x17D2 JUMP JUMPDEST SWAP1 DUP2 MSTORE PUSH1 0x20 ADD PUSH1 0x40 MLOAD DUP1 SWAP2 SUB SWAP1 KECCAK256 PUSH1 0x3 ADD PUSH1 0x3 DUP6 PUSH1 0x40 MLOAD PUSH2 0xF7C SWAP2 SWAP1 PUSH2 0x17D2 JUMP JUMPDEST SWAP1 DUP2 MSTORE PUSH1 0x20 ADD PUSH1 0x40 MLOAD DUP1 SWAP2 SUB SWAP1 KECCAK256 PUSH1 0x4 ADD PUSH1 0x3 DUP7 PUSH1 0x40 MLOAD PUSH2 0xF9D SWAP2 SWAP1 PUSH2 0x17D2 JUMP JUMPDEST SWAP1 DUP2 MSTORE PUSH1 0x20 ADD PUSH1 0x40 MLOAD DUP1 SWAP2 SUB SWAP1 KECCAK256 PUSH1 0x5 ADD PUSH1 0x3 DUP8 PUSH1 0x40 MLOAD PUSH2 0xFBE SWAP2 SWAP1 PUSH2 0x17D2 JUMP JUMPDEST SWAP1 DUP2 MSTORE PUSH1 0x20 ADD PUSH1 0x40 MLOAD DUP1 SWAP2 SUB SWAP1 KECCAK256 PUSH1 0x6 ADD PUSH1 0x40 MLOAD PUSH1 0x20 ADD PUSH2 0xFE4 SWAP7 SWAP6 SWAP5 SWAP4 SWAP3 SWAP2 SWAP1 PUSH2 0x1EA2 JUMP JUMPDEST PUSH1 0x40 MLOAD PUSH1 0x20 DUP2 DUP4 SUB SUB DUP2 MSTORE SWAP1 PUSH1 0x40 MSTORE SWAP1 POP SWAP2 SWAP1 POP JUMP JUMPDEST PUSH1 0x60 PUSH1 0x40 MLOAD DUP1 PUSH1 0x80 ADD PUSH1 0x40 MSTORE DUP1 PUSH1 0x4C DUP2 MSTORE PUSH1 0x20 ADD PUSH2 0x1F54 PUSH1 0x4C SWAP2 CODECOPY SWAP1 POP SWAP1 JUMP JUMPDEST PUSH1 0x60 PUSH1 0x1 PUSH0 SWAP1 SLOAD SWAP1 PUSH2 0x100 EXP SWAP1 DIV PUSH20 0xFFFFFFFFFFFFFFFFFFFFFFFFFFFFFFFFFFFFFFFF AND PUSH20 0xFFFFFFFFFFFFFFFFFFFFFFFFFFFFFFFFFFFFFFFF AND CALLER PUSH20 0xFFFFFFFFFFFFFFFFFFFFFFFFFFFFFFFFFFFFFFFF AND EQ PUSH2 0x1074 JUMPI PUSH0 DUP1 REVERT JUMPDEST PUSH1 0x40 MLOAD DUP1 PUSH1 0x40 ADD PUSH1 0x40 MSTORE DUP1 PUSH1 0x9 DUP2 MSTORE PUSH1 0x20 ADD PUSH32 0x5665726966696564210000000000000000000000000000000000000000000000 DUP2 MSTORE POP SWAP1 POP SWAP1 JUMP JUMPDEST PUSH0 DUP2 MLOAD SWAP1 POP SWAP2 SWAP1 POP JUMP JUMPDEST PUSH0 DUP3 DUP3 MSTORE PUSH1 0x20 DUP3 ADD SWAP1 POP SWAP3 SWAP2 POP POP JUMP JUMPDEST DUP3 DUP2 DUP4 MCOPY PUSH0 DUP4 DUP4 ADD MSTORE POP POP POP JUMP JUMPDEST PUSH0 PUSH1 0x1F NOT PUSH1 0x1F DUP4 ADD AND SWAP1 POP SWAP2 SWAP1 POP JUMP JUMPDEST PUSH0 PUSH2 0x10F1 DUP3 PUSH2 0x10AF JUMP JUMPDEST PUSH2 0x10FB DUP2 DUP6 PUSH2 0x10B9 JUMP JUMPDEST SWAP4 POP PUSH2 0x110B DUP2 DUP6 PUSH1 0x20 DUP7 ADD PUSH2 0x10C9 JUMP JUMPDEST PUSH2 0x1114 DUP2 PUSH2 0x10D7 JUMP JUMPDEST DUP5 ADD SWAP2 POP POP SWAP3 SWAP2 POP POP JUMP JUMPDEST PUSH0 PUSH1 0x20 DUP3 ADD SWAP1 POP DUP2 DUP2 SUB PUSH0 DUP4 ADD MSTORE PUSH2 0x1137 DUP2 DUP5 PUSH2 0x10E7 JUMP JUMPDEST SWAP1 POP SWAP3 SWAP2 POP POP JUMP JUMPDEST PUSH0 PUSH1 0x40 MLOAD SWAP1 POP SWAP1 JUMP JUMPDEST PUSH0 DUP1 REVERT JUMPDEST PUSH0 DUP1 REVERT JUMPDEST PUSH0 DUP1 REVERT JUMPDEST PUSH0 DUP1 REVERT JUMPDEST PUSH0 DUP1 REVERT JUMPDEST PUSH0 DUP1 DUP4 PUSH1 0x1F DUP5 ADD SLT PUSH2 0x1171 JUMPI PUSH2 0x1170 PUSH2 0x1150 JUMP JUMPDEST JUMPDEST DUP3 CALLDATALOAD SWAP1 POP PUSH8 0xFFFFFFFFFFFFFFFF DUP2 GT ISZERO PUSH2 0x118E JUMPI PUSH2 0x118D PUSH2 0x1154 JUMP JUMPDEST JUMPDEST PUSH1 0x20 DUP4 ADD SWAP2 POP DUP4 PUSH1 0x1 DUP3 MUL DUP4 ADD GT ISZERO PUSH2 0x11AA JUMPI PUSH2 0x11A9 PUSH2 0x1158 JUMP JUMPDEST JUMPDEST SWAP3 POP SWAP3 SWAP1 POP JUMP JUMPDEST PUSH0 PUSH20 0xFFFFFFFFFFFFFFFFFFFFFFFFFFFFFFFFFFFFFFFF DUP3 AND SWAP1 POP SWAP2 SWAP1 POP JUMP JUMPDEST PUSH0 PUSH2 0x11DA DUP3 PUSH2 0x11B1 JUMP JUMPDEST SWAP1 POP SWAP2 SWAP1 POP JUMP JUMPDEST PUSH2 0x11EA DUP2 PUSH2 0x11D0 JUMP JUMPDEST DUP2 EQ PUSH2 0x11F4 JUMPI PUSH0 DUP1 REVERT JUMPDEST POP JUMP JUMPDEST PUSH0 DUP2 CALLDATALOAD SWAP1 POP PUSH2 0x1205 DUP2 PUSH2 0x11E1 JUMP JUMPDEST SWAP3 SWAP2 POP POP JUMP JUMPDEST PUSH0 DUP1 PUSH0 DUP1 PUSH0 DUP1 PUSH0 DUP1 PUSH0 DUP1 PUSH0 PUSH1 0xC0 DUP13 DUP15 SUB SLT ISZERO PUSH2 0x122A JUMPI PUSH2 0x1229 PUSH2 0x1148 JUMP JUMPDEST JUMPDEST PUSH0 DUP13 ADD CALLDATALOAD PUSH8 0xFFFFFFFFFFFFFFFF DUP2 GT ISZERO PUSH2 0x1247 JUMPI PUSH2 0x1246 PUSH2 0x114C JUMP JUMPDEST JUMPDEST PUSH2 0x1253 DUP15 DUP3 DUP16 ADD PUSH2 0x115C JUMP JUMPDEST SWAP12 POP SWAP12 POP POP PUSH1 0x20 PUSH2 0x1266 DUP15 DUP3 DUP16 ADD PUSH2 0x11F7 JUMP JUMPDEST SWAP10 POP POP PUSH1 0x40 DUP13 ADD CALLDATALOAD PUSH8 0xFFFFFFFFFFFFFFFF DUP2 GT ISZERO PUSH2 0x1287 JUMPI PUSH2 0x1286 PUSH2 0x114C JUMP JUMPDEST JUMPDEST PUSH2 0x1293 DUP15 DUP3 DUP16 ADD PUSH2 0x115C JUMP JUMPDEST SWAP9 POP SWAP9 POP POP PUSH1 0x60 DUP13 ADD CALLDATALOAD PUSH8 0xFFFFFFFFFFFFFFFF DUP2 GT ISZERO PUSH2 0x12B6 JUMPI PUSH2 0x12B5 PUSH2 0x114C JUMP JUMPDEST JUMPDEST PUSH2 0x12C2 DUP15 DUP3 DUP16 ADD PUSH2 0x115C JUMP JUMPDEST SWAP7 POP SWAP7 POP POP PUSH1 0x80 DUP13 ADD CALLDATALOAD PUSH8 0xFFFFFFFFFFFFFFFF DUP2 GT ISZERO PUSH2 0x12E5 JUMPI PUSH2 0x12E4 PUSH2 0x114C JUMP JUMPDEST JUMPDEST PUSH2 0x12F1 DUP15 DUP3 DUP16 ADD PUSH2 0x115C JUMP JUMPDEST SWAP5 POP SWAP5 POP POP PUSH1 0xA0 DUP13 ADD CALLDATALOAD PUSH8 0xFFFFFFFFFFFFFFFF DUP2 GT ISZERO PUSH2 0x1314 JUMPI PUSH2 0x1313 PUSH2 0x114C JUMP JUMPDEST JUMPDEST PUSH2 0x1320 DUP15 DUP3 DUP16 ADD PUSH2 0x115C JUMP JUMPDEST SWAP3 POP SWAP3 POP POP SWAP3 SWAP6 SWAP9 SWAP12 POP SWAP3 SWAP6 SWAP9 SWAP12 SWAP1 SWAP4 SWAP7 SWAP10 POP JUMP JUMPDEST PUSH0 DUP1 REVERT JUMPDEST PUSH32 0x4E487B7100000000000000000000000000000000000000000000000000000000 PUSH0 MSTORE PUSH1 0x41 PUSH1 0x4 MSTORE PUSH1 0x24 PUSH0 REVERT JUMPDEST PUSH2 0x136F DUP3 PUSH2 0x10D7 JUMP JUMPDEST DUP2 ADD DUP2 DUP2 LT PUSH8 0xFFFFFFFFFFFFFFFF DUP3 GT OR ISZERO PUSH2 0x138E JUMPI PUSH2 0x138D PUSH2 0x1339 JUMP JUMPDEST JUMPDEST DUP1 PUSH1 0x40 MSTORE POP POP POP JUMP JUMPDEST PUSH0 PUSH2 0x13A0 PUSH2 0x113F JUMP JUMPDEST SWAP1 POP PUSH2 0x13AC DUP3 DUP3 PUSH2 0x1366 JUMP JUMPDEST SWAP2 SWAP1 POP JUMP JUMPDEST PUSH0 PUSH8 0xFFFFFFFFFFFFFFFF DUP3 GT ISZERO PUSH2 0x13CB JUMPI PUSH2 0x13CA PUSH2 0x1339 JUMP JUMPDEST JUMPDEST PUSH2 0x13D4 DUP3 PUSH2 0x10D7 JUMP JUMPDEST SWAP1 POP PUSH1 0x20 DUP2 ADD SWAP1 POP SWAP2 SWAP1 POP JUMP JUMPDEST DUP3 DUP2 DUP4 CALLDATACOPY PUSH0 DUP4 DUP4 ADD MSTORE POP POP POP JUMP JUMPDEST PUSH0 PUSH2 0x1401 PUSH2 0x13FC DUP5 PUSH2 0x13B1 JUMP JUMPDEST PUSH2 0x1397 JUMP JUMPDEST SWAP1 POP DUP3 DUP2 MSTORE PUSH1 0x20 DUP2 ADD DUP5 DUP5 DUP5 ADD GT ISZERO PUSH2 0x141D JUMPI PUSH2 0x141C PUSH2 0x1335 JUMP JUMPDEST JUMPDEST PUSH2 0x1428 DUP5 DUP3 DUP6 PUSH2 0x13E1 JUMP JUMPDEST POP SWAP4 SWAP3 POP POP POP JUMP JUMPDEST PUSH0 DUP3 PUSH1 0x1F DUP4 ADD SLT PUSH2 0x1444 JUMPI PUSH2 0x1443 PUSH2 0x1150 JUMP JUMPDEST JUMPDEST DUP2 CALLDATALOAD PUSH2 0x1454 DUP5 DUP3 PUSH1 0x20 DUP7 ADD PUSH2 0x13EF JUMP JUMPDEST SWAP2 POP POP SWAP3 SWAP2 POP POP JUMP JUMPDEST PUSH0 PUSH1 0x20 DUP3 DUP5 SUB SLT ISZERO PUSH2 0x1472 JUMPI PUSH2 0x1471 PUSH2 0x1148 JUMP JUMPDEST JUMPDEST PUSH0 DUP3 ADD CALLDATALOAD PUSH8 0xFFFFFFFFFFFFFFFF DUP2 GT ISZERO PUSH2 0x148F JUMPI PUSH2 0x148E PUSH2 0x114C JUMP JUMPDEST JUMPDEST PUSH2 0x149B DUP5 DUP3 DUP6 ADD PUSH2 0x1430 JUMP JUMPDEST SWAP2 POP POP SWAP3 SWAP2 POP POP JUMP JUMPDEST PUSH2 0x14AD DUP2 PUSH2 0x11D0 JUMP JUMPDEST DUP3 MSTORE POP POP JUMP JUMPDEST PUSH0 PUSH1 0xE0 DUP3 ADD SWAP1 POP DUP2 DUP2 SUB PUSH0 DUP4 ADD MSTORE PUSH2 0x14CB DUP2 DUP11 PUSH2 0x10E7 JUMP JUMPDEST SWAP1 POP PUSH2 0x14DA PUSH1 0x20 DUP4 ADD DUP10 PUSH2 0x14A4 JUMP JUMPDEST DUP2 DUP2 SUB PUSH1 0x40 DUP4 ADD MSTORE PUSH2 0x14EC DUP2 DUP9 PUSH2 0x10E7 JUMP JUMPDEST SWAP1 POP DUP2 DUP2 SUB PUSH1 0x60 DUP4 ADD MSTORE PUSH2 0x1500 DUP2 DUP8 PUSH2 0x10E7 JUMP JUMPDEST SWAP1 POP DUP2 DUP2 SUB PUSH1 0x80 DUP4 ADD MSTORE PUSH2 0x1514 DUP2 DUP7 PUSH2 0x10E7 JUMP JUMPDEST SWAP1 POP DUP2 DUP2 SUB PUSH1 0xA0 DUP4 ADD MSTORE PUSH2 0x1528 DUP2 DUP6 PUSH2 0x10E7 JUMP JUMPDEST SWAP1 POP DUP2 DUP2 SUB PUSH1 0xC0 DUP4 ADD MSTORE PUSH2 0x153C DUP2 DUP5 PUSH2 0x10E7 JUMP JUMPDEST SWAP1 POP SWAP9 SWAP8 POP POP POP POP POP POP POP POP JUMP JUMPDEST PUSH0 PUSH1 0x20 DUP3 ADD SWAP1 POP PUSH2 0x155D PUSH0 DUP4 ADD DUP5 PUSH2 0x14A4 JUMP JUMPDEST SWAP3 SWAP2 POP POP JUMP JUMPDEST PUSH0 DUP2 SWAP1 POP SWAP2 SWAP1 POP JUMP JUMPDEST PUSH2 0x1575 DUP2 PUSH2 0x1563 JUMP JUMPDEST DUP3 MSTORE POP POP JUMP JUMPDEST PUSH0 PUSH1 0x20 DUP3 ADD SWAP1 POP PUSH2 0x158E PUSH0 DUP4 ADD DUP5 PUSH2 0x156C JUMP JUMPDEST SWAP3 SWAP2 POP POP JUMP JUMPDEST PUSH2 0x159D DUP2 PUSH2 0x1563 JUMP JUMPDEST DUP2 EQ PUSH2 0x15A7 JUMPI PUSH0 DUP1 REVERT JUMPDEST POP JUMP JUMPDEST PUSH0 DUP2 CALLDATALOAD SWAP1 POP PUSH2 0x15B8 DUP2 PUSH2 0x1594 JUMP JUMPDEST SWAP3 SWAP2 POP POP JUMP JUMPDEST PUSH0 PUSH1 0x20 DUP3 DUP5 SUB SLT ISZERO PUSH2 0x15D3 JUMPI PUSH2 0x15D2 PUSH2 0x1148 JUMP JUMPDEST JUMPDEST PUSH0 PUSH2 0x15E0 DUP5 DUP3 DUP6 ADD PUSH2 0x15AA JUMP JUMPDEST SWAP2 POP POP SWAP3 SWAP2 POP POP JUMP JUMPDEST PUSH0 PUSH8 0xFFFFFFFFFFFFFFFF DUP3 GT ISZERO PUSH2 0x1603 JUMPI PUSH2 0x1602 PUSH2 0x1339 JUMP JUMPDEST JUMPDEST PUSH1 0x20 DUP3 MUL SWAP1 POP PUSH1 0x20 DUP2 ADD SWAP1 POP SWAP2 SWAP1 POP JUMP JUMPDEST PUSH0 PUSH2 0x1626 PUSH2 0x1621 DUP5 PUSH2 0x15E9 JUMP JUMPDEST PUSH2 0x1397 JUMP JUMPDEST SWAP1 POP DUP1 DUP4 DUP3 MSTORE PUSH1 0x20 DUP3 ADD SWAP1 POP PUSH1 0x20 DUP5 MUL DUP4 ADD DUP6 DUP2 GT ISZERO PUSH2 0x1649 JUMPI PUSH2 0x1648 PUSH2 0x1158 JUMP JUMPDEST JUMPDEST DUP4 JUMPDEST DUP2 DUP2 LT ISZERO PUSH2 0x1690 JUMPI DUP1 CALLDATALOAD PUSH8 0xFFFFFFFFFFFFFFFF DUP2 GT ISZERO PUSH2 0x166E JUMPI PUSH2 0x166D PUSH2 0x1150 JUMP JUMPDEST JUMPDEST DUP1 DUP7 ADD PUSH2 0x167B DUP10 DUP3 PUSH2 0x1430 JUMP JUMPDEST DUP6 MSTORE PUSH1 0x20 DUP6 ADD SWAP5 POP POP POP PUSH1 0x20 DUP2 ADD SWAP1 POP PUSH2 0x164B JUMP JUMPDEST POP POP POP SWAP4 SWAP3 POP POP POP JUMP JUMPDEST PUSH0 DUP3 PUSH1 0x1F DUP4 ADD SLT PUSH2 0x16AE JUMPI PUSH2 0x16AD PUSH2 0x1150 JUMP JUMPDEST JUMPDEST DUP2 CALLDATALOAD PUSH2 0x16BE DUP5 DUP3 PUSH1 0x20 DUP7 ADD PUSH2 0x1614 JUMP JUMPDEST SWAP2 POP POP SWAP3 SWAP2 POP POP JUMP JUMPDEST PUSH0 PUSH1 0x20 DUP3 DUP5 SUB SLT ISZERO PUSH2 0x16DC JUMPI PUSH2 0x16DB PUSH2 0x1148 JUMP JUMPDEST JUMPDEST PUSH0 DUP3 ADD CALLDATALOAD PUSH8 0xFFFFFFFFFFFFFFFF DUP2 GT ISZERO PUSH2 0x16F9 JUMPI PUSH2 0x16F8 PUSH2 0x114C JUMP JUMPDEST JUMPDEST PUSH2 0x1705 DUP5 DUP3 DUP6 ADD PUSH2 0x169A JUMP JUMPDEST SWAP2 POP POP SWAP3 SWAP2 POP POP JUMP JUMPDEST PUSH32 0x4E487B7100000000000000000000000000000000000000000000000000000000 PUSH0 MSTORE PUSH1 0x32 PUSH1 0x4 MSTORE PUSH1 0x24 PUSH0 REVERT JUMPDEST PUSH32 0x4E487B7100000000000000000000000000000000000000000000000000000000 PUSH0 MSTORE PUSH1 0x22 PUSH1 0x4 MSTORE PUSH1 0x24 PUSH0 REVERT JUMPDEST PUSH0 PUSH1 0x2 DUP3 DIV SWAP1 POP PUSH1 0x1 DUP3 AND DUP1 PUSH2 0x177F JUMPI PUSH1 0x7F DUP3 AND SWAP2 POP JUMPDEST PUSH1 0x20 DUP3 LT DUP2 SUB PUSH2 0x1792 JUMPI PUSH2 0x1791 PUSH2 0x173B JUMP JUMPDEST JUMPDEST POP SWAP2 SWAP1 POP JUMP JUMPDEST PUSH0 DUP2 SWAP1 POP SWAP3 SWAP2 POP POP JUMP JUMPDEST PUSH0 PUSH2 0x17AC DUP3 PUSH2 0x10AF JUMP JUMPDEST PUSH2 0x17B6 DUP2 DUP6 PUSH2 0x1798 JUMP JUMPDEST SWAP4 POP PUSH2 0x17C6 DUP2 DUP6 PUSH1 0x20 DUP7 ADD PUSH2 0x10C9 JUMP JUMPDEST DUP1 DUP5 ADD SWAP2 POP POP SWAP3 SWAP2 POP POP JUMP JUMPDEST PUSH0 PUSH2 0x17DD DUP3 DUP5 PUSH2 0x17A2 JUMP JUMPDEST SWAP2 POP DUP2 SWAP1 POP SWAP3 SWAP2 POP POP JUMP JUMPDEST PUSH32 0x506F6C6963793A2050617373656E676572204E616D653A200000000000000000 DUP2 MSTORE POP JUMP JUMPDEST PUSH0 DUP2 SWAP1 POP DUP2 PUSH0 MSTORE PUSH1 0x20 PUSH0 KECCAK256 SWAP1 POP SWAP2 SWAP1 POP JUMP JUMPDEST PUSH0 DUP2 SLOAD PUSH2 0x182C DUP2 PUSH2 0x1768 JUMP JUMPDEST PUSH2 0x1836 DUP2 DUP7 PUSH2 0x1798 JUMP JUMPDEST SWAP5 POP PUSH1 0x1 DUP3 AND PUSH0 DUP2 EQ PUSH2 0x1850 JUMPI PUSH1 0x1 DUP2 EQ PUSH2 0x1865 JUMPI PUSH2 0x1897 JUMP JUMPDEST PUSH1 0xFF NOT DUP4 AND DUP7 MSTORE DUP2 ISZERO ISZERO DUP3 MUL DUP7 ADD SWAP4 POP PUSH2 0x1897 JUMP JUMPDEST PUSH2 0x186E DUP6 PUSH2 0x180E JUMP JUMPDEST PUSH0 JUMPDEST DUP4 DUP2 LT ISZERO PUSH2 0x188F JUMPI DUP2 SLOAD DUP2 DUP10 ADD MSTORE PUSH1 0x1 DUP3 ADD SWAP2 POP PUSH1 0x20 DUP2 ADD SWAP1 POP PUSH2 0x1870 JUMP JUMPDEST DUP4 DUP9 ADD SWAP6 POP POP POP JUMPDEST POP POP POP SWAP3 SWAP2 POP POP JUMP JUMPDEST PUSH32 0x20466C69676874204E756D6265723A2000000000000000000000000000000000 DUP2 MSTORE POP JUMP JUMPDEST PUSH32 0x20466C6967687420646174653A20000000000000000000000000000000000000 DUP2 MSTORE POP JUMP JUMPDEST PUSH32 0x2044657061727475726520636974793A20000000000000000000000000000000 DUP2 MSTORE POP JUMP JUMPDEST PUSH32 0x2044657374696E6174696F6E20636974793A2000000000000000000000000000 DUP2 MSTORE POP JUMP JUMPDEST PUSH32 0x205374617475733A200000000000000000000000000000000000000000000000 DUP2 MSTORE POP JUMP JUMPDEST PUSH32 0xA00000000000000000000000000000000000000000000000000000000000000 DUP2 MSTORE POP JUMP JUMPDEST PUSH0 PUSH2 0x198F DUP3 DUP11 PUSH2 0x17A2 JUMP JUMPDEST SWAP2 POP PUSH2 0x199A DUP3 PUSH2 0x17E8 JUMP JUMPDEST PUSH1 0x18 DUP3 ADD SWAP2 POP PUSH2 0x19AA DUP3 DUP10 PUSH2 0x1820 JUMP JUMPDEST SWAP2 POP PUSH2 0x19B5 DUP3 PUSH2 0x18A0 JUMP JUMPDEST PUSH1 0x10 DUP3 ADD SWAP2 POP PUSH2 0x19C5 DUP3 DUP9 PUSH2 0x1820 JUMP JUMPDEST SWAP2 POP PUSH2 0x19D0 DUP3 PUSH2 0x18C6 JUMP JUMPDEST PUSH1 0xE DUP3 ADD SWAP2 POP PUSH2 0x19E0 DUP3 DUP8 PUSH2 0x1820 JUMP JUMPDEST SWAP2 POP PUSH2 0x19EB DUP3 PUSH2 0x18EC JUMP JUMPDEST PUSH1 0x11 DUP3 ADD SWAP2 POP PUSH2 0x19FB DUP3 DUP7 PUSH2 0x1820 JUMP JUMPDEST SWAP2 POP PUSH2 0x1A06 DUP3 PUSH2 0x1912 JUMP JUMPDEST PUSH1 0x13 DUP3 ADD SWAP2 POP PUSH2 0x1A16 DUP3 DUP6 PUSH2 0x1820 JUMP JUMPDEST SWAP2 POP PUSH2 0x1A21 DUP3 PUSH2 0x1938 JUMP JUMPDEST PUSH1 0x9 DUP3 ADD SWAP2 POP PUSH2 0x1A31 DUP3 DUP5 PUSH2 0x1820 JUMP JUMPDEST SWAP2 POP PUSH2 0x1A3C DUP3 PUSH2 0x195E JUMP JUMPDEST PUSH1 0x1 DUP3 ADD SWAP2 POP DUP2 SWAP1 POP SWAP9 SWAP8 POP POP POP POP POP POP POP POP JUMP JUMPDEST PUSH0 PUSH2 0x1A5C DUP4 DUP6 PUSH2 0x1798 JUMP JUMPDEST SWAP4 POP PUSH2 0x1A69 DUP4 DUP6 DUP5 PUSH2 0x13E1 JUMP JUMPDEST DUP3 DUP5 ADD SWAP1 POP SWAP4 SWAP3 POP POP POP JUMP JUMPDEST PUSH0 PUSH2 0x1A81 DUP3 DUP5 DUP7 PUSH2 0x1A51 JUMP JUMPDEST SWAP2 POP DUP2 SWAP1 POP SWAP4 SWAP3 POP POP POP JUMP JUMPDEST PUSH0 PUSH1 0x20 PUSH1 0x1F DUP4 ADD DIV SWAP1 POP SWAP2 SWAP1 POP JUMP JUMPDEST PUSH0 DUP3 DUP3 SHL SWAP1 POP SWAP3 SWAP2 POP POP JUMP JUMPDEST PUSH0 PUSH1 0x8 DUP4 MUL PUSH2 0x1AD7 PUSH32 0xFFFFFFFFFFFFFFFFFFFFFFFFFFFFFFFFFFFFFFFFFFFFFFFFFFFFFFFFFFFFFFFF DUP3 PUSH2 0x1A9C JUMP JUMPDEST PUSH2 0x1AE1 DUP7 DUP4 PUSH2 0x1A9C JUMP JUMPDEST SWAP6 POP DUP1 NOT DUP5 AND SWAP4 POP DUP1 DUP7 AND DUP5 OR SWAP3 POP POP POP SWAP4 SWAP3 POP POP POP JUMP JUMPDEST PUSH0 DUP2 SWAP1 POP SWAP2 SWAP1 POP JUMP JUMPDEST PUSH0 PUSH2 0x1B1C PUSH2 0x1B17 PUSH2 0x1B12 DUP5 PUSH2 0x1563 JUMP JUMPDEST PUSH2 0x1AF9 JUMP JUMPDEST PUSH2 0x1563 JUMP JUMPDEST SWAP1 POP SWAP2 SWAP1 POP JUMP JUMPDEST PUSH0 DUP2 SWAP1 POP SWAP2 SWAP1 POP JUMP JUMPDEST PUSH2 0x1B35 DUP4 PUSH2 0x1B02 JUMP JUMPDEST PUSH2 0x1B49 PUSH2 0x1B41 DUP3 PUSH2 0x1B23 JUMP JUMPDEST DUP5 DUP5 SLOAD PUSH2 0x1AA8 JUMP JUMPDEST DUP3 SSTORE POP POP POP POP JUMP JUMPDEST PUSH0 SWAP1 JUMP JUMPDEST PUSH2 0x1B5D PUSH2 0x1B51 JUMP JUMPDEST PUSH2 0x1B68 DUP2 DUP5 DUP5 PUSH2 0x1B2C JUMP JUMPDEST POP POP POP JUMP JUMPDEST JUMPDEST DUP2 DUP2 LT ISZERO PUSH2 0x1B8B JUMPI PUSH2 0x1B80 PUSH0 DUP3 PUSH2 0x1B55 JUMP JUMPDEST PUSH1 0x1 DUP2 ADD SWAP1 POP PUSH2 0x1B6E JUMP JUMPDEST POP POP JUMP JUMPDEST PUSH1 0x1F DUP3 GT ISZERO PUSH2 0x1BD0 JUMPI PUSH2 0x1BA1 DUP2 PUSH2 0x180E JUMP JUMPDEST PUSH2 0x1BAA DUP5 PUSH2 0x1A8D JUMP JUMPDEST DUP2 ADD PUSH1 0x20 DUP6 LT ISZERO PUSH2 0x1BB9 JUMPI DUP2 SWAP1 POP JUMPDEST PUSH2 0x1BCD PUSH2 0x1BC5 DUP6 PUSH2 0x1A8D JUMP JUMPDEST DUP4 ADD DUP3 PUSH2 0x1B6D JUMP JUMPDEST POP POP JUMPDEST POP POP POP JUMP JUMPDEST PUSH0 DUP3 DUP3 SHR SWAP1 POP SWAP3 SWAP2 POP POP JUMP JUMPDEST PUSH0 PUSH2 0x1BF0 PUSH0 NOT DUP5 PUSH1 0x8 MUL PUSH2 0x1BD5 JUMP JUMPDEST NOT DUP1 DUP4 AND SWAP2 POP POP SWAP3 SWAP2 POP POP JUMP JUMPDEST PUSH0 PUSH2 0x1C08 DUP4 DUP4 PUSH2 0x1BE1 JUMP JUMPDEST SWAP2 POP DUP3 PUSH1 0x2 MUL DUP3 OR SWAP1 POP SWAP3 SWAP2 POP POP JUMP JUMPDEST PUSH2 0x1C21 DUP3 PUSH2 0x10AF JUMP JUMPDEST PUSH8 0xFFFFFFFFFFFFFFFF DUP2 GT ISZERO PUSH2 0x1C3A JUMPI PUSH2 0x1C39 PUSH2 0x1339 JUMP JUMPDEST JUMPDEST PUSH2 0x1C44 DUP3 SLOAD PUSH2 0x1768 JUMP JUMPDEST PUSH2 0x1C4F DUP3 DUP3 DUP6 PUSH2 0x1B8F JUMP JUMPDEST PUSH0 PUSH1 0x20 SWAP1 POP PUSH1 0x1F DUP4 GT PUSH1 0x1 DUP2 EQ PUSH2 0x1C80 JUMPI PUSH0 DUP5 ISZERO PUSH2 0x1C6E JUMPI DUP3 DUP8 ADD MLOAD SWAP1 POP JUMPDEST PUSH2 0x1C78 DUP6 DUP3 PUSH2 0x1BFD JUMP JUMPDEST DUP7 SSTORE POP PUSH2 0x1CDF JUMP JUMPDEST PUSH1 0x1F NOT DUP5 AND PUSH2 0x1C8E DUP7 PUSH2 0x180E JUMP JUMPDEST PUSH0 JUMPDEST DUP3 DUP2 LT ISZERO PUSH2 0x1CB5 JUMPI DUP5 DUP10 ADD MLOAD DUP3 SSTORE PUSH1 0x1 DUP3 ADD SWAP2 POP PUSH1 0x20 DUP6 ADD SWAP5 POP PUSH1 0x20 DUP2 ADD SWAP1 POP PUSH2 0x1C90 JUMP JUMPDEST DUP7 DUP4 LT ISZERO PUSH2 0x1CD2 JUMPI DUP5 DUP10 ADD MLOAD PUSH2 0x1CCE PUSH1 0x1F DUP10 AND DUP3 PUSH2 0x1BE1 JUMP JUMPDEST DUP4 SSTORE POP JUMPDEST PUSH1 0x1 PUSH1 0x2 DUP9 MUL ADD DUP9 SSTORE POP POP POP JUMPDEST POP POP POP POP POP POP JUMP JUMPDEST PUSH0 DUP3 SWAP1 POP SWAP3 SWAP2 POP POP JUMP JUMPDEST PUSH2 0x1CFB DUP4 DUP4 PUSH2 0x1CE7 JUMP JUMPDEST PUSH8 0xFFFFFFFFFFFFFFFF DUP2 GT ISZERO PUSH2 0x1D14 JUMPI PUSH2 0x1D13 PUSH2 0x1339 JUMP JUMPDEST JUMPDEST PUSH2 0x1D1E DUP3 SLOAD PUSH2 0x1768 JUMP JUMPDEST PUSH2 0x1D29 DUP3 DUP3 DUP6 PUSH2 0x1B8F JUMP JUMPDEST PUSH0 PUSH1 0x1F DUP4 GT PUSH1 0x1 DUP2 EQ PUSH2 0x1D56 JUMPI PUSH0 DUP5 ISZERO PUSH2 0x1D44 JUMPI DUP3 DUP8 ADD CALLDATALOAD SWAP1 POP JUMPDEST PUSH2 0x1D4E DUP6 DUP3 PUSH2 0x1BFD JUMP JUMPDEST DUP7 SSTORE POP PUSH2 0x1DB5 JUMP JUMPDEST PUSH1 0x1F NOT DUP5 AND PUSH2 0x1D64 DUP7 PUSH2 0x180E JUMP JUMPDEST PUSH0 JUMPDEST DUP3 DUP2 LT ISZERO PUSH2 0x1D8B JUMPI DUP5 DUP10 ADD CALLDATALOAD DUP3 SSTORE PUSH1 0x1 DUP3 ADD SWAP2 POP PUSH1 0x20 DUP6 ADD SWAP5 POP PUSH1 0x20 DUP2 ADD SWAP1 POP PUSH2 0x1D66 JUMP JUMPDEST DUP7 DUP4 LT ISZERO PUSH2 0x1DA8 JUMPI DUP5 DUP10 ADD CALLDATALOAD PUSH2 0x1DA4 PUSH1 0x1F DUP10 AND DUP3 PUSH2 0x1BE1 JUMP JUMPDEST DUP4 SSTORE POP JUMPDEST PUSH1 0x1 PUSH1 0x2 DUP9 MUL ADD DUP9 SSTORE POP POP POP JUMPDEST POP POP POP POP POP POP POP JUMP JUMPDEST PUSH32 0x50617373656E676572204E616D653A2000000000000000000000000000000000 DUP2 MSTORE POP JUMP JUMPDEST PUSH32 0xA466C69676874204E756D6265723A2000000000000000000000000000000000 DUP2 MSTORE POP JUMP JUMPDEST PUSH32 0xA466C6967687420646174653A20000000000000000000000000000000000000 DUP2 MSTORE POP JUMP JUMPDEST PUSH32 0xA44657061727475726520636974793A20000000000000000000000000000000 DUP2 MSTORE POP JUMP JUMPDEST PUSH32 0xA44657374696E6174696F6E20636974793A2000000000000000000000000000 DUP2 MSTORE POP JUMP JUMPDEST PUSH32 0xA506F6C696379205374617475733A2000000000000000000000000000000000 DUP2 MSTORE POP JUMP JUMPDEST PUSH0 PUSH2 0x1EAC DUP3 PUSH2 0x1DBE JUMP JUMPDEST PUSH1 0x10 DUP3 ADD SWAP2 POP PUSH2 0x1EBC DUP3 DUP10 PUSH2 0x1820 JUMP JUMPDEST SWAP2 POP PUSH2 0x1EC7 DUP3 PUSH2 0x1DE4 JUMP JUMPDEST PUSH1 0x10 DUP3 ADD SWAP2 POP PUSH2 0x1ED7 DUP3 DUP9 PUSH2 0x1820 JUMP JUMPDEST SWAP2 POP PUSH2 0x1EE2 DUP3 PUSH2 0x1E0A JUMP JUMPDEST PUSH1 0xE DUP3 ADD SWAP2 POP PUSH2 0x1EF2 DUP3 DUP8 PUSH2 0x1820 JUMP JUMPDEST SWAP2 POP PUSH2 0x1EFD DUP3 PUSH2 0x1E30 JUMP JUMPDEST PUSH1 0x11 DUP3 ADD SWAP2 POP PUSH2 0x1F0D DUP3 DUP7 PUSH2 0x1820 JUMP JUMPDEST SWAP2 POP PUSH2 0x1F18 DUP3 PUSH2 0x1E56 JUMP JUMPDEST PUSH1 0x13 DUP3 ADD SWAP2 POP PUSH2 0x1F28 DUP3 DUP6 PUSH2 0x1820 JUMP JUMPDEST SWAP2 POP PUSH2 0x1F33 DUP3 PUSH2 0x1E7C JUMP JUMPDEST PUSH1 0x10 DUP3 ADD SWAP2 POP PUSH2 0x1F43 DUP3 DUP5 PUSH2 0x1820 JUMP JUMPDEST SWAP2 POP DUP2 SWAP1 POP SWAP8 SWAP7 POP POP POP POP POP POP POP JUMP INVALID POP PUSH19 0x656D69756D3A20302E3031204574686572200A BLOBHASH PUSH15 0x64656D6E6974793A20302E30322045 PUSH21 0x686572200A436F766572616765206973737565733A KECCAK256 PUSH9 0x61696C20616E642066 PUSH13 0x6F6F6473A26469706673582212 KECCAK256 0x22 GASLIMIT OR MLOAD 0xE4 0x4F 0x29 PUSH3 0xD7900F SWAP15 COINBASE MLOAD CODESIZE 0xC8 0xA6 SWAP3 0xDA NOT 0xB3 0xCC 0xCB DUP2 0xF6 PUSH5 0x3EEFE8816C 0xC4 PUSH5 0x736F6C6343 STOP ADDMOD BYTE STOP CALLER "
				},
				"gasEstimates": {
					"creation": {
						"codeDepositCost": "1629800",
						"executionCost": "infinite",
						"totalCost": "infinite"
					},
					"external": {
						"insurance_provider()": "2575",
						"name_array(uint256)": "infinite",
						"owner()": "2505",
						"pay_indemnity(string[])": "infinite",
						"policies(string)": "infinite",
						"purchase_policy(string,address,string,string,string,string)": "infinite",
						"verify()": "infinite",
						"view_all_policies()": "infinite",
						"view_available_policy()": "infinite",
						"view_balance(string)": "infinite",
						"view_purchased_policy(string)": "infinite"
					}
				},
				"methodIdentifiers": {
					"insurance_provider()": "50dd73be",
					"name_array(uint256)": "b698d6a1",
					"owner()": "8da5cb5b",
					"pay_indemnity(string[])": "cbe2e531",
					"policies(string)": "4a7ba3e5",
					"purchase_policy(string,address,string,string,string,string)": "35f7a712",
					"verify()": "fc735e99",
					"view_all_policies()": "1a65261c",
					"view_available_policy()": "fa0543d6",
					"view_balance(string)": "6873837d",
					"view_purchased_policy(string)": "f25797c6"
				}
			},
			"storageLayout": {
				"storage": [
					{
						"astId": 3,
						"contract": "Project3/PhaseIandII.sol:PhaseIandII",
						"label": "owner",
						"offset": 0,
						"slot": "0",
						"type": "t_address_payable"
					},
					{
						"astId": 5,
						"contract": "Project3/PhaseIandII.sol:PhaseIandII",
						"label": "insurance_provider",
						"offset": 0,
						"slot": "1",
						"type": "t_address_payable"
					},
					{
						"astId": 23,
						"contract": "Project3/PhaseIandII.sol:PhaseIandII",
						"label": "name_array",
						"offset": 0,
						"slot": "2",
						"type": "t_array(t_string_storage)dyn_storage"
					},
					{
						"astId": 28,
						"contract": "Project3/PhaseIandII.sol:PhaseIandII",
						"label": "policies",
						"offset": 0,
						"slot": "3",
						"type": "t_mapping(t_string_memory_ptr,t_struct(Policy)20_storage)"
					}
				],
				"types": {
					"t_address_payable": {
						"encoding": "inplace",
						"label": "address payable",
						"numberOfBytes": "20"
					},
					"t_array(t_string_storage)dyn_storage": {
						"base": "t_string_storage",
						"encoding": "dynamic_array",
						"label": "string[]",
						"numberOfBytes": "32"
					},
					"t_mapping(t_string_memory_ptr,t_struct(Policy)20_storage)": {
						"encoding": "mapping",
						"key": "t_string_memory_ptr",
						"label": "mapping(string => struct PhaseIandII.Policy)",
						"numberOfBytes": "32",
						"value": "t_struct(Policy)20_storage"
					},
					"t_string_memory_ptr": {
						"encoding": "bytes",
						"label": "string",
						"numberOfBytes": "32"
					},
					"t_string_storage": {
						"encoding": "bytes",
						"label": "string",
						"numberOfBytes": "32"
					},
					"t_struct(Policy)20_storage": {
						"encoding": "inplace",
						"label": "struct PhaseIandII.Policy",
						"members": [
							{
								"astId": 7,
								"contract": "Project3/PhaseIandII.sol:PhaseIandII",
								"label": "name",
								"offset": 0,
								"slot": "0",
								"type": "t_string_storage"
							},
							{
								"astId": 9,
								"contract": "Project3/PhaseIandII.sol:PhaseIandII",
								"label": "passenger_address",
								"offset": 0,
								"slot": "1",
								"type": "t_address_payable"
							},
							{
								"astId": 11,
								"contract": "Project3/PhaseIandII.sol:PhaseIandII",
								"label": "flight_number",
								"offset": 0,
								"slot": "2",
								"type": "t_string_storage"
							},
							{
								"astId": 13,
								"contract": "Project3/PhaseIandII.sol:PhaseIandII",
								"label": "flight_date",
								"offset": 0,
								"slot": "3",
								"type": "t_string_storage"
							},
							{
								"astId": 15,
								"contract": "Project3/PhaseIandII.sol:PhaseIandII",
								"label": "departure_city",
								"offset": 0,
								"slot": "4",
								"type": "t_string_storage"
							},
							{
								"astId": 17,
								"contract": "Project3/PhaseIandII.sol:PhaseIandII",
								"label": "destination_city",
								"offset": 0,
								"slot": "5",
								"type": "t_string_storage"
							},
							{
								"astId": 19,
								"contract": "Project3/PhaseIandII.sol:PhaseIandII",
								"label": "policy_status",
								"offset": 0,
								"slot": "6",
								"type": "t_string_storage"
							}
						],
						"numberOfBytes": "224"
					}
				}
			},
			"userdoc": {
				"kind": "user",
				"methods": {},
				"version": 1
			}
		}
	}
}